:100000000C945E000C9486000C9486000C94860080
:100010000C9486000C9486000C9486000C94860048
:100020000C9486000C9486000C9486000C9452016B
:100030000C9486000C9486000C9486000C94860028
:100040000C94A6060C9486000C9431050C94630560
:100050000C9486000C9486000C9486000C94860008
:100060000C9486000C948600000000080002010039
:100070000003040700000000000000000102040863
:100080001020408001020408102001020408102002
:10009000040404040404040402020202020203032E
:1000A0000303030300000000250028002B000000CC
:1000B0000000240027002A00A900930511241FBE78
:1000C000CFEFD8E0DEBFCDBF11E0A0E0B1E0ECE6BD
:1000D000FFE002C005900D92AE31B107D9F721E0E3
:1000E000AEE1B1E001C01D92A03FB207E1F710E020
:1000F000CCEBD0E004C02297FE010E94A107C83BD0
:10010000D107C9F70E9497060C94B4070C9400001D
:1001100061E082E00E947D0360E082E00E94B6031D
:1001200026E040E855E260E070E08AE491E00E9459
:10013000CF0460910A0170910B018EE191E00E9461
:10014000A80260910C0170910D018EE191E00C9478
:10015000A8028EE191E00E940E0281E291E00C94EF
:100160000E020F931F93CF93DF9300D000D0CDB733
:10017000DEB78AE491E00E94EC03181619060CF031
:1001800088C08AE491E00E9405048031910509F459
:100190006BC0ACF48E30910509F453C00F9749F74A
:1001A0008AE491E00E9405049C01220F331F280F6E
:1001B000391FC901825E9E4F0E94AE02DACF8A3A91
:1001C000910539F18B3A9105A1F643E050E0BE016B
:1001D0006F5F7F4F8AE491E00E942C068A819981AB
:1001E000890F9B81890F8F778C8361E082E00E9469
:1001F000B603E0914A01F0914B010280F381E02DBA
:1002000044E050E0BE016F5F7F4F8AE491E00995C2
:100210000FC061E082E00E94B603E0914A01F091D4
:100220004B010190F081E02D6AEA8AE491E00995A2
:100230008AE491E00E94480460E082E00E94B603F4
:1002400098CF8AE491E00E9405049C01220F331F9D
:10025000F901E65FFE4F60817181820F931F825E1C
:100260009E4F0E94A80285CF8AE491E00E94050477
:100270008C018AE491E00E9405049801220F331F4B
:10028000200F311FBC01C901825E9E4F0E94EF0208
:1002900070CF0F900F900F900F90DF91CF911F9123
:1002A0000F9108951F920F920FB60F9211242F9362
:1002B0003F934F935F936F937F938F939F93AF93EE
:1002C000BF93EF93FF938091250187FF05C01092A4
:1002D0008500109284001AC020912501332727FD44
:1002E00030958091240190E0281739077CF48091A3
:1002F0002501992787FD9095FC01EE0FFF1FE80F60
:10030000F91FEA5DFE4F808186FD15C080912501B1
:100310008F5F8093250120912501332727FD30959C
:100320008091240190E028173907BCF480912501C1
:100330008C305CF112C080912501992787FD909542
:10034000FC01EE0FFF1FE80FF91FEA5DFE4F8081F1
:1003500060E08F730E94B603D9CF809184009091A2
:100360008500049680349C4918F480E49CE905C01B
:1003700080918400909185000496909389008093E9
:1003800088008FEF8093250138C020918400309140
:10039000850080912501992787FD9095FC01EE0F3E
:1003A000FF1FE80FF91FEA5DFE4F81819281820FE6
:1003B000931F90938900809388008091250199274D
:1003C00087FD9095FC01EE0FFF1FE80FF91FEA5D16
:1003D000FE4F808186FF11C080912501992787FDFE
:1003E0009095FC01EE0FFF1FE80FF91FEA5DFE4F2D
:1003F000808161E08F730E94B603FF91EF91BF91FE
:10040000AF919F918F917F916F915F914F913F91AC
:100410002F910F900FBE0F901F90189520912401DF
:100420002C30A0F431E0320F30932401FC01208302
:10043000822F90E0FC01EE0FFF1FE80FF91FEA5D2D
:10044000FE4F88EB9BE09283818308952FEFFC01A0
:1004500020830895DF92EF92FF920F931F93CF9323
:10046000DF93EC01D62E7A01890188818C3008F067
:1004700066C061E08D2D0E947D038881A82FB0E0C9
:10048000FD01EE0FFF1FEA0FFB1FEA5DFE4F2D2D52
:100490002F739081907C922B908360E272E06E19B2
:1004A0007F0977FF02C06D5F7F4F759567957595E2
:1004B0006795698340E659E0401B510B57FF02C026
:1004C0004D5F5F4F55954795559547954A836CE02D
:1004D0000E9447079CE0899FB001112420E030E092
:1004E000A901460F571FFA01EE0FFF1FE40FF51F7A
:1004F000EA5DFE4F908196FD16C02F5F3F4F2C3076
:10050000310571F781110FC01092800082E0809355
:1005100081001092850010928400B19A80916F0042
:10052000826080936F00888190E0FC01EE0FFF1FD6
:10053000E80FF91FEA5DFE4F808180648083888127
:10054000DF91CF911F910F91FF90EF90DF90089571
:1005500020E639E040E252E00C942A02FC0180815E
:1005600090E0FC01EE0FFF1FE80FF91FEA5DFE4F60
:1005700080818F7B80830895FC0180818C3070F5B1
:10058000918128E830E0291B310997FD3395220F2E
:10059000331F220F331F621773077CF0928128E507
:1005A00032E0291B310997FD3395220F331F220FAB
:1005B000331F621773070CF49B0122503109220F7D
:1005C000331F4FB7F89490E0FC01EE0FFF1FE80FC8
:1005D000F91FEA5DFE4F328321834FBF08954F928A
:1005E0005F926F927F92AF92BF92CF92DF92EF9223
:1005F000FF920F931F93CF93DF93EC01603282E061
:1006000078070CF040C077FD06C0653B71052CF003
:1006100064EB70E002C060E070E0898128E830E0BF
:10062000281B310987FD3395220F331F220F331FFB
:100630005901CC24B7FCC094DC2C882777FD809529
:10064000982F2A8148E552E0421B510927FD539516
:10065000440F551F440F551F2A01662457FC609410
:10066000762C7F926F925F924F9214EBE12EF12CD9
:1006700000E010E020E030E0A9010E944F060F905A
:100680000F900F900F90CE01DF91CF911F910F919E
:10069000FF90EF90DF90CF90BF90AF907F906F90E2
:1006A0005F904F900C94BC02833081F028F481302D
:1006B00099F08230A1F008958730A9F08830B9F020
:1006C0008430D1F4809180008F7D03C080918000C0
:1006D0008F7780938000089584B58F7702C084B5AA
:1006E0008F7D84BD08958091B0008F7703C0809185
:1006F000B0008F7D8093B0000895CF93DF9390E09A
:10070000FC01E458FF4F2491FC01E057FF4F849116
:10071000882349F190E0880F991FFC01E255FF4FB3
:10072000A591B4918C559F4FFC01C591D4919FB771
:10073000611108C0F8948C91209582238C93888154
:1007400082230AC0623051F4F8948C91322F309594
:1007500083238C938881822B888304C0F8948C91A6
:10076000822B8C939FBFDF91CF9108950F931F939E
:10077000CF93DF931F92CDB7DEB7282F30E0F9017A
:10078000E859FF4F8491F901E458FF4F1491F901A2
:10079000E057FF4F04910023C9F0882321F06983BB
:1007A0000E9454036981E02FF0E0EE0FFF1FEC552B
:1007B000FF4FA591B4919FB7F8948C91611103C03C
:1007C0001095812301C0812B8C939FBF0F90DF91E7
:1007D000CF911F910F910895FC01818D228D90E0A2
:1007E000805C9F4F821B91098F7399270895FC01AC
:1007F000918D828D981731F0828DE80FF11D858DD6
:1008000090E008958FEF9FEF0895FC01918D828D08
:10081000981761F0828DDF01A80FB11D5D968C9154
:10082000928D9F5F9F73928F90E008958FEF9FEF5F
:10083000089589E895E0892B49F080E090E0892BC4
:1008400029F00E94890581110C9400000895FC0193
:10085000848DDF01A80FB11DA35ABF4F2C91848D49
:1008600090E001968F739927848FA689B7892C937E
:10087000A089B1898C9180648C93938D848D981319
:1008800006C00288F389E02D80818F7D80830895E2
:10089000CF93DF93EC01888D8823C9F0EA89FB8927
:1008A000808185FD05C0A889B9898C9186FD0FC01E
:1008B0000FB607FCF5CF808185FFF2CFA889B989F3
:1008C0008C9185FFEDCFCE010E942704E7CFDF9109
:1008D000CF910895CF92DF92FF920F931F93CF9302
:1008E000DF931F92CDB7DEB76C0181E0D601589639
:1008F0008C9358975B969C915B975C968C915C97D8
:10090000981307C05096ED91FC915197808185FD19
:100910002EC0F601038D10E00F5F1F4F0F731127DC
:10092000F02EF601848DF81211C00FB607FCF9CF36
:10093000D6015096ED91FC915197808185FFF1CFC2
:10094000C60169830E9427046981EBCF838DE80F7C
:10095000F11DE35AFF4F6083D6015B960C935B97C2
:100960005296ED91FC915397808180620CC0D60124
:100970005696ED91FC91579760835096ED91FC91BE
:10098000519780818064808381E090E00F90DF91B7
:10099000CF911F910F91FF90DF90CF900895BF925C
:1009A000CF92DF92EF92FF92CF93DF93EC016A0137
:1009B0007B01B22EE889F98982E08083411581EEBE
:1009C000580761057105A1F060E079E08DE390E0E2
:1009D000A70196010E94530721503109410951098D
:1009E0005695479537952795211580E1380798F05A
:1009F000E889F989108260E874E88EE190E0A70147
:100A000096010E9453072150310941095109569519
:100A1000479537952795EC85FD853083EE85FF85D5
:100A20002083188EEC89FD89B082EA89FB89808158
:100A300080618083EA89FB89808188608083EA897C
:100A4000FB89808180688083EA89FB8980818F7D32
:100A50008083DF91CF91FF90EF90DF90CF90BF9098
:100A600008951F920F920FB60F9211242F938F9318
:100A70009F93EF93FF93E0915A01F0915B01808186
:100A8000E0916001F091610182FD12C0908180913E
:100A900063018F5F8F7320916401821751F0E091A1
:100AA0006301F0E0E65BFE4F958F8093630101C028
:100AB0008081FF91EF919F918F912F910F900FBEA9
:100AC0000F901F9018951F920F920FB60F9211243E
:100AD0002F933F934F935F936F937F938F939F9346
:100AE000AF93BF93EF93FF938AE491E00E942704B2
:100AF000FF91EF91BF91AF919F918F917F916F91F6
:100B00005F914F913F912F910F900FBE0F901F90CB
:100B100018958AE491E00E94EC0321E0892B09F406
:100B200020E0822F089510924D0110924C0188EE22
:100B300093E0A0E0B0E080934E0190934F01A0932A
:100B40005001B093510182E191E090934B01809369
:100B50004A0185EC90E0909357018093560184EC14
:100B600090E0909359018093580180EC90E090932D
:100B70005B0180935A0181EC90E090935D0180933A
:100B80005C0182EC90E090935F0180935E0186ECC3
:100B900090E0909361018093600110926301109244
:100BA000640110926501109266010895CF92DF9260
:100BB000EF92FF920F931F93CF93DF937C016A0113
:100BC000EB0100E010E00C151D0571F06991D701F3
:100BD000ED91FC910190F081E02DC7010995892BE1
:100BE00019F00F5F1F4FEFCFC801DF91CF911F9119
:100BF0000F91FF90EF90DF90CF9008950F931F9388
:100C0000CF93DF93EC010E94F006688779878A878B
:100C10009B87E881F9810680F781E02DCE01099557
:100C200097FF15C00E94F006088519852A853B8527
:100C3000601B710B820B930B0C811D812E813F81F8
:100C4000601771078207930720F38FEF9FEFDF9103
:100C5000CF911F910F910895CF92DF92EF92FF9263
:100C60000F931F93CF93DF937C016A01EB0100E0A8
:100C700010E00C151D0549F0C7010E94FE0597FD07
:100C800004C089930F5F1F4FF4CFC801DF91CF914C
:100C90001F910F91FF90EF90DF90CF9008954F92AA
:100CA0005F926F927F92AF92BF92CF92DF92EF925C
:100CB000FF920F931F93CF93DF93CDB7DEB7290138
:100CC0003A01621B730B840B950B29893A894B8976
:100CD0005C892A193B094C095D09298B3A8B4B8B9E
:100CE0005C8B9B01AC0169897A898B899C890E9404
:100CF0003707E418F50806091709A80197010E94AB
:100D000075072A0D3B1D4C1D5D1DCA01B901DF9100
:100D1000CF911F910F91FF90EF90DF90CF90BF90F8
:100D2000AF907F906F905F904F90089508950E94CC
:100D3000FC060E9496060E948800C9E1D4E00E9449
:100D4000B1002097E1F30E941904F9CF1F920F928E
:100D50000FB60F9211242F933F938F939F93AF93CE
:100D6000BF938091E8019091E901A091EA01B091CF
:100D7000EB013091E70123E0230F2D3720F401969A
:100D8000A11DB11D05C026E8230F0296A11DB11DAE
:100D90002093E7018093E8019093E901A093EA0191
:100DA000B093EB018091EC019091ED01A091EE01E7
:100DB000B091EF010196A11DB11D8093EC019093BC
:100DC000ED01A093EE01B093EF01BF91AF919F9120
:100DD0008F913F912F910F900FBE0F901F901895FC
:100DE0002FB7F8946091E8017091E9018091EA01D0
:100DF0009091EB012FBF0895789484B5826084BDF3
:100E000084B5816084BD85B5826085BD85B581600E
:100E100085BDEEE6F0E0808181608083E1E8F0E06E
:100E20001082808182608083808181608083E0E89D
:100E3000F0E0808181608083E1EBF0E0808184607C
:100E40008083E0EBF0E0808181608083EAE7F0E07E
:100E500080818460808380818260808380818160E2
:100E600080838081806880831092C1000895DB01B7
:100E70008F939F930E949407BF91AF91A29F800D83
:100E8000911DA39F900DB29F900D11240895991B61
:100E900079E004C0991F961708F0961B881F7A9571
:100EA000C9F780950895A1E21A2EAA1BBB1BFD016C
:100EB0000DC0AA1FBB1FEE1FFF1FA217B307E40739
:100EC000F50720F0A21BB30BE40BF50B661F771F91
:100ED000881F991F1A9469F7609570958095909571
:100EE0009B01AC01BD01CF010895052E97FB1EF4B7
:100EF00000940E948C0757FD07D00E94530707FCFF
:100F000003D04EF40C948C07509540953095219564
:100F10003F4F4F4F5F4F0895909580957095619525
:100F20007F4F8F4F9F4F08950E94A507A59F900D5B
:100F3000B49F900DA49F800D911D11240895EE0F74
:100F4000FF1F0590F491E02D0994A29FB001B39F7B
:100F5000C001A39F700D811D1124911DB29F700DC2
:0C0F6000811D1124911D0895F894FFCF0D
:100F6C000000F00180000100000009000A000000F0
:0E0F7C0000006A04D605EC030504F7034804E0
:107E0000112484B714BE81FFF0D085E080938100F7
:107E100082E08093C00088E18093C10086E0809377
:107E2000C20080E18093C4008EE0C9D0259A86E02C
:107E300020E33CEF91E0309385002093840096BBD3
:107E4000B09BFECF1D9AA8958150A9F7CC24DD24C4
:107E500088248394B5E0AB2EA1E19A2EF3E0BF2EE7
:107E6000A2D0813461F49FD0082FAFD0023811F036
:107E7000013811F484E001C083E08DD089C08234E0
:107E800011F484E103C0853419F485E0A6D080C0E4
:107E9000853579F488D0E82EFF2485D0082F10E0AE
:107EA000102F00270E291F29000F111F8ED06801E7
:107EB0006FC0863521F484E090D080E0DECF843638
:107EC00009F040C070D06FD0082F6DD080E0C81688
:107ED00080E7D80618F4F601B7BEE895C0E0D1E017
:107EE00062D089930C17E1F7F0E0CF16F0E7DF06D8
:107EF00018F0F601B7BEE89568D007B600FCFDCFD4
:107F0000A601A0E0B1E02C9130E011968C91119780
:107F100090E0982F8827822B932B1296FA010C0160
:107F200087BEE89511244E5F5F4FF1E0A038BF0790
:107F300051F7F601A7BEE89507B600FCFDCF97BE46
:107F4000E89526C08437B1F42ED02DD0F82E2BD052
:107F50003CD0F601EF2C8F010F5F1F4F84911BD097
:107F6000EA94F801C1F70894C11CD11CFA94CF0C13
:107F7000D11C0EC0853739F428D08EE10CD085E9AC
:107F80000AD08FE07ACF813511F488E018D01DD067
:107F900080E101D065CF982F8091C00085FFFCCF94
:107FA0009093C60008958091C00087FFFCCF809118
:107FB000C00084FD01C0A8958091C6000895E0E648
:107FC000F0E098E1908380830895EDDF803219F02E
:107FD00088E0F5DFFFCF84E1DECF1F93182FE3DFCA
:107FE0001150E9F7F2DF1F91089580E0E8DFEE27F6
:047FF000FF270994CA
:027FFE00040479
:0400000300007E007B
:00000001FF
