:100000000C9465000C948D000C948D000C948D0064
:100010000C948D000C948D000C948D000C94950321
:100020000C948D000C948D000C948D000C94BC03EA
:100030000C948D000C948D000C948D000C948D000C
:100040000C94600B0C948D000C94190E0C944B0EB8
:100050000C948D000C948D000C948D000C948D00EC
:100060000C94D2070C948D000000000800020100DF
:100070000003040700000000000000000102040863
:100080001020408001020408102001020408102002
:10009000040404040404040402020202020203032E
:1000A00003030303000000002300260029000000D2
:1000B0000000250028002B0000000000240027007D
:1000C0002A003E023603E8067B0E11241FBECFEF46
:1000D000D8E0DEBFCDBF11E0A0E0B1E0EEE2F8E293
:1000E00002C005900D92A43FB107D9F723E0A4EF19
:1000F000B1E001C01D92AB3CB207E1F710E0CAECE1
:10010000D0E004C02297FE010E940214C23CD10735
:10011000C9F70E9441110C9415140C940000CF9261
:10012000DF92EF92FF926B017C0161E08DE00E9413
:100130009E0CF694E794D794C794C701B6010E9429
:10014000D90B60E08DE00E949E0CC701B601FF90C4
:10015000EF90DF90CF900C94D90B68EE73E080E0C5
:1001600090E00C948F004F925F926F927F92AF92CB
:10017000BF92CF92DF92EF92FF920F931F93CF9394
:10018000DF9365E571E08EE293E00E94FC0E6091E2
:10019000F8017091F9014AE050E08EE293E00E948C
:1001A000BE0FC8EED3E083E292E00E94290AA0903D
:1001B0002502B09026020091F8011091F901B501D5
:1001C000601B710B882777FD8095982F0E94551230
:1001D0006B017C014090F4015090F5016090F601B4
:1001E0007090F701A30192010E94051318164CF4B8
:1001F000C092F401D092F501E092F601F092F7017D
:100200001DC0A30192015058C701B6010E94B6114A
:1002100087FF14C0662777276A197B09601B710B5B
:10022000882777FD8095982F0E9455126093F401DE
:100230007093F5018093F6019093F701219709F0EF
:10024000B2CF20E030E048EC52E46091F4017091CC
:10025000F5018091F6019091F7010E94BA11609327
:10026000F4017093F5018093F6019093F70161E634
:1002700071E08EE293E00E94FC0E4091F4015091F7
:10028000F5016091F6017091F70124E030E08EE213
:1002900093E0DF91CF911F910F91FF90EF90DF904E
:1002A000CF90BF90AF907F906F905F904F900C94E5
:1002B000E7102F923F924F925F926F927F928F92B0
:1002C0009F92AF92BF92CF92DF92EF92FF920F93E5
:1002D0001F93CF93DF93CDB7DEB72B970FB6F8946C
:1002E000DEBF0FBECDBF69837A838B839C834D8332
:1002F000442321F0C12CD12C760106C0C12CD12C75
:10030000F4EBEF2EF3E4FF2E212C312C04E610E069
:100310003D81332309F48EC029813A814B815C8170
:10032000C701B6010E94B61187FF8FC00E94AA0BB9
:100330002E813F8148855985621B730B840B950B79
:100340006B3071058105910518F30E94AA0B6E832D
:100350007F838887998783E292E00E94290A8091AF
:100360002502909126022091F8013091F901821B1B
:10037000930BB8010E94A0137B876A87882777FDBB
:100380008095982F0E9455124B015C014090F4011A
:100390005090F5016090F6017090F701A301920171
:1003A0000E94051387FF09C0A30192015058C5019F
:1003B000B4010E94B6111816F4F06A857B85620DAF
:1003C000731D882777FD8095982F0E94551220E095
:1003D00030E040E251E40E94091320E030E04AEFAF
:1003E00054E40E94BA119B01AC01C701B6010E94FE
:1003F00052116B017C016FE671E08EE293E00E9486
:10040000FC0E22E030E0B701A6018EE293E00E94EC
:10041000E51067E771E08EE293E00E94FC0E4AE08F
:1004200050E06A857B858EE293E00E94BE0F2A84AD
:100430003B846ECF29813A814B815C81C701B60133
:100440000E94051318160CF471CF2B960FB6F89472
:10045000DEBF0FBECDBFDF91CF911F910F91FF90F7
:10046000EF90DF90CF90BF90AF909F908F907F9054
:100470006F905F904F903F902F90089583E392E0AC
:100480000E94780480E392E00E94780483E292E084
:100490000E94DF0941E050E060E070E08EE192E010
:1004A0000E94570924EF31E043E06BE08CE092E0DA
:1004B0000E943E0324EF31E049E06AE08AEF91E0D8
:1004C0000C943E0361E08EE00E949E0CE0912E03AE
:1004D000F0912F030190F081E02D6AEA8EE293E023
:1004E00009958EE293E00E94300D60E08EE00C945E
:1004F0009E0CCF93DF9300D000D0CDB7DEB790E84D
:1005000099838A836B83860F8F778C8361E08EE07B
:100510000E949E0CE0912E03F0912F030280F38144
:10052000E02D44E050E0BE016F5F7F4F8EE293E02C
:1005300009958EE293E00E94300D60E08EE00E940B
:100540009E0C0F900F900F900F90DF91CF91089518
:1005500064EF71E080E090E00E948F0064EF71E052
:1005600080E090E00E948F0068E08AE00E947902BB
:1005700041E060E070E084EB92E40E94590160E0A9
:100580008AE00C94790261E08EE00E94650C60E0E4
:100590008EE00E949E0C26E040E855E260E070E0AC
:1005A0008EE293E00E94B70D0E94620265E070E067
:1005B00083E392E00E9412056CE870E083E392E02E
:1005C0000E94590566E070E080E392E00E94120507
:1005D0006CE170E080E392E00E94590561E08DE0FB
:1005E0000E94650C6FE771E08EE293E00E94FC0EC2
:1005F0008EE192E00E947F09811106C06AE971E0F4
:100600008EE293E00E94FC0E6DEB71E08EE293E0CF
:100610000E94090F6FE971E08EE293E00E94FC0EE8
:1006200042E050E063E070E083E292E00E94D30A8F
:10063000811106C067EB71E08EE293E00E94FC0E30
:100640006CEB71E08EE293E00E94090F83E292E08E
:100650000E94110A0E94B3000E94A80280E392E067
:100660000E94180583E392E00C9418058FEF8093A5
:10067000360210923802109237020895CF93DF931A
:10068000DC0170E0FB01E458FF4FE4911496EC9319
:100690001497842F90E0FC01E458FF4FE4911596E5
:1006A000EC93159760577F4FFB01C491D0E0CC0FBE
:1006B000DD1FC255DF4FFE014591549117965C93A3
:1006C0004E931697FC01E057FF4F849190E0880FFE
:1006D000991F8C559F4FFC014591549119965C933D
:1006E0004E931897FB016491E62FF0E0EE0FFF1F89
:1006F000E854FF4F859194911B969C938E931A9783
:100700002F5F3F4F49E3429FC001439F900D11244B
:100710008E38FFE69F0710F08DE89FE61D969C93AC
:100720008E931C97DF91CF9108951F920F920FB671
:100730000F9211242F933F934F935F936F937F9367
:100740008F939F93AF93BF93EF93FF93E0913D02FD
:10075000F0913E020995FF91EF91BF91AF919F916A
:100760008F917F916F915F914F913F912F910F905A
:100770000FBE0F901F9018951F920F920FB60F92F9
:1007800011242F933F934F935F936F937F938F9396
:100790009F93AF93BF93EF93FF938091400287FFA6
:1007A00005C010928500109284001AC0209140026A
:1007B000332727FD309580913F0290E028173907B5
:1007C0007CF480914002992787FD9095FC01EE0F03
:1007D000FF1FE80FF91FEF5BFD4F808186FD15C0FD
:1007E000809140028F5F8093400220914002332726
:1007F00027FD309580913F0290E028173907BCF41F
:10080000809140028C305CF112C0809140029927A7
:1008100087FD9095FC01EE0FFF1FE80FF91FEF5BBE
:10082000FD4F808160E08F730E949E0CD9CF809134
:10083000840090918500049680349C4918F480E4EB
:100840009CE905C080918400909185000496909366
:100850008900809388008FEF8093400238C02091F8
:1008600084003091850080914002992787FD909502
:10087000FC01EE0FFF1FE80FF91FEF5BFD4F8181B9
:100880009281820F931F90938900809388008091BA
:100890004002992787FD9095FC01EE0FFF1FE80F9E
:1008A000F91FEF5BFD4F808186FF11C080914002F0
:1008B000992787FD9095FC01EE0FFF1FE80FF91FA8
:1008C000EF5BFD4F808161E08F730E949E0CFF9172
:1008D000EF91BF91AF919F918F917F916F915F91B8
:1008E0004F913F912F910F900FBE0F901F90189531
:1008F00020913F022C30A0F431E0320F30933F02C0
:10090000FC012083822F90E0FC01EE0FFF1FE80F17
:10091000F91FEF5BFD4F88EB9BE092838183089585
:100920002FEFFC0120830895DF92EF92FF920F9347
:100930001F93CF93DF93EC01D62E7A018901888132
:100940008C3008F066C061E08D2D0E94650C8881B6
:10095000A82FB0E0FD01EE0FFF1FEA0FFB1FEF5BBA
:10096000FD4F2D2D2F739081907C922B908360E210
:1009700072E06E197F0977FF02C06D5F7F4F75953A
:10098000679575956795698340E659E0401B510B63
:1009900057FF02C04D5F5F4F559547955595479559
:1009A0004A836CE00E9480139CE0899FB00111246F
:1009B00020E030E0A901460F571FFA01EE0FFF1F9C
:1009C000E40FF51FEF5BFD4F908196FD16C02F5F82
:1009D0003F4F2C30310571F781110FC0109280000C
:1009E00082E0809381001092850010928400B19A79
:1009F00080916F00826080936F00888190E0FC019D
:100A0000EE0FFF1FE80FF91FEF5BFD4F8081806441
:100A100080838881DF91CF911F910F91FF90EF909C
:100A2000DF90089520E639E040E252E00C9494040F
:100A3000FC01808190E0FC01EE0FFF1FE80FF91F21
:100A4000EF5BFD4F80818F7B80830895FC01808167
:100A50008C3070F5918128E830E0291B310997FD31
:100A60003395220F331F220F331F621773077CF059
:100A7000928128E532E0291B310997FD3395220F39
:100A8000331F220F331F621773070CF49B01225090
:100A90003109220F331F4FB7F89490E0FC01EE0F9D
:100AA000FF1FE80FF91FEF5BFD4F328321834FBF1C
:100AB00008954F925F926F927F92AF92BF92CF92C2
:100AC000DF92EF92FF920F931F93CF93DF93EC018E
:100AD000603282E078070CF040C077FD06C0653BCD
:100AE00071052CF064EB70E002C060E070E0898179
:100AF00028E830E0281B310987FD3395220F331F8A
:100B0000220F331F5901CC24B7FCC094DC2C88275A
:100B100077FD8095982F2A8148E552E0421B5109C4
:100B200027FD5395440F551F440F551F2A01662476
:100B300057FC6094762C7F926F925F924F9214EBE9
:100B4000E12EF12C00E010E020E030E0A9010E944D
:100B5000F9100F900F900F900F90CE01DF91CF9171
:100B60001F910F91FF90EF90DF90CF90BF90AF90CB
:100B70007F906F905F904F900C9426058091950226
:100B800090E020919602821B91090895209196028F
:100B900080919502281750F4E22FF0E0E956FD4FBE
:100BA000808190E02F5F2093960208958FEF9FEF52
:100BB0000895E091960280919502E81730F4F0E0F4
:100BC000E956FD4F808190E008958FEF9FEF0895E3
:100BD0000895CF92DF92EF92FF920F931F93CF93DE
:100BE000DF937C01CB018A0120917102222389F0DD
:100BF000EB016B01C40ED51ECC15DD0569F06991C2
:100C0000D701ED91FC910190F081E02DC70109958C
:100C1000F3CF642F0E94A907C801DF91CF911F91E4
:100C20000F91FF90EF90DF90CF900895CF93DF93D7
:100C30001F92CDB7DEB76983209171022223D1F0D4
:100C400020917202203240F021E030E0FC01338339
:100C5000228380E090E015C080917302E82FF0E0DD
:100C6000EC58FD4F998190838F5F8093730280933E
:100C7000720205C061E0CE0101960E94A90781E0E1
:100C800090E00F90DF91CF910895FC0113821282C2
:100C900048EE53E060E070E04483558366837783D9
:100CA00087EC91E0918380830895109296021092D0
:100CB000950210927302109272020C94EC0681E07D
:100CC00080937102609394021092730210927202E8
:100CD00008950C945F060F93062F21E04091720255
:100CE00064E772E0809194020E94520710927302AE
:100CF00010927202109271020F9108958F929F923A
:100D0000AF92BF92CF92DF92EF92FF920F931F9319
:100D1000CF93DF93EC01F62ED42E48015901EE203B
:100D200019F10E945F061E2D143008F013E01150D7
:100D3000B8F0E881F98128E0129FB0011124A501E3
:100D4000940104C056954795379527956A95D2F733
:100D5000CA01B9010190F081E02DCE010995E7CFDC
:100D600060E0CE010E946B064D2D413208F040E25A
:100D70002C2D67E972E08F2D0E940A0710929602CF
:100D800080939502DF91CF911F910F91FF90EF908B
:100D9000DF90CF90BF90AF909F908F900895CF92AB
:100DA000EF920F931F93C22EE12C00E010E0980108
:100DB0000E947E061F910F91EF90CF90089521E041
:100DC0000C94CF0621E00C94CF0661E00C946B06E6
:100DD00085E692E00C9445061092240381E080930E
:100DE00022031092210361E082E10E949E0C61E0E7
:100DF00083E10E949E0CE9EBF0E080818E7F80838E
:100E000080818D7F808388E48093B80085E480931F
:100E1000BC000895413208F043C090912403911121
:100E2000FCCF91E090932403209322032FEF209393
:100E3000B7021092FC02240F2093FB02909323032D
:100E400090912303880F892B8093230380912103A2
:100E5000813061F410922103809123038093BB00C1
:100E60008091BC0083FDF8CF85EC01C085EE8093B6
:100E7000BC00809124038130E1F38091FC0284174F
:100E800010F44091FC022DEF32E0FB01D9018A2FD2
:100E9000821B841718F48D918193F9CF842F0895C4
:100EA00080E008950F93413208F04AC090912403E6
:100EB0009111FCCF92E090932403009322039FEFC3
:100EC0009093B7021092FC024093FB02FB016DEF7E
:100ED00072E0DB019A2F961B941718F491919D9361
:100EE000F9CF1092230390912303880F892B8093CD
:100EF000230380912103813061F4109221038091BA
:100F000023038093BB008091BC0083FDF8CF85EC68
:100F100001C085EE8093BC00222321F08091240340
:100F20008230E1F38091B7028F3F61F08091B70288
:100F3000803251F08091B702803341F483E007C0E2
:100F400081E005C080E003C082E001C084E00F9131
:100F50000895613298F420912403243089F4609339
:100F6000D902FC018BED92E0DC012A2F281B261709
:100F700018F421912D93F9CF80E0089581E0089530
:100F800082E0089585ED8093BC008091BC0084FDD3
:100F9000FCCF10922403089585EC8093BC0010923E
:100FA000240308951F920F920FB60F9211242F93CE
:100FB0003F934F935F936F937F938F939F93AF93E1
:100FC000BF93EF93FF938091B900887F803609F437
:100FD0009EC078F5883209F45DC090F4803109F440
:100FE00056C038F4882309F4F5C0883009F44FC09E
:100FF000F5C0883109F44EC0803209F45FC0EEC0FC
:10100000803409F46AC058F4803309F457C0883337
:1010100009F0E4C08093B7020E94CC07DFC080359E
:1010200009F44FC0883509F45DC0883409F0D6C092
:10103000D3C0883909F4C4C0A8F4883709F467C05C
:1010400038F4883609F463C0803709F460C0C6C03C
:10105000883809F4B5C0803909F45FC0803809F0D8
:10106000BDC05BC0803B09F483C038F4803A09F40A
:1010700066C0883A09F47CC0B1C0803C09F4A4C0C1
:10108000883C09F4A1C0883B09F487C0A7C08091BF
:10109000230310C09091FC028091FB02981770F519
:1010A000E091FC0281E08E0F8093FC02F0E0E350BF
:1010B000FD4F80818093BB0085EC83C08093B70295
:1010C0008BC0E091FC0281E08E0F8093FC02809146
:1010D000BB00F0E0E350FD4F80839091FC028091D3
:1010E000FB026BC0E091FC0281E08E0F8093FC025A
:1010F0008091BB00F0E0E350FD4F8083809122039C
:1011000081116AC081E08093210384EA5EC083E09C
:10111000809324031092B802CFCF8091B80280321E
:1011200008F04EC0E091B80281E08E0F8093B802C3
:101130008091BB00F0E0E754FD4F8083BDCF0E945B
:10114000CC078091B802803230F4E091B802F0E030
:10115000E754FD4F10826091B80270E0E0911D03EA
:10116000F0911E0389EB92E009951092B80236C007
:1011700084E0809324031092DA021092D902E09165
:101180001F03F091200309958091D902811105C0B8
:1011900081E08093D9021092DB02E091DA0281E0D3
:1011A0008E0F8093DA02F0E0E552FD4F808180934C
:1011B000BB009091DA028091D902981708F47CCF95
:1011C00085E88093BC000AC085EC8093BC00109237
:1011D000240304C01092B7020E94C207FF91EF914E
:1011E000BF91AF919F918F917F916F915F914F913F
:1011F0003F912F910F900FBE0F901F901895DC011B
:10120000ED91FC910190F081E02D09941F93CF9313
:10121000DF9300D000D0CDB7DEB7162F69E270E0C3
:1012200085E692E029833A834B835C830E946906BA
:101230001068612F70E085E692E00E94FF08E0915F
:101240006502F091660229813A814B815C81CA0175
:10125000B9017727882799270190F081E02D85E64D
:1012600092E0099585E692E00F900F900F900F9015
:10127000DF91CF911F910C94E506CF93DF93EC01A2
:1012800021E030E040E050E060E00E94060963E0C9
:1012900070E080E090E00E94D90B23E030E040E075
:1012A00050E060E0CE01DF91CF910C940609FC0183
:1012B000108274836383528341830895CF93C62F32
:1012C00069E270E085E692E00E946906C0686C2FD2
:1012D00070E085E692E00E94FF0885E692E00E94B9
:1012E000E50641E050E069E270E085E692E00E94A8
:1012F000E20685E692E00E94C605CF9108951F930D
:10130000CF93DF93EC0185E692E00E94550662E1FF
:10131000CE010E945E09182F40E150E0682F8EE256
:1013200093E00E94E30F143489F481E088836B8199
:101330007C81CE010E94AB0969817A81CE010E9435
:10134000C509CE010E943D0981E001C080E0DF9126
:10135000CF911F9108950F931F93CF93DF93EC01CB
:101360008B018881811103C0CE010E947F09980101
:1013700040E050E061E0CE010E9406091C830B832F
:10138000DF91CF911F910F9108950F931F93CF93EA
:10139000DF93EC018B018881811103C0CE010E9493
:1013A0007F09980140E050E06FE0CE010E940609FD
:1013B0001A830983DF91CF911F910F910895FC014A
:1013C00083E090E0908787831386128614860895C1
:1013D000EF92FF921F93CF93DF931F92CDB7DEB7AB
:1013E0007C01162FFC01618585E692E049830E940D
:1013F0005F06612F85E692E00E9416064981642F00
:1014000085E692E00E94160685E692E00E94E506D7
:10141000F70186830F90DF91CF911F91FF90EF909E
:101420000895CF93DF93EC018F819885029729F47B
:1014300040E069E3CE010E94E80940E063E2CE01AA
:101440000E94E8094FE660E2CE01DF91CF910C9453
:10145000E8099F92AF92BF92CF92DF92EF92FF92F4
:101460000F931F93CF93DF93EC01698585E692E09C
:101470000E945F06E0916502F09166020190F081A2
:10148000E02D68EA85E692E0099585E692E00E9403
:10149000E50646E0698585E692E00E94DF060E9447
:1014A000AA0B7B0185E692E00E94BE05069784F4B4
:1014B0008A859B85892BB1F30E94AA0B6E197F093F
:1014C0008A859B858617970768F781E08C872CC0F3
:1014D00085E692E00E94C605A82E85E692E00E946D
:1014E000C605982E85E692E00E94C605E82E85E6A0
:1014F00092E00E94C605B82E85E692E00E94C605DD
:10150000F82E85E692E00E94C605D92CC12CCA2887
:10151000D982C8821B2D00E00E291B830A83982FD5
:1015200088278F299D838C83DF91CF911F910F9105
:10153000FF90EF90DF90CF90BF90AF909F90089575
:101540001F93CF93DF931F92CDB7DEB7162F85E69B
:1015500092E049830E945F064981642F85E692E00C
:101560000E94160685E692E00E94E506811114C0ED
:1015700041E0612F85E692E00E94DF0685E692E079
:101580000E94BE05892B41F085E692E00F90DF9125
:10159000CF911F910C94C6058FEF9FEF0F90DF91B5
:1015A000CF911F910895EF92FF920F931F93CF93C6
:1015B000DF937C01EB018A016330710521F0423039
:1015C000510509F051C0CE010197039758F5011557
:1015D000110581F04FE050E06BE6C7010E94A00AC0
:1015E0008F3F2FEF920719F001E010E013C0013098
:1015F000110551F04FE050E06AE6C7010E94A00AD1
:101600008F3FEFEF9E0721F4C330D10569F027C06B
:1016100000E010E0C330D10529F4873D9105F1F5D4
:10162000C2E0D0E02097D9F40115110561F04FE038
:1016300050E069E6C7010E94A00A833D910589F147
:101640000130110549F04FE050E068E6C7010E9403
:10165000A00A833D910541F1C330D10519F0023054
:10166000110511F480E025C0F701D087C7832097CA
:1016700059F0D7FD11C023977CF40130110511F406
:101680008BE608C08AE606C00130110511F489E630
:1016900001C088E6F701818781E00BC0C1E0D0E09E
:1016A000C1CF01E010E002C000E010E0C0E0D0E0F7
:1016B000D6CFDF91CF911F910F91FF90EF900895BA
:1016C0001F920F920FB60F9211242F933F938F9377
:1016D0009F93AF93BF938091260390912703A0918E
:1016E0002803B09129033091250323E0230F2D37E0
:1016F00020F40196A11DB11D05C026E8230F029616
:10170000A11DB11D209325038093260390932703E9
:10171000A0932803B093290380912A0390912B036F
:10172000A0912C03B0912D030196A11DB11D8093B2
:101730002A0390932B03A0932C03B0932D03BF9106
:10174000AF919F918F913F912F910F900FBE0F906E
:101750001F9018952FB7F894609126037091270376
:1017600080912803909129032FBF08953FB7F894E3
:1017700080912A0390912B03A0912C03B0912D030B
:1017800026B5A89B05C02F3F19F00196A11DB11DDC
:101790003FBF6627782F892F9A2F620F711D811DF9
:1017A000911D42E0660F771F881F991F4A95D1F758
:1017B0000895CF92DF92EF92FF92CF93DF936B0168
:1017C0007C010E94B60BEB01C114D104E104F104C9
:1017D00089F00E9450110E94B60B6C1B7D0B683E75
:1017E000734090F381E0C81AD108E108F108C851AC
:1017F000DC4FEACFDF91CF91FF90EF90DF90CF9059
:101800000895789484B5826084BD84B5816084BD78
:1018100085B5826085BD85B5816085BDEEE6F0E069
:10182000808181608083E1E8F0E0108280818260C5
:101830008083808181608083E0E8F0E08081816046
:101840008083E1EBF0E0808184608083E0EBF0E076
:10185000808181608083EAE7F0E08081846080831A
:1018600080818260808380818160808380818068C4
:1018700080831092C1000895833081F028F4813074
:1018800099F08230A1F008958730A9F08830B9F03E
:101890008430D1F4809180008F7D03C080918000DE
:1018A0008F7780938000089584B58F7702C084B5C8
:1018B0008F7D84BD08958091B0008F7703C08091A3
:1018C000B0008F7D8093B0000895CF93DF9390E0B8
:1018D000FC01E458FF4F2491FC01E057FF4F849135
:1018E000882349F190E0880F991FFC01E854FF4FCD
:1018F000A591B49182559F4FFC01C591D4919FB79A
:10190000611108C0F8948C91209582238C93888172
:1019100082230AC0623051F4F8948C91322F3095B2
:1019200083238C938881822B888304C0F8948C91C4
:10193000822B8C939FBFDF91CF9108950F931F93BC
:10194000CF93DF931F92CDB7DEB7282F30E0F90198
:10195000E859FF4F8491F901E458FF4F1491F901C0
:10196000E057FF4F04910023C9F0882321F06983D9
:101970000E943C0C6981E02FF0E0EE0FFF1FE25562
:10198000FF4FA591B4919FB7F8948C91611103C05A
:101990001095812301C0812B8C939FBF0F90DF9105
:1019A000CF911F910F910895FC01818D228D90E0C0
:1019B000805C9F4F821B91098F7399270895FC01CA
:1019C000918D828D981731F0828DE80FF11D858DF4
:1019D00090E008958FEF9FEF0895FC01918D828D27
:1019E000981761F0828DDF01A80FB11D5D968C9173
:1019F000928D9F5F9F73928F90E008958FEF9FEF7E
:101A0000089581E79EE0892B49F080E090E0892BE2
:101A100029F00E94710E81110C9400000895FC01C0
:101A2000848DDF01A80FB11DA35ABF4F2C91848D67
:101A300090E001968F739927848FA689B7892C939C
:101A4000A089B1898C9180648C93938D848D981337
:101A500006C00288F389E02D80818F7D8083089500
:101A6000CF93DF93EC01888D8823C9F0EA89FB8945
:101A7000808185FD05C0A889B9898C9186FD0FC03C
:101A80000FB607FCF5CF808185FFF2CFA889B98911
:101A90008C9185FFEDCFCE010E940F0DE7CFDF9136
:101AA000CF910895CF92DF92FF920F931F93CF9320
:101AB000DF931F92CDB7DEB76C0181E0D601589657
:101AC0008C9358975B969C915B975C968C915C97F6
:101AD000981307C05096ED91FC915197808185FD38
:101AE0002EC0F601038D10E00F5F1F4F0F731127FB
:101AF000F02EF601848DF81211C00FB607FCF9CF55
:101B0000D6015096ED91FC915197808185FFF1CFE0
:101B1000C60169830E940F0D6981EBCF838DE80FA9
:101B2000F11DE35AFF4F6083D6015B960C935B97E0
:101B30005296ED91FC915397808180620CC0D60142
:101B40005696ED91FC91579760835096ED91FC91DC
:101B5000519780818064808381E090E00F90DF91D5
:101B6000CF911F910F91FF90DF90CF900895BF927A
:101B7000CF92DF92EF92FF92CF93DF93EC016A0155
:101B80007B01B22EE889F98982E08083411581EEDC
:101B9000580761057105A1F060E079E08DE390E000
:101BA000A70196010E94B41321503109410951093E
:101BB0005695479537952795211580E1380798F078
:101BC000E889F989108260E874E88EE190E0A70165
:101BD00096010E94B41321503109410951095695CB
:101BE000479537952795EC85FD853083EE85FF85F4
:101BF0002083188EEC89FD89B082EA89FB89808177
:101C000080618083EA89FB89808188608083EA899A
:101C1000FB89808180688083EA89FB8980818F7D50
:101C20008083DF91CF91FF90EF90DF90CF90BF90B6
:101C300008951F920F920FB60F9211242F938F9336
:101C40009F93EF93FF93E0913E03F0913F038081D8
:101C5000E0914403F091450382FD12C09081809190
:101C600047038F5F8F7320914803821751F0E091F3
:101C70004703F0E0E25DFC4F958F8093470301C07E
:101C80008081FF91EF919F918F912F910F900FBEC7
:101C90000F901F9018951F920F920FB60F9211245C
:101CA0002F933F934F935F936F937F938F939F9364
:101CB000AF93BF93EF93FF938EE293E00E940F0DDB
:101CC000FF91EF91BF91AF919F918F917F916F9114
:101CD0005F914F913F912F910F900FBE0F901F90EA
:101CE00018958EE293E00E94D40C21E0892B09F430
:101CF00020E0822F0895109231031092300388EE75
:101D000093E0A0E0B0E08093320390933303A0937C
:101D10003403B093350387ED91E090932F038093C4
:101D20002E0385EC90E090933B0380933A0384EC80
:101D300090E090933D0380933C0380EC90E090937F
:101D40003F0380933E0381EC90E0909341038093A6
:101D5000400382EC90E0909343038093420386EC2F
:101D600090E09093450380934403109247031092B0
:101D700048031092490310924A030895CF92DF92CC
:101D8000EF92FF920F931F93CF93DF937C016A0131
:101D9000EB0100E010E00C151D0571F06991D70111
:101DA000ED91FC910190F081E02DC7010995892BFF
:101DB00019F00F5F1F4FEFCFC801DF91CF911F9137
:101DC0000F91FF90EF90DF90CF900895611571050E
:101DD00081F0DB010D900020E9F7AD014150510980
:101DE000461B570BDC01ED91FC910280F381E02D45
:101DF000099480E090E008950C94E60EDC01ED91EA
:101E0000FC910190F081E02D099463EE71E00C9457
:101E1000E60E0F931F93CF93DF93EC010E94E60E23
:101E20008C01CE010E94050F800F911FDF91CF9191
:101E30001F910F9108958F929F92AF92BF92CF9270
:101E4000DF92EF92FF920F931F93CF93DF93CDB763
:101E5000DEB7A1970FB6F894DEBF0FBECDBF7C01F1
:101E6000C42EE52FCB01D22E19A221E02D1510F0A2
:101E70002AE0D22E8E010F5D1F4F8D2C912CA12CAC
:101E8000B12C6C2D7E2FA50194010E94B4138C2DD2
:101E9000D29E80191124015011098A3014F4805DFA
:101EA00001C0895CF8018083211531054105510588
:101EB00021F0C22EE32FCA01E4CFB801C7010E946E
:101EC000E60EA1960FB6F894DEBF0FBECDBFDF9130
:101ED000CF911F910F91FF90EF90DF90CF90BF9027
:101EE000AF909F908F900895CF92DF92EF92FF92E4
:101EF0000F931F93CF93DF93EC016A017B012115B0
:101F0000310579F4E881F9810190F081E02D642FA9
:101F1000DF91CF911F910F91FF90EF90DF90CF90C5
:101F200009942A303105E9F477FF1AC06DE20E9466
:101F3000FE0E8C0144275527BA014C195D096E0924
:101F40007F092AE0CE010E941B0F800F911FDF91B5
:101F5000CF911F910F91FF90EF90DF90CF90089558
:101F60002AE0B701A601CE01DF91CF911F910F9119
:101F7000FF90EF90DF90CF900C941B0F0F931F9367
:101F8000CF93DF93EC019A01AB01662757FD609573
:101F9000762F0E94740F8C01CE010E94050F800FD6
:101FA000911FDF91CF911F910F9108952115310558
:101FB00041F4DC01ED91FC910190F081E02D642F62
:101FC00009940C941B0F0F931F93CF93DF93EC0195
:101FD0009A01462F50E060E070E00E94D60F8C011D
:101FE000CE010E94050F800F911FDF91CF911F91AD
:101FF0000F9108954F925F926F927F928F929F926E
:10200000AF92BF92CF92DF92EF92FF920F931F9306
:10201000CF93DF93EC016A017B01B22E9A01AB01F1
:10202000C701B6010E946C13882319F066EE71E0B7
:1020300027C026013701E89477F82FEF3FEF4FE7ED
:102040005FE7C301B2010E946C1381110DC02FEF35
:102050003FEF4FE75FE7C301B2010E94B6111816C8
:102060001CF46AEE71E00CC02FEF3FEF4FE75FE426
:10207000C701B6010E9405131816ACF46EEE71E0AC
:10208000CE01DF91CF911F910F91FF90EF90DF90E4
:10209000CF90BF90AF909F908F907F906F905F9008
:1020A0004F900C94E60E2FEF3FEF4FE75FECC70128
:1020B000B6010E94B61187FDE1CF20E030E0A90112
:1020C000C701B6010E94B61187FF0AC06DE2CE01BA
:1020D0000E94FE0E8C01F7FAF094F7F8F09402C01B
:1020E00000E010E0A12C60E070E080E09FE3AB1422
:1020F00041F020E030E040E251E40E94BA11A394A4
:10210000F6CF9B01AC01C701B6010E9452116B01D1
:102110007C010E9427122B013C010E9453129B015B
:10212000AC01C701B6010E9451116B017C012AE08C
:10213000B301A201CE010E941B0F080F191FBB2083
:1021400039F062EF71E0CE010E94E60E080F191F10
:102150007B2C772041F120E030E040E251E4C701E0
:10216000B6010E9409136B017C010E9422124B01EF
:10217000AA2497FCA094BA2C2AE030E0B501A4016F
:10218000CE010E94740F080F191FC501B4010E94EF
:1021900055129B01AC01C701B6010E9451116B01A0
:1021A0007C017A94D6CFC801DF91CF911F910F9116
:1021B000FF90EF90DF90CF90BF90AF909F908F9067
:1021C0007F906F905F904F9008950C94FA0F0F934B
:1021D0001F93CF93DF93EC010E94FA0F8C01CE0185
:1021E0000E94050F800F911FDF91CF911F910F91DA
:1021F00008954F925F926F927F92AF92BF92CF926B
:10220000DF92EF92FF920F931F93CF93DF93CDB79F
:10221000DEB729013A01621B730B840B950B2989E8
:102220003A894B895C892A193B094C095D09298B3C
:102230003A8B4B8B5C8B9B01AC0169897A898B89CA
:102240009C890E947013E418F50806091709A80173
:1022500097010E94D6132A0D3B1D4C1D5D1DCA011E
:10226000B901DF91CF911F910F91FF90EF90DF9017
:10227000CF90BF90AF907F906F905F904F900895F8
:1022800008950E94010C0E9440110E94C302C1E007
:10229000DDE00E94AD002097E1F30E94010DF9CF2F
:1022A00008955058BB27AA270ED075C166D130F0CB
:1022B0006BD120F031F49F3F11F41EF45BC10EF49A
:1022C000E095E7FB51C1E92F77D180F3BA17620798
:1022D00073078407950718F071F49EF58FC10EF40B
:1022E000E0950B2EBA2FA02D0B01B90190010C0126
:1022F000CA01A0011124FF27591B99F0593F50F43E
:10230000503E68F11A16F040A22F232F342F442795
:10231000585FF3CF469537952795A795F04053958D
:10232000C9F77EF41F16BA0B620B730B840BBAF05D
:102330009150A1F0FF0FBB1F661F771F881FC2F7C8
:102340000EC0BA0F621F731F841F48F487957795DC
:102350006795B795F7959E3F08F0B3CF9395880F93
:1023600008F09927EE0F979587950895D9D008F42E
:1023700081E008950CD00FC107D140F0FED030F0BD
:1023800021F45F3F19F0F0C0511139C1F3C014D1ED
:1023900098F39923C9F35523B1F3951B550BBB272C
:1023A000AA2762177307840738F09F5F5F4F220FD9
:1023B000331F441FAA1FA9F333D00E2E3AF0E0E8D2
:1023C00030D091505040E695001CCAF729D0FE2F1E
:1023D00027D0660F771F881FBB1F261737074807B0
:1023E000AB07B0E809F0BB0B802DBF01FF27935866
:1023F0005F4F2AF09E3F510568F0B6C000C15F3FB5
:10240000ECF3983EDCF3869577956795B795F7954D
:102410009F5FC9F7880F911D9695879597F9089545
:10242000E1E0660F771F881FBB1F621773078407E1
:10243000BA0720F0621B730B840BBA0BEE1F88F7F0
:10244000E095089504D06894B111D9C00895BCD026
:1024500088F09F5790F0B92F9927B751A0F0D1F08D
:10246000660F771F881F991F1AF0BA95C9F712C017
:10247000B13081F0C3D0B1E00895C0C0672F782F8C
:102480008827B85F39F0B93FCCF386957795679583
:10249000B395D9F73EF490958095709561957F4FEF
:1024A0008F4F9F4F0895E89409C097FB3EF4909595
:1024B0008095709561957F4F8F4F9F4F9923A9F01D
:1024C000F92F96E9BB279395F695879577956795AC
:1024D000B795F111F8CFFAF4BB0F11F460FF1BC0F0
:1024E0006F5F7F4F8F4F9F4F16C0882311F096E983
:1024F00011C0772321F09EE8872F762F05C0662331
:1025000071F096E8862F70E060E02AF09A95660FE9
:10251000771F881FDAF7880F9695879597F90895A2
:10252000990F0008550FAA0BE0E8FEEF16161706E4
:10253000E807F907C0F012161306E407F50798F04C
:10254000621B730B840B950B39F40A2661F0232B65
:10255000242B252B21F408950A2609F4A140A695E1
:102560008FEF811D811D089597F99F6780E870E0C6
:1025700060E008959FEF80EC089500240A941616F9
:10258000170618060906089500240A941216130661
:10259000140605060895092E0394000C11F48823EF
:1025A00052F0BB0F40F4BF2B11F460FF04C06F5F0B
:1025B0007F4F8F4F9F4F089557FD9058440F551FE1
:1025C00059F05F3F71F04795880F97FB991F61F0B5
:1025D0009F3F79F087950895121613061406551F2C
:1025E000F2CF4695F1DF08C0161617061806991F98
:1025F000F1CF86957105610508940895E894BB278D
:1026000066277727CB0197F908958ADF08F48FEFC3
:1026100008950BD0C0CFB1DF28F0B6DF18F09523B6
:1026200009F0A2CFA7CF1124EACFC6DFA0F3959F70
:10263000D1F3950F50E0551F629FF001729FBB27A9
:10264000F00DB11D639FAA27F00DB11DAA1F649F55
:102650006627B00DA11D661F829F2227B00DA11D08
:10266000621F739FB00DA11D621F839FA00D611D8E
:10267000221F749F3327A00D611D231F849F600DAF
:10268000211D822F762F6A2F11249F5750408AF0E8
:10269000E1F088234AF0EE0FFF1FBB1F661F771F74
:1026A000881F91505040A9F79E3F510570F05CCFB4
:1026B000A6CF5F3FECF3983EDCF386957795679560
:1026C000B795F795E7959F5FC1F7FE2B880F911D92
:1026D0009695879597F9089523DF880B990B0895B0
:1026E000DB018F939F930E94F513BF91AF91A29F3F
:1026F000800D911DA39F900DB29F900D1124089500
:10270000991B79E004C0991F961708F0961B881F43
:102710007A95C9F780950895AA1BBB1B51E107C0A4
:10272000AA1FBB1FA617B70710F0A61BB70B881F61
:10273000991F5A95A9F780959095BC01CD010895F0
:1027400097FB072E16F4009407D077FD09D00E945E
:102750008C1307FC05D03EF4909581959F4F08950A
:10276000709561957F4F0895A1E21A2EAA1BBB1B9D
:10277000FD010DC0AA1FBB1FEE1FFF1FA217B3074D
:10278000E407F50720F0A21BB30BE40BF50B661F63
:10279000771F881F991F1A9469F760957095809527
:1027A00090959B01AC01BD01CF010895052E97FBCB
:1027B0001EF400940E94ED1357FD07D00E94B4133D
:1027C00007FC03D04EF40C94ED13509540953095D2
:1027D00021953F4F4F4F5F4F08959095809570958D
:1027E00061957F4F8F4F9F4F08950E940614A59FBC
:1027F000900DB49F900DA49F800D911D11240895FC
:10280000EE0FFF1F0590F491E02D0994A29FB001F7
:10281000B39FC001A39F700D811D1124911DB29F14
:0E282000700D811D1124911D0895F894FFCFB5
:10282E0001000000436F6C6F722073656E736F72E0
:10283E002072656164696E67733A00523A09004707
:10284E003A0900423A0900436F6C6F722073656E4D
:10285E00736F7220287363616C656420746F203807
:10286E0020626974293A004875652028382D6269FE
:10287E0074293A09004443204F66667365743A2002
:10288E00004E6F697365204C6576656C3A20006169
:10289E006E676C653A200009726174653A200054C7
:1028AE00435333343732352049324320636F6C6FD4
:1028BE00722073656E736F7220006E6F7420004C01
:1028CE0033474432304820493243206779726F20B3
:1028DE0073656E736F7200206E6F740020666F7575
:1028EE006E6400000000001606E905BE05C605D997
:1028FE0005E80500000000520DBE0ED40CED0CDFF5
:10290E000C300D0D0A006E616E00696E66006F76FA
:04291E0066002E0021
:107E0000112484B714BE81FFF0D085E080938100F7
:107E100082E08093C00088E18093C10086E0809377
:107E2000C20080E18093C4008EE0C9D0259A86E02C
:107E300020E33CEF91E0309385002093840096BBD3
:107E4000B09BFECF1D9AA8958150A9F7CC24DD24C4
:107E500088248394B5E0AB2EA1E19A2EF3E0BF2EE7
:107E6000A2D0813461F49FD0082FAFD0023811F036
:107E7000013811F484E001C083E08DD089C08234E0
:107E800011F484E103C0853419F485E0A6D080C0E4
:107E9000853579F488D0E82EFF2485D0082F10E0AE
:107EA000102F00270E291F29000F111F8ED06801E7
:107EB0006FC0863521F484E090D080E0DECF843638
:107EC00009F040C070D06FD0082F6DD080E0C81688
:107ED00080E7D80618F4F601B7BEE895C0E0D1E017
:107EE00062D089930C17E1F7F0E0CF16F0E7DF06D8
:107EF00018F0F601B7BEE89568D007B600FCFDCFD4
:107F0000A601A0E0B1E02C9130E011968C91119780
:107F100090E0982F8827822B932B1296FA010C0160
:107F200087BEE89511244E5F5F4FF1E0A038BF0790
:107F300051F7F601A7BEE89507B600FCFDCF97BE46
:107F4000E89526C08437B1F42ED02DD0F82E2BD052
:107F50003CD0F601EF2C8F010F5F1F4F84911BD097
:107F6000EA94F801C1F70894C11CD11CFA94CF0C13
:107F7000D11C0EC0853739F428D08EE10CD085E9AC
:107F80000AD08FE07ACF813511F488E018D01DD067
:107F900080E101D065CF982F8091C00085FFFCCF94
:107FA0009093C60008958091C00087FFFCCF809118
:107FB000C00084FD01C0A8958091C6000895E0E648
:107FC000F0E098E1908380830895EDDF803219F02E
:107FD00088E0F5DFFFCF84E1DECF1F93182FE3DFCA
:107FE0001150E9F7F2DF1F91089580E0E8DFEE27F6
:047FF000FF270994CA
:027FFE00040479
:0400000300007E007B
:00000001FF
