:100000000C9465000C948D000C948D000C948D0064
:100010000C948D000C948D000C948D000C94210C8C
:100020000C948D000C948D000C948D000C94A902FE
:100030000C948D000C948D000C948D000C948D000C
:100040000C94480C0C948D000C943B0F0C946D0F89
:100050000C948D000C948D000C948D000C948D00EC
:100060000C94BF060C948D000000000800020100F3
:100070000003040700000000000000000102040863
:100080001020408001020408102001020408102002
:10009000040404040404040402020202020203032E
:1000A00003030303000000002300260029000000D2
:1000B0000000250028002B0000000000240027007D
:1000C0002A000202D5058C0A9D0F11241FBECFEF16
:1000D000D8E0DEBFCDBF11E0A0E0B1E0E0E9F3E29F
:1000E00002C005900D92AC3CB107D9F723E0ACEC0F
:1000F000B1E001C01D92A33AB207E1F710E0CAECEB
:10010000D0E004C02297FE010E94B311C23CD10787
:10011000C9F70E9411110C94C6110C940000CF92E3
:10012000DF92EF92FF926B017C0161E08DE00E9413
:10013000970DF694E794D794C794C701B6010E942F
:10014000B50C60E08DE00E94970DC701B601FF90ED
:10015000EF90DF90CF900C94B50C68EE73E080E0E8
:1001600090E00C948F000F931F93CF93DF93CDB744
:10017000DEB72E970FB6F894DEBF0FBECDBF8E014F
:10018000095F1F4F9E01275F3F4FAE01455F5F4FE5
:10019000BE01635F7F4F80EF91E00E94FA0865E047
:1001A00071E086E093E00E9424106CE171E086E04B
:1001B00093E00E941E106D857E854AE050E086E047
:1001C00093E00E94B31060E271E086E093E00E9449
:1001D0001E106B857C854AE050E086E093E00E942B
:1001E000B31064E271E086E093E00E941E1069851E
:1001F0007A854AE050E086E093E00E94B3102D85B6
:100200003E858B859C8549855A85B9012817390714
:1002100008F4BC014617570778F461E0821793078A
:1002200028F42F3F310509F090F404C08F3F910569
:1002300009F068F460E00BC04F3F510551F048F001
:10024000369527959695879556954795DECF6111FA
:10025000F7CF3E872D879C878B875A87498768E22F
:1002600071E086E093E00E9424106CE171E086E08A
:1002700093E00E941E106D856C834AE050E086E09A
:1002800093E00E949C1060E271E086E093E00E949F
:100290001E106B856D834AE050E086E093E00E947B
:1002A0009C1064E271E086E093E00E941E10698574
:1002B0006E834AE050E086E093E00E949C10BE010D
:1002C0006C5F7F4FCE0101960E94C30A68E471E023
:1002D00086E093E00E941E1089812E960FB6F89456
:1002E000DEBF0FBECDBFDF91CF911F910F9108955B
:1002F0000F931F93CF93DF9300E210E0C0E0D0E0B4
:1003000083E00E94180DC80FD91F01501109C1F7D1
:10031000CE01DF91CF911F910F91089564EF71E0AD
:1003200080E090E00E948F0064EF71E080E090E058
:100330000E948F0061E670E088E092E00E9446042F
:100340006CE870E08BE092E00E9446040E94780125
:1003500081379741DCF70E947801803E9E425CF431
:100360008DE00E94CD0D61E0892B09F060E08DE009
:100370000E94970DF0CF60E08DE00E94970D6BE436
:1003800070E08BE092E00E94460464EF71E080E050
:1003900090E00E94B50C69E170E088E092E00E9474
:1003A000460461E08DE00E94970D68EE73E080E006
:1003B00090E00E94B50C0E94B3004AE050E0682F24
:1003C00086E093E00E949C1060ED77E080E090E092
:1003D0000E94B50C61E670E088E092E00E9446045D
:1003E00064EF71E080E090E00E94B50C6CE870E092
:1003F0008BE092E00E94460464EF71E080E090E0C0
:100400000C94B50C8BE092E00E94650388E092E0CA
:100410000E94650385EF91E00E94720941E050E07F
:1004200060E070E080EF91E00E94440824EF31E04A
:1004300043E06BE08EED91E00E94CA0B24EF31E0C7
:1004400049E06AE08CEC91E00C94CA0B61E08EE02C
:100450000E94970DE0910603F09107030190F0814F
:10046000E02D6AEA86E093E0099586E093E00E9439
:10047000520E60E08EE00C94970D61E08EE00E94D9
:100480005E0D60E08EE00E94970D26E040E855E2A8
:1004900060E070E086E093E00E94D90E0E942602A0
:1004A00065E070E08BE092E00E94FF036CE870E092
:1004B0008BE092E00E94460466E070E088E092E003
:1004C0000E94FF0369E170E088E092E00E94460428
:1004D00061E08DE00E945E0D66E571E086E093E0EC
:1004E0000E941E1080EF91E00E946C08811106C0EE
:1004F00061E771E086E093E00E941E1064E971E01C
:1005000086E093E00E94241066E771E086E093E0C5
:100510000E941E104BE660E070E085EF91E00E94C3
:10052000390A811106C06EE871E086E093E00E940E
:100530001E1063E971E086E093E00E9424100E949F
:100540008E0188E092E00E9405048BE092E00C941A
:1005500005041F920F920FB60F9211242F933F9311
:100560004F935F936F937F938F939F93AF93BF93BB
:10057000EF93FF9380910F0287FF05C010928500D3
:10058000109284001AC020910F02332727FD309566
:1005900080910E0290E0281739077CF480910F02B9
:1005A000992787FD9095FC01EE0FFF1FE80FF91FBB
:1005B000E05FFD4F808186FD15C080910F028F5F47
:1005C00080930F0220910F02332727FD30958091F1
:1005D0000E0290E028173907BCF480910F028C308E
:1005E0005CF112C080910F02992787FD9095FC0164
:1005F000EE0FFF1FE80FF91FE05FFD4F808160E005
:100600008F730E94970DD9CF8091840090918500BF
:10061000049680349C4918F480E49CE905C08091DC
:1006200084009091850004969093890080938800BF
:100630008FEF80930F0238C02091840030918500A5
:1006400080910F02992787FD9095FC01EE0FFF1F07
:10065000E80FF91FE05FFD4F81819281820F931FA8
:10066000909389008093880080910F02992787FDDD
:100670009095FC01EE0FFF1FE80FF91FE05FFD4FA3
:10068000808186FF11C080910F02992787FD909588
:10069000FC01EE0FFF1FE80FF91FE05FFD4F8081A7
:1006A00061E08F730E94970DFF91EF91BF91AF9121
:1006B0009F918F917F916F915F914F913F912F917A
:1006C0000F900FBE0F901F90189520910E022C30A6
:1006D000A0F431E0320F30930E02FC012083822F10
:1006E00090E0FC01EE0FFF1FE80FF91FE05FFD4FE8
:1006F00088EB9BE09283818308952FEFFC01208398
:100700000895DF92EF92FF920F931F93CF93DF93A1
:10071000EC01D62E7A01890188818C3008F066C000
:1007200061E08D2D0E945E0D8881A82FB0E0FD0153
:10073000EE0FFF1FEA0FFB1FE05FFD4F2D2D2F7304
:100740009081907C922B908360E272E06E197F0919
:1007500077FF02C06D5F7F4F7595679575956795BB
:10076000698340E659E0401B510B57FF02C04D5FC3
:100770005F4F55954795559547954A836CE00E9484
:1007800031119CE0899FB001112420E030E0A901E3
:10079000460F571FFA01EE0FFF1FE40FF51FE05F32
:1007A000FD4F908196FD16C02F5F3F4F2C303105D5
:1007B00071F781110FC01092800082E08093810058
:1007C0001092850010928400B19A80916F0082602F
:1007D00080936F00888190E0FC01EE0FFF1FE80F0F
:1007E000F91FE05FFD4F8081806480838881DF9105
:1007F000CF911F910F91FF90EF90DF90089520E629
:1008000039E040E252E00C948103FC01808190E0E9
:10081000FC01EE0FFF1FE80FF91FE05FFD4F808125
:100820008F7B80830895FC0180818C3070F59181ED
:1008300028E830E0291B310997FD3395220F331F3B
:10084000220F331F621773077CF0928128E532E094
:10085000291B310997FD3395220F331F220F331FB8
:10086000621773070CF49B0122503109220F331FCA
:100870004FB7F89490E0FC01EE0FFF1FE80FF91F4F
:10088000E05FFD4F328321834FBF08954F925F9207
:100890006F927F92AF92BF92CF92DF92EF92FF92D0
:1008A0000F931F93CF93DF93EC01603282E07807C0
:1008B0000CF040C077FD06C0653B71052CF064EB81
:1008C00070E002C060E070E0898128E830E0281B19
:1008D000310987FD3395220F331F220F331F590132
:1008E000CC24B7FCC094DC2C882777FD8095982F0A
:1008F0002A8148E552E0421B510927FD5395440FD8
:10090000551F440F551F2A01662457FC6094762C0E
:100910007F926F925F924F9214EBE12EF12C00E0E8
:1009200010E020E030E0A9010E94C9100F900F9064
:100930000F900F90CE01DF91CF911F910F91FF90FB
:10094000EF90DF90CF90BF90AF907F906F905F90CF
:100950004F900C9413048091640290E02091650202
:10096000821B9109089520916502809164022817E5
:1009700050F4E22FF0E0EA59FD4F808190E02F5FC4
:100980002093650208958FEF9FEF0895E09165022F
:1009900080916402E81730F4F0E0EA59FD4F80815D
:1009A00090E008958FEF9FEF08950895CF92DF9222
:1009B000EF92FF920F931F93CF93DF937C01CB01B4
:1009C0008A0120914002222389F0EB016B01C40EC1
:1009D000D51ECC15DD0569F06991D701ED91FC912B
:1009E0000190F081E02DC7010995F3CF642F0E949B
:1009F0009606C801DF91CF911F910F91FF90EF9064
:100A0000DF90CF900895CF93DF931F92CDB7DEB7DD
:100A10006983209140022223D1F0209141022032AB
:100A200040F021E030E0FC013383228380E090E05D
:100A300015C080914202E82FF0E0ED5BFD4F9981F7
:100A400090838F5F809342028093410205C061E0F2
:100A5000CE0101960E94960681E090E00F90DF9112
:100A6000CF910895FC011382128248EE53E060E0BA
:100A700070E044835583668377838EE991E09183A8
:100A800080830895109265021092640210924202CF
:100A9000109241020C94D90581E08093400260934A
:100AA0006302109242021092410208950C944C0588
:100AB0000F93062F21E04091410263E472E08091A0
:100AC00063020E943F06109242021092410210926D
:100AD00040020F9108958F929F92AF92BF92CF9252
:100AE000DF92EF92FF920F931F93CF93DF93EC016E
:100AF000F62ED42E48015901EE2019F10E944C0522
:100B00001E2D143008F013E01150B8F0E881F9817F
:100B100028E0129FB0011124A501940104C056954C
:100B20004795379527956A95D2F7CA01B901019083
:100B3000F081E02DCE010995E7CF60E0CE010E9463
:100B400058054D2D413208F040E22C2D66E672E04A
:100B50008F2D0E94F7051092650280936402DF9149
:100B6000CF911F910F91FF90EF90DF90CF90BF90AA
:100B7000AF909F908F900895CF92EF920F931F9315
:100B8000C22EE12C00E010E098010E946B051F913D
:100B90000F91EF90CF90089521E00C94BC0521E0D7
:100BA0000C94BC0561E00C94580584E392E00C942D
:100BB00032051092F30281E08093F1021092F0026C
:100BC00061E082E10E94970D61E083E10E94970D50
:100BD000E9EBF0E080818E7F808380818D7F808350
:100BE00088E48093B80085E48093BC000895413286
:100BF00008F043C09091F3029111FCCF91E09093E3
:100C0000F3022093F1022FEF209386021092CB0281
:100C1000240F2093CA029093F2029091F202880F5F
:100C2000892B8093F2028091F002813061F410925E
:100C3000F0028091F2028093BB008091BC0083FDA2
:100C4000F8CF85EC01C085EE8093BC008091F30263
:100C50008130E1F38091CB02841710F44091CB02F4
:100C60002CEC32E0FB01D9018A2F821B841718F487
:100C70008D918193F9CF842F089580E008950F938B
:100C8000413208F04AC09091F3029111FCCF92E0FA
:100C90009093F3020093F1029FEF909386021092DB
:100CA000CB024093CA02FB016CEC72E0DB019A2F8D
:100CB000961B941718F491919D93F9CF1092F2021C
:100CC0009091F202880F892B8093F2028091F002BA
:100CD000813061F41092F0028091F2028093BB00A7
:100CE0008091BC0083FDF8CF85EC01C085EE809338
:100CF000BC00222321F08091F3028230E1F3809145
:100D000086028F3F61F080918602803251F080919F
:100D10008602803341F483E007C081E005C080E0B3
:100D200003C082E001C084E00F910895613298F41D
:100D30002091F302243089F46093A802FC018AEA2E
:100D400092E0DC012A2F281B261718F421912D93FD
:100D5000F9CF80E0089581E0089582E0089585ED5F
:100D60008093BC008091BC0084FDFCCF1092F30204
:100D7000089585EC8093BC001092F30208951F92B1
:100D80000F920FB60F9211242F933F934F935F93BF
:100D90006F937F938F939F93AF93BF93EF93FF9343
:100DA0008091B900887F803609F49EC078F588323A
:100DB00009F45DC090F4803109F456C038F48823FA
:100DC00009F4F5C0883009F44FC0F5C0883109F442
:100DD0004EC0803209F45FC0EEC0803409F46AC0AE
:100DE00058F4803309F457C0883309F0E4C0809385
:100DF00086020E94B906DFC0803509F44FC08835ED
:100E000009F45DC0883409F0D6C0D3C0883909F42C
:100E1000C4C0A8F4883709F467C038F4883609F4E8
:100E200063C0803709F460C0C6C0883809F4B5C013
:100E3000803909F45FC0803809F0BDC05BC0803BD9
:100E400009F483C038F4803A09F466C0883A09F49A
:100E50007CC0B1C0803C09F4A4C0883C09F4A1C0A6
:100E6000883B09F487C0A7C08091F20210C090911E
:100E7000CB028091CA02981770F5E091CB0281E015
:100E80008E0F8093CB02F0E0E453FD4F808180937E
:100E9000BB0085EC83C0809386028BC0E091CB02BF
:100EA00081E08E0F8093CB028091BB00F0E0E45391
:100EB000FD4F80839091CB028091CA026BC0E0917C
:100EC000CB0281E08E0F8093CB028091BB00F0E0DB
:100ED000E453FD4F80838091F10281116AC081E06B
:100EE0008093F00284EA5EC083E08093F302109264
:100EF0008702CFCF80918702803208F04EC0E09108
:100F0000870281E08E0F809387028091BB00F0E022
:100F1000E857FD4F8083BDCF0E94B90680918702BC
:100F2000803230F4E0918702F0E0E857FD4F108204
:100F30006091870270E0E091EC02F091ED0288E8A8
:100F400092E009951092870236C084E08093F30204
:100F50001092A9021092A802E091EE02F091EF0225
:100F600009958091A802811105C081E08093A802B3
:100F70001092AA02E091A90281E08E0F8093A9024B
:100F8000F0E0E655FD4F80818093BB009091A9026F
:100F90008091A802981708F47CCF85E88093BC0064
:100FA0000AC085EC8093BC001092F30204C010923A
:100FB00086020E94AF06FF91EF91BF91AF919F9182
:100FC0008F917F916F915F914F913F912F910F90F2
:100FD0000FBE0F901F901895DC01ED91FC910190D0
:100FE000F081E02D09941F93CF93DF9300D000D0C0
:100FF000CDB7DEB7162F69E270E084E392E0298373
:101000003A834B835C830E9456051068612F70E021
:1010100084E392E00E94EC07E0913402F091350203
:1010200029813A814B815C81CA01B90177278827E0
:1010300099270190F081E02D84E392E0099584E303
:1010400092E00F900F900F900F90DF91CF911F9132
:101050000C94D205CF93DF93EC0121E030E040E027
:1010600050E060E00E94F30763E070E080E090E011
:101070000E94B50C23E030E040E050E060E0CE019B
:10108000DF91CF910C94F307FC011082748363838A
:10109000528341830895CF93C62F69E270E084E3C1
:1010A00092E00E945605C0686C2F70E084E392E0E5
:1010B0000E94EC0784E392E00E94D20541E050E0F8
:1010C00069E270E084E392E00E94CF0584E392E05D
:1010D0000E94B304CF9108951F93CF93DF93EC0147
:1010E00084E392E00E94420562E1CE010E944B0837
:1010F000182F40E150E0682F86E093E00E949C109A
:10110000143489F481E088836B817C81CE010E9454
:10111000980869817A81CE010E94B208CE010E94AE
:101120002A0881E001C080E0DF91CF911F910895EE
:101130000F931F93CF93DF93EC018B018881811173
:1011400003C0CE010E946C08980140E050E061E0CD
:10115000CE010E94F3071C830B83DF91CF911F9177
:101160000F9108950F931F93CF93DF93EC018B01A1
:101170008881811103C0CE010E946C08980140E073
:1011800050E06FE0CE010E94F3071A830983DF91DC
:10119000CF911F910F910895CF93DF93C62F69E2EE
:1011A00070E084E392E00E945605C0686C2F70E006
:1011B00084E392E00E94EC0784E392E00E94D2056F
:1011C00042E050E069E270E084E392E00E94CF05E3
:1011D00084E392E00E94B304EC0184E392E00E9475
:1011E000B30420E030E0382FC9018C2B9D2BDF9118
:1011F000CF910895AF92BF92CF92DF92EF92FF927C
:101200000F931F93CF93DF93EC017B015A01690188
:101210008881811103C0CE010E946C0864E1CE0177
:101220000E94CC08F8019183808366E1CE010E9480
:10123000CC08F7019183808368E1CE010E94CC083D
:10124000F501918380836AE1CE010E94CC08F6010A
:10125000918380838B819C81853D910519F154F4A4
:10126000009729F1803C910591F56AE970E080E0F2
:1012700090E021C0863F910581F08F3F910541F0BC
:101280008B3E910521F562E370E080E090E013C0B1
:1012900063E070E080E090E00EC068E170E080E024
:1012A00090E009C065E670E080E090E004C06CEB7F
:1012B00072E080E090E0DF91CF911F910F91FF905D
:1012C000EF90DF90CF90BF90AF900C94B50CDF9172
:1012D000CF911F910F91FF90EF90DF90CF90BF9033
:1012E000AF900895FC018FEF818B8787808B828B75
:1012F0000895BF92CF92DF92EF92FF920F931F93C8
:10130000CF93DF938C01C7E0D0E0B12CE62EF12C17
:10131000CC24C394D12C60E0F80181890E94970D00
:1013200097010C2E02C0359527950A94E2F720FF0D
:1013300002C061E001C060E0F80180890E94970D61
:1013400061E0F80181890E94970DF80187850E946C
:10135000CD0D892B39F096010C2E01C0220F0A9475
:10136000EAF7B22A2197B8F68B2DDF91CF911F9122
:101370000F91FF90EF90DF90CF90BF9008950F9363
:101380001F93CF93DF93EC01162F042F8A898F3F91
:10139000B9F46C8584E392E00E944C05612F84E3EC
:1013A00092E00E940305602F84E392E00E9403050F
:1013B00084E392E0DF91CF911F910F910C94D205BD
:1013C00061E089890E94970D60E08A890E94970DEB
:1013D000612FCE010E947909602FCE010E94790908
:1013E00061E08A89DF91CF911F910F910C94970D45
:1013F0001F93CF93DF93EC01162F8A898F3FF1F46F
:101400006C8584E392E00E944C05612F84E392E0B6
:101410000E94030584E392E00E94D20541E06C85BE
:1014200084E392E00E94CC0584E392E00E94B3043E
:10143000182F84E392E00E94D20516C061E08989EA
:101440000E94970D60E08A890E94970D612F606865
:10145000CE010E9479096FEFCE010E947909182F01
:1014600061E08A890E94970D812FDF91CF911F91B2
:101470000895FF920F931F93CF93DF93EC018B019D
:10148000F42E8A898F3F29F484E392E00E9442057A
:1014900013C061E00E945E0D61E089890E945E0DCB
:1014A00061E088890E945E0D60E08F850E945E0D7C
:1014B00061E08A890E94970DFC861E870D876FE088
:1014C00070E0CE010E94F809843D11F0873DD9F407
:1014D0004FE060E270E0CE010E94BF098D859E85DD
:1014E0008130910539F08230910531F0892B69F412
:1014F00040E003C040E101C040E263E270E0CE01A1
:101500000E94BF0902C080E001C081E0DF91CF915D
:101510001F910F91FF9008958FEF8093F402109226
:10152000F6021092F50208958230910558F1813E3D
:101530002EE1920748F49C0155E0369527955A957F
:10154000E1F778E0720F01C07FEF61E0272F30E014
:10155000260F311D35952795229FA001239F500D01
:10156000500D11248417950718F47FEF720F04C0F3
:101570002F3F39F061E0620F761740F78FEF860F4B
:1015800008958FEF08958F929F92AF92BF92CF925E
:10159000DF92EF92FF920F931F93CF93DF93EC01B3
:1015A000FB01B0809180A280892CB91408F48B2CA7
:1015B000A81408F48A2CB8189818A818092D10E057
:1015C0000B0D111D0A0D111D0115110521F41882B5
:1015D00019828A82D1C00F3F1105F1F06801E12C18
:1015E000F12C6FEF7FEF80E090E0A70196010E9461
:1015F0008711AB2DB0E00E94A611B72EA92DB0E047
:101600000E94A611972EAA2DB0E00E94A611A72E27
:101610000F3F110509F060F4182D100F08F41FEFAB
:101620001F3F39F080E0912F0E94940A182F01C0CB
:101630001FEF982D90951F3F51F0612F70E080E0D3
:101640000E9451116F3F710509F050F4962F9F3F92
:1016500041F080E090950E94940A982F909501C0E7
:101660009FEF292D9B1408F42B2D2A1508F42A2D01
:101670002B1129C091100AC030E8231B08F420E088
:1016800030E6239F212D1124205372C0E92DF0E074
:10169000422F50E04E1B5F0BE417F50734F4292D61
:1016A00030E6239F212D112463C086E5890D821B1E
:1016B000282F34E0231B08F420E030E6239F212D5F
:1016C0001124205E55C029112CC0A11010C030E893
:1016D0003B192058230F08F42FEF34E0230F08F4B0
:1016E0002FEF30E2239F212D1124205C41C04A2D91
:1016F00050E030E0241B350B421753073CF42A2DF1
:1017000030E6239F212D1124205A32C02A2D35E5A1
:10171000231B08F420E030E3239F212D11242058BF
:1017200027C0B1100BC02A2D30E8231B08F420E09D
:1017300030E3239F212D112428571AC04B2D50E050
:101740002A2D30E0241B350B421753073CF42B2D78
:1017500030E6239F212D112420560AC02B2D35E57C
:10176000231B08F420E030E6239F212D1124205470
:101770002F5F288399831A83CE01DF91CF911F9128
:101780000F91FF90EF90DF90CF90BF90AF909F9020
:101790008F900895CF93DF93DC0170E0FB01E45854
:1017A000FF4FE4911496EC931497842F90E0FC0182
:1017B000E458FF4FE4911596EC93159760577F4FCF
:1017C000FB01C491D0E0CC0FDD1FC255DF4FFE01FD
:1017D0004591549117965C934E931697FC01E057F0
:1017E000FF4F849190E0880F991F8C559F4FFC010B
:1017F0004591549119965C934E931897FB0164910F
:10180000E62FF0E0EE0FFF1FE854FF4F8591949113
:101810001B969C938E931A972F5F3F4F49E3429FED
:10182000C001439F900D11248E38FFE69F0710F0F2
:101830008DE89FE61D969C938E931C97DF91CF9128
:1018400008951F920F920FB60F9211242F933F937A
:101850004F935F936F937F938F939F93AF93BF93B8
:10186000EF93FF93E091FB02F091FC020995FF9149
:10187000EF91BF91AF919F918F917F916F915F9108
:101880004F913F912F910F900FBE0F901F90189581
:101890001F920F920FB60F9211242F933F938F93A5
:1018A0009F93AF93BF938091FE029091FF02A0910E
:1018B0000003B09101033091FD0223E0230F2D3787
:1018C00020F40196A11DB11D05C026E8230F029644
:1018D000A11DB11D2093FD028093FE029093FF0293
:1018E000A0930003B093010380910203909103033E
:1018F000A0910403B09105030196A11DB11D809331
:10190000020390930303A0930403B0930503BF91D4
:10191000AF919F918F913F912F910F900FBE0F909C
:101920001F9018953FB7F89480910203909103039C
:10193000A0910403B091050326B5A89B05C02F3FD5
:1019400019F00196A11DB11D3FBF6627782F892F81
:101950009A2F620F711D811D911D42E0660F771F46
:10196000881F991F4A95D1F70895CF92DF92EF9281
:10197000FF92CF93DF936B017C010E94920CEB01ED
:10198000C114D104E104F10489F00E9420110E94E5
:10199000920C6C1B7D0B683E734090F381E0C81A7B
:1019A000D108E108F108C851DC4FEACFDF91CF91AF
:1019B000FF90EF90DF90CF900895789484B5826087
:1019C00084BD84B5816084BD85B5826085BD85B5E3
:1019D000816085BDEEE6F0E0808181608083E1E892
:1019E000F0E01082808182608083808181608083CA
:1019F000E0E8F0E0808181608083E1EBF0E08081CD
:101A000084608083E0EBF0E0808181608083EAE79E
:101A1000F0E0808184608083808182608083808127
:101A2000816080838081806880831092C1000895E6
:101A30008E3008F08E5087702091040190E4299F29
:101A400090011124822B80937C0080917A00806425
:101A500080937A0080917A0086FDFCCF8091780097
:101A60002091790090E0922B0895833081F028F442
:101A7000813099F08230A1F008958730A9F0883044
:101A8000B9F08430D1F4809180008F7D03C08091C3
:101A900080008F7780938000089584B58F7702C08F
:101AA00084B58F7D84BD08958091B0008F7703C089
:101AB0008091B0008F7D8093B0000895CF93DF9325
:101AC00090E0FC01E458FF4F2491FC01E057FF4FE8
:101AD0008491882349F190E0880F991FFC01E85414
:101AE000FF4FA591B49182559F4FFC01C591D491B0
:101AF0009FB7611108C0F8948C91209582238C9334
:101B0000888182230AC0623051F4F8948C91322F7C
:101B1000309583238C938881822B888304C0F8942A
:101B20008C91822B8C939FBFDF91CF9108950F935F
:101B30001F93CF93DF931F92CDB7DEB7282F30E0EE
:101B4000F901E859FF4F8491F901E458FF4F1491CE
:101B5000F901E057FF4F04910023C9F0882321F0D9
:101B600069830E94350D6981E02FF0E0EE0FFF1FC1
:101B7000E255FF4FA591B4919FB7F8948C916111F4
:101B800003C01095812301C0812B8C939FBF0F90C0
:101B9000DF91CF911F910F910895CF93DF93282F5D
:101BA00030E0F901E859FF4F8491F901E458FF4F03
:101BB000D491F901E057FF4FC491CC2391F08111EA
:101BC0000E94350DEC2FF0E0EE0FFF1FEC55FF4F9C
:101BD000A591B4912C912D2381E090E021F480E037
:101BE00002C080E090E0DF91CF910895FC01818DEB
:101BF000228D90E0805C9F4F821B91098F73992703
:101C00000895FC01918D828D981731F0828DE80F37
:101C1000F11D858D90E008958FEF9FEF0895FC01F1
:101C2000918D828D981761F0828DDF01A80FB11D13
:101C30005D968C91928D9F5F9F73928F90E0089537
:101C40008FEF9FEF089583E99FE0892B49F080E0B3
:101C500090E0892B29F00E94930F81110C940000D1
:101C60000895FC01848DDF01A80FB11DA35ABF4F59
:101C70002C91848D90E001968F739927848FA6898B
:101C8000B7892C93A089B1898C9180648C93938DB2
:101C9000848D981306C00288F389E02D80818F7DA2
:101CA00080830895CF93DF93EC01888D8823C9F05A
:101CB000EA89FB89808185FD05C0A889B9898C9155
:101CC00086FD0FC00FB607FCF5CF808185FFF2CFF0
:101CD000A889B9898C9185FFEDCFCE010E94310E84
:101CE000E7CFDF91CF910895CF92DF92FF920F93CC
:101CF0001F93CF93DF931F92CDB7DEB76C0181E0C6
:101D0000D60158968C9358975B969C915B975C96FE
:101D10008C915C97981307C05096ED91FC91519768
:101D2000808185FD2EC0F601038D10E00F5F1F4FEF
:101D30000F731127F02EF601848DF81211C00FB623
:101D400007FCF9CFD6015096ED91FC915197808117
:101D500085FFF1CFC60169830E94310E6981EBCF07
:101D6000838DE80FF11DE35AFF4F6083D6015B9628
:101D70000C935B975296ED91FC9153978081806212
:101D80000CC0D6015696ED91FC9157976083509602
:101D9000ED91FC91519780818064808381E090E097
:101DA0000F90DF91CF911F910F91FF90DF90CF9017
:101DB0000895BF92CF92DF92EF92FF92CF93DF937D
:101DC000EC016A017B01B22EE889F98982E0808307
:101DD000411581EE580761057105A1F060E079E0D9
:101DE0008DE390E0A70196010E9465112150310911
:101DF000410951095695479537952795211580E159
:101E0000380798F0E889F989108260E874E88EE173
:101E100090E0A70196010E94651121503109410906
:101E200051095695479537952795EC85FD85308363
:101E3000EE85FF852083188EEC89FD89B082EA89C2
:101E4000FB89808180618083EA89FB898081886049
:101E50008083EA89FB89808180688083EA89FB89A5
:101E600080818F7D8083DF91CF91FF90EF90DF9015
:101E7000CF90BF9008951F920F920FB60F9211242A
:101E80002F938F939F93EF93FF93E0911603F0911D
:101E900017038081E0911C03F0911D0382FD12C0A5
:101EA000908180911F038F5F8F7320912003821791
:101EB00051F0E0911F03F0E0EA5FFC4F958F8093B3
:101EC0001F0301C08081FF91EF919F918F912F910E
:101ED0000F900FBE0F901F9018951F920F920FB684
:101EE0000F9211242F933F934F935F936F937F93A0
:101EF0008F939F93AF93BF93EF93FF9386E093E00D
:101F00000E94310EFF91EF91BF91AF919F918F9100
:101F10007F916F915F914F913F912F910F900FBEE5
:101F20000F901F90189586E093E00E94F60D21E037
:101F3000892B09F420E0822F089510920903109252
:101F4000080388EE93E0A0E0B0E080930A0390934A
:101F50000B03A0930C03B0930D038EEA91E09093D2
:101F600007038093060385EC90E09093130380931E
:101F7000120384EC90E0909315038093140380EC9B
:101F800090E0909317038093160381EC90E0909378
:101F900019038093180382EC90E090931B038093C5
:101FA0001A0386EC90E090931D0380931C0310921B
:101FB0001F03109220031092210310922203089510
:101FC000CF92DF92EF92FF920F931F93CF93DF9305
:101FD0007C016A01EB0100E010E00C151D0571F0B9
:101FE0006991D701ED91FC910190F081E02DC7013D
:101FF0000995892B19F00F5F1F4FEFCFC801DF91B3
:10200000CF911F910F91FF90EF90DF90CF900895A7
:102010006115710581F0DB010D900020E9F7AD013C
:1020200041505109461B570BDC01ED91FC91028098
:10203000F381E02D099480E090E008950C9408105D
:102040006AEB71E00C9408100F931F93CF93DF930A
:10205000EC010E9408108C01CE010E942010800F1C
:10206000911FDF91CF911F910F9108958F929F92B1
:10207000AF92BF92CF92DF92EF92FF920F931F9396
:10208000CF93DF93CDB7DEB7A1970FB6F894DEBF3D
:102090000FBECDBF7C01C42EE52FCB01D22E19A2DD
:1020A00021E02D1510F02AE0D22E8E010F5D1F4F7A
:1020B0008D2C912CA12CB12C6C2D7E2FA50194017F
:1020C0000E9465118C2DD29E801911240150110996
:1020D0008A3014F4805D01C0895CF8018083211589
:1020E00031054105510521F0C22EE32FCA01E4CF8D
:1020F000B801C7010E940810A1960FB6F894DEBF80
:102100000FBECDBFDF91CF911F910F91FF90EF9048
:10211000DF90CF90BF90AF909F908F900895211542
:10212000310541F4DC01ED91FC910190F081E02D4D
:10213000642F09940C9436100F931F93CF93DF9361
:10214000EC019A01462F50E060E070E00E948F1091
:102150008C01CE010E942010800F911FDF91CF9142
:102160001F910F9108950F931F93CF93DF93EC016D
:102170009A01AB0160E070E00E948F108C01CE01EB
:102180000E942010800F911FDF91CF911F910F911E
:1021900008954F925F926F927F92AF92BF92CF92CB
:1021A000DF92EF92FF920F931F93CF93DF93CDB700
:1021B000DEB729013A01621B730B840B950B298949
:1021C0003A894B895C892A193B094C095D09298B9D
:1021D0003A8B4B8B5C8B9B01AC0169897A898B892B
:1021E0009C890E942111E418F50806091709A80125
:1021F00097010E9487112A0D3B1D4C1D5D1DCA01D0
:10220000B901DF91CF911F910F91FF90EF90DF9077
:10221000CF90BF90AF907F906F905F904F90089558
:1022200008950E94DD0C0E9410110E943D02C3E23D
:10223000DEE00E94AD002097E1F30E94230EF9CF6B
:102240000895DB018F939F930E94A611BF91AF91D8
:10225000A29F800D911DA39F900DB29F900D112400
:102260000895991B79E004C0991F961708F0961BF2
:10227000881F7A95C9F780950895AA1BBB1B51E169
:1022800007C0AA1FBB1FA617B70710F0A61BB70BE6
:10229000881F991F5A95A9F780959095BC01CD018B
:1022A000089597FB072E16F4009407D077FD09D008
:1022B0000E943D1107FC05D03EF4909581959F4FFB
:1022C0000895709561957F4F0895A1E21A2EAA1B7B
:1022D000BB1BFD010DC0AA1FBB1FEE1FFF1FA217D6
:1022E000B307E407F50720F0A21BB30BE40BF50BD3
:1022F000661F771F881F991F1A9469F7609570955C
:10230000809590959B01AC01BD01CF010895052EEC
:1023100097FB1EF400940E949E1157FD07D00E9467
:10232000651107FC03D04EF40C949E115095409516
:10233000309521953F4F4F4F5F4F08959095809571
:10234000709561957F4F8F4F9F4F08950E94B711F1
:10235000A59F900DB49F900DA49F800D911D1124F9
:102360000895EE0FFF1F0590F491E02D0994A29FB0
:10237000B001B39FC001A39F700D811D1124911D59
:10238000B29F700D811D1124911D0895F894FFCF07
:102390000100000001436F6C6F722073656E736FF4
:1023A000722072656164696E67733A00523A09007F
:1023B000473A0900423A0900436F6C6F7220736517
:1023C0006E736F7220287363616C656420746F2074
:1023D0003820626974293A004875652028382D62D2
:1023E0006974293A0900544353333437323520494C
:1023F000324320636F6C6F722073656E736F72204F
:10240000006E6F7420004C3347443230482049320C
:1024100043206779726F2073656E736F7200206E50
:102420006F740020666F756E640000000000030585
:10243000D604AB04B304C604D50400000000740E37
:10244000E00FF60D0F0E010E520E0D0A006E616EBA
:0C24500000696E66006F7666002E0000CA
:00000001FF
