:100000000C9465000C948D000C948D000C948D0064
:100010000C948D000C948D000C948D000C94F90BB5
:100020000C948D000C948D000C948D000C940C0499
:100030000C948D000C948D000C948D000C948D000C
:100040000C94C60F0C948D000C94A8120C94DA1228
:100050000C948D000C948D000C948D000C948D00EC
:100060000C9414080C948D0000000008000201009C
:100070000003040700000000000000000102040863
:100080001020408001020408102001020408102002
:10009000040404040404040402020202020203032E
:1000A00003030303000000002300260029000000D2
:1000B0000000250028002B0000000000240027007D
:1000C0002A00D5012A079A0B0A1311241FBECFEF6D
:1000D000D8E0DEBFCDBF12E0A0E0B1E0EEEBF2E38E
:1000E00002C005900D92A638B107D9F724E0A6E822
:1000F000B2E001C01D92A23BB207E1F710E0CAECEA
:10010000D0E004C02297FE010E944A19C23CD107E8
:10011000C9F70E94B1160C945D190C940000CF929F
:10012000DF92EF92FF926B017C0161E08DE00E9413
:100130000411F694E794D794C794C701B6010E94BE
:100140003F1060E08DE00E940411C701B601FF90EE
:10015000EF90DF90CF900C943F104F925F926F9290
:100160007F92AF92BF92CF92DF92EF92FF920F9366
:100170001F93CF93DF936FE571E085E194E00E94D8
:100180008B13C8EED3E0C12CD12C76018CE00E94F9
:100190003A11892BD9F38AE093E00E94630A809197
:1001A0000C0390910D03AA2797FDA095BA2FC80EB6
:1001B000D91EEA1EFB1E219749F7C701B60128EE9A
:1001C00033E040E050E00E941E19CA01B9013093AB
:1001D0000903209308034AE050E085E194E00E947F
:1001E0004D1460E771E085E194E00E948B13C8EE46
:1001F000D3E08AE093E00E94630AA0900C03B090E1
:100200000D030091080310910903B501601B710BE8
:10021000882777FD8095982F0E94C5176B017C0178
:10022000409004035090050360900603709007030C
:10023000A30192010E94751818164CF4C092040391
:10024000D0920503E0920603F09207031DC0A301BC
:1002500092015058C701B6010E94261787FF14C0AB
:10026000662777276A197B09601B710B882777FD42
:100270008095982F0E94C51760930403709305031F
:100280008093060390930703219709F0B2CF20E0F3
:1002900030E048EC52E460910403709105038091D2
:1002A0000603909107030E942A17AB01BC014093FB
:1002B000040350930503609306037093070324E03F
:1002C00030E085E194E0DF91CF911F910F91FF9095
:1002D000EF90DF90CF90BF90AF907F906F905F9046
:1002E0004F900C947615CF92DF92EF92FF928AE0B6
:1002F00093E00E94630A60910C0370910D0380915A
:10030000080390910903681B790B882777FD809576
:10031000982F0E94C5172CE933E342E25CE30E9468
:1003200079186B017C016093000370930103809343
:100330000203909303032091FC023091FD0240914F
:10034000FE025091FF020E94C2162DEC3CE447E3EE
:1003500053E40E942A1720E030E040E05FE30E946F
:1003600079189B01AC016091F8027091F9028091BB
:10037000FA029091FB020E94C2166093F8027093F9
:10038000F9028093FA029093FB02C092FC02D09291
:10039000FD02E092FE02F092FF028FEA92E0FF90EF
:1003A000EF90DF90CF900C94200CAF92BF92CF9241
:1003B000DF92EF92FF920F931F938AE193E00E94E6
:1003C000C80487E193E00E94C8048AE093E00E9499
:1003D000190AA090EC02B090ED02C090EE02D0900D
:1003E000EF02E090F002F090F1020091F202109121
:1003F000F3021F921F928091EB028F938091EA0289
:100400008F938091E9028F938091E8028F9324EF7C
:1004100032E04AE051E068EF72E08FEA92E00E9439
:10042000590F41E050E060E070E08AEA92E00E94FB
:10043000990924EF31E043E06BE088E992E00E9403
:10044000A20B0F900F900F900F900F900F9024EF32
:1004500031E049E06AE086E892E01F910F91FF9059
:10046000EF90DF90CF90BF90AF900C94A20B85E1FE
:1004700094E00E94BF1161E08EE00E940411E091BF
:100480001504F09116040190F081E02D6AEA85E1EF
:1004900094E0099585E194E00E94BF1160E08EE050
:1004A0000C940411CF93DF9300D000D0CDB7DEB70A
:1004B00090E899838A836B83860F8F778C8385E19D
:1004C00094E00E94BF1161E08EE00E940411E0916F
:1004D0001504F09116040280F381E02D44E050E011
:1004E000BE016F5F7F4F85E194E0099585E194E05F
:1004F0000E94BF1160E08EE00E9404110F900F90E7
:100500000F900F90DF91CF9108950F931F9361E0AB
:1005100088E00E94CB1060E088E00E94041161E056
:100520008EE00E94CB1060E08EE00E94041126E075
:1005300040E056E960E070E085E194E00E944612F8
:100540006DE871E085E194E00E94981360ED77E03A
:1005500080E090E00E943F1064EB71E085E194E060
:100560000E948B130E9437026FEC71E085E194E0EA
:100570000E948B1360E088E00E94520260E08BE0F2
:100580000E94520261E088E00E94041163EE71E073
:1005900085E194E00E94981365E070E08AE193E0C1
:1005A0000E9462056CE870E08AE193E00E949B057E
:1005B00066E070E087E193E00E9462056CE170E024
:1005C00087E193E00E949B0561E08DE00E94CB10E3
:1005D00067EF71E085E194E00E948B138AEA92E074
:1005E0000E94C109811106C061E172E085E194E0D9
:1005F0000E948B1366E172E085E194E00E949813FB
:100600006DE172E085E194E00E948B1342E050E0DE
:1006100063E070E08AE093E00E940D0B811106C058
:1006200061E172E085E194E00E948B1366E172E083
:1006300085E194E00E9498138AE093E00E944B0ABF
:100640000E94AD0060E08CE00E94CB1048E062E2C6
:100650008AE093E00E94220A00E010E020E932E400
:1006600040E050E060E672E48FEA92E00E94410EC2
:1006700065E070E08FEA92E01F910F910C94F30D0A
:10068000CF92DF92EF92FF92CF93DF9364EF71E00E
:1006900080E090E00E948F0064EF71E080E090E0E5
:1006A0000E948F0065E372E085E194E00E948B1365
:1006B00085E194E00E94631102973CF468EE73E0D8
:1006C00080E090E00E948F00F3CF41E060E070E0B6
:1006D00085E194E00E94F915C62F80E090E0A0E843
:1006E000B2E480930A0190930B01A0930C01B093A4
:1006F0000D011092F4021092F5021092F60210927F
:10070000F7021092F8021092F9021092FA02109277
:10071000FB0261E070E08FEA92E00E94070FF8E8C8
:10072000CF2EF3E1DF2EE12CF12C85E194E00E9445
:100730006311892B09F040C00E941010A701960197
:100740000E94FC186C2F20FF02C088E001C089E0E5
:100750000E9452028CE00E943A11019731F70E94E8
:10076000730160910A0170910B0180910C019091CD
:100770000D010E949717D62F4091F8025091F9026F
:100780006091FA027091FB0222E030E085E194E092
:100790000E9474156DE571E085E194E00E948B1371
:1007A0004AE050E06D2F85E194E00E9472146D2FB5
:1007B0008DE00E945202B9CF60E088E00E945202B0
:1007C00060E48DE00E94520260E070E08FEA92E007
:1007D000DF91CF91FF90EF90DF90CF900C94070FB7
:1007E00063E472E085E194E00E94981385E194E06F
:1007F0000E947C118736910539F060ED77E080E04A
:1008000090E00E948F00F2CF0E94400368EE73E0F8
:1008100080E090E00C948F001F920F920FB60F9221
:1008200011242F933F934F935F936F937F938F93F5
:100830009F93AF93BF93EF93FF9380911E0387FF26
:1008400005C010928500109284001AC020911E03EA
:10085000332727FD309580911D0390E02817390735
:100860007CF480911E03992787FD9095FC01EE0F83
:10087000FF1FE80FF91FE15EFC4F808186FD15C068
:1008800080911E038F5F80931E0320911E033327E8
:1008900027FD309580911D0390E028173907BCF49F
:1008A00080911E038C305CF112C080911E03992749
:1008B00087FD9095FC01EE0FFF1FE80FF91FE15E29
:1008C000FC4F808160E08F730E940411D9CF80912A
:1008D000840090918500049680349C4918F480E44B
:1008E0009CE905C0809184009091850004969093C6
:1008F0008900809388008FEF80931E0338C0209179
:1009000084003091850080911E03992787FD909582
:10091000FC01EE0FFF1FE80FF91FE15EFC4F818124
:100920009281820F931F9093890080938800809119
:100930001E03992787FD9095FC01EE0FFF1FE80F1E
:10094000F91FE15EFC4F808186FF11C080911E037C
:10095000992787FD9095FC01EE0FFF1FE80FF91F07
:10096000E15EFC4F808161E08F730E940411FF9172
:10097000EF91BF91AF919F918F917F916F915F9117
:100980004F913F912F910F900FBE0F901F90189590
:1009900020911D032C30A0F431E0320F30931D0361
:1009A000FC012083822F90E0FC01EE0FFF1FE80F77
:1009B000F91FE15EFC4F88EB9BE0928381830895F1
:1009C0002FEFFC0120830895DF92EF92FF920F93A7
:1009D0001F93CF93DF93EC01D62E7A018901888192
:1009E0008C3008F066C061E08D2D0E94CB108881AC
:1009F000A82FB0E0FD01EE0FFF1FEA0FFB1FE15E25
:100A0000FC4F2D2D2F739081907C922B908360E270
:100A100072E06E197F0977FF02C06D5F7F4F759599
:100A2000679575956795698340E659E0401B510BC2
:100A300057FF02C04D5F5F4F5595479555954795B8
:100A40004A836CE00E94F0189CE0899FB001112459
:100A500020E030E0A901460F571FFA01EE0FFF1FFB
:100A6000E40FF51FE15EFC4F908196FD16C02F5FED
:100A70003F4F2C30310571F781110FC0109280006B
:100A800082E0809381001092850010928400B19AD8
:100A900080916F00826080936F00888190E0FC01FC
:100AA000EE0FFF1FE80FF91FE15EFC4F80818064AD
:100AB00080838881DF91CF911F910F91FF90EF90FC
:100AC000DF90089520E639E040E252E00C94E4041F
:100AD000FC0180818C3070F5918128E830E0291B81
:100AE000310997FD3395220F331F220F331F6217F1
:100AF00073077CF0928128E532E0291B310997FDCC
:100B00003395220F331F220F331F621773070CF424
:100B10009B0122503109220F331F4FB7F89490E008
:100B2000FC01EE0FFF1FE80FF91FE15EFC4F32835F
:100B300021834FBF08954F925F926F927F92AF9241
:100B4000BF92CF92DF92EF92FF920F931F93CF93BA
:100B5000DF93EC01603282E078070CF040C077FD53
:100B600006C0653B71052CF064EB70E002C060E0EC
:100B700070E0898128E830E0281B310987FD339532
:100B8000220F331F220F331F5901CC24B7FCC0940E
:100B9000DC2C882777FD8095982F2A8148E552E044
:100BA000421B510927FD5395440F551F440F551FF4
:100BB0002A01662457FC6094762C7F926F925F9294
:100BC0004F9214EBE12EF12C00E010E020E030E039
:100BD000A9010E9469160F900F900F900F90CE01FF
:100BE000DF91CF911F910F91FF90EF90DF90CF9009
:100BF000BF90AF907F906F905F904F900C9468057E
:100C00008091730390E020917403821B91090895F1
:100C10002091740380917303281750F4E22FF0E0C1
:100C2000EB58FC4F808190E02F5F20937403089570
:100C30008FEF9FEF0895E091740380917303E8179D
:100C400030F4F0E0EB58FC4F808190E008958FEF96
:100C50009FEF08950895CF92DF92EF92FF920F9346
:100C60001F93CF93DF937C01CB018A0120914F0327
:100C7000222389F0EB016B01C40ED51ECC15DD05D6
:100C800069F06991D701ED91FC910190F081E02D1F
:100C9000C7010995F3CF642F0E94EB07C801DF91CC
:100CA000CF911F910F91FF90EF90DF90CF9008951B
:100CB000CF93DF931F92CDB7DEB7698320914F03A7
:100CC0002223D1F020915003203240F021E030E087
:100CD000FC013383228380E090E015C080915103B2
:100CE000E82FF0E0EE5AFC4F998190838F5F80935C
:100CF00051038093500305C061E0CE0101960E942C
:100D0000EB0781E090E00F90DF91CF910895FC0117
:100D10001382128248EE53E060E070E04483558312
:100D2000668377838BE592E09183808308951092A8
:100D300074031092730310925103109250030C9499
:100D40002E0781E080934F0360937203109251034A
:100D50001092500308950C94A1060F93062F21E0E2
:100D60004091500362E573E0809172030E94940702
:100D7000109251031092500310924F030F91089557
:100D80008F929F92AF92BF92CF92DF92EF92FF929B
:100D90000F931F93CF93DF93EC01F62ED42E4801CF
:100DA0005901EE2019F10E94A1061E2D143008F001
:100DB00013E01150B8F0E881F98128E0129FB001EA
:100DC0001124A501940104C05695479537952795A0
:100DD0006A95D2F7CA01B9010190F081E02DCE01E8
:100DE0000995E7CF60E0CE010E94AD064D2D41325E
:100DF00008F040E22C2D65E773E08F2D0E944C0730
:100E00001092740380937303DF91CF911F910F9120
:100E1000FF90EF90DF90CF90BF90AF909F908F901A
:100E20000895CF92EF920F931F93C22EE12C00E012
:100E300010E098010E94C0061F910F91EF90CF9093
:100E4000089521E00C94110721E00C94110761E052
:100E50000C94AD0683E493E00C9487061092020490
:100E600081E0809300041092FF0361E082E10E9420
:100E7000041161E083E10E940411E9EBF0E080815C
:100E80008E7F808380818D7F808388E48093B8000B
:100E900085E48093BC000895413208F043C09091EE
:100EA00002049111FCCF91E090930204209300047E
:100EB0002FEF209395031092DA03240F2093D90388
:100EC0009093010490910104880F892B8093010471
:100ED0008091FF03813061F41092FF03809101043F
:100EE0008093BB008091BC0083FDF8CF85EC01C0EE
:100EF00085EE8093BC00809102048130E1F3809103
:100F0000DA03841710F44091DA032BED33E0FB0190
:100F1000D9018A2F821B841718F48D918193F9CF00
:100F2000842F089580E008950F93413208F04AC05D
:100F3000909102049111FCCF92E0909302040093EF
:100F400000049FEF909395031092DA034093D90326
:100F5000FB016BED73E0DB019A2F961B941718F4DD
:100F600091919D93F9CF1092010490910104880F03
:100F7000892B809301048091FF03813061F41092EA
:100F8000FF03809101048093BB008091BC0083FD2E
:100F9000F8CF85EC01C085EE8093BC00222321F0C0
:100FA000809102048230E1F3809195038F3F61F0DC
:100FB00080919503803251F080919503803341F404
:100FC00083E007C081E005C080E003C082E001C08B
:100FD00084E00F910895613298F420910204243046
:100FE00089F46093B703FC0189EB93E0DC012A2FBD
:100FF000281B261718F421912D93F9CF80E008952E
:1010000081E0089582E0089585ED8093BC00809191
:10101000BC0084FDFCCF10920204089585EC8093FF
:10102000BC001092020408951F920F920FB60F9207
:1010300011242F933F934F935F936F937F938F93DD
:101040009F93AF93BF93EF93FF938091B900887FF5
:10105000803609F49EC078F5883209F45DC090F4BA
:10106000803109F456C038F4882309F4F5C088307B
:1010700009F44FC0F5C0883109F44EC0803209F43C
:101080005FC0EEC0803409F46AC058F4803309F4BC
:1010900057C0883309F0E4C0809395030E940E087E
:1010A000DFC0803509F44FC0883509F45DC088344D
:1010B00009F0D6C0D3C0883909F4C4C0A8F4883771
:1010C00009F467C038F4883609F463C0803709F43E
:1010D00060C0C6C0883809F4B5C0803909F45FC063
:1010E000803809F0BDC05BC0803B09F483C038F490
:1010F000803A09F466C0883A09F47CC0B1C0803CEB
:1011000009F4A4C0883C09F4A1C0883B09F487C055
:10111000A7C08091010410C09091DA038091D90397
:10112000981770F5E091DA0381E08E0F8093DA036F
:10113000F0E0E552FC4F80818093BB0085EC83C0DA
:10114000809395038BC0E091DA0381E08E0F80934A
:10115000DA038091BB00F0E0E552FC4F8083909170
:10116000DA038091D9036BC0E091DA0381E08E0F3E
:101170008093DA038091BB00F0E0E552FC4F80835E
:101180008091000481116AC081E08093FF0384EAAA
:101190005EC083E08093020410929603CFCF8091CB
:1011A0009603803208F04EC0E091960381E08E0FE6
:1011B000809396038091BB00F0E0E956FC4F80835A
:1011C000BDCF0E940E0880919603803230F4E091EA
:1011D0009603F0E0E956FC4F10826091960370E0B0
:1011E000E091FB03F091FC0387E993E009951092ED
:1011F000960336C084E0809302041092B8031092E4
:10120000B703E091FD03F091FE0309958091B703C8
:10121000811105C081E08093B7031092B903E0917A
:10122000B80381E08E0F8093B803F0E0E754FC4FE1
:1012300080818093BB009091B8038091B703981789
:1012400008F47CCF85E88093BC000AC085EC8093CD
:10125000BC001092020404C0109295030E9404087E
:10126000FF91EF91BF91AF919F918F917F916F917E
:101270005F914F913F912F910F900FBE0F901F9054
:101280001895DC01ED91FC910190F081E02D09941D
:101290001F93CF93DF9300D000D0CDB7DEB7162FCA
:1012A00069E270E083E493E029833A834B835C83B3
:1012B0000E94AB061068612F70E083E493E00E9407
:1012C0004109E0914303F091440329813A814B8124
:1012D0005C81CA01B9017727882799270190F0819D
:1012E000E02D83E493E0099583E493E00F900F9061
:1012F0000F900F90DF91CF911F910C942707CF9300
:10130000DF93EC0121E030E040E050E060E00E943B
:10131000480963E070E080E090E00E943F1023E025
:1013200030E040E050E060E0CE01DF91CF910C94DE
:101330004809FC01108274836383528341830895BA
:10134000CF93C62F69E270E083E493E00E94AB067E
:10135000C0686C2F70E083E493E00E94410983E44D
:1013600093E00E94270741E050E069E270E083E4E7
:1013700093E00E94240783E493E00E940806CF9143
:101380000895CF93DF93EC0183E493E00E949706E6
:1013900062E1CE010E94A009843411F0803189F409
:1013A00081E088836B817C81CE010E94E50969819F
:1013B0007A81CE010E94FF09CE010E947F0981E05F
:1013C00001C080E0DF91CF9108950F931F93CF93D9
:1013D000DF93EC018B018881811103C0CE010E9453
:1013E000C109980140E050E061E0CE010E94480947
:1013F0001C830B83DF91CF911F910F9108950F9361
:101400001F93CF93DF93EC018B018881811103C07F
:10141000CE010E94C109980140E050E06FE0CE018A
:101420000E9448091A830983DF91CF911F910F9180
:101430000895FC0183E090E09087878313861286ED
:1014400014860895EF92FF921F93CF93DF931F921C
:10145000CDB7DEB77C01162FFC01618583E493E0F4
:1014600049830E94A106612F83E493E00E945806FD
:101470004981642F83E493E00E94580683E493E05B
:101480000E942707F70186830F90DF91CF911F916C
:10149000FF90EF900895CF93DF93EC018F819885B3
:1014A000029729F440E069E3CE010E94220A40E05D
:1014B00063E2CE010E94220A4FE660E2CE01DF9194
:1014C000CF910C94220A9F92AF92BF92CF92DF925B
:1014D000EF92FF920F931F93CF93DF93EC016985F7
:1014E00083E493E00E94A106E0914303F09144035A
:1014F0000190F081E02D68EA83E493E0099583E4AC
:1015000093E00E94270746E0698583E493E00E9408
:1015100021070E9410107B0183E493E00E940006E3
:10152000069784F48A859B85892BB1F30E9410105D
:101530006E197F098A859B858617970768F781E072
:101540008C872CC083E493E00E940806A82E83E4D5
:1015500093E00E940806982E83E493E00E94080618
:10156000E82E83E493E00E940806B82E83E493E01B
:101570000E940806F82E83E493E00E940806D92C06
:10158000C12CCA28D982C8821B2D00E00E291B83DA
:101590000A83982F88278F299D838C83DF91CF9191
:1015A0001F910F91FF90EF90DF90CF90BF90AF9081
:1015B0009F9008951F93CF93DF931F92CDB7DEB70F
:1015C000162F83E493E049830E94A1064981642F8A
:1015D00083E493E00E94580683E493E00E94270787
:1015E000811114C041E0612F83E493E00E94210740
:1015F00083E493E00E940006892B41F083E493E0AA
:101600000F90DF91CF911F910C9408068FEF9FEF01
:101610000F90DF91CF911F910895EF92FF920F935A
:101620001F93CF93DF937C01EB018A016330710537
:1016300021F04230510509F051C0CE0101970397C6
:1016400058F50115110581F04FE050E06BE6C70138
:101650000E94DA0A8F3F2FEF920719F001E010E0A5
:1016600013C00130110551F04FE050E06AE6C701A8
:101670000E94DA0A8F3FEFEF9E0721F4C330D105B5
:1016800069F027C000E010E0C330D10529F4873DA0
:101690009105F1F5C2E0D0E02097D9F401151105CC
:1016A00061F04FE050E069E6C7010E94DA0A833D2D
:1016B000910589F10130110549F04FE050E068E6ED
:1016C000C7010E94DA0A833D910541F1C330D1057B
:1016D00019F00230110511F480E025C0F701D08720
:1016E000C783209759F0D7FD11C023977CF40130B0
:1016F000110511F48BE608C08AE606C00130110519
:1017000011F489E601C088E6F701818781E00BC00A
:10171000C1E0D0E0C1CF01E010E002C000E010E085
:10172000C0E0D0E0D6CFDF91CF911F910F91FF9015
:10173000EF9008958FEF80930304109205041092A8
:1017400004040895CF93DF93DC0170E0FB01E458BB
:10175000FF4FE4911496EC931497842F90E0FC01D2
:10176000E458FF4FE4911596EC93159760577F4F1F
:10177000FB01C491D0E0CC0FDD1FC255DF4FFE014D
:101780004591549117965C934E931697FC01E05740
:10179000FF4F849190E0880F991F8C559F4FFC015B
:1017A0004591549119965C934E931897FB0164915F
:1017B000E62FF0E0EE0FFF1FE854FF4F8591949164
:1017C0001B969C938E931A972F5F3F4F49E3429F3E
:1017D000C001439F900D11248E38FFE69F0710F043
:1017E0008DE89FE61D969C938E931C97DF91CF9179
:1017F00008951F920F920FB60F9211242F933F93CB
:101800004F935F936F937F938F939F93AF93BF9308
:10181000EF93FF93E0910A04F0910B040995FF9177
:10182000EF91BF91AF919F918F917F916F915F9158
:101830004F913F912F910F900FBE0F901F901895D1
:101840002F923F924F925F926F927F928F929F92D0
:10185000AF92BF92CF92DF92EF92FF920F931F93BE
:10186000CF93DF93CDB7DEB72B970FB6F894DEBFDB
:101870000FBECDBF9B878A87DC01D896BC91B98308
:10188000B11102C01982E2C00E9410106A837B83EA
:101890008C839D83EA85FB8580A191A1A2A1B3A140
:1018A0004A815B816C817D81481B590B6A0B7B0BE4
:1018B00084A595A5A6A5B7A5481759076A077B076C
:1018C00008F3028CF38DE02D80809180A280B3809C
:1018D000AA85BB855E96ED91FC915F97A501940169
:1018E00060817181828193810E94C1162B013C012C
:1018F000EA85FB8520893189428953890E947918BC
:10190000AA85BB8594962D913D914D915C919797B9
:101910000E94C2166B017C01EA85FB8564A375A356
:1019200086A397A324A835A806A917A99101A80101
:101930000E94751818161CF4C101D80118C0AA8598
:10194000BB85D0968D919D910D90BC91A02D8E83DD
:101950009F83A887B9879C01AD01C701B6010E948A
:10196000261787FF0AC08E819F81A885B985EA85E1
:10197000FB8584A395A3A6A3B7A3AA85BB851C96C4
:101980002D913D914D915C911F97C301B2010E9431
:101990007918EA85FB8524A135A146A157A10E94AB
:1019A000C2166B017C01AA85BB8598962D913D914D
:1019B0004D915C919B97C501B4010E94C116EA85C7
:1019C000FB8524893589468957890E9479189B01AE
:1019D000AC01C701B6010E94C1166B017C019101E7
:1019E000A8010E9475181816BCF0AA85BB85D09670
:1019F0002C90D097D1963C90D197D2960C91D297BB
:101A0000D3961C919101A801B601C7010E94261727
:101A100087FD02C016018701AA85BB855C96ED9102
:101A2000FC915D97C101D80180839183A283B38328
:101A3000EA85FB8580A691A6A2A6B3A68A819B8192
:101A4000AC81BD8180A391A3A2A3B3A389812B966E
:101A50000FB6F894DEBF0FBECDBFDF91CF911F91BF
:101A60000F91FF90EF90DF90CF90BF90AF909F903D
:101A70008F907F906F905F904F903F902F90089540
:101A80002F923F924F925F926F927F928F929F928E
:101A9000AF92BF92CF92DF92EF92FF920F931F937C
:101AA000CF93DF9300D000D0CDB7DEB71C012A0161
:101AB0003B014801590120E030E0A901C301B20116
:101AC0000E94261787FD78C020E030E0A901C501FB
:101AD000B4010E94261787FD6FC020E030E0A90105
:101AE000C701B6010E94261787FD66C0F10140823A
:101AF00051826282738284829582A682B782C08676
:101B0000D186E286F38664A575A586A597A50E9471
:101B1000C31720E030E04AE754E40E942A176983A3
:101B20007A838B839C83F10144865586668677860B
:101B30009B01AC01C501B4010E9479184B015C0105
:101B4000F101608B718B828B938B29813A814B8160
:101B50005C81C701B6010E942A176B017C01F1016B
:101B6000648B758B868B978B808D918D019721F57A
:101B7000A301920160E070E0CB010E94C116F10167
:101B80006487758786879787A501940160E070E078
:101B9000CB010E94C116F101608B718B828B938BFC
:101BA000A701960160E070E0CB010E94C116F1012F
:101BB000648B758B868B978B0F900F900F900F9087
:101BC000DF91CF911F910F91FF90EF90DF90CF9019
:101BD000BF90AF909F908F907F906F905F904F904D
:101BE0003F902F9008958F929F92AF92BF92CF9285
:101BF000DF92EF92FF92CF93DF93EC011616170658
:101C0000ACF56B01EE24D7FCE094FE2CC701B601C5
:101C10000E94C5174B015C016CA57DA58EA59FA5F3
:101C20000E94C3179B01AC01C501B4010E942A1791
:101C30004B015C019B01AC01688979898A899B8988
:101C40000E947918688B798B8A8B9B8BA5019401F4
:101C50006C897D898E899F890E942A176C8B7D8B68
:101C60008E8B9F8BCCA6DDA6EEA6FFA6DF91CF9133
:101C7000FF90EF90DF90CF90BF90AF909F908F90AC
:101C800008952F923F924F925F926F927F928F9220
:101C90009F92AF92BF92CF92DF92EF92FF920F93FB
:101CA0001F93CF93DF93EC016A017B014801590137
:101CB000A9019801C701B6010E94751887FF4EC09F
:101CC000C8AAD9AAEAAAFBAA8CAA9DAAAEAABFAAA8
:101CD00088AD882309F442C02C8C3D8CF1014080F2
:101CE000518062807380A5019401C301B2010E94FA
:101CF0007518181634F4F10180829182A282B382A1
:101D00000DC0A7019601C301B2010E94261787FFEB
:101D100005C0F101C082D182E282F3828CA09DA035
:101D2000AEA0BFA0CCA8DDA8EEA8FFA8A701960191
:101D3000C501B4010E947518181664F0C8A8D9A886
:101D4000EAA8FBA8A7019601C501B4010E942617C5
:101D500087FF04C0CCA2DDA2EEA2FFA2DF91CF914B
:101D60001F910F91FF90EF90DF90CF90BF90AF90B9
:101D70009F908F907F906F905F904F903F902F90AB
:101D800008958F929F92AF92BF92CF92DF92EF927F
:101D9000FF92CF93DF93EC01EC8DFD8DC080D1805D
:101DA000E280F380CCA2DDA2EEA2FFA2EA8DFB8D41
:101DB00080819181A281B38188A799A7AAA7BBA797
:101DC0008CA89DA8AEA8BFA8A5019401C701B60123
:101DD0000E947518181664F088A899A8AAA8BBA82C
:101DE000A5019401C701B6010E94261787FF04C010
:101DF0008CA29DA2AEA2BFA2DF91CF91FF90EF90E7
:101E0000DF90CF90BF90AF909F908F9008951F93D9
:101E1000CF93DF93EC0111E06130710509F010E020
:101E200088AD91E08927181303C0CE010E94C10E2E
:101E300018AFDF91CF911F9108950F931F93CF9308
:101E4000DF93EC018B0188AD882361F1888D998D3A
:101E50006817790739F12C853D854E855F8560E0EF
:101E600070E0CB010E94C1166C877D878E879F87AB
:101E7000288939894A895B8960E070E0CB010E943A
:101E8000C116688B798B8A8B9B8B2C893D894E89F7
:101E90005F8960E070E0CB010E94C1166C8B7D8B86
:101EA0008E8B9F8B198F088FDF91CF911F910F9190
:101EB00008954F925F926F927F928F929F92AF920E
:101EC000BF92CF92DF92EF92FF920F931F93CF9327
:101ED000DF9300D000D0CDB7DEB74C012701380129
:101EE000A982BA82CB82DC82FC01558F448F738F2A
:101EF000628F378F268F10AE10AA11AA12AA13AACA
:101F000080E090E0AFE7B3E484AB95ABA6ABB7ABB2
:101F100084E690E0A0E0B0E084A795A7A6A7B7A7C5
:101F20006B8D7C8DC4010E941D0FCF88D88CE98CED
:101F3000FA8C09811A812B813C81B301A201C40171
:101F40000E94400D0E941010F40144A455A466A400
:101F500077A4641975098609970960A371A382A300
:101F600093A30F900F900F900F90DF91CF911F913F
:101F70000F91FF90EF90DF90CF90BF90AF909F9028
:101F80008F907F906F905F904F9008951F920F9267
:101F90000FB60F9211242F933F938F939F93AF937C
:101FA000BF9380910D0490910E04A0910F04B09105
:101FB000100430910C0423E0230F2D3720F40196F8
:101FC000A11DB11D05C026E8230F0296A11DB11D5C
:101FD00020930C0480930D0490930E04A0930F049F
:101FE000B09310048091110490911204A0911304F5
:101FF000B09114040196A11DB11D8093110490931A
:102000001204A0931304B0931404BF91AF919F9155
:102010008F913F912F910F900FBE0F901F901895A9
:102020002FB7F89460910D0470910E0480910F0405
:10203000909110042FBF08953FB7F8948091110438
:1020400090911204A0911304B091140426B5A89B9A
:1020500005C02F3F19F00196A11DB11D3FBF662796
:10206000782F892F9A2F620F711D811D911D42E0DB
:10207000660F771F881F991F4A95D1F70895CF9251
:10208000DF92EF92FF92CF93DF936B017C010E946E
:102090001C10EB01C114D104E104F10489F00E9489
:1020A000C0160E941C106C1B7D0B683E734090F3A1
:1020B00081E0C81AD108E108F108C851DC4FEACF25
:1020C000DF91CF91FF90EF90DF90CF9008957894BB
:1020D00084B5826084BD84B5816084BD85B582602D
:1020E00085BD85B5816085BDEEE6F0E080818160CB
:1020F0008083E1E8F0E010828081826080838081CB
:1021000081608083E0E8F0E0808181608083E1EBA2
:10211000F0E0808184608083E0EBF0E0808181608A
:102120008083EAE7F0E08081846080838081826040
:102130008083808181608083808180688083109229
:10214000C1000895833081F028F4813099F0823005
:10215000A1F008958730A9F08830B9F08430D1F427
:10216000809180008F7D03C0809180008F77809365
:102170008000089584B58F7702C084B58F7D84BDBB
:1021800008958091B0008F7703C08091B0008F7D5B
:102190008093B0000895CF93DF9390E0FC01E45862
:1021A000FF4F2491FC01E057FF4F8491882349F1B0
:1021B00090E0880F991FFC01E854FF4FA591B4915E
:1021C00082559F4FFC01C591D4919FB7611108C002
:1021D000F8948C91209582238C93888182230AC065
:1021E000623051F4F8948C91322F309583238C9384
:1021F0008881822B888304C0F8948C91822B8C93E5
:102200009FBFDF91CF9108950F931F93CF93DF93DB
:102210001F92CDB7DEB7282F30E0F901E859FF4F04
:102220008491F901E458FF4F1491F901E057FF4FF1
:1022300004910023C9F0882321F069830E94A21031
:102240006981E02FF0E0EE0FFF1FE255FF4FA591EF
:10225000B4919FB7F8948C91611103C010958123BC
:1022600001C0812B8C939FBF0F90DF91CF911F9165
:102270000F910895CF93DF93282F30E0F901E859AB
:10228000FF4F8491F901E458FF4FD491F901E057D1
:10229000FF4FC491CC2391F081110E94A210EC2F2A
:1022A000F0E0EE0FFF1FEC55FF4FA591B4912C917C
:1022B0002D2381E090E021F480E002C080E090E0F6
:1022C000DF91CF910895FC01818D228D90E0805C9B
:1022D0009F4F821B91098F7399270895FC01918D5F
:1022E000828D981731F0828DE80FF11D858D90E079
:1022F00008958FEF9FEF0895FC01918D828D9817BF
:1023000061F0828DDF01A80FB11D5D968C91928DD9
:102310009F5F9F73928F90E008958FEF9FEF0895D6
:1023200080E093E1892B49F080E090E0892B29F04F
:102330000E94001381110C9400000895FC01848D0B
:10234000DF01A80FB11DA35ABF4F2C91848D90E0DF
:1023500001968F739927848FA689B7892C93A089BA
:10236000B1898C9180648C93938D848D981306C071
:102370000288F389E02D80818F7D80830895CF933B
:10238000DF93EC01888D8823C9F0EA89FB8980817D
:1023900085FD05C0A889B9898C9186FD0FC00FB64F
:1023A00007FCF5CF808185FFF2CFA889B9898C9190
:1023B00085FFEDCFCE010E949E11E7CFDF91CF9137
:1023C0000895CF92DF92FF920F931F93CF93DF93E5
:1023D0001F92CDB7DEB76C0181E0D60158968C9381
:1023E00058975B969C915B975C968C915C97981341
:1023F00007C05096ED91FC915197808185FD2EC0CC
:10240000F601038D10E00F5F1F4F0F731127F02EA1
:10241000F601848DF81211C00FB607FCF9CFD60172
:102420005096ED91FC915197808185FFF1CFC601C7
:1024300069830E949E116981EBCF838DE80FF11DA6
:10244000E35AFF4F6083D6015B960C935B975296DD
:10245000ED91FC915397808180620CC0D601569615
:10246000ED91FC91579760835096ED91FC915197B7
:1024700080818064808381E090E00F90DF91CF9134
:102480001F910F91FF90DF90CF900895BF92CF9250
:10249000DF92EF92FF92CF93DF93EC016A017B0111
:1024A000B22EE889F98982E08083411581EE5807D0
:1024B00061057105A1F060E079E08DE390E0A7018E
:1024C00096010E94FC182150310941095109569585
:1024D000479537952795211580E1380798F0E889C9
:1024E000F989108260E874E88EE190E0A701960116
:1024F0000E94FC1821503109410951095695479510
:1025000037952795EC85FD853083EE85FF85208303
:10251000188EEC89FD89B082EA89FB89808180610F
:102520008083EA89FB89808188608083EA89FB89CE
:10253000808180688083EA89FB8980818F7D8083A8
:10254000DF91CF91FF90EF90DF90CF90BF900895F3
:102550001F920F920FB60F9211242F938F939F9378
:10256000EF93FF93E0912504F09126048081E091A0
:102570002B04F0912C0482FD12C0908180912E04D6
:102580008F5F8F7320912F04821751F0E0912E04FA
:10259000F0E0EB5EFB4F958F80932E0401C08081AD
:1025A000FF91EF919F918F912F910F900FBE0F9000
:1025B0001F9018951F920F920FB60F9211242F9310
:1025C0003F934F935F936F937F938F939F93AF93BB
:1025D000BF93EF93FF9385E194E00E949E11FF91DA
:1025E000EF91BF91AF919F918F917F916F915F918B
:1025F0004F913F912F910F900FBE0F901F90189504
:1026000085E194E00E94631121E0892B09F420E028
:10261000822F0895109218041092170488EE93E008
:10262000A0E0B0E08093190490931A04A0931B04D7
:10263000B0931C048BE692E09093160480931504EB
:1026400085EC90E0909322048093210484EC90E048
:10265000909324048093230480EC90E090932604CC
:102660008093250481EC90E09093280480932704C4
:1026700082EC90E090932A048093290486EC90E009
:1026800090932C0480932B0410922E0410922F040C
:1026900010923004109231040895CF92DF92EF929D
:1026A000FF920F931F93CF93DF937C016A01EB019D
:1026B00000E010E00C151D0571F06991D701ED9156
:1026C000FC910190F081E02DC7010995892B19F04B
:1026D0000F5F1F4FEFCFC801DF91CF911F910F9177
:1026E000FF90EF90DF90CF9008956115710581F014
:1026F000DB010D900020E9F7AD0141505109461B67
:10270000570BDC01ED91FC910280F381E02D0994DF
:1027100080E090E008950C947513DC01ED91FC913C
:102720000190F081E02D099467E772E00C94751335
:102730000F931F93CF93DF93EC010E9475138C01CD
:10274000CE010E949413800F911FDF91CF911F91B2
:102750000F9108958F929F92AF92BF92CF92DF9286
:10276000EF92FF920F931F93CF93DF93CDB7DEB716
:10277000A1970FB6F894DEBF0FBECDBF7C01C42E6B
:10278000E52FCB01D22E19A221E02D1510F02AE061
:10279000D22E8E010F5D1F4F8D2C912CA12CB12CB0
:1027A0006C2D7E2FA50194010E94FC188C2DD29EC9
:1027B00080191124015011098A3014F4805D01C080
:1027C000895CF8018083211531054105510521F00F
:1027D000C22EE32FCA01E4CFB801C7010E947513CE
:1027E000A1960FB6F894DEBF0FBECDBFDF91CF919B
:1027F0001F910F91FF90EF90DF90CF90BF90AF901F
:102800009F908F900895CF92DF92EF92FF920F9357
:102810001F93CF93DF93EC016A017B0121153105F2
:1028200079F4E881F9810190F081E02D642FDF9146
:10283000CF911F910F91FF90EF90DF90CF9009946F
:102840002A303105E9F477FF1AC06DE20E948D133A
:102850008C0144275527BA014C195D096E097F097F
:102860002AE0CE010E94AA13800F911FDF91CF9121
:102870001F910F91FF90EF90DF90CF9008952AE085
:10288000B701A601CE01DF91CF911F910F91FF906B
:10289000EF90DF90CF900C94AA130F931F93CF93D8
:1028A000DF93EC019A01AB01662757FD6095762F07
:1028B0000E9403148C01CE010E949413800F911F7B
:1028C000DF91CF911F910F9108952115310541F4AA
:1028D000DC01ED91FC910190F081E02D642F0994D1
:1028E0000C94AA130F931F93CF93DF93EC019A01DB
:1028F000462F50E060E070E00E9465148C01CE012C
:102900000E949413800F911FDF91CF911F910F911F
:1029100008954F925F926F927F928F929F92AF92A3
:10292000BF92CF92DF92EF92FF920F931F93CF93BC
:10293000DF93EC016A017B01B22E9A01AB01C70162
:10294000B6010E94DC18882319F06AE772E027C0FC
:1029500026013701E89477F82FEF3FEF4FE75FE765
:10296000C301B2010E94DC1881110DC02FEF3FEFAF
:102970004FE75FE7C301B2010E94261718161CF447
:102980006EE772E00CC02FEF3FEF4FE75FE4C70147
:10299000B6010E9475181816ACF462E872E0CE0118
:1029A000DF91CF911F910F91FF90EF90DF90CF902B
:1029B000BF90AF909F908F907F906F905F904F905F
:1029C0000C9475132FEF3FEF4FE75FECC701B60193
:1029D0000E94261787FDE1CF20E030E0A901C70162
:1029E000B6010E94261787FF0AC06DE2CE010E9441
:1029F0008D138C01F7FAF094F7F8F09402C000E020
:102A000010E0A12C60E070E080E09FE3AB1441F0A7
:102A100020E030E040E251E40E942A17A394F6CF70
:102A20009B01AC01C701B6010E94C2166B017C017B
:102A30000E9497172B013C010E94C3179B01AC0118
:102A4000C701B6010E94C1166B017C012AE0B301E7
:102A5000A201CE010E94AA13080F191FBB2039F052
:102A60006DEC71E0CE010E947513080F191F7B2CCD
:102A7000772041F120E030E040E251E4C701B601A7
:102A80000E9479186B017C010E9492174B01AA24C5
:102A900097FCA094BA2C2AE030E0B501A401CE0145
:102AA0000E940314080F191FC501B4010E94C51725
:102AB0009B01AC01C701B6010E94C1166B017C01EC
:102AC0007A94D6CFC801DF91CF911F910F91FF90DB
:102AD000EF90DF90CF90BF90AF909F908F907F90BE
:102AE0006F905F904F9008950C9489140F931F93EB
:102AF000CF93DF93EC010E9489148C01CE010E94D8
:102B00009413800F911FDF91CF911F910F91089522
:102B10000F931F93CF93DF93EC010E9410106887EF
:102B200079878A879B87E881F9810084F185E02D88
:102B3000CE01099597FF15C00E94101008851985D0
:102B40002A853B85601B710B820B930B0C811D81C9
:102B50002E813F81601771078207930720F38FEF63
:102B60009FEFDF91CF911F910F910895FF920F93E7
:102B70001F93CF93DF93EC018B01F42ECE010E94C3
:102B800088159C0197FD28C08D32910519F1C097D9
:102B90000A9710F1FF2019F02E323105F9F00130BB
:102BA0001105F9F00230110569F42D30310551F0AD
:102BB00034F4295031092230310520F012C020327E
:102BC000310579F4E881F9810680F781E02DCE01A5
:102BD0000995D4CF8DE203C0C90105C08EE290E013
:102BE00002C08FEF9FEFDF91CF911F910F91FF9068
:102BF0000895CF92DF92FF920F931F93CF93DF93AD
:102C000000D000D0CDB7DEB76C01042F40E00E94A9
:102C1000B615FC0197FD4BC020E030E0A901F12C76
:102C2000112707FD1095E017F107E9F0ED32F105E6
:102C3000C1F0CF01C0970A97B0F4AAE0B0E00E94BB
:102C40003D199B01AC01CF01AA2797FDA095BA2F92
:102C5000280F391F4A1F5B1F2053310941095109B1
:102C600002C0FF24F394D601ED91FC910680F78118
:102C7000E02DC60129833A834B835C830995C60105
:102C80000E948815FC01C09729813A814B815C81A3
:102C90000A9748F2E017F10731F2FF2061F066274A
:102CA0007727CB01621B730B840B950B06C060E08A
:102CB00070E0CB0102C0CA01B9010F900F900F90D4
:102CC0000F90DF91CF911F910F91FF90DF90CF90E8
:102CD00008954F925F926F927F92AF92BF92CF9280
:102CE000DF92EF92FF920F931F93CF93DF93CDB7B5
:102CF000DEB729013A01621B730B840B950B2989FE
:102D00003A894B895C892A193B094C095D09298B51
:102D10003A8B4B8B5C8B9B01AC0169897A898B89DF
:102D20009C890E94E018E418F50806091709A80113
:102D300097010E941E192A0D3B1D4C1D5D1DCA01E5
:102D4000B901DF91CF911F910F91FF90EF90DF902C
:102D5000CF90BF90AF907F906F905F904F9008950D
:102D600008950E9467100E94B0160E948502C0E973
:102D7000D1E10E94F0032097E1F30E949011F9CF76
:102D800008955058BB27AA270ED075C166D130F0E0
:102D90006BD120F031F49F3F11F41EF45BC10EF4AF
:102DA000E095E7FB51C1E92F77D180F3BA176207AD
:102DB00073078407950718F071F49EF58FC10EF420
:102DC000E0950B2EBA2FA02D0B01B90190010C013B
:102DD000CA01A0011124FF27591B99F0593F50F453
:102DE000503E68F11A16F040A22F232F342F4427AB
:102DF000585FF3CF469537952795A795F0405395A3
:102E0000C9F77EF41F16BA0B620B730B840BBAF072
:102E10009150A1F0FF0FBB1F661F771F881FC2F7DD
:102E20000EC0BA0F621F731F841F48F487957795F1
:102E30006795B795F7959E3F08F0B3CF9395880FA8
:102E400008F09927EE0F979587950895D9D008F443
:102E500081E008950CD00FC107D140F0FED030F0D2
:102E600021F45F3F19F0F0C0511139C1F3C014D102
:102E700098F39923C9F35523B1F3951B550BBB2741
:102E8000AA2762177307840738F09F5F5F4F220FEE
:102E9000331F441FAA1FA9F333D00E2E3AF0E0E8E7
:102EA00030D091505040E695001CCAF729D0FE2F33
:102EB00027D0660F771F881FBB1F261737074807C5
:102EC000AB07B0E809F0BB0B802DBF01FF2793587B
:102ED0005F4F2AF09E3F510568F0B6C000C15F3FCA
:102EE000ECF3983EDCF3869577956795B795F79563
:102EF0009F5FC9F7880F911D9695879597F908955B
:102F0000E1E0660F771F881FBB1F621773078407F6
:102F1000BA0720F0621B730B840BBA0BEE1F88F705
:102F2000E095089504D06894B111D9C00895BCD03B
:102F300088F09F5790F0B92F9927B751A0F0D1F0A2
:102F4000660F771F881F991F1AF0BA95C9F712C02C
:102F5000B13081F0C3D0B1E00895C0C0672F782FA1
:102F60008827B85F39F0B93FCCF386957795679598
:102F7000B395D9F73EF490958095709561957F4F04
:102F80008F4F9F4F0895E89409C097FB3EF49095AA
:102F90008095709561957F4F8F4F9F4F9923A9F032
:102FA000F92F96E9BB279395F695879577956795C1
:102FB000B795F111F8CFFAF4BB0F11F460FF1BC005
:102FC0006F5F7F4F8F4F9F4F16C0882311F096E998
:102FD00011C0772321F09EE8872F762F05C0662346
:102FE00071F096E8862F70E060E02AF09A95660FFF
:102FF000771F881FDAF7880F9695879597F90895B8
:10300000990F0008550FAA0BE0E8FEEF16161706F9
:10301000E807F907C0F012161306E407F50798F061
:10302000621B730B840B950B39F40A2661F0232B7A
:10303000242B252B21F408950A2609F4A140A695F6
:103040008FEF811D811D089597F99F6780E870E0DB
:1030500060E008959FEF80EC089500240A9416160E
:10306000170618060906089500240A941216130676
:10307000140605060895092E0394000C11F4882304
:1030800052F0BB0F40F4BF2B11F460FF04C06F5F20
:103090007F4F8F4F9F4F089557FD9058440F551FF6
:1030A00059F05F3F71F04795880F97FB991F61F0CA
:1030B0009F3F79F087950895121613061406551F41
:1030C000F2CF4695F1DF08C0161617061806991FAD
:1030D000F1CF86957105610508940895E894BB27A2
:1030E00066277727CB0197F908958ADF08F48FEFD9
:1030F00008950BD0C0CFB1DF28F0B6DF18F09523CC
:1031000009F0A2CFA7CF1124EACFC6DFA0F3959F85
:10311000D1F3950F50E0551F629FF001729FBB27BE
:10312000F00DB11D639FAA27F00DB11DAA1F649F6A
:103130006627B00DA11D661F829F2227B00DA11D1D
:10314000621F739FB00DA11D621F839FA00D611DA3
:10315000221F749F3327A00D611D231F849F600DC4
:10316000211D822F762F6A2F11249F5750408AF0FD
:10317000E1F088234AF0EE0FFF1FBB1F661F771F89
:10318000881F91505040A9F79E3F510570F05CCFC9
:10319000A6CF5F3FECF3983EDCF386957795679575
:1031A000B795F795E7959F5FC1F7FE2B880F911DA7
:1031B0009695879597F9089523DF880B990B0895C5
:1031C000DB018F939F930E943D19BF91AF91A29F06
:1031D000800D911DA39F900DB29F900D1124089515
:1031E000991B79E004C0991F961708F0961B881F59
:1031F0007A95C9F780950895A1E21A2EAA1BBB1BE8
:10320000FD010DC0AA1FBB1FEE1FFF1FA217B307B2
:10321000E407F50720F0A21BB30BE40BF50B661FC8
:10322000771F881F991F1A9469F76095709580958C
:1032300090959B01AC01BD01CF010895052E97FB30
:103240001EF400940E94351957FD07D00E94FC1807
:1032500007FC03D04EF40C943519509540953095E9
:1032600021953F4F4F4F5F4F0895909580957095F2
:1032700061957F4F8F4F9F4F08950E944E19A59FD4
:10328000900DB49F900DA49F800D911D1124089561
:10329000EE0FFF1F0590F491E02D0994A29FB0015D
:1032A000B39FC001A39F700D811D1124911DB29F7A
:0E32B000700D811D1124911D0895F894FFCF1B
:1032BE000000B20480000100000000008042436F55
:1032CE006C6F722073656E736F72207265616469C4
:1032DE006E67733A00523A0900473A0900423A09BA
:1032EE0000436F6C6F722073656E736F722028735C
:1032FE0063616C656420746F203820626974293AAA
:10330E00004875652028382D626974293A090047EE
:10331E0079726F204443204F66667365743A2000BD
:10332E004779726F204E6F697365204C6576656CB8
:10333E003A20006779726F416E676C65000A5761BB
:10334E006974696E6720666F72205361626572746C
:10335E006F6F746820746F20706F77657220757050
:10336E002E2E2E00496E697469616C697A696E67DA
:10337E00205361626572746F6F74682E2E2E000A70
:10338E0053746F7070696E67206D6F746F72732EE9
:10339E002E2E00417474616368696E6720736572C6
:1033AE00766F732E2E2E005443533334373235201E
:1033BE0049324320636F6C6F722073656E736F7248
:1033CE0000206E6F740020666F756E64004C33477C
:1033DE004432304820493243206779726F2073653A
:1033EE006E736F7200456E74657220706F776572C2
:1033FE003A20005072657373206720746F20636FDC
:10340E006E74696E7565000000000058062B06008C
:10341E000608061B062A0600000000E1114D136384
:10342E00117C116E11BF110D0A006E616E00696E76
:06343E0066006F766600D7
:00000001FF
