:100000000C9465000C948D000C948D000C948D0064
:100010000C948D000C948D000C948D000C94000BAE
:100020000C948D000C948D000C948D000C94130393
:100030000C948D000C948D000C948D000C948D000C
:100040000C94510D0C948D000C9433100C9465108D
:100050000C948D000C948D000C948D000C948D00EC
:100060000C941B070C948D00000000080002010096
:100070000003040700000000000000000102040863
:100080001020408001020408102001020408102002
:10009000040404040404040402020202020203032E
:1000A00003030303000000002300260029000000D2
:1000B0000000250028002B0000000000240027007D
:1000C0002A0072013106A10A951011241FBECFEF3C
:1000D000D8E0DEBFCDBF12E0A0E0B1E0E6ECFBE28D
:1000E00002C005900D92AE37B107D9F724E0AEE714
:1000F000B2E001C01D92A639B207E1F710E0CAECE8
:10010000D0E004C02297FE010E94CE15C23CD10768
:10011000C9F70E9435130C94E1150C940000CF929E
:10012000DF92EF92FF926B017C0161E08DE00E9413
:100130008F0EF694E794D794C794C701B6010E9436
:10014000CA0D60E08DE00E948F0EC701B601FF90DE
:10015000EF90DF90CF900C94CA0D4F925F926F9208
:100160007F92AF92BF92CF92DF92EF92FF920F9366
:100170001F93CF93DF9365E671E089EF93E00E94D0
:100180001611C8EED3E0C12CD12C76018EEE92E090
:100190000E946A098091F0029091F102AA2797FDCE
:1001A000A095BA2FC80ED91EEA1EFB1E219771F723
:1001B000C701B60128EE33E040E050E00E94A215EE
:1001C000CA01B9013093ED022093EC024AE050E0FD
:1001D00089EF93E00E94D81166E771E089EF93E020
:1001E0000E941611C8EED3E08EEE92E00E946A09DA
:1001F000A090F002B090F1020091EC021091ED029B
:10020000B501601B710B882777FD8095982F0E94A0
:1002100049146B017C014090E8025090E902609023
:10022000EA027090EB02A30192010E94F9141816E1
:100230004CF4C092E802D092E902E092EA02F09215
:10024000EB021DC0A30192015058C701B6010E94E4
:10025000AA1387FF14C0662777276A197B09601BDA
:10026000710B882777FD8095982F0E944914609321
:10027000E8027093E9028093EA029093EB022197DF
:1002800009F0B2CF20E030E048EC52E46091E8029F
:100290007091E9028091EA029091EB020E94AE1304
:1002A000AB01BC014093E8025093E9026093EA027B
:1002B0007093EB0224E030E089EF93E0DF91CF917F
:1002C0001F910F91FF90EF90DF90CF90BF90AF9074
:1002D0007F906F905F904F900C94DB128EEE92E0C7
:1002E0000C946A09AF92BF92CF92DF92EF92FF9285
:1002F0000F931F938EEF92E00E94CF038BEF92E05B
:100300000E94CF038EEE92E00E942009A090080187
:10031000B0900901C0900A01D0900B01E0900C014F
:10032000F0900D0100910E0110910F011F921F928C
:10033000809107018F93809106018F938091050131
:100340008F93809104018F9320EE32E040E151E0E1
:1003500064EE72E087EA92E00E94E40C41E050E033
:1003600060E070E082EA92E00E94A00824EF31E0B1
:1003700043E06BE080E992E00E94A90A0F900F90A1
:100380000F900F900F900F9024EF31E049E06AE05A
:100390008EE792E01F910F91FF90EF90DF90CF904A
:1003A000BF90AF900C94A90A64EF71E080E090E0F8
:1003B0000E948F0064EF71E080E090E00E948F0067
:1003C00089EF93E00E94EE0E892B41F48CE00E94AD
:1003D000C50E0197A9F70E946E01F2CF089563E957
:1003E00071E089EF93E00E94231189EF93E00E946E
:1003F000070F8736910539F060ED77E080E090E0F7
:100400000E948F00F2CF0E94D40168EE73E080E07A
:1004100090E00C948F0089EF93E00E944A0F61E016
:100420008EE00E948F0EE091F903F091FA030190A3
:10043000F081E02D6AEA89EF93E0099589EF93E076
:100440000E944A0F60E08EE00C948F0ECF93DF93F2
:1004500000D000D0CDB7DEB790E899838A836B8354
:10046000860F8F778C8389EF93E00E944A0F61E0BB
:100470008EE00E948F0EE091F903F091FA03028062
:10048000F381E02D44E050E0BE016F5F7F4F89EFC4
:1004900093E0099589EF93E00E944A0F60E08EE0B7
:1004A0000E948F0E0F900F900F900F90DF91CF91C1
:1004B00008950F931F9361E088E00E94560E60E05C
:1004C00088E00E948F0E61E08EE00E94560E60E090
:1004D0008EE00E948F0E26E040E056E960E070E07A
:1004E00089EF93E00E94D10F67EA71E089EF93E012
:1004F0000E94231160ED77E080E090E00E94CA0D39
:100500006EEC71E089EF93E00E9416110E940B02DD
:1005100069EE71E089EF93E00E94161160E088E0D7
:100520000E94260260E08BE00E94260261E088E0E3
:100530000E948F0E6DEF71E089EF93E00E9423110E
:1005400065E070E08EEF92E00E9469046CE870E074
:100550008EEF92E00E94A20466E070E08BEF92E0E2
:100560000E9469046CE170E08BEF92E00E94A204AB
:1005700061E08DE00E94560E61E172E089EF93E048
:100580000E94161182EA92E00E94C808811106C0FA
:100590006BE272E089EF93E00E94161160E372E073
:1005A00089EF93E00E94231167E372E089EF93E003
:1005B0000E94161142E050E063E070E08EEE92E09F
:1005C0000E94140A811106C06BE272E089EF93E089
:1005D0000E94161160E372E089EF93E00E942311FC
:1005E0008EEE92E00E9452090E94AD0060E08CE025
:1005F0000E94560E48E062E28EEE92E00E942909C7
:1006000000E010E02EEF32E440E050E0BA0187EA6B
:1006100092E00E94280C65E070E087EA92E01F916A
:100620000F910C94DA0B1F920F920FB60F921124B8
:100630002F933F934F935F936F937F938F939F93EA
:10064000AF93BF93EF93FF938091020387FF05C0A1
:1006500010928500109284001AC020910203332763
:1006600027FD30958091010390E0281739077CF42D
:1006700080910203992787FD9095FC01EE0FFF1FE3
:10068000E80FF91FED5FFC4F808186FD15C080915A
:1006900002038F5F8093020320910203332727FD1B
:1006A00030958091010390E028173907BCF48091C0
:1006B00002038C305CF112C080910203992787FD00
:1006C0009095FC01EE0FFF1FE80FF91FED5FFC4F47
:1006D000808160E08F730E948F0ED9CF809184005B
:1006E00090918500049680349C4918F480E49CE93C
:1006F00005C08091840090918500049690938900B4
:10070000809388008FEF8093020338C0209184008B
:100710003091850080910203992787FD9095FC0117
:10072000EE0FFF1FE80FF91FED5FFC4F81819281F3
:10073000820F931F90938900809388008091020319
:10074000992787FD9095FC01EE0FFF1FE80FF91F19
:10075000ED5FFC4F808186FF11C0809102039927D5
:1007600087FD9095FC01EE0FFF1FE80FF91FED5F6D
:10077000FC4F808161E08F730E948F0EFF91EF919B
:10078000BF91AF919F918F917F916F915F914F91A9
:100790003F912F910F900FBE0F901F9018952091B1
:1007A00001032C30A0F431E0320F30930103FC013F
:1007B0002083822F90E0FC01EE0FFF1FE80FF91F4E
:1007C000ED5FFC4F88EB9BE09283818308952FEFD0
:1007D000FC0120830895DF92EF92FF920F931F9305
:1007E000CF93DF93EC01D62E7A01890188818C307A
:1007F00008F066C061E08D2D0E94560E8881A82FFA
:10080000B0E0FD01EE0FFF1FEA0FFB1FED5FFC4F95
:100810002D2D2F739081907C922B908360E272E05B
:100820006E197F0977FF02C06D5F7F4F75956795E1
:1008300075956795698340E659E0401B510B57FF5A
:1008400002C04D5F5F4F55954795559547954A8333
:100850006CE00E9474159CE0899FB001112420E097
:1008600030E0A901460F571FFA01EE0FFF1FE40FFA
:10087000F51FED5FFC4F908196FD16C02F5F3F4F37
:100880002C30310571F781110FC01092800082E089
:10089000809381001092850010928400B19A80911B
:1008A0006F00826080936F00888190E0FC01EE0F02
:1008B000FF1FE80FF91FED5FFC4F8081806480838C
:1008C0008881DF91CF911F910F91FF90EF90DF9082
:1008D000089520E639E040E252E00C94EB03FC017D
:1008E00080818C3070F5918128E830E0291B310936
:1008F00097FD3395220F331F220F331F62177307A3
:100900007CF0928128E532E0291B310997FD33956F
:10091000220F331F220F331F621773070CF49B0142
:1009200022503109220F331F4FB7F89490E0FC0199
:10093000EE0FFF1FE80FF91FED5FFC4F328321839D
:100940004FBF08954F925F926F927F92AF92BF9286
:10095000CF92DF92EF92FF920F931F93CF93DF938B
:10096000EC01603282E078070CF040C077FD06C0F1
:10097000653B71052CF064EB70E002C060E070E054
:10098000898128E830E0281B310987FD3395220F43
:10099000331F220F331F5901CC24B7FCC094DC2C29
:1009A000882777FD8095982F2A8148E552E0421BE1
:1009B000510927FD5395440F551F440F551F2A0118
:1009C000662457FC6094762C7F926F925F924F92D0
:1009D00014EBE12EF12C00E010E020E030E0A90162
:1009E0000E94ED120F900F900F900F90CE01DF91AB
:1009F000CF911F910F91FF90EF90DF90CF90BF901C
:100A0000AF907F906F905F904F900C946F048091A7
:100A1000570390E020915803821B9109089520917B
:100A2000580380915703281750F4E22FF0E0E75A5B
:100A3000FC4F808190E02F5F2093580308958FEF43
:100A40009FEF0895E091580380915703E81730F421
:100A5000F0E0E75AFC4F808190E008958FEF9FEF20
:100A600008950895CF92DF92EF92FF920F931F9314
:100A7000CF93DF937C01CB018A01209133032223A2
:100A800089F0EB016B01C40ED51ECC15DD0569F0B4
:100A90006991D701ED91FC910190F081E02DC701A2
:100AA0000995F3CF642F0E94F206C801DF91CF9120
:100AB0001F910F91FF90EF90DF90CF900895CF930B
:100AC000DF931F92CDB7DEB76983209133032223D2
:100AD000D1F020913403203240F021E030E0FC01DD
:100AE0003383228380E090E015C080913503E82FA6
:100AF000F0E0EA5CFC4F998190838F5F809335032F
:100B00008093340305C061E0CE0101960E94F20695
:100B100081E090E00F90DF91CF910895FC01138266
:100B2000128248EE53E060E070E0448355836683B0
:100B3000778383E592E09183808308951092580330
:100B40001092570310923503109234030C9435061B
:100B500081E0809333036093560310923503109223
:100B6000340308950C94A8050F93062F21E04091BB
:100B7000340366E373E0809156030E949B06109253
:100B8000350310923403109233030F9108958F921E
:100B90009F92AF92BF92CF92DF92EF92FF920F930C
:100BA0001F93CF93DF93EC01F62ED42E4801590109
:100BB000EE2019F10E94A8051E2D143008F013E054
:100BC0001150B8F0E881F98128E0129FB00111249A
:100BD000A501940104C056954795379527956A95C8
:100BE000D2F7CA01B9010190F081E02DCE0109953B
:100BF000E7CF60E0CE010E94B4054D2D413208F0F0
:100C000040E22C2D69E573E08F2D0E94530610926F
:100C1000580380935703DF91CF911F910F91FF905D
:100C2000EF90DF90CF90BF90AF909F908F900895FE
:100C3000CF92EF920F931F93C22EE12C00E010E0B1
:100C400098010E94C7051F910F91EF90CF900895D2
:100C500021E00C94180621E00C94180661E00C9435
:100C6000B40587E293E00C948E051092E60381E0D0
:100C70008093E4031092E30361E082E10E948F0E0F
:100C800061E083E10E948F0EE9EBF0E080818E7FCE
:100C9000808380818D7F808388E48093B80085E4A1
:100CA0008093BC000895413208F043C09091E60360
:100CB0009111FCCF91E09093E6032093E4032FEF92
:100CC000209379031092BE03240F2093BD039093C9
:100CD000E5039091E503880F892B8093E5038091CC
:100CE000E303813061F41092E3038091E503809384
:100CF000BB008091BC0083FDF8CF85EC01C085EE80
:100D00008093BC008091E6038130E1F38091BE03C3
:100D1000841710F44091BE032FEB33E0FB01D9019F
:100D20008A2F821B841718F48D918193F9CF842F19
:100D3000089580E008950F93413208F04AC09091E1
:100D4000E6039111FCCF92E09093E6030093E40355
:100D50009FEF909379031092BE034093BD03FB0174
:100D60006FEB73E0DB019A2F961B941718F49191A7
:100D70009D93F9CF1092E5039091E503880F892B9D
:100D80008093E5038091E303813061F41092E303E3
:100D90008091E5038093BB008091BC0083FDF8CF78
:100DA00085EC01C085EE8093BC00222321F0809168
:100DB000E6038230E1F3809179038F3F61F0809107
:100DC0007903803251F080917903803341F483E0DC
:100DD00007C081E005C080E003C082E001C084E07C
:100DE0000F910895613298F42091E603243089F43C
:100DF00060939B03FC018DE993E0DC012A2F281B03
:100E0000261718F421912D93F9CF80E0089581E001
:100E1000089582E0089585ED8093BC008091BC0028
:100E200084FDFCCF1092E603089585EC8093BC000E
:100E30001092E60308951F920F920FB60F9211249D
:100E40002F933F934F935F936F937F938F939F93D2
:100E5000AF93BF93EF93FF938091B900887F803663
:100E600009F49EC078F5883209F45DC090F48031B1
:100E700009F456C038F4882309F4F5C0883009F421
:100E80004FC0F5C0883109F44EC0803209F45FC00C
:100E9000EEC0803409F46AC058F4803309F457C0B6
:100EA000883309F0E4C0809379030E941507DFC0FE
:100EB000803509F44FC0883509F45DC0883409F0E5
:100EC000D6C0D3C0883909F4C4C0A8F4883709F45F
:100ED00067C038F4883609F463C0803709F460C00D
:100EE000C6C0883809F4B5C0803909F45FC08038BD
:100EF00009F0BDC05BC0803B09F483C038F4803A80
:100F000009F466C0883A09F47CC0B1C0803C09F499
:100F1000A4C0883C09F4A1C0883B09F487C0A7C0DD
:100F20008091E50310C09091BE038091BD03981796
:100F300070F5E091BE0381E08E0F8093BE03F0E078
:100F4000E154FC4F80818093BB0085EC83C080938B
:100F500079038BC0E091BE0381E08E0F8093BE03C6
:100F60008091BB00F0E0E154FC4F80839091BE0380
:100F70008091BD036BC0E091BE0381E08E0F809332
:100F8000BE038091BB00F0E0E154FC4F8083809170
:100F9000E40381116AC081E08093E30384EA5EC0C8
:100FA00083E08093E60310927A03CFCF80917A0397
:100FB000803208F04EC0E0917A0381E08E0F80937A
:100FC0007A038091BB00F0E0E558FC4F8083BDCFF1
:100FD0000E94150780917A03803230F4E0917A0301
:100FE000F0E0E558FC4F108260917A0370E0E091E8
:100FF000DF03F091E0038BE793E0099510927A0309
:1010000036C084E08093E60310929C0310929B0309
:10101000E091E103F091E203099580919B03811136
:1010200005C081E080939B0310929D03E0919C0397
:1010300081E08E0F80939C03F0E0E356FC4F8081AB
:101040008093BB0090919C0380919B03981708F4B8
:101050007CCF85E88093BC000AC085EC8093BC00FF
:101060001092E60304C0109279030E940B07FF91CF
:10107000EF91BF91AF919F918F917F916F915F9110
:101080004F913F912F910F900FBE0F901F90189589
:10109000DC01ED91FC910190F081E02D09941F930A
:1010A000CF93DF9300D000D0CDB7DEB7162F69E223
:1010B00070E087E293E029833A834B835C830E944C
:1010C000B2051068612F70E087E293E00E94480843
:1010D000E0912703F091280329813A814B815C81BB
:1010E000CA01B9017727882799270190F081E02D5F
:1010F00087E293E0099587E293E00F900F900F90BD
:101100000F90DF91CF911F910C942E06CF93DF9318
:10111000EC0121E030E040E050E060E00E944F0848
:1011200063E070E080E090E00E94CA0D23E030E0D0
:1011300040E050E060E0CE01DF91CF910C944F0889
:10114000FC01108274836383528341830895CF939B
:10115000C62F69E270E087E293E00E94B205C068A2
:101160006C2F70E087E293E00E94480887E293E0EA
:101170000E942E0641E050E069E270E087E293E0D1
:101180000E942B0687E293E00E940F05CF910895FD
:10119000CF93DF93EC0187E293E00E949E0562E12A
:1011A000CE010E94A708843411F0803189F481E0D7
:1011B00088836B817C81CE010E94EC0869817A81F1
:1011C000CE010E940609CE010E94860881E001C07E
:1011D00080E0DF91CF9108950F931F93CF93DF931A
:1011E000EC018B018881811103C0CE010E94C808E7
:1011F000980140E050E061E0CE010E944F081C835E
:101200000B83DF91CF911F910F9108950F931F933F
:10121000CF93DF93EC018B018881811103C0CE0154
:101220000E94C808980140E050E06FE0CE010E94A3
:101230004F081A830983DF91CF911F910F91089571
:10124000FC0183E090E090878783138612861486E2
:101250000895EF92FF921F93CF93DF931F92CDB724
:10126000DEB77C01162FFC01618587E293E049839C
:101270000E94A805612F87E293E00E945F054981E3
:10128000642F87E293E00E945F0587E293E00E946B
:101290002E06F70186830F90DF91CF911F91FF906B
:1012A000EF900895CF93DF93EC018F81988502979B
:1012B00029F440E069E3CE010E94290940E063E29D
:1012C000CE010E9429094FE660E2CE01DF91CF9165
:1012D0000C9429099F92AF92BF92CF92DF92EF9226
:1012E000FF920F931F93CF93DF93EC01698587E201
:1012F00093E00E94A805E0912703F0912803019054
:10130000F081E02D68EA87E293E0099587E293E0B7
:101310000E942E0646E0698587E293E00E94280637
:101320000E949B0D7B0187E293E00E9407050697D0
:1013300084F48A859B85892BB1F30E949B0D6E19DD
:101340007F098A859B858617970768F781E08C87D8
:101350002CC087E293E00E940F05A82E87E293E05D
:101360000E940F05982E87E293E00E940F05E82E59
:1013700087E293E00E940F05B82E87E293E00E9477
:101380000F05F82E87E293E00E940F05D92CC12C9F
:10139000CA28D982C8821B2D00E00E291B830A832C
:1013A000982F88278F299D838C83DF91CF911F9160
:1013B0000F91FF90EF90DF90CF90BF90AF909F90F4
:1013C00008951F93CF93DF931F92CDB7DEB7162FEB
:1013D00087E293E049830E94A8054981642F87E250
:1013E00093E00E945F0587E293E00E942E06811140
:1013F00014C041E0612F87E293E00E94280687E253
:1014000093E00E940705892B41F087E293E00F905B
:10141000DF91CF911F910C940F058FEF9FEF0F90ED
:10142000DF91CF911F910895EF92FF920F931F9339
:10143000CF93DF937C01EB018A016330710521F0CA
:101440004230510509F051C0CE010197039758F57C
:101450000115110581F04FE050E06BE6C7010E94D5
:10146000E1098F3F2FEF920719F001E010E013C060
:101470000130110551F04FE050E06AE6C7010E94CB
:10148000E1098F3FEFEF9E0721F4C330D10569F0EA
:1014900027C000E010E0C330D10529F4873D910555
:1014A000F1F5C2E0D0E02097D9F40115110561F003
:1014B0004FE050E069E6C7010E94E109833D9105D4
:1014C00089F10130110549F04FE050E068E6C701AD
:1014D0000E94E109833D910541F1C330D10519F026
:1014E0000230110511F480E025C0F701D087C783D1
:1014F000209759F0D7FD11C023977CF401301105D6
:1015000011F48BE608C08AE606C00130110511F41B
:1015100089E601C088E6F701818781E00BC0C1E060
:10152000D0E0C1CF01E010E002C000E010E0C0E078
:10153000D0E0D6CFDF91CF911F910F91FF90EF9028
:1015400008958FEF8093E7031092E9031092E80368
:101550000895CF93DF93DC0170E0FB01E458FF4F67
:10156000E4911496EC931497842F90E0FC01E458D6
:10157000FF4FE4911596EC93159760577F4FFB0151
:10158000C491D0E0CC0FDD1FC255DF4FFE01459165
:10159000549117965C934E931697FC01E057FF4FBA
:1015A000849190E0880F991F8C559F4FFC014591C5
:1015B000549119965C934E931897FB016491E62F12
:1015C000F0E0EE0FFF1FE854FF4F859194911B96BA
:1015D0009C938E931A972F5F3F4F49E3429FC00120
:1015E000439F900D11248E38FFE69F0710F08DE881
:1015F0009FE61D969C938E931C97DF91CF91089543
:101600001F920F920FB60F9211242F933F934F9377
:101610005F936F937F938F939F93AF93BF93EF935A
:10162000FF93E091EE03F091EF030995FF91EF91A5
:10163000BF91AF919F918F917F916F915F914F91EA
:101640003F912F910F900FBE0F901F9018952F92E2
:101650003F924F925F926F927F928F929F92AF9242
:10166000BF92CF92DF92EF92FF920F931F93CF938F
:10167000DF9300D000D0CDB7DEB71C012A013B01BB
:101680004801590120E030E0A901C301B2010E94E4
:10169000AA1387FD78C020E030E0A901C501B4019C
:1016A0000E94AA1387FD6FC020E030E0A901C701A6
:1016B000B6010E94AA1387FD66C0F10140825182E3
:1016C0006282738284829582A682B782C086D18626
:1016D000E286F38664A575A586A597A50E944714A2
:1016E00020E030E04AE754E40E94AE1369837A8335
:1016F0008B839C83F10144865586668677869B01A1
:10170000AC01C501B4010E94FD144B015C01F10163
:10171000608B718B828B938B29813A814B815C81A9
:10172000C701B6010E94AE136B017C01F101648B0D
:10173000758B868B978B808D918D019721F5A301F9
:10174000920160E070E0CB010E944513F1016487D3
:10175000758786879787A501940160E070E0CB01CB
:101760000E944513F101608B718B828B938BA701D3
:10177000960160E070E0CB010E944513F101648B9B
:10178000758B868B978B0F900F900F900F90DF913A
:10179000CF911F910F91FF90EF90DF90CF90BF906E
:1017A000AF909F908F907F906F905F904F903F9001
:1017B0002F9008958F929F92AF92BF92CF92DF9217
:1017C000EF92FF92CF93DF93EC0116161706ACF55C
:1017D0006B01EE24D7FCE094FE2CC701B6010E94F9
:1017E00049144B015C016CA57DA58EA59FA50E94A7
:1017F00047149B01AC01C501B4010E94AE134B011B
:101800005C019B01AC01688979898A899B890E9466
:10181000FD14688B798B8A8B9B8BA50194016C8955
:101820007D898E899F890E94AE136C8B7D8B8E8BF8
:101830009F8BCCA6DDA6EEA6FFA6DF91CF91FF90F1
:10184000EF90DF90CF90BF90AF909F908F900895D2
:101850002F923F924F925F926F927F928F929F92C0
:10186000AF92BF92CF92DF92EF92FF920F931F93AE
:10187000CF93DF93EC016A017B0148015901A90173
:101880009801C701B6010E94F91487FF4EC0C8AA8B
:10189000D9AAEAAAFBAA8CAA9DAAAEAABFAA88AD19
:1018A000882309F442C02C8C3D8CF101408051808A
:1018B00062807380A5019401C301B2010E94F914F2
:1018C000181634F4F10180829182A282B3820DC095
:1018D000A7019601C301B2010E94AA1387FF05C0A8
:1018E000F101C082D182E282F3828CA09DA0AEA0E1
:1018F000BFA0CCA8DDA8EEA8FFA8A7019601C5014E
:10190000B4010E94F914181664F0C8A8D9A8EAA86E
:10191000FBA8A7019601C501B4010E94AA1387FF85
:1019200004C0CCA2DDA2EEA2FFA2DF91CF911F9155
:101930000F91FF90EF90DF90CF90BF90AF909F906E
:101940008F907F906F905F904F903F902F90089571
:101950000F931F93CF93DF93EC018B0188AD882306
:1019600061F1888D998D6817790739F12C853D854E
:101970004E855F8560E070E0CB010E9445136C8767
:101980007D878E879F87288939894A895B8960E0AE
:1019900070E0CB010E944513688B798B8A8B9B8BFF
:1019A0002C893D894E895F8960E070E0CB010E94FF
:1019B00045136C8B7D8B8E8B9F8B198F088FDF91DE
:1019C000CF911F910F9108954F925F926F927F92E6
:1019D0008F929F92AF92BF92CF92DF92EF92FF923F
:1019E0000F931F93CF93DF9300D000D0CDB7DEB716
:1019F0004C0127013801A982BA82CB82DC82FC012A
:101A0000558F448F738F628F378F268F10AE10AA39
:101A100011AA12AA13AA80E090E0AFE7B3E484AB66
:101A200095ABA6ABB7AB84E690E0A0E0B0E084A7AE
:101A300095A7A6A7B7A76B8D7C8DC4010E94A80CA3
:101A4000CF88D88CE98CFA8C09811A812B813C8152
:101A5000B301A201C4010E94270B0E949B0DF40157
:101A600044A455A466A477A4641975098609970946
:101A700060A371A382A393A30F900F900F900F9078
:101A8000DF91CF911F910F91FF90EF90DF90CF905A
:101A9000BF90AF909F908F907F906F905F904F908E
:101AA00008951F920F920FB60F9211242F933F9318
:101AB0008F939F93AF93BF938091F1039091F20323
:101AC000A091F303B091F4033091F00323E0230FCE
:101AD0002D3720F40196A11DB11D05C026E8230F66
:101AE0000296A11DB11D2093F0038093F103909302
:101AF000F203A093F303B093F4038091F503909164
:101B0000F603A091F703B091F8030196A11DB11D52
:101B10008093F5039093F603A093F703B093F80333
:101B2000BF91AF919F918F913F912F910F900FBED9
:101B30000F901F9018952FB7F8946091F103709152
:101B4000F2038091F3039091F4032FBF08953FB700
:101B5000F8948091F5039091F603A091F703B0916A
:101B6000F80326B5A89B05C02F3F19F00196A11DCB
:101B7000B11D3FBF6627782F892F9A2F620F711DE5
:101B8000811D911D42E0660F771F881F991F4A959E
:101B9000D1F70895CF92DF92EF92FF92CF93DF9328
:101BA0006B017C010E94A70DEB01C114D104E1047B
:101BB000F10489F00E9444130E94A70D6C1B7D0B59
:101BC000683E734090F381E0C81AD108E108F1083B
:101BD000C851DC4FEACFDF91CF91FF90EF90DF90BB
:101BE000CF900895789484B5826084BD84B5816077
:101BF00084BD85B5826085BD85B5816085BDEEE615
:101C0000F0E0808181608083E1E8F0E010828081F3
:101C100082608083808181608083E0E8F0E0808161
:101C200081608083E1EBF0E0808184608083E0EB81
:101C3000F0E0808181608083EAE7F0E08081846069
:101C400080838081826080838081816080838081C5
:101C5000806880831092C1000895833081F028F459
:101C6000813099F08230A1F008958730A9F0883052
:101C7000B9F08430D1F4809180008F7D03C08091D1
:101C800080008F7780938000089584B58F7702C09D
:101C900084B58F7D84BD08958091B0008F7703C097
:101CA0008091B0008F7D8093B0000895CF93DF9333
:101CB00090E0FC01E458FF4F2491FC01E057FF4FF6
:101CC0008491882349F190E0880F991FFC01E85422
:101CD000FF4FA591B49182559F4FFC01C591D491BE
:101CE0009FB7611108C0F8948C91209582238C9342
:101CF000888182230AC0623051F4F8948C91322F8B
:101D0000309583238C938881822B888304C0F89438
:101D10008C91822B8C939FBFDF91CF9108950F936D
:101D20001F93CF93DF931F92CDB7DEB7282F30E0FC
:101D3000F901E859FF4F8491F901E458FF4F1491DC
:101D4000F901E057FF4F04910023C9F0882321F0E7
:101D500069830E942D0E6981E02FF0E0EE0FFF1FD6
:101D6000E255FF4FA591B4919FB7F8948C91611102
:101D700003C01095812301C0812B8C939FBF0F90CE
:101D8000DF91CF911F910F910895CF93DF93282F6B
:101D900030E0F901E859FF4F8491F901E458FF4F11
:101DA000D491F901E057FF4FC491CC2391F08111F8
:101DB0000E942D0EEC2FF0E0EE0FFF1FEC55FF4FB1
:101DC000A591B4912C912D2381E090E021F480E045
:101DD00002C080E090E0DF91CF910895FC01818DF9
:101DE000228D90E0805C9F4F821B91098F73992711
:101DF0000895FC01918D828D981731F0828DE80F46
:101E0000F11D858D90E008958FEF9FEF0895FC01FF
:101E1000918D828D981761F0828DDF01A80FB11D21
:101E20005D968C91928D9F5F9F73928F90E0089545
:101E30008FEF9FEF08958BE890E1892B49F080E0C8
:101E400090E0892B29F00E948B1081110C940000E6
:101E50000895FC01848DDF01A80FB11DA35ABF4F67
:101E60002C91848D90E001968F739927848FA68999
:101E7000B7892C93A089B1898C9180648C93938DC0
:101E8000848D981306C00288F389E02D80818F7DB0
:101E900080830895CF93DF93EC01888D8823C9F068
:101EA000EA89FB89808185FD05C0A889B9898C9163
:101EB00086FD0FC00FB607FCF5CF808185FFF2CFFE
:101EC000A889B9898C9185FFEDCFCE010E94290F99
:101ED000E7CFDF91CF910895CF92DF92FF920F93DA
:101EE0001F93CF93DF931F92CDB7DEB76C0181E0D4
:101EF000D60158968C9358975B969C915B975C960D
:101F00008C915C97981307C05096ED91FC91519776
:101F1000808185FD2EC0F601038D10E00F5F1F4FFD
:101F20000F731127F02EF601848DF81211C00FB631
:101F300007FCF9CFD6015096ED91FC915197808125
:101F400085FFF1CFC60169830E94290F6981EBCF1C
:101F5000838DE80FF11DE35AFF4F6083D6015B9636
:101F60000C935B975296ED91FC9153978081806220
:101F70000CC0D6015696ED91FC9157976083509610
:101F8000ED91FC91519780818064808381E090E0A5
:101F90000F90DF91CF911F910F91FF90DF90CF9025
:101FA0000895BF92CF92DF92EF92FF92CF93DF938B
:101FB000EC016A017B01B22EE889F98982E0808315
:101FC000411581EE580761057105A1F060E079E0E7
:101FD0008DE390E0A70196010E9480152150310900
:101FE000410951095695479537952795211580E167
:101FF000380798F0E889F989108260E874E88EE182
:1020000090E0A70196010E948015215031094109F5
:1020100051095695479537952795EC85FD85308371
:10202000EE85FF852083188EEC89FD89B082EA89D0
:10203000FB89808180618083EA89FB898081886057
:102040008083EA89FB89808180688083EA89FB89B3
:1020500080818F7D8083DF91CF91FF90EF90DF9023
:10206000CF90BF9008951F920F920FB60F92112438
:102070002F938F939F93EF93FF93E0910904F09137
:102080000A048081E0910F04F091100482FD12C0D7
:102090009081809112048F5F8F73209113048217B7
:1020A00051F0E0911204F0E0E750FC4F958F8093DF
:1020B000120401C08081FF91EF919F918F912F9128
:1020C0000F900FBE0F901F9018951F920F920FB692
:1020D0000F9211242F933F934F935F936F937F93AE
:1020E0008F939F93AF93BF93EF93FF9389EF93E009
:1020F0000E94290FFF91EF91BF91AF919F918F9116
:102100007F916F915F914F913F912F910F900FBEF3
:102110000F901F90189589EF93E00E94EE0E21E03A
:10212000892B09F420E0822F08951092FC0310926D
:10213000FB0388EE93E0A0E0B0E08093FD03909372
:10214000FE03A093FF03B093000483E692E0909314
:10215000FA038093F90385EC90E090930604809352
:10216000050484EC90E0909308048093070480ECCD
:1021700090E090930A048093090481EC90E090939E
:102180000C0480930B0482EC90E090930E048093F7
:102190000D0486EC90E09093100480930F0410924D
:1021A000120410921304109214041092150408954E
:1021B000CF92DF92EF92FF920F931F93CF93DF9313
:1021C0007C016A01EB0100E010E00C151D0571F0C7
:1021D0006991D701ED91FC910190F081E02DC7014B
:1021E0000995892B19F00F5F1F4FEFCFC801DF91C1
:1021F000CF911F910F91FF90EF90DF90CF900895B6
:102200006115710581F0DB010D900020E9F7AD014A
:1022100041505109461B570BDC01ED91FC910280A6
:10222000F381E02D099480E090E008950C94001172
:10223000DC01ED91FC910190F081E02D09946FE6B5
:1022400072E00C9400110F931F93CF93DF93EC0176
:102250000E9400118C01CE010E941F11800F911F5E
:10226000DF91CF911F910F9108958F929F92AF921E
:10227000BF92CF92DF92EF92FF920F931F93CF9373
:10228000DF93CDB7DEB7A1970FB6F894DEBF0FBED0
:10229000CDBF7C01C42EE52FCB01D22E19A221E0A7
:1022A0002D1510F02AE0D22E8E010F5D1F4F8D2CC0
:1022B000912CA12CB12C6C2D7E2FA50194010E9494
:1022C00080158C2DD29E80191124015011098A305D
:1022D00014F4805D01C0895CF8018083211531050B
:1022E0004105510521F0C22EE32FCA01E4CFB80108
:1022F000C7010E940011A1960FB6F894DEBF0FBE71
:10230000CDBFDF91CF911F910F91FF90EF90DF90A4
:10231000CF90BF90AF909F908F900895CF92DF9213
:10232000EF92FF920F931F93CF93DF93EC016A011B
:102330007B012115310579F4E881F9810190F08163
:10234000E02D642FDF91CF911F910F91FF90EF90BF
:10235000DF90CF9009942A303105E9F477FF1AC055
:102360006DE20E9418118C0144275527BA014C19BF
:102370005D096E097F092AE0CE010E943511800FA8
:10238000911FDF91CF911F910F91FF90EF90DF9000
:10239000CF9008952AE0B701A601CE01DF91CF9139
:1023A0001F910F91FF90EF90DF90CF900C9435111B
:1023B0000F931F93CF93DF93EC019A01AB01662734
:1023C00057FD6095762F0E948E118C01CE010E94E0
:1023D0001F11800F911FDF91CF911F910F910895D1
:1023E0004F925F926F927F928F929F92AF92BF9225
:1023F000CF92DF92EF92FF920F931F93CF93DF93D1
:10240000EC016A017B01B22E9A01AB01C701B60152
:102410000E946015882319F062E772E027C0260148
:102420003701E89477F82FEF3FEF4FE75FE7C301FD
:10243000B2010E94601581110DC02FEF3FEF4FE7F1
:102440005FE7C301B2010E94AA1318161CF466E7E5
:1024500072E00CC02FEF3FEF4FE75FE4C701B6011A
:102460000E94F9141816ACF46AE772E0CE01DF910D
:10247000CF911F910F91FF90EF90DF90CF90BF9081
:10248000AF909F908F907F906F905F904F900C9443
:1024900000112FEF3FEF4FE75FECC701B6010E943D
:1024A000AA1387FDE1CF20E030E0A901C701B60102
:1024B0000E94AA1387FF0AC06DE2CE010E94181184
:1024C0008C01F7FAF094F7F8F09402C000E010E005
:1024D000A12C60E070E080E09FE3AB1441F020E0CD
:1024E00030E040E251E40E94AE13A394F6CF9B018A
:1024F000AC01C701B6010E9446136B017C010E942A
:102500001B142B013C010E9447149B01AC01C70125
:10251000B6010E9445136B017C012AE0B301A201C0
:10252000CE010E943511080F191FBB2039F067EE4C
:1025300071E0CE010E940011080F191F7B2C77203B
:1025400041F120E030E040E251E4C701B6010E94D1
:10255000FD146B017C010E9416144B01AA2497FC08
:10256000A094BA2C2AE030E0B501A401CE010E946B
:102570008E11080F191FC501B4010E9449149B0157
:10258000AC01C701B6010E9445136B017C017A942E
:10259000D6CFC801DF91CF911F910F91FF90EF909F
:1025A000DF90CF90BF90AF909F908F907F906F9073
:1025B0005F904F9008950F931F93CF93DF93EC019B
:1025C0000E94F0118C01CE010E941F11800F911FFB
:1025D000DF91CF911F910F9108954F925F926F926B
:1025E0007F92AF92BF92CF92DF92EF92FF920F93C2
:1025F0001F93CF93DF93CDB7DEB729013A01621B5A
:10260000730B840B950B29893A894B895C892A19AC
:102610003B094C095D09298B3A8B4B8B5C8B9B01E9
:10262000AC0169897A898B899C890E946415E418B8
:10263000F50806091709A80197010E94A2152A0D9D
:102640003B1D4C1D5D1DCA01B901DF91CF911F914A
:102650000F91FF90EF90DF90CF90BF90AF907F9061
:102660006F905F904F90089508950E94F20D0E9420
:1026700034130E945902CBE1DFE00E94EF01209762
:10268000E1F30E941B0FF9CF08955058BB27AA27EA
:102690000ED075C166D130F06BD120F031F49F3F80
:1026A00011F41EF45BC10EF4E095E7FB51C1E92F74
:1026B00077D180F3BA17620773078407950718F07C
:1026C00071F49EF58FC10EF4E0950B2EBA2FA02D5C
:1026D0000B01B90190010C01CA01A0011124FF27CF
:1026E000591B99F0593F50F4503E68F11A16F040CA
:1026F000A22F232F342F4427585FF3CF46953795C9
:102700002795A795F0405395C9F77EF41F16BA0B8D
:10271000620B730B840BBAF09150A1F0FF0FBB1F3B
:10272000661F771F881FC2F70EC0BA0F621F731F84
:10273000841F48F4879577956795B795F7959E3FE1
:1027400008F0B3CF9395880F08F09927EE0F97956F
:1027500087950895D9D008F481E008950CD00FC171
:1027600007D140F0FED030F021F45F3F19F0F0C007
:10277000511139C1F3C014D198F39923C9F35523EA
:10278000B1F3951B550BBB27AA2762177307840764
:1027900038F09F5F5F4F220F331F441FAA1FA9F31A
:1027A00033D00E2E3AF0E0E830D091505040E6950C
:1027B000001CCAF729D0FE2F27D0660F771F881F6D
:1027C000BB1F261737074807AB07B0E809F0BB0B5C
:1027D000802DBF01FF2793585F4F2AF09E3F510580
:1027E00068F0B6C000C15F3FECF3983EDCF386951D
:1027F00077956795B795F7959F5FC9F7880F911DF6
:102800009695879597F90895E1E0660F771F881FE1
:10281000BB1F621773078407BA0720F0621B730B94
:10282000840BBA0BEE1F88F7E095089504D06894E6
:10283000B111D9C00895BCD088F09F5790F0B92F3E
:102840009927B751A0F0D1F0660F771F881F991F05
:102850001AF0BA95C9F712C0B13081F0C3D0B1E017
:102860000895C0C0672F782F8827B85F39F0B93F27
:10287000CCF3869577956795B395D9F73EF4909507
:102880008095709561957F4F8F4F9F4F0895E89485
:1028900009C097FB3EF490958095709561957F4FA8
:1028A0008F4F9F4F9923A9F0F92F96E9BB27939556
:1028B000F695879577956795B795F111F8CFFAF466
:1028C000BB0F11F460FF1BC06F5F7F4F8F4F9F4F97
:1028D00016C0882311F096E911C0772321F09EE8F5
:1028E000872F762F05C0662371F096E8862F70E05B
:1028F00060E02AF09A95660F771F881FDAF7880F35
:102900009695879597F90895990F0008550FAA0B8A
:10291000E0E8FEEF16161706E807F907C0F01216F2
:102920001306E407F50798F0621B730B840B950BF5
:1029300039F40A2661F0232B242B252B21F408954A
:102940000A2609F4A140A6958FEF811D811D0895E7
:1029500097F99F6780E870E060E008959FEF80EC52
:10296000089500240A9416161706180609060895F5
:1029700000240A9412161306140605060895092E5B
:102980000394000C11F4882352F0BB0F40F4BF2BCA
:1029900011F460FF04C06F5F7F4F8F4F9F4F08950A
:1029A00057FD9058440F551F59F05F3F71F0479500
:1029B000880F97FB991F61F09F3F79F087950895E5
:1029C000121613061406551FF2CF4695F1DF08C004
:1029D000161617061806991FF1CF86957105610521
:1029E00008940895E894BB2766277727CB0197F9C9
:1029F00008958ADF08F48FEF08950BD0C0CFB1DFC0
:102A000028F0B6DF18F0952309F0A2CFA7CF112444
:102A1000EACFC6DFA0F3959FD1F3950F50E0551F85
:102A2000629FF001729FBB27F00DB11D639FAA2723
:102A3000F00DB11DAA1F649F6627B00DA11D661F72
:102A4000829F2227B00DA11D621F739FB00DA11D93
:102A5000621F839FA00D611D221F749F3327A00D4D
:102A6000611D231F849F600D211D822F762F6A2FE9
:102A700011249F5750408AF0E1F088234AF0EE0F6E
:102A8000FF1FBB1F661F771F881F91505040A9F77B
:102A90009E3F510570F05CCFA6CF5F3FECF3983EB0
:102AA000DCF3869577956795B795F795E7959F5FE2
:102AB000C1F7FE2B880F911D9695879597F908957C
:102AC00023DF880B990B0895DB018F939F930E945E
:102AD000C115BF91AF91A29F800D911DA39F900D35
:102AE000B29F900D11240895991B79E004C0991F9D
:102AF000961708F0961B881F7A95C9F78095089558
:102B0000A1E21A2EAA1BBB1BFD010DC0AA1FBB1FF1
:102B1000EE1FFF1FA217B307E407F50720F0A21B63
:102B2000B30BE40BF50B661F771F881F991F1A94D0
:102B300069F760957095809590959B01AC01BD01FA
:102B4000CF010895052E97FB1EF400940E94B9153D
:102B500057FD07D00E94801507FC03D04EF40C945B
:102B6000B91550954095309521953F4F4F4F5F4F88
:102B7000089590958095709561957F4F8F4F9F4FE9
:102B800008950E94D215A59F900DB49F900DA49F0B
:102B9000800D911D11240895EE0FFF1F0590F491F3
:102BA000E02D0994A29FB001B39FC001A39F700DB7
:102BB000811D1124911DB29F700D811D1124911D45
:062BC0000895F894FFCF18
:102BC600010000000000803F0000803F0000803FC1
:102BD60000008042436F6C6F722073656E736F7274
:102BE6002072656164696E67733A00523A0900475C
:102BF6003A0900423A0900436F6C6F722073656EA2
:102C0600736F7220287363616C656420746F20385B
:102C160020626974293A004875652028382D626952
:102C260074293A09004779726F204443204F66663B
:102C36007365743A20004779726F204E6F69736529
:102C4600204C6576656C3A20006779726F416E6735
:102C56006C65005072657373206720746F20636F14
:102C66006E74696E7565000A57616974696E6720CE
:102C7600666F72205361626572746F6F7468207438
:102C86006F20706F7765722075702E2E2E00496E3C
:102C9600697469616C697A696E67205361626572ED
:102CA600746F6F74682E2E2E000A53746F707069DD
:102CB6006E67206D6F746F72732E2E2E00417474C2
:102CC600616368696E6720736572766F732E2E2E48
:102CD6000054435333343732352049324320636F2F
:102CE6006C6F722073656E736F7200206E6F740066
:102CF60020666F756E64004C334744323048204975
:102D06003243206779726F2073656E736F720000AD
:102D16000000005F05320507050F05220531050095
:102D26000000006C0FD810EE0E070FF90E4A0F0DBB
:0E2D36000A006E616E00696E66006F766600C0
:107E0000112484B714BE81FFF0D085E080938100F7
:107E100082E08093C00088E18093C10086E0809377
:107E2000C20080E18093C4008EE0C9D0259A86E02C
:107E300020E33CEF91E0309385002093840096BBD3
:107E4000B09BFECF1D9AA8958150A9F7CC24DD24C4
:107E500088248394B5E0AB2EA1E19A2EF3E0BF2EE7
:107E6000A2D0813461F49FD0082FAFD0023811F036
:107E7000013811F484E001C083E08DD089C08234E0
:107E800011F484E103C0853419F485E0A6D080C0E4
:107E9000853579F488D0E82EFF2485D0082F10E0AE
:107EA000102F00270E291F29000F111F8ED06801E7
:107EB0006FC0863521F484E090D080E0DECF843638
:107EC00009F040C070D06FD0082F6DD080E0C81688
:107ED00080E7D80618F4F601B7BEE895C0E0D1E017
:107EE00062D089930C17E1F7F0E0CF16F0E7DF06D8
:107EF00018F0F601B7BEE89568D007B600FCFDCFD4
:107F0000A601A0E0B1E02C9130E011968C91119780
:107F100090E0982F8827822B932B1296FA010C0160
:107F200087BEE89511244E5F5F4FF1E0A038BF0790
:107F300051F7F601A7BEE89507B600FCFDCF97BE46
:107F4000E89526C08437B1F42ED02DD0F82E2BD052
:107F50003CD0F601EF2C8F010F5F1F4F84911BD097
:107F6000EA94F801C1F70894C11CD11CFA94CF0C13
:107F7000D11C0EC0853739F428D08EE10CD085E9AC
:107F80000AD08FE07ACF813511F488E018D01DD067
:107F900080E101D065CF982F8091C00085FFFCCF94
:107FA0009093C60008958091C00087FFFCCF809118
:107FB000C00084FD01C0A8958091C6000895E0E648
:107FC000F0E098E1908380830895EDDF803219F02E
:107FD00088E0F5DFFFCF84E1DECF1F93182FE3DFCA
:107FE0001150E9F7F2DF1F91089580E0E8DFEE27F6
:047FF000FF270994CA
:027FFE00040479
:0400000300007E007B
:00000001FF
