:100000000C9465000C948D000C948D000C948D0064
:100010000C948D000C948D000C948D000C946F0B3F
:100020000C948D000C948D000C948D000C94820324
:100030000C948D000C948D000C948D000C948D000C
:100040000C94C00D0C948D000C94A2100C94D41040
:100050000C948D000C948D000C948D000C948D00EC
:100060000C948A070C948D00000000080002010027
:100070000003040700000000000000000102040863
:100080001020408001020408102001020408102002
:10009000040404040404040402020202020203032E
:1000A00003030303000000002300260029000000D2
:1000B0000000250028002B0000000000240027007D
:1000C0002A00E101A006100B041111241FBECFEF7E
:1000D000D8E0DEBFCDBF12E0A0E0B1E0E4EAFCE290
:1000E00002C005900D92AE37B107D9F724E0AEE714
:1000F000B2E001C01D92AA3AB207E1F710E0CAECE3
:10010000D0E004C02297FE010E943D16C23CD107F8
:10011000C9F70E94A4130C9450160C940000CF92BF
:10012000DF92EF92FF926B017C0161E08DE00E9413
:10013000FE0EF694E794D794C794C701B6010E94C7
:10014000390E60E08DE00E94FE0EC701B601FF90FF
:10015000EF90DF90CF900C94390E4F925F926F9298
:100160007F92AF92BF92CF92DF92EF92FF920F9366
:100170001F93CF93DF9365E671E08DE094E00E94DA
:100180008511C8EED3E0C12CD12C760182E093E03A
:100190000E94D9098091040390910503AA2797FD35
:1001A000A095BA2FC80ED91EEA1EFB1E219771F723
:1001B000C701B60128EE33E040E050E00E9411167E
:1001C000CA01B90130930103209300034AE050E0D3
:1001D0008DE094E00E94471266E771E08DE094E0C4
:1001E0000E948511C8EED3E082E093E00E94D90915
:1001F000A0900403B0900503009100031091010347
:10020000B501601B710B882777FD8095982F0E94A0
:10021000B8146B017C014090FC025090FD0260908C
:10022000FE027090FF02A30192010E946815181649
:100230004CF4C092FC02D092FD02E092FE02F092D9
:10024000FF021DC0A30192015058C701B6010E94D0
:10025000191487FF14C0662777276A197B09601B6A
:10026000710B882777FD8095982F0E94B8146093B2
:10027000FC027093FD028093FE029093FF0221978F
:1002800009F0B2CF20E030E048EC52E46091FC028B
:100290007091FD028091FE029091FF020E941D1458
:1002A000AB01BC014093FC025093FD026093FE023F
:1002B0007093FF0224E030E08DE094E0DF91CF9175
:1002C0001F910F91FF90EF90DF90CF90BF90AF9074
:1002D0007F906F905F904F900C944A13CF92DF9273
:1002E000EF92FF9280918A0281110DC00E940A0E46
:1002F00060938602709387028093880290938902AC
:1003000081E080938A0282E093E00E94D9090E94F2
:100310000A0E6B017C018091860290918702A09168
:100320008802B0918902C81AD90AEA0AFB0A0E9417
:100330000A0E6093860270938702809388029093DE
:100340008902C701B6010E94B61420918202309141
:10035000830240918402509185020E94B5136B0183
:100360007C01609382027093830280938402909355
:10037000850260917E0270917F028091800290914F
:1003800081026F5F7F4F8F4F9F4F60937E0270930C
:100390007F0280938002909381020E94B6149B0199
:1003A000AC01C701B6010E941D14AB01BC0122E0E3
:1003B00030E08DE094E0FF90EF90DF90CF900C94D0
:1003C0004A13AF92BF92CF92DF92EF92FF920F93B8
:1003D0001F9382E193E00E943E048FE093E00E942D
:1003E0003E0482E093E00E948F09A0900801B09043
:1003F0000901C0900A01D0900B01E0900C01F0902F
:100400000D0100910E0110910F011F921F9280911A
:1004100007018F93809106018F93809105018F933F
:10042000809104018F9324EF32E040E151E068EFC6
:1004300072E08BEB92E00E94530D41E050E060E0EF
:1004400070E086EB92E00E940F0924EF31E043E078
:100450006BE084EA92E00E94180B0F900F900F90CF
:100460000F900F900F9024EF31E049E06AE082E9AD
:1004700092E01F910F91FF90EF90DF90CF90BF908F
:10048000AF900C94180B64EF71E080E090E00E9454
:100490008F0064EF71E080E090E00E948F008DE0BB
:1004A00094E00E945D0F892B41F48CE00E94340F90
:1004B0000197A9F70E946E01F2CF089563E971E0F8
:1004C0008DE094E00E9492118DE094E00E94760FFE
:1004D0008736910539F060ED77E080E090E00E948A
:1004E0008F00F2CF0E94430268EE73E080E090E05C
:1004F0000C948F008DE094E00E94B90F61E08EE0D3
:100500000E94FE0EE0910D04F0910E040190F08126
:10051000E02D6AEA8DE094E009958DE094E00E9478
:10052000B90F60E08EE00C94FE0ECF93DF9300D005
:1005300000D0CDB7DEB790E899838A836B83860FAE
:100540008F778C838DE094E00E94B90F61E08EE09C
:100550000E94FE0EE0910D04F0910E040280F381E2
:10056000E02D44E050E0BE016F5F7F4F8DE094E0EE
:1005700009958DE094E00E94B90F60E08EE00E9442
:10058000FE0E0F900F900F900F90DF91CF91089576
:100590000F931F9361E088E00E94C50E60E088E041
:1005A0000E94FE0E61E08EE00E94C50E60E08EE0CB
:1005B0000E94FE0E26E040E056E960E070E08DE02B
:1005C00094E00E94401067EA71E08DE094E00E94A0
:1005D000921160ED77E080E090E00E94390E6EECC1
:1005E00071E08DE094E00E9485110E947A0269EE2C
:1005F00071E08DE094E00E94851160E088E00E9447
:10060000950260E08BE00E94950261E088E00E9424
:10061000FE0E6DEF71E08DE094E00E94921165E0B6
:1006200070E082E193E00E94D8046CE870E082E11F
:1006300093E00E94110566E070E08FE093E00E9475
:10064000D8046CE170E08FE093E00E94110561E056
:100650008DE00E94C50E61E172E08DE094E00E94A1
:10066000851186EB92E00E943709811106C06BE28A
:1006700072E08DE094E00E94851160E372E08DE00D
:1006800094E00E94921167E372E08DE094E00E9492
:10069000851142E050E063E070E082E093E00E9468
:1006A000830A811106C06BE272E08DE094E00E9443
:1006B000851160E372E08DE094E00E94921182E087
:1006C00093E00E94C1090E94AD0060E08CE00E94AE
:1006D000C50E48E062E282E093E00E94980900E0E3
:1006E00010E02EEF32E440E050E0BA018BEB92E0F4
:1006F0000E94970C65E070E08BEB92E01F910F91E8
:100700000C94490C1F920F920FB60F9211242F9345
:100710003F934F935F936F937F938F939F93AF9389
:10072000BF93EF93FF938091160387FF05C010924C
:100730008500109284001AC020911603332727FDEC
:1007400030958091150390E0281739077CF480914B
:100750001603992787FD9095FC01EE0FFF1FE80F08
:10076000F91FE95EFC4F808186FD15C0809116035C
:100770008F5F8093160320911603332727FD309552
:100780008091150390E028173907BCF48091160377
:100790008C305CF112C080911603992787FD9095EB
:1007A000FC01EE0FFF1FE80FF91FE95EFC4F80818F
:1007B00060E08F730E94FE0ED9CF809184009091EB
:1007C0008500049680349C4918F480E49CE905C0B7
:1007D0008091840090918500049690938900809385
:1007E00088008FEF8093160338C0209184003091E9
:1007F000850080911603992787FD9095FC01EE0FE7
:10080000FF1FE80FF91FE95EFC4F81819281820F83
:10081000931F9093890080938800809116039927F5
:1008200087FD9095FC01EE0FFF1FE80FF91FE95EB1
:10083000FC4F808186FF11C080911603992787FDA8
:100840009095FC01EE0FFF1FE80FF91FE95EFC4FCA
:10085000808161E08F730E94FE0EFF91EF91BF9146
:10086000AF919F918F917F916F915F914F913F9148
:100870002F910F900FBE0F901F9018952091150388
:100880002C30A0F431E0320F30931503FC012083AB
:10089000822F90E0FC01EE0FFF1FE80FF91FE95EC9
:1008A000FC4F88EB9BE09283818308952FEFFC013E
:1008B00020830895DF92EF92FF920F931F93CF93BF
:1008C000DF93EC01D62E7A01890188818C3008F003
:1008D00066C061E08D2D0E94C50E8881A82FB0E012
:1008E000FD01EE0FFF1FEA0FFB1FE95EFC4F2D2DF0
:1008F0002F739081907C922B908360E272E06E194E
:100900007F0977FF02C06D5F7F4F7595679575957D
:100910006795698340E659E0401B510B57FF02C0C1
:100920004D5F5F4F55954795559547954A836CE0C8
:100930000E94E3159CE0899FB001112420E030E083
:10094000A901460F571FFA01EE0FFF1FE40FF51F15
:10095000E95EFC4F908196FD16C02F5F3F4F2C3013
:10096000310571F781110FC01092800082E08093F1
:1009700081001092850010928400B19A80916F00DE
:10098000826080936F00888190E0FC01EE0FFF1F72
:10099000E80FF91FE95EFC4F8081806480838881C5
:1009A000DF91CF911F910F91FF90EF90DF9008950D
:1009B00020E639E040E252E00C945A04FC018081C8
:1009C0008C3070F5918128E830E0291B310997FDC2
:1009D0003395220F331F220F331F621773077CF0EA
:1009E000928128E532E0291B310997FD3395220FCA
:1009F000331F220F331F621773070CF49B01225021
:100A00003109220F331F4FB7F89490E0FC01EE0F2D
:100A1000FF1FE80FF91FE95EFC4F328321834FBFB0
:100A200008954F925F926F927F92AF92BF92CF9252
:100A3000DF92EF92FF920F931F93CF93DF93EC011E
:100A4000603282E078070CF040C077FD06C0653B5D
:100A500071052CF064EB70E002C060E070E0898109
:100A600028E830E0281B310987FD3395220F331F1A
:100A7000220F331F5901CC24B7FCC094DC2C8827EB
:100A800077FD8095982F2A8148E552E0421B510955
:100A900027FD5395440F551F440F551F2A01662407
:100AA00057FC6094762C7F926F925F924F9214EB7A
:100AB000E12EF12C00E010E020E030E0A9010E94DE
:100AC0005C130F900F900F900F90CE01DF91CF919C
:100AD0001F910F91FF90EF90DF90CF90BF90AF905C
:100AE0007F906F905F904F900C94DE0480916B0329
:100AF00090E020916C03821B9109089520916C0372
:100B000080916B03281750F4E22FF0E0E359FC4F7B
:100B1000808190E02F5F20936C0308958FEF9FEF0B
:100B20000895E0916C0380916B03E81730F4F0E0D6
:100B3000E359FC4F808190E008958FEF9FEF089577
:100B40000895CF92DF92EF92FF920F931F93CF936E
:100B5000DF937C01CB018A0120914703222389F096
:100B6000EB016B01C40ED51ECC15DD0569F0699152
:100B7000D701ED91FC910190F081E02DC70109951D
:100B8000F3CF642F0E946107C801DF91CF911F91BD
:100B90000F91FF90EF90DF90CF900895CF93DF9368
:100BA0001F92CDB7DEB76983209147032223D1F08E
:100BB00020914803203240F021E030E0FC013383F3
:100BC000228380E090E015C080914903E82FF0E097
:100BD000E65BFC4F998190838F5F809349038093FC
:100BE000480305C061E0CE0101960E94610781E0E3
:100BF00090E00F90DF91CF910895FC011382128253
:100C000048EE53E060E070E0448355836683778369
:100C100083E592E091838083089510926C03109293
:100C20006B0310924903109248030C94A40681E0D0
:100C30008093470360936A0310924903109248031C
:100C400008950C9417060F93062F21E04091480356
:100C50006AE473E080916A030E940A0710924903D4
:100C600010924803109247030F9108958F929F921C
:100C7000AF92BF92CF92DF92EF92FF920F931F93AA
:100C8000CF93DF93EC01F62ED42E48015901EE20CC
:100C900019F10E9417061E2D143008F013E01150B0
:100CA000B8F0E881F98128E0129FB0011124A50174
:100CB000940104C056954795379527956A95D2F7C4
:100CC000CA01B9010190F081E02DCE010995E7CF6D
:100CD00060E0CE010E9423064D2D413208F040E233
:100CE0002C2D6DE673E08F2D0E94C20610926C03CE
:100CF00080936B03DF91CF911F910F91FF90EF9045
:100D0000DF90CF90BF90AF909F908F900895CF923B
:100D1000EF920F931F93C22EE12C00E010E0980198
:100D20000E9436061F910F91EF90CF90089521E019
:100D30000C94870621E00C94870661E00C9423064E
:100D40008BE393E00C94FD051092FA0381E080930D
:100D5000F8031092F70361E082E10E94FE0E61E069
:100D600083E10E94FE0EE9EBF0E080818E7F8083BC
:100D700080818D7F808388E48093B80085E48093B0
:100D8000BC000895413208F043C09091FA039111DC
:100D9000FCCF91E09093FA032093F8032FEF209378
:100DA0008D031092D203240F2093D1039093F90363
:100DB0009091F903880F892B8093F9038091F703B1
:100DC000813061F41092F7038091F9038093BB00A6
:100DD0008091BC0083FDF8CF85EC01C085EE809347
:100DE000BC008091FA038130E1F38091D203841733
:100DF00010F44091D20323ED33E0FB01D9018A2F97
:100E0000821B841718F48D918193F9CF842F089554
:100E100080E008950F93413208F04AC09091FA03A0
:100E20009111FCCF92E09093FA030093F8039FEFA7
:100E300090938D031092D2034093D103FB0163ED95
:100E400073E0DB019A2F961B941718F491919D93F0
:100E5000F9CF1092F9039091F903880F892B8093B1
:100E6000F9038091F703813061F41092F7038091C8
:100E7000F9038093BB008091BC0083FDF8CF85EC23
:100E800001C085EE8093BC00222321F08091FA03FB
:100E90008230E1F380918D038F3F61F080918D036B
:100EA000803251F080918D03803341F483E007C09C
:100EB00081E005C080E003C082E001C084E00F91C2
:100EC0000895613298F42091FA03243089F46093F4
:100ED000AF03FC0181EB93E0DC012A2F281B2617CE
:100EE00018F421912D93F9CF80E0089581E00895C1
:100EF00082E0089585ED8093BC008091BC0084FD64
:100F0000FCCF1092FA03089585EC8093BC001092F8
:100F1000FA0308951F920F920FB60F9211242F9388
:100F20003F934F935F936F937F938F939F93AF9371
:100F3000BF93EF93FF938091B900887F803609F4C7
:100F40009EC078F5883209F45DC090F4803109F4D0
:100F500056C038F4882309F4F5C0883009F44FC02E
:100F6000F5C0883109F44EC0803209F45FC0EEC08C
:100F7000803409F46AC058F4803309F457C08833C8
:100F800009F0E4C080938D030E948407DFC08035A0
:100F900009F44FC0883509F45DC0883409F0D6C023
:100FA000D3C0883909F4C4C0A8F4883709F467C0ED
:100FB00038F4883609F463C0803709F460C0C6C0CD
:100FC000883809F4B5C0803909F45FC0803809F069
:100FD000BDC05BC0803B09F483C038F4803A09F49B
:100FE00066C0883A09F47CC0B1C0803C09F4A4C052
:100FF000883C09F4A1C0883B09F487C0A7C0809150
:10100000F90310C09091D2038091D103981770F525
:10101000E091D20381E08E0F8093D203F0E0ED5295
:10102000FC4F80818093BB0085EC83C080938D034F
:101030008BC0E091D20381E08E0F8093D203809128
:10104000BB00F0E0ED52FC4F80839091D203809181
:10105000D1036BC0E091D20381E08E0F8093D20365
:101060008091BB00F0E0ED52FC4F80838091F8034B
:1010700081116AC081E08093F70384EA5EC083E057
:101080008093FA0310928E03CFCF80918E0380322B
:1010900008F04EC0E0918E0381E08E0F80938E03A6
:1010A0008091BB00F0E0E157FC4F8083BDCF0E94F0
:1010B000840780918E03803230F4E0918E03F0E05B
:1010C000E157FC4F108260918E0370E0E091F303D2
:1010D000F091F4038FE893E0099510928E0336C0E7
:1010E00084E08093FA031092B0031092AF03E09172
:1010F000F503F091F60309958091AF03811105C0C6
:1011000081E08093AF031092B103E091B00381E0DE
:101110008E0F8093B003F0E0EF54FC4F80818093FA
:10112000BB009091B0038091AF03981708F47CCF77
:1011300085E88093BC000AC085EC8093BC001092C7
:10114000FA0304C010928D030E947A07FF91EF9179
:10115000BF91AF919F918F917F916F915F914F91CF
:101160003F912F910F900FBE0F901F901895DC01AB
:10117000ED91FC910190F081E02D09941F93CF93A4
:10118000DF9300D000D0CDB7DEB7162F69E270E054
:101190008BE393E029833A834B835C830E9421068F
:1011A0001068612F70E08BE393E00E94B708E09134
:1011B0003B03F0913C0329813A814B815C81CA0158
:1011C000B9017727882799270190F081E02D8BE3DB
:1011D00093E009958BE393E00F900F900F900F90A1
:1011E000DF91CF911F910C949D06CF93DF93EC017B
:1011F00021E030E040E050E060E00E94BE0863E0A3
:1012000070E080E090E00E94390E23E030E040E0A2
:1012100050E060E0CE01DF91CF910C94BE08FC015C
:10122000108274836383528341830895CF93C62FC2
:1012300069E270E08BE393E00E942106C0686C2FA6
:1012400070E08BE393E00E94B7088BE393E00E9489
:101250009D0641E050E069E270E08BE393E00E947C
:101260009A068BE393E00E947E05CF910895CF9379
:10127000DF93EC018BE393E00E940D0662E1CE0167
:101280000E941609843411F0803189F481E088834A
:101290006B817C81CE010E945B0969817A81CE01DC
:1012A0000E947509CE010E94F50881E001C080E02E
:1012B000DF91CF9108950F931F93CF93DF93EC01AC
:1012C0008B018881811103C0CE010E9437099801EA
:1012D00040E050E061E0CE010E94BE081C830B8319
:1012E000DF91CF911F910F9108950F931F93CF938B
:1012F000DF93EC018B018881811103C0CE010E9434
:101300003709980140E050E06FE0CE010E94BE082E
:101310001A830983DF91CF911F910F910895FC01EA
:1013200083E090E090878783138612861486089561
:10133000EF92FF921F93CF93DF931F92CDB7DEB74B
:101340007C01162FFC0161858BE393E049830E94A9
:101350001706612F8BE393E00E94CE054981642F2D
:101360008BE393E00E94CE058BE393E00E949D0601
:10137000F70186830F90DF91CF911F91FF90EF903F
:101380000895CF93DF93EC018F819885029729F41C
:1013900040E069E3CE010E94980940E063E2CE019B
:1013A0000E9498094FE660E2CE01DF91CF910C9444
:1013B00098099F92AF92BF92CF92DF92EF92FF92E5
:1013C0000F931F93CF93DF93EC0169858BE393E039
:1013D0000E941706E0913B03F0913C030190F081DD
:1013E000E02D68EA8BE393E009958BE393E00E949C
:1013F0009D0646E069858BE393E00E9497060E9474
:101400000A0E7B018BE393E00E947605069784F435
:101410008A859B85892BB1F30E940A0E6E197F097C
:101420008A859B858617970768F781E08C872CC093
:101430008BE393E00E947E05A82E8BE393E00E944D
:101440007E05982E8BE393E00E947E05E82E8BE3C9
:1014500093E00E947E05B82E8BE393E00E947E0508
:10146000F82E8BE393E00E947E05D92CC12CCA286C
:10147000D982C8821B2D00E00E291B830A83982F76
:1014800088278F299D838C83DF91CF911F910F91A6
:10149000FF90EF90DF90CF90BF90AF909F90089516
:1014A0001F93CF93DF931F92CDB7DEB7162F8BE339
:1014B00093E049830E9417064981642F8BE393E0F0
:1014C0000E94CE058BE393E00E949D06811114C01B
:1014D00041E0612F8BE393E00E9497068BE393E05A
:1014E0000E947605892B41F08BE393E00F90DF910A
:1014F000CF911F910C947E058FEF9FEF0F90DF919E
:10150000CF911F910895EF92FF920F931F93CF9366
:10151000DF937C01EB018A016330710521F04230D9
:10152000510509F051C0CE010197039758F50115F7
:10153000110581F04FE050E06BE6C7010E94500AB0
:101540008F3F2FEF920719F001E010E013C0013038
:10155000110551F04FE050E06AE6C7010E94500AC1
:101560008F3FEFEF9E0721F4C330D10569F027C00C
:1015700000E010E0C330D10529F4873D9105F1F575
:10158000C2E0D0E02097D9F40115110561F04FE0D9
:1015900050E069E6C7010E94500A833D910589F138
:1015A0000130110549F04FE050E068E6C7010E94A4
:1015B000500A833D910541F1C330D10519F0023045
:1015C000110511F480E025C0F701D087C78320976B
:1015D00059F0D7FD11C023977CF40130110511F4A7
:1015E0008BE608C08AE606C00130110511F489E6D1
:1015F00001C088E6F701818781E00BC0C1E0D0E03F
:10160000C1CF01E010E002C000E010E0C0E0D0E097
:10161000D6CFDF91CF911F910F91FF90EF9008955A
:101620008FEF8093FB031092FD031092FC0308954B
:10163000CF93DF93DC0170E0FB01E458FF4FE491AE
:101640001496EC931497842F90E0FC01E458FF4F1C
:10165000E4911596EC93159760577F4FFB01C49169
:10166000D0E0CC0FDD1FC255DF4FFE0145915491F4
:1016700017965C934E931697FC01E057FF4F8491A9
:1016800090E0880F991F8C559F4FFC014591549114
:1016900019965C934E931897FB016491E62FF0E046
:1016A000EE0FFF1FE854FF4F859194911B969C937A
:1016B0008E931A972F5F3F4F49E3429FC001439F8C
:1016C000900D11248E38FFE69F0710F08DE89FE6FD
:1016D0001D969C938E931C97DF91CF9108951F9236
:1016E0000F920FB60F9211242F933F934F935F9356
:1016F0006F937F938F939F93AF93BF93EF93FF93DA
:10170000E0910204F09103040995FF91EF91BF91DC
:10171000AF919F918F917F916F915F914F913F9189
:101720002F910F900FBE0F901F9018952F923F9200
:101730004F925F926F927F928F929F92AF92BF92E1
:10174000CF92DF92EF92FF920F931F93CF93DF938D
:1017500000D000D0CDB7DEB71C012A013B01480103
:10176000590120E030E0A901C301B2010E9419141F
:1017700087FD78C020E030E0A901C501B4010E94D6
:10178000191487FD6FC020E030E0A901C701B60140
:101790000E94191487FD66C0F10140825182628265
:1017A000738284829582A682B782C086D186E286C1
:1017B000F38664A575A586A597A50E94B61420E0BA
:1017C00030E04AE754E40E941D1469837A838B83D6
:1017D0009C83F10144865586668677869B01AC0121
:1017E000C501B4010E946C154B015C01F101608BD5
:1017F000718B828B938B29813A814B815C81C701EC
:10180000B6010E941D146B017C01F101648B758B84
:10181000868B978B808D918D019721F5A301920185
:1018200060E070E0CB010E94B413F101648775871A
:1018300086879787A501940160E070E0CB010E9444
:10184000B413F101608B718B828B938BA70196018E
:1018500060E070E0CB010E94B413F101648B758BE2
:10186000868B978B0F900F900F900F90DF91CF91F9
:101870001F910F91FF90EF90DF90CF90BF90AF90AE
:101880009F908F907F906F905F904F903F902F90A0
:1018900008958F929F92AF92BF92CF92DF92EF9274
:1018A000FF92CF93DF93EC0116161706ACF56B0190
:1018B000EE24D7FCE094FE2CC701B6010E94B814B8
:1018C0004B015C016CA57DA58EA59FA50E94B61459
:1018D0009B01AC01C501B4010E941D144B015C01C8
:1018E0009B01AC01688979898A899B890E946C1562
:1018F000688B798B8A8B9B8BA50194016C897D8980
:101900008E899F890E941D146C8B7D8B8E8B9F8B83
:10191000CCA6DDA6EEA6FFA6DF91CF91FF90EF90BB
:10192000DF90CF90BF90AF909F908F9008952F92AF
:101930003F924F925F926F927F928F929F92AF925F
:10194000BF92CF92DF92EF92FF920F931F93CF93AC
:10195000DF93EC016A017B0148015901A90198015B
:10196000C701B6010E94681587FF4EC0C8AAD9AA50
:10197000EAAAFBAA8CAA9DAAAEAABFAA88AD882310
:1019800009F442C02C8C3D8CF10140805180628072
:101990007380A5019401C301B2010E946815181655
:1019A00034F4F10180829182A282B3820DC0A7013A
:1019B0009601C301B2010E94191487FF05C0F1010D
:1019C000C082D182E282F3828CA09DA0AEA0BFA093
:1019D000CCA8DDA8EEA8FFA8A7019601C501B40117
:1019E0000E946815181664F0C8A8D9A8EAA8FBA830
:1019F000A7019601C501B4010E94191487FF04C014
:101A0000CCA2DDA2EEA2FFA2DF91CF911F910F9198
:101A1000FF90EF90DF90CF90BF90AF909F908F900E
:101A20007F906F905F904F903F902F9008950F930D
:101A30001F93CF93DF93EC018B0188AD882361F175
:101A4000888D998D6817790739F12C853D854E85EC
:101A50005F8560E070E0CB010E94B4136C877D87E6
:101A60008E879F87288939894A895B8960E070E081
:101A7000CB010E94B413688B798B8A8B9B8B2C894A
:101A80003D894E895F8960E070E0CB010E94B4130C
:101A90006C8B7D8B8E8B9F8B198F088FDF91CF91F5
:101AA0001F910F9108954F925F926F927F928F9244
:101AB0009F92AF92BF92CF92DF92EF92FF920F93DD
:101AC0001F93CF93DF9300D000D0CDB7DEB74C018A
:101AD00027013801A982BA82CB82DC82FC01558FB2
:101AE000448F738F628F378F268F10AE10AA11AA82
:101AF00012AA13AA80E090E0AFE7B3E484AB95AB01
:101B0000A6ABB7AB84E690E0A0E0B0E084A795A7D1
:101B1000A6A7B7A76B8D7C8DC4010E94170DCF8837
:101B2000D88CE98CFA8C09811A812B813C81B30114
:101B3000A201C4010E94960B0E940A0EF40144A463
:101B400055A466A477A4641975098609970960A34A
:101B500071A382A393A30F900F900F900F90DF912A
:101B6000CF911F910F91FF90EF90DF90CF90BF909A
:101B7000AF909F908F907F906F905F904F9008955F
:101B80001F920F920FB60F9211242F933F938F93B2
:101B90009F93AF93BF938091050490910604A09109
:101BA0000704B09108043091040423E0230F2D377B
:101BB00020F40196A11DB11D05C026E8230F029651
:101BC000A11DB11D20930404809305049093060485
:101BD000A0930704B09308048091090490910A042B
:101BE000A0910B04B0910C040196A11DB11D80932E
:101BF000090490930A04A0930B04B0930C04BF91C2
:101C0000AF919F918F913F912F910F900FBE0F90A9
:101C10001F9018952FB7F8946091050470910604F1
:101C200080910704909108042FBF08953FB7F8945E
:101C30008091090490910A04A0910B04B0910C04C6
:101C400026B5A89B05C02F3F19F00196A11DB11D17
:101C50003FBF6627782F892F9A2F620F711D811D34
:101C6000911D42E0660F771F881F991F4A95D1F793
:101C70000895CF92DF92EF92FF92CF93DF936B01A3
:101C80007C010E94160EEB01C114D104E104F104A1
:101C900089F00E94B3130E94160E6C1B7D0B683EE8
:101CA000734090F381E0C81AD108E108F108C851E7
:101CB000DC4FEACFDF91CF91FF90EF90DF90CF9094
:101CC0000895789484B5826084BD84B5816084BDB4
:101CD00085B5826085BD85B5816085BDEEE6F0E0A5
:101CE000808181608083E1E8F0E010828081826001
:101CF0008083808181608083E0E8F0E08081816082
:101D00008083E1EBF0E0808184608083E0EBF0E0B1
:101D1000808181608083EAE7F0E080818460808355
:101D200080818260808380818160808380818068FF
:101D300080831092C1000895833081F028F48130AF
:101D400099F08230A1F008958730A9F08830B9F079
:101D50008430D1F4809180008F7D03C08091800019
:101D60008F7780938000089584B58F7702C084B503
:101D70008F7D84BD08958091B0008F7703C08091DE
:101D8000B0008F7D8093B0000895CF93DF9390E0F3
:101D9000FC01E458FF4F2491FC01E057FF4F849170
:101DA000882349F190E0880F991FFC01E854FF4F08
:101DB000A591B49182559F4FFC01C591D4919FB7D5
:101DC000611108C0F8948C91209582238C938881AE
:101DD00082230AC0623051F4F8948C91322F3095EE
:101DE00083238C938881822B888304C0F8948C9100
:101DF000822B8C939FBFDF91CF9108950F931F93F8
:101E0000CF93DF931F92CDB7DEB7282F30E0F901D3
:101E1000E859FF4F8491F901E458FF4F1491F901FB
:101E2000E057FF4F04910023C9F0882321F0698314
:101E30000E949C0E6981E02FF0E0EE0FFF1FE2553B
:101E4000FF4FA591B4919FB7F8948C91611103C095
:101E50001095812301C0812B8C939FBF0F90DF9140
:101E6000CF911F910F910895CF93DF93282F30E0EA
:101E7000F901E859FF4F8491F901E458FF4FD491DB
:101E8000F901E057FF4FC491CC2391F081110E94DA
:101E90009C0EEC2FF0E0EE0FFF1FEC55FF4FA591CD
:101EA000B4912C912D2381E090E021F480E002C0D8
:101EB00080E090E0DF91CF910895FC01818D228D2B
:101EC00090E0805C9F4F821B91098F739927089542
:101ED000FC01918D828D981731F0828DE80FF11DF4
:101EE000858D90E008958FEF9FEF0895FC01918D0F
:101EF000828D981761F0828DDF01A80FB11D5D966C
:101F00008C91928D9F5F9F73928F90E008958FEFD9
:101F10009FEF08958AEF90E1892B49F080E090E0EF
:101F2000892B29F00E94FA1081110C940000089569
:101F3000FC01848DDF01A80FB11DA35ABF4F2C9166
:101F4000848D90E001968F739927848FA689B78935
:101F50002C93A089B1898C9180648C93938D848D0E
:101F6000981306C00288F389E02D80818F7D8083DD
:101F70000895CF93DF93EC01888D8823C9F0EA8917
:101F8000FB89808185FD05C0A889B9898C9186FD72
:101F90000FC00FB607FCF5CF808185FFF2CFA8896F
:101FA000B9898C9185FFEDCFCE010E94980FE7CFC4
:101FB000DF91CF910895CF92DF92FF920F931F93FD
:101FC000CF93DF931F92CDB7DEB76C0181E0D601CE
:101FD00058968C9358975B969C915B975C968C91E6
:101FE0005C97981307C05096ED91FC9151978081B2
:101FF00085FD2EC0F601038D10E00F5F1F4F0F739C
:102000001127F02EF601848DF81211C00FB607FCCF
:10201000F9CFD6015096ED91FC915197808185FFC3
:10202000F1CFC60169830E94980F6981EBCF838D40
:10203000E80FF11DE35AFF4F6083D6015B960C93C6
:102040005B975296ED91FC915397808180620CC012
:10205000D6015696ED91FC91579760835096ED917D
:10206000FC91519780818064808381E090E00F90A3
:10207000DF91CF911F910F91FF90DF90CF90089546
:10208000BF92CF92DF92EF92FF92CF93DF93EC015A
:102090006A017B01B22EE889F98982E080834115CB
:1020A00081EE580761057105A1F060E079E08DE3EC
:1020B00090E0A70196010E94EF15215031094109D6
:1020C00051095695479537952795211580E1380791
:1020D00098F0E889F989108260E874E88EE190E070
:1020E000A70196010E94EF152150310941095109BC
:1020F0005695479537952795EC85FD853083EE8578
:10210000FF852083188EEC89FD89B082EA89FB89DE
:10211000808180618083EA89FB89808188608083F7
:10212000EA89FB89808180688083EA89FB898081D4
:102130008F7D8083DF91CF91FF90EF90DF90CF90E4
:10214000BF9008951F920F920FB60F9211242F93F4
:102150008F939F93EF93FF93E0911D04F0911E04E2
:102160008081E0912304F091240482FD12C09081CB
:10217000809126048F5F8F7320912704821751F07E
:10218000E0912604F0E0E35FFB4F958F80932604F7
:1021900001C08081FF91EF919F918F912F910F90BE
:1021A0000FBE0F901F9018951F920F920FB60F92AF
:1021B00011242F933F934F935F936F937F938F934C
:1021C0009F93AF93BF93EF93FF938DE094E00E94B2
:1021D000980FFF91EF91BF91AF919F918F917F9158
:1021E0006F915F914F913F912F910F900FBE0F9084
:1021F0001F9018958DE094E00E945D0F21E0892BDF
:1022000009F420E0822F08951092100410920F0418
:1022100088EE93E0A0E0B0E0809311049093120464
:10222000A0931304B093140483E692E090930E04F9
:1022300080930D0485EC90E090931A048093190428
:1022400084EC90E090931C0480931B0480EC90E05D
:1022500090931E0480931D0481EC90E090932004E1
:1022600080931F0482EC90E09093220480932104D9
:1022700086EC90E09093240480932304109226042B
:102280001092270410922804109229040895CF92E6
:10229000DF92EF92FF920F931F93CF93DF937C0116
:1022A0006A01EB0100E010E00C151D0571F0699169
:1022B000D701ED91FC910190F081E02DC7010995C6
:1022C000892B19F00F5F1F4FEFCFC801DF91CF911E
:1022D0001F910F91FF90EF90DF90CF9008956115BF
:1022E000710581F0DB010D900020E9F7AD0141504F
:1022F0005109461B570BDC01ED91FC910280F381E3
:10230000E02D099480E090E008950C946F11DC01B9
:10231000ED91FC910190F081E02D09946FE672E05F
:102320000C946F110F931F93CF93DF93EC010E94D6
:102330006F118C01CE010E948E11800F911FDF91D1
:10234000CF911F910F9108958F929F92AF92BF925C
:10235000CF92DF92EF92FF920F931F93CF93DF9371
:10236000CDB7DEB7A1970FB6F894DEBF0FBECDBFD5
:102370007C01C42EE52FCB01D22E19A221E02D1510
:1023800010F02AE0D22E8E010F5D1F4F8D2C912C64
:10239000A12CB12C6C2D7E2FA50194010E94EF156C
:1023A0008C2DD29E80191124015011098A3014F409
:1023B000805D01C0895CF8018083211531054105EC
:1023C000510521F0C22EE32FCA01E4CFB801C701A5
:1023D0000E946F11A1960FB6F894DEBF0FBECDBF5D
:1023E000DF91CF911F910F91FF90EF90DF90CF90F1
:1023F000BF90AF909F908F900895CF92DF92EF9211
:10240000FF920F931F93CF93DF93EC016A017B013F
:102410002115310579F4E881F9810190F081E02DF1
:10242000642FDF91CF911F910F91FF90EF90DF907C
:10243000CF9009942A303105E9F477FF1AC06DE294
:102440000E9487118C0144275527BA014C195D0958
:102450006E097F092AE0CE010E94A411800F911F0E
:10246000DF91CF911F910F91FF90EF90DF90CF9070
:1024700008952AE0B701A601CE01DF91CF911F9107
:102480000F91FF90EF90DF90CF900C94A4110F93D9
:102490001F93CF93DF93EC019A01AB01662757FDA1
:1024A0006095762F0E94FD118C01CE010E948E1145
:1024B000800F911FDF91CF911F910F9108954F923F
:1024C0005F926F927F928F929F92AF92BF92CF92C4
:1024D000DF92EF92FF920F931F93CF93DF93EC0164
:1024E0006A017B01B22E9A01AB01C701B6010E94BD
:1024F000CF15882319F062E772E027C02601370163
:10250000E89477F82FEF3FEF4FE75FE7C301B201A1
:102510000E94CF1581110DC02FEF3FEF4FE75FE70E
:10252000C301B2010E94191418161CF466E772E088
:102530000CC02FEF3FEF4FE75FE4C701B6010E94E9
:1025400068151816ACF46AE772E0CE01DF91CF91FE
:102550001F910F91FF90EF90DF90CF90BF90AF90C1
:102560009F908F907F906F905F904F900C946F1121
:102570002FEF3FEF4FE75FECC701B6010E94191440
:1025800087FDE1CF20E030E0A901C701B6010E943C
:10259000191487FF0AC06DE2CE010E9487118C01D9
:1025A000F7FAF094F7F8F09402C000E010E0A12CE4
:1025B00060E070E080E09FE3AB1441F020E030E0A9
:1025C00040E251E40E941D14A394F6CF9B01AC019C
:1025D000C701B6010E94B5136B017C010E948A14E9
:1025E0002B013C010E94B6149B01AC01C701B6014E
:1025F0000E94B4136B017C012AE0B301A201CE0159
:102600000E94A411080F191FBB2039F067EE71E07A
:10261000CE010E946F11080F191F7B2C772041F10A
:1026200020E030E040E251E4C701B6010E946C15A1
:102630006B017C010E9485144B01AA2497FCA09495
:10264000BA2C2AE030E0B501A401CE010E94FD11B0
:10265000080F191FC501B4010E94B8149B01AC01F9
:10266000C701B6010E94B4136B017C017A94D6CFE6
:10267000C801DF91CF911F910F91FF90EF90DF90F4
:10268000CF90BF90AF909F908F907F906F905F9012
:102690004F9008950F931F93CF93DF93EC010E9407
:1026A0005F128C01CE010E948E11800F911FDF916D
:1026B000CF911F910F9108954F925F926F927F92E9
:1026C000AF92BF92CF92DF92EF92FF920F931F9340
:1026D000CF93DF93CDB7DEB729013A01621B730BAD
:1026E000840B950B29893A894B895C892A193B0906
:1026F0004C095D09298B3A8B4B8B5C8B9B01AC01A0
:1027000069897A898B899C890E94D315E418F50818
:1027100006091709A80197010E9411162A0D3B1DF1
:102720004C1D5D1DCA01B901DF91CF911F910F9121
:10273000FF90EF90DF90CF90BF90AF907F906F9021
:102740005F904F90089508950E94610E0E94A31318
:102750000E94C802CAE8DFE00E945E022097E1F30F
:102760000E948A0FF9CF08955058BB27AA270ED090
:1027700075C166D130F06BD120F031F49F3F11F478
:102780001EF45BC10EF4E095E7FB51C1E92F77D150
:1027900080F3BA17620773078407950718F071F47E
:1027A0009EF58FC10EF4E0950B2EBA2FA02D0B01D4
:1027B000B90190010C01CA01A0011124FF27591B86
:1027C00099F0593F50F4503E68F11A16F040A22F8C
:1027D000232F342F4427585FF3CF469537952795FD
:1027E000A795F0405395C9F77EF41F16BA0B620BFC
:1027F000730B840BBAF09150A1F0FF0FBB1F661F43
:10280000771F881FC2F70EC0BA0F621F731F841F85
:1028100048F4879577956795B795F7959E3F08F0AB
:10282000B3CF9395880F08F09927EE0F979587956A
:102830000895D9D008F481E008950CD00FC107D1D4
:1028400040F0FED030F021F45F3F19F0F0C051119C
:1028500039C1F3C014D198F39923C9F35523B1F3C7
:10286000951B550BBB27AA2762177307840738F0FF
:102870009F5F5F4F220F331F441FAA1FA9F333D05E
:102880000E2E3AF0E0E830D091505040E695001C12
:10289000CAF729D0FE2F27D0660F771F881FBB1FCE
:1028A000261737074807AB07B0E809F0BB0B802DA8
:1028B000BF01FF2793585F4F2AF09E3F510568F0F4
:1028C000B6C000C15F3FECF3983EDCF38695779588
:1028D0006795B795F7959F5FC9F7880F911D9695F6
:1028E000879597F90895E1E0660F771F881FBB1F52
:1028F000621773078407BA0720F0621B730B840BFF
:10290000BA0BEE1F88F7E095089504D06894B111D2
:10291000D9C00895BCD088F09F5790F0B92F99275F
:10292000B751A0F0D1F0660F771F881F991F1AF0DA
:10293000BA95C9F712C0B13081F0C3D0B1E00895A3
:10294000C0C0672F782F8827B85F39F0B93FCCF324
:10295000869577956795B395D9F73EF490958095D0
:10296000709561957F4F8F4F9F4F0895E89409C0F0
:1029700097FB3EF490958095709561957F4F8F4FB2
:102980009F4F9923A9F0F92F96E9BB279395F695C8
:10299000879577956795B795F111F8CFFAF4BB0F46
:1029A00011F460FF1BC06F5F7F4F8F4F9F4F16C0AA
:1029B000882311F096E911C0772321F09EE8872F34
:1029C000762F05C0662371F096E8862F70E060E0F0
:1029D0002AF09A95660F771F881FDAF7880F969569
:1029E000879597F90895990F0008550FAA0BE0E80D
:1029F000FEEF16161706E807F907C0F012161306C1
:102A0000E407F50798F0621B730B840B950B39F400
:102A10000A2661F0232B242B252B21F408950A2666
:102A200009F4A140A6958FEF811D811D089597F9A6
:102A30009F6780E870E060E008959FEF80EC089564
:102A400000240A941616170618060906089500248D
:102A50000A9412161306140605060895092E039407
:102A6000000C11F4882352F0BB0F40F4BF2B11F47B
:102A700060FF04C06F5F7F4F8F4F9F4F089557FDDA
:102A80009058440F551F59F05F3F71F04795880FDC
:102A900097FB991F61F09F3F79F087950895121673
:102AA00013061406551FF2CF4695F1DF08C016161F
:102AB00017061806991FF1CF8695710561050894D0
:102AC0000895E894BB2766277727CB0197F90895E7
:102AD0008ADF08F48FEF08950BD0C0CFB1DF28F064
:102AE000B6DF18F0952309F0A2CFA7CF1124EACFC3
:102AF000C6DFA0F3959FD1F3950F50E0551F629F5D
:102B0000F001729FBB27F00DB11D639FAA27F00D46
:102B1000B11DAA1F649F6627B00DA11D661F829F6D
:102B20002227B00DA11D621F739FB00DA11D621F52
:102B3000839FA00D611D221F749F3327A00D611D6F
:102B4000231F849F600D211D822F762F6A2F112451
:102B50009F5750408AF0E1F088234AF0EE0FFF1FA4
:102B6000BB1F661F771F881F91505040A9F79E3FDB
:102B7000510570F05CCFA6CF5F3FECF3983EDCF3DD
:102B8000869577956795B795F795E7959F5FC1F718
:102B9000FE2B880F911D9695879597F9089523DF51
:102BA000880B990B0895DB018F939F930E94301639
:102BB000BF91AF91A29F800D911DA39F900DB29FD9
:102BC000900D11240895991B79E004C0991F961760
:102BD00008F0961B881F7A95C9F780950895A1E2A1
:102BE0001A2EAA1BBB1BFD010DC0AA1FBB1FEE1F87
:102BF000FF1FA217B307E407F50720F0A21BB30BD2
:102C0000E40BF50B661F771F881F991F1A9469F74D
:102C100060957095809590959B01AC01BD01CF01A9
:102C20000895052E97FB1EF400940E94281657FD68
:102C300007D00E94EF1507FC03D04EF40C94281621
:102C400050954095309521953F4F4F4F5F4F0895D8
:102C500090958095709561957F4F8F4F9F4F089508
:102C60000E944116A59F900DB49F900DA49F800DCA
:102C7000911D11240895EE0FFF1F0590F491E02D92
:102C80000994A29FB001B39FC001A39F700D811D45
:102C90001124911DB29F700D811D1124911D089565
:042CA000F894FFCFD6
:102CA400010000000000803F0000803F0000803FE2
:102CB40000008042436F6C6F722073656E736F7295
:102CC4002072656164696E67733A00523A0900477D
:102CD4003A0900423A0900436F6C6F722073656EC3
:102CE400736F7220287363616C656420746F20387D
:102CF40020626974293A004875652028382D626974
:102D040074293A09004779726F204443204F66665C
:102D14007365743A20004779726F204E6F6973654A
:102D2400204C6576656C3A20006779726F416E6756
:102D34006C65005072657373206720746F20636F35
:102D44006E74696E7565000A57616974696E6720EF
:102D5400666F72205361626572746F6F7468207459
:102D64006F20706F7765722075702E2E2E00496E5D
:102D7400697469616C697A696E672053616265720E
:102D8400746F6F74682E2E2E000A53746F707069FE
:102D94006E67206D6F746F72732E2E2E00417474E3
:102DA400616368696E6720736572766F732E2E2E69
:102DB4000054435333343732352049324320636F50
:102DC4006C6F722073656E736F7200206E6F740087
:102DD40020666F756E64004C334744323048204996
:102DE4003243206779726F2073656E736F720000CF
:102DF400000000CE05A10576057E059105A005001D
:102E0400000000DB0F47115D0F760F680FB90F0D3F
:0E2E14000A006E616E00696E66006F766600E1
:107E0000112484B714BE81FFF0D085E080938100F7
:107E100082E08093C00088E18093C10086E0809377
:107E2000C20080E18093C4008EE0C9D0259A86E02C
:107E300020E33CEF91E0309385002093840096BBD3
:107E4000B09BFECF1D9AA8958150A9F7CC24DD24C4
:107E500088248394B5E0AB2EA1E19A2EF3E0BF2EE7
:107E6000A2D0813461F49FD0082FAFD0023811F036
:107E7000013811F484E001C083E08DD089C08234E0
:107E800011F484E103C0853419F485E0A6D080C0E4
:107E9000853579F488D0E82EFF2485D0082F10E0AE
:107EA000102F00270E291F29000F111F8ED06801E7
:107EB0006FC0863521F484E090D080E0DECF843638
:107EC00009F040C070D06FD0082F6DD080E0C81688
:107ED00080E7D80618F4F601B7BEE895C0E0D1E017
:107EE00062D089930C17E1F7F0E0CF16F0E7DF06D8
:107EF00018F0F601B7BEE89568D007B600FCFDCFD4
:107F0000A601A0E0B1E02C9130E011968C91119780
:107F100090E0982F8827822B932B1296FA010C0160
:107F200087BEE89511244E5F5F4FF1E0A038BF0790
:107F300051F7F601A7BEE89507B600FCFDCF97BE46
:107F4000E89526C08437B1F42ED02DD0F82E2BD052
:107F50003CD0F601EF2C8F010F5F1F4F84911BD097
:107F6000EA94F801C1F70894C11CD11CFA94CF0C13
:107F7000D11C0EC0853739F428D08EE10CD085E9AC
:107F80000AD08FE07ACF813511F488E018D01DD067
:107F900080E101D065CF982F8091C00085FFFCCF94
:107FA0009093C60008958091C00087FFFCCF809118
:107FB000C00084FD01C0A8958091C6000895E0E648
:107FC000F0E098E1908380830895EDDF803219F02E
:107FD00088E0F5DFFFCF84E1DECF1F93182FE3DFCA
:107FE0001150E9F7F2DF1F91089580E0E8DFEE27F6
:047FF000FF270994CA
:027FFE00040479
:0400000300007E007B
:00000001FF
