:100000000C9465000C948D000C948D000C948D0064
:100010000C948D000C948D000C948D000C94230B8B
:100020000C948D000C948D000C948D000C942E0378
:100030000C948D000C948D000C948D000C948D000C
:100040000C944A0B0C948D000C94030E0C94350EFA
:100050000C948D000C948D000C948D000C948D00EC
:100060000C9436070C948D0000000008000201007B
:100070000003040700000000000000000102040863
:100080001020408001020408102001020408102002
:10009000040404040404040402020202020203032E
:1000A00003030303000000002300260029000000D2
:1000B0000000250028002B0000000000240027007D
:1000C0002A002A024C06C40A650E11241FBECFEF77
:1000D000D8E0DEBFCDBF11E0A0E0B1E0EAE4F9E294
:1000E00002C005900D92AE3DB107D9F723E0AEED09
:1000F000B1E001C01D92A53BB207E1F710E0CAECE8
:10010000D0E004C02297FE010E949014C23CD107A7
:10011000C9F70E94F7110C94A3140C940000CF921D
:10012000DF92EF92FF926B017C0161E08DE00E9413
:10013000880CF694E794D794C794C701B6010E943F
:10014000C30B60E08DE00E94880CC701B601FF90F0
:10015000EF90DF90CF900C94C30B4F925F926F9211
:100160007F92AF92BF92CF92DF92EF92FF920F9366
:100170001F93CF93DF93C8EED3E0C12CD12C76012F
:100180008DE092E00E948D0980910F029091100203
:10019000AA2797FDA095BA2FC80ED91EEA1EFB1EEE
:1001A000219771F7C701B60128EE33E040E050E037
:1001B0000E9464143093E3012093E2016BE571E047
:1001C00088E193E00E94E60E6091E2017091E30104
:1001D0004AE050E088E193E00E94A80FC8EED3E027
:1001E0008DE092E00E948D09A0900F02B090100265
:1001F0000091E2011091E301B501601B710B8827AA
:1002000077FD8095982F0E940B136B017C01409025
:10021000DE015090DF016090E0017090E101A301E8
:1002200092010E94BB1318164CF4C092DE01D092CA
:10023000DF01E092E001F092E1011DC0A301920113
:100240005058C701B6010E946C1287FF14C0662780
:1002500077276A197B09601B710B882777FD8095CA
:10026000982F0E940B136093DE017093DF0180933F
:10027000E0019093E101219709F0B2CF20E030E056
:1002800048EC52E46091DE017091DF018091E00161
:100290009091E1010E9470126093DE017093DF0182
:1002A0008093E0019093E10167E671E088E193E0DB
:1002B0000E94E60E4091DE015091DF016091E00165
:1002C0007091E10124E030E088E193E0DF91CF918B
:1002D0001F910F91FF90EF90DF90CF90BF90AF9064
:1002E0007F906F905F904F900C94E1102F923F920F
:1002F0004F925F926F927F928F929F92AF92BF9236
:10030000CF92DF92EF92FF920F931F93CF93DF93E1
:1003100000D000D01F92CDB7DEB769837A838B837C
:100320009C83242E0E94940B4B015C01222021F01F
:10033000C12CD12C760106C0C12CD12CF4EBEF2EB0
:10034000F3E4FF2E312C00E010E01D8229813A8178
:100350004B815C81C701B601222009F45EC00E9476
:100360006C1287FF5FC00E94940B681979098A0993
:100370009B096B3071058105910540F30E94940B38
:100380002B013C018DE092E00E948D09B301A20196
:10039000481959096A097B092AE030E088E193E0AD
:1003A0000E94E40F60910F02709110028091E201AF
:1003B0009091E301681B790B882777FD8095982F32
:1003C0000E940B1329E23CE54FE05CE30E94BF135F
:1003D0004B015C019B01AC01632D702F812F9D812E
:1003E0000E9408122AE037ED43E25CE30E94BF134B
:1003F00020E030E040E05FE30E94BF139B01AC01CE
:10040000C701B6010E9408126B017C01382C092D2E
:100410001A2DBD825301420199CF0E94BB131816B9
:100420000CF4A1CF0F900F900F900F900F90DF91D1
:10043000CF911F910F91FF90EF90DF90CF90BF90E1
:10044000AF909F908F907F906F905F904F903F9074
:100450002F9008958DE192E00E94EA038AE192E0F4
:100460000E94EA038DE092E00E94430941E050E0DF
:1004700060E070E088E092E00E94BB0824EF31E089
:1004800043E06BE086EF91E00E94CC0A24EF31E07C
:1004900049E06AE084EE91E00C94CC0A61E08EE0E1
:1004A0000E94880CE0911803F09119030190F081EB
:1004B000E02D6AEA88E193E0099588E193E00E94E3
:1004C0001A0D60E08EE00C94880CCF93DF9300D07F
:1004D00000D0CDB7DEB790E899838A836B83860F0F
:1004E0008F778C8361E08EE00E94880CE091180386
:1004F000F09119030280F381E02D44E050E0BE0149
:100500006F5F7F4F88E193E0099588E193E00E9457
:100510001A0D60E08EE00E94880C0F900F900F90F3
:100520000F90DF91CF91089561E08EE00E944F0C13
:1005300060E08EE00E94880C26E040E855E260E032
:1005400070E088E193E00E94A10D0E944E0260E0FD
:1005500088E00E94650260E08BE00E94650265E031
:1005600070E08DE192E00E9484046CE870E08DE11F
:1005700092E00E94BD0466E070E08AE192E00E9491
:1005800084046CE170E08AE192E00E94BD0461E0C5
:100590008DE00E944F0C88E092E00E94E30865E73E
:1005A00071E088E193E00E94E60E42E050E063E0F3
:1005B00070E08DE092E00E94370A811106C06DE87C
:1005C00071E088E193E00E94E60E62E971E088E163
:1005D00093E00E94F30E8DE092E00E9475090C9466
:1005E000AD0064EF71E080E090E00E948F0064EF66
:1005F00071E080E090E00E948F0088E193E00E942B
:10060000BE0C0297D4F388E193E00E94AC118AE01B
:100610000E94650241E060E070E084EB92E40E9499
:10062000760160E088E00E94650260E08BE00C9457
:10063000650269E971E088E193E00E94F30E88E1C8
:1006400093E00E94D70C87369105C9F70E94F1020A
:1006500068EE73E080E090E00C948F001F920F92A0
:100660000FB60F9211242F933F934F935F936F9385
:100670007F938F939F93AF93BF93EF93FF9380915B
:10068000210287FF05C010928500109284001AC0D5
:1006900020912102332727FD30958091200290E0A0
:1006A000281739077CF480912102992787FD9095BE
:1006B000FC01EE0FFF1FE80FF91FEE5DFD4F80817B
:1006C00086FD15C0809121028F5F809321022091C9
:1006D0002102332727FD30958091200290E02817D2
:1006E0003907BCF4809121028C305CF112C08091FA
:1006F0002102992787FD9095FC01EE0FFF1FE80F5F
:10070000F91FEE5DFD4F808160E08F730E94880CC1
:10071000D9CF8091840090918500049680349C49C3
:1007200018F480E49CE905C08091840090918500D4
:10073000049690938900809388008FEF8093210224
:1007400038C0209184003091850080912102992742
:1007500087FD9095FC01EE0FFF1FE80FF91FEE5D7E
:10076000FD4F81819281820F931F90938900809326
:10077000880080912102992787FD9095FC01EE0F5A
:10078000FF1FE80FF91FEE5DFD4F808186FF11C04E
:1007900080912102992787FD9095FC01EE0FFF1FA4
:1007A000E80FF91FEE5DFD4F808161E08F730E94BD
:1007B000880CFF91EF91BF91AF919F918F917F91A5
:1007C0006F915F914F913F912F910F900FBE0F90BE
:1007D0001F901895209120022C30A0F431E0320FA8
:1007E00030932002FC012083822F90E0FC01EE0F69
:1007F000FF1FE80FF91FEE5DFD4F88EB9BE0928332
:10080000818308952FEFFC0120830895DF92EF92FA
:10081000FF920F931F93CF93DF93EC01D62E7A01B3
:10082000890188818C3008F066C061E08D2D0E94BE
:100830004F0C8881A82FB0E0FD01EE0FFF1FEA0FDB
:10084000FB1FEE5DFD4F2D2D2F739081907C922B21
:10085000908360E272E06E197F0977FF02C06D5FDE
:100860007F4F7595679575956795698340E659E063
:10087000401B510B57FF02C04D5F5F4F5595479589
:10088000559547954A836CE00E9436149CE0899FF9
:10089000B001112420E030E0A901460F571FFA01F2
:1008A000EE0FFF1FE40FF51FEE5DFD4F908196FDEB
:1008B00016C02F5F3F4F2C30310571F781110FC0EB
:1008C0001092800082E08093810010928500109247
:1008D0008400B19A80916F00826080936F0088815C
:1008E00090E0FC01EE0FFF1FE80FF91FEE5DFD4FDA
:1008F0008081806480838881DF91CF911F910F91E7
:10090000FF90EF90DF90089520E639E040E252E05A
:100910000C940604FC0180818C3070F5918128E8EC
:1009200030E0291B310997FD3395220F331F220F29
:10093000331F621773077CF0928128E532E0291B90
:10094000310997FD3395220F331F220F331F621792
:1009500073070CF49B0122503109220F331F4FB74C
:10096000F89490E0FC01EE0FFF1FE80FF91FEE5D19
:10097000FD4F328321834FBF08954F925F926F9254
:100980007F92AF92BF92CF92DF92EF92FF920F933E
:100990001F93CF93DF93EC01603282E078070CF075
:1009A00040C077FD06C0653B71052CF064EB70E03C
:1009B00002C060E070E0898128E830E0281B31093E
:1009C00087FD3395220F331F220F331F5901CC248B
:1009D000B7FCC094DC2C882777FD8095982F2A815E
:1009E00048E552E0421B510927FD5395440F551F1E
:1009F000440F551F2A01662457FC6094762C7F9281
:100A00006F925F924F9214EBE12EF12C00E010E018
:100A100020E030E0A9010E94AF110F900F900F90DD
:100A20000F90CE01DF91CF911F910F91FF90EF902A
:100A3000DF90CF90BF90AF907F906F905F904F907E
:100A40000C948A048091760290E020917702821BB8
:100A5000910908952091770280917602281750F429
:100A6000E22FF0E0E858FD4F808190E02F5F209367
:100A7000770208958FEF9FEF0895E09177028091BC
:100A80007602E81730F4F0E0E858FD4F808190E0FE
:100A900008958FEF9FEF08950895CF92DF92EF9220
:100AA000FF920F931F93CF93DF937C01CB018A01B9
:100AB00020915202222389F0EB016B01C40ED51E56
:100AC000CC15DD0569F06991D701ED91FC9101909C
:100AD000F081E02DC7010995F3CF642F0E940D0727
:100AE000C801DF91CF911F910F91FF90EF90DF90A0
:100AF000CF900895CF93DF931F92CDB7DEB7698370
:100B0000209152022223D1F020915302203240F052
:100B100021E030E0FC013383228380E090E015C0C7
:100B200080915402E82FF0E0EB5AFD4F99819083B9
:100B30008F5F809354028093530205C061E0CE0121
:100B400001960E940D0781E090E00F90DF91CF9118
:100B50000895FC011382128248EE53E060E070E0D9
:100B6000448355836683778381EB91E0918380830F
:100B70000895109277021092760210925402109209
:100B800053020C94500681E08093520260937502E8
:100B9000109254021092530208950C94C3050F93BF
:100BA000062F21E04091530265E572E080917502C5
:100BB0000E94B606109254021092530210925202F2
:100BC0000F9108958F929F92AF92BF92CF92DF9232
:100BD000EF92FF920F931F93CF93DF93EC01F62ECA
:100BE000D42E48015901EE2019F10E94C3051E2D93
:100BF000143008F013E01150B8F0E881F98128E0D2
:100C0000129FB0011124A501940104C05695479587
:100C1000379527956A95D2F7CA01B9010190F081FD
:100C2000E02DCE010995E7CF60E0CE010E94CF050F
:100C30004D2D413208F040E22C2D68E772E08F2DF7
:100C40000E946E061092770280937602DF91CF9118
:100C50001F910F91FF90EF90DF90CF90BF90AF90DA
:100C60009F908F900895CF92EF920F931F93C22E73
:100C7000E12C00E010E098010E94E2051F910F9125
:100C8000EF90CF90089521E00C94330621E00C946E
:100C9000330661E00C94CF0586E492E00C94A9053C
:100CA0001092050381E0809303031092020361E038
:100CB00082E10E94880C61E083E10E94880CE9EBEC
:100CC000F0E080818E7F808380818D7F808388E4C7
:100CD0008093B80085E48093BC000895413208F009
:100CE00043C0909105039111FCCF91E090930503CF
:100CF000209303032FEF209398021092DD02240F1C
:100D00002093DC029093040390910403880F892BB5
:100D10008093040380910203813061F410920203F6
:100D2000809104038093BB008091BC0083FDF8CFC9
:100D300085EC01C085EE8093BC0080910503813075
:100D4000E1F38091DD02841710F44091DD022EED75
:100D500032E0FB01D9018A2F821B841718F48D9190
:100D60008193F9CF842F089580E008950F93413245
:100D700008F04AC0909105039111FCCF92E0909346
:100D80000503009303039FEF909398021092DD02F6
:100D90004093DC02FB016EED72E0DB019A2F961BA3
:100DA000941718F491919D93F9CF109204039091A8
:100DB0000403880F892B8093040380910203813000
:100DC00061F410920203809104038093BB00809130
:100DD000BC0083FDF8CF85EC01C085EE8093BC009C
:100DE000222321F0809105038230E1F38091980263
:100DF0008F3F61F080919802803251F0809198028B
:100E0000803341F483E007C081E005C080E003C087
:100E100082E001C084E00F910895613298F420913E
:100E20000503243089F46093BA02FC018CEB92E054
:100E3000DC012A2F281B261718F421912D93F9CFB6
:100E400080E0089581E0089582E0089585ED809323
:100E5000BC008091BC0084FDFCCF10920503089576
:100E600085EC8093BC001092050308951F920F92A9
:100E70000FB60F9211242F933F934F935F936F936D
:100E80007F938F939F93AF93BF93EF93FF93809143
:100E9000B900887F803609F49EC078F5883209F45D
:100EA0005DC090F4803109F456C038F4882309F409
:100EB000F5C0883009F44FC0F5C0883109F44EC040
:100EC000803209F45FC0EEC0803409F46AC058F47F
:100ED000803309F457C0883309F0E4C08093980246
:100EE0000E943007DFC0803509F44FC0883509F40F
:100EF0005DC0883409F0D6C0D3C0883909F4C4C0B5
:100F0000A8F4883709F467C038F4883609F463C058
:100F1000803709F460C0C6C0883809F4B5C080398C
:100F200009F45FC0803809F0BDC05BC0803B09F4A4
:100F300083C038F4803A09F466C0883A09F47CC06A
:100F4000B1C0803C09F4A4C0883C09F4A1C0883B2E
:100F500009F487C0A7C08091040310C09091DD02FE
:100F60008091DC02981770F5E091DD0281E08E0F30
:100F70008093DD02F0E0E252FD4F80818093BB0060
:100F800085EC83C0809398028BC0E091DD0281E004
:100F90008E0F8093DD028091BB00F0E0E252FD4FA6
:100FA00080839091DD028091DC026BC0E091DD02D4
:100FB00081E08E0F8093DD028091BB00F0E0E25271
:100FC000FD4F80838091030381116AC081E080938B
:100FD000020384EA5EC083E08093050310929902C5
:100FE000CFCF80919902803208F04EC0E0919902F3
:100FF00081E08E0F809399028091BB00F0E0E6566D
:10100000FD4F8083BDCF0E943007809199028032CE
:1010100030F4E0919902F0E0E656FD4F10826091C5
:10102000990270E0E091FE02F091FF028AE992E0FD
:1010300009951092990236C084E0809305031092BE
:10104000BB021092BA02E0910003F09101030995EE
:101050008091BA02811105C081E08093BA0210929A
:10106000BC02E091BB0281E08E0F8093BB02F0E0F6
:10107000E454FD4F80818093BB009091BB0280912E
:10108000BA02981708F47CCF85E88093BC000AC0A8
:1010900085EC8093BC001092050304C01092980266
:1010A0000E942607FF91EF91BF91AF919F918F9181
:1010B0007F916F915F914F913F912F910F900FBE54
:1010C0000F901F901895DC01ED91FC910190F0813B
:1010D000E02D09941F93CF93DF9300D000D0CDB7BC
:1010E000DEB7162F69E270E086E492E029833A8346
:1010F0004B835C830E94CD051068612F70E086E40D
:1011000092E00E946308E0914602F0914702298133
:101110003A814B815C81CA01B901772788279927D9
:101120000190F081E02D86E492E0099586E492E05A
:101130000F900F900F900F90DF91CF911F910C9413
:101140004906CF93DF93EC0121E030E040E050E02E
:1011500060E00E946A0863E070E080E090E00E9436
:10116000C30B23E030E040E050E060E0CE01DF91CF
:10117000CF910C946A08FC011082748363835283BC
:1011800041830895CF93C62F69E270E086E492E030
:101190000E94CD05C0686C2F70E086E492E00E944A
:1011A000630886E492E00E94490641E050E069E26B
:1011B00070E086E492E00E94460686E492E00E9497
:1011C0002A05CF9108951F93CF93DF93EC0186E416
:1011D00092E00E94B90562E1CE010E94C208182F78
:1011E00040E150E0682F88E193E00E94CD0F143475
:1011F00089F481E088836B817C81CE010E940F0994
:1012000069817A81CE010E942909CE010E94A1083C
:1012100081E001C080E0DF91CF911F9108950F938D
:101220001F93CF93DF93EC018B018881811103C061
:10123000CE010E94E308980140E050E061E0CE0159
:101240000E946A081C830B83DF91CF911F910F913D
:1012500008950F931F93CF93DF93EC018B01888147
:10126000811103C0CE010E94E308980140E050E0E4
:101270006FE0CE010E946A081A830983DF91CF9143
:101280001F910F910895FC0183E090E09087878380
:101290001386128614860895EF92FF921F93CF93C0
:1012A000DF931F92CDB7DEB77C01162FFC0161855D
:1012B00086E492E049830E94C305612F86E492E0B0
:1012C0000E947A054981642F86E492E00E947A05A3
:1012D00086E492E00E944906F70186830F90DF9131
:1012E000CF911F91FF90EF900895CF93DF93EC0182
:1012F0008F819885029729F440E069E3CE010E942E
:101300004C0940E063E2CE010E944C094FE660E2E6
:10131000CE01DF91CF910C944C099F92AF92BF9276
:10132000CF92DF92EF92FF920F931F93CF93DF93B1
:10133000EC01698586E492E00E94C305E0914602D3
:10134000F09147020190F081E02D68EA86E492E096
:10135000099586E492E00E94490646E0698586E4A4
:1013600092E00E9443060E94940B7B0186E492E087
:101370000E942205069784F48A859B85892BB1F308
:101380000E94940B6E197F098A859B8586179707A3
:1013900068F781E08C872CC086E492E00E942A05E1
:1013A000A82E86E492E00E942A05982E86E492E018
:1013B0000E942A05E82E86E492E00E942A05B82EB3
:1013C00086E492E00E942A05F82E86E492E00E94CC
:1013D0002A05D92CC12CCA28D982C8821B2D00E02D
:1013E0000E291B830A83982F88278F299D838C833E
:1013F000DF91CF911F910F91FF90EF90DF90CF90F1
:10140000BF90AF909F9008951F93CF93DF931F924B
:10141000CDB7DEB7162F86E492E049830E94C3055C
:101420004981642F86E492E00E947A0586E492E086
:101430000E944906811114C041E0612F86E492E0C8
:101440000E94430686E492E00E942205892B41F027
:1014500086E492E00F90DF91CF911F910C942A05C2
:101460008FEF9FEF0F90DF91CF911F910895EF9233
:10147000FF920F931F93CF93DF937C01EB018A01BF
:101480006330710521F04230510509F051C0CE01A1
:101490000197039758F50115110581F04FE050E0D1
:1014A0006BE6C7010E94040A8F3F2FEF920719F0E5
:1014B00001E010E013C00130110551F04FE050E0A1
:1014C0006AE6C7010E94040A8F3FEFEF9E0721F4EE
:1014D000C330D10569F027C000E010E0C330D1056A
:1014E00029F4873D9105F1F5C2E0D0E02097D9F4C9
:1014F0000115110561F04FE050E069E6C7010E9457
:10150000040A833D910589F10130110549F04FE04E
:1015100050E068E6C7010E94040A833D910541F14D
:10152000C330D10519F00230110511F480E025C057
:10153000F701D087C783209759F0D7FD11C02397B3
:101540007CF40130110511F48BE608C08AE606C070
:101550000130110511F489E601C088E6F7018187A1
:1015600081E00BC0C1E0D0E0C1CF01E010E002C0DB
:1015700000E010E0C0E0D0E0D6CFDF91CF911F9126
:101580000F91FF90EF9008958FEF809306031092D4
:101590000803109207030895CF93DF93DC0170E0F6
:1015A000FB01E458FF4FE4911496EC931497842FB9
:1015B00090E0FC01E458FF4FE4911596EC931597E9
:1015C00060577F4FFB01C491D0E0CC0FDD1FC255A7
:1015D000DF4FFE014591549117965C934E931697F9
:1015E000FC01E057FF4F849190E0880F991F8C55C4
:1015F0009F4FFC014591549119965C934E93189717
:10160000FB016491E62FF0E0EE0FFF1FE854FF4F5F
:10161000859194911B969C938E931A972F5F3F4FC1
:1016200049E3429FC001439F900D11248E38FFE68D
:101630009F0710F08DE89FE61D969C938E931C9754
:10164000DF91CF9108951F920F920FB60F92112440
:101650002F933F934F935F936F937F938F939F93BA
:10166000AF93BF93EF93FF93E0910D03F0910E03BF
:101670000995FF91EF91BF91AF919F918F917F91CC
:101680006F915F914F913F912F910F900FBE0F90EF
:101690001F9018951F920F920FB60F9211242F933F
:1016A0003F938F939F93AF93BF938091100390913B
:1016B0001103A0911203B091130330910F0323E0A3
:1016C000230F2D3720F40196A11DB11D05C026E87A
:1016D000230F0296A11DB11D20930F0380931003C9
:1016E00090931103A0931203B093130380911403FA
:1016F00090911503A0911603B09117030196A11DB7
:10170000B11D8093140390931503A0931603B09317
:101710001703BF91AF919F918F913F912F910F90A0
:101720000FBE0F901F9018952FB7F894609110037B
:101730007091110380911203909113032FBF0895AC
:101740003FB7F8948091140390911503A09116036C
:10175000B091170326B5A89B05C02F3F19F001963D
:10176000A11DB11D3FBF6627782F892F9A2F620FC9
:10177000711D811D911D42E0660F771F881F991F03
:101780004A95D1F70895CF92DF92EF92FF92CF93CF
:10179000DF936B017C010E94A00BEB01C114D1040B
:1017A000E104F10489F00E9406120E94A00B6C1B58
:1017B0007D0B683E734090F381E0C81AD108E108C0
:1017C000F108C851DC4FEACFDF91CF91FF90EF9045
:1017D000DF90CF900895789484B5826084BD84B5FD
:1017E000816084BD85B5826085BD85B5816085BD1C
:1017F000EEE6F0E0808181608083E1E8F0E0108235
:10180000808182608083808181608083E0E8F0E075
:10181000808181608083E1EBF0E08081846080835F
:10182000E0EBF0E0808181608083EAE7F0E0808196
:1018300084608083808182608083808181608083F6
:101840008081806880831092C1000895833081F088
:1018500028F4813099F08230A1F008958730A9F002
:101860008830B9F08430D1F4809180008F7D03C03E
:10187000809180008F7780938000089584B58F7762
:1018800002C084B58F7D84BD08958091B0008F77AC
:1018900003C08091B0008F7D8093B0000895CF93F6
:1018A000DF9390E0FC01E458FF4F2491FC01E057E6
:1018B000FF4F8491882349F190E0880F991FFC0124
:1018C000E854FF4FA591B49182559F4FFC01C591FB
:1018D000D4919FB7611108C0F8948C912095822310
:1018E0008C93888182230AC0623051F4F8948C91E1
:1018F000322F309583238C938881822B888304C078
:10190000F8948C91822B8C939FBFDF91CF91089597
:101910000F931F93CF93DF931F92CDB7DEB7282F7E
:1019200030E0F901E859FF4F8491F901E458FF4F85
:101930001491F901E057FF4F04910023C9F0882367
:1019400021F069830E94260C6981E02FF0E0EE0F00
:10195000FF1FE255FF4FA591B4919FB7F8948C916A
:10196000611103C01095812301C0812B8C939FBF0F
:101970000F90DF91CF911F910F910895FC01818D00
:10198000228D90E0805C9F4F821B91098F73992775
:101990000895FC01918D828D981731F0828DE80FAA
:1019A000F11D858D90E008958FEF9FEF0895FC0164
:1019B000918D828D981761F0828DDF01A80FB11D86
:1019C0005D968C91928D9F5F9F73928F90E00895AA
:1019D0008FEF9FEF08958BE59EE0892B49F080E023
:1019E00090E0892B29F00E945B0E81110C9400007D
:1019F0000895FC01848DDF01A80FB11DA35ABF4FCC
:101A00002C91848D90E001968F739927848FA689FD
:101A1000B7892C93A089B1898C9180648C93938D24
:101A2000848D981306C00288F389E02D80818F7D14
:101A300080830895CF93DF93EC01888D8823C9F0CC
:101A4000EA89FB89808185FD05C0A889B9898C91C7
:101A500086FD0FC00FB607FCF5CF808185FFF2CF62
:101A6000A889B9898C9185FFEDCFCE010E94F90C30
:101A7000E7CFDF91CF910895CF92DF92FF920F933E
:101A80001F93CF93DF931F92CDB7DEB76C0181E038
:101A9000D60158968C9358975B969C915B975C9671
:101AA0008C915C97981307C05096ED91FC915197DB
:101AB000808185FD2EC0F601038D10E00F5F1F4F62
:101AC0000F731127F02EF601848DF81211C00FB696
:101AD00007FCF9CFD6015096ED91FC91519780818A
:101AE00085FFF1CFC60169830E94F90C6981EBCFB4
:101AF000838DE80FF11DE35AFF4F6083D6015B969B
:101B00000C935B975296ED91FC9153978081806284
:101B10000CC0D6015696ED91FC9157976083509674
:101B2000ED91FC91519780818064808381E090E009
:101B30000F90DF91CF911F910F91FF90DF90CF9089
:101B40000895BF92CF92DF92EF92FF92CF93DF93EF
:101B5000EC016A017B01B22EE889F98982E0808379
:101B6000411581EE580761057105A1F060E079E04B
:101B70008DE390E0A70196010E94421421503109A3
:101B8000410951095695479537952795211580E1CB
:101B9000380798F0E889F989108260E874E88EE1E6
:101BA00090E0A70196010E94421421503109410999
:101BB00051095695479537952795EC85FD853083D6
:101BC000EE85FF852083188EEC89FD89B082EA8935
:101BD000FB89808180618083EA89FB8980818860BC
:101BE0008083EA89FB89808180688083EA89FB8918
:101BF00080818F7D8083DF91CF91FF90EF90DF9088
:101C0000CF90BF9008951F920F920FB60F9211249C
:101C10002F938F939F93EF93FF93E0912803F0917D
:101C200029038081E0912E03F0912F0382FD12C0E1
:101C30009081809131038F5F8F73209132038217DF
:101C400051F0E0913103F0E0E85EFC4F958F809316
:101C5000310301C08081FF91EF919F918F912F916E
:101C60000F900FBE0F901F9018951F920F920FB6F6
:101C70000F9211242F933F934F935F936F937F9312
:101C80008F939F93AF93BF93EF93FF9388E193E07C
:101C90000E94F90CFF91EF91BF91AF919F918F91AD
:101CA0007F916F915F914F913F912F910F900FBE58
:101CB0000F901F90189588E193E00E94BE0C21E0E0
:101CC000892B09F420E0822F089510921B031092B3
:101CD0001A0388EE93E0A0E0B0E080931C03909399
:101CE0001D03A0931E03B0931F0381EC91E090931A
:101CF00019038093180385EC90E09093250380935B
:101D0000240384EC90E0909327038093260380ECD7
:101D100090E0909329038093280381EC90E09093C6
:101D20002B0380932A0382EC90E090932D03809301
:101D30002C0386EC90E090932F0380932E03109257
:101D4000310310923203109233031092340308953A
:101D5000CF92DF92EF92FF920F931F93CF93DF9377
:101D60007C016A01EB0100E010E00C151D0571F02B
:101D70006991D701ED91FC910190F081E02DC701AF
:101D80000995892B19F00F5F1F4FEFCFC801DF9125
:101D9000CF911F910F91FF90EF90DF90CF9008951A
:101DA0006115710581F0DB010D900020E9F7AD01AF
:101DB00041505109461B570BDC01ED91FC9102800B
:101DC000F381E02D099480E090E008950C94D00E0A
:101DD000DC01ED91FC910190F081E02D09946DEC16
:101DE00071E00C94D00E0F931F93CF93DF93EC010F
:101DF0000E94D00E8C01CE010E94EF0E800F911F29
:101E0000DF91CF911F910F9108958F929F92AF9282
:101E1000BF92CF92DF92EF92FF920F931F93CF93D7
:101E2000DF93CDB7DEB7A1970FB6F894DEBF0FBE34
:101E3000CDBF7C01C42EE52FCB01D22E19A221E00B
:101E40002D1510F02AE0D22E8E010F5D1F4F8D2C24
:101E5000912CA12CB12C6C2D7E2FA50194010E94F8
:101E600042148C2DD29E80191124015011098A3000
:101E700014F4805D01C0895CF8018083211531056F
:101E80004105510521F0C22EE32FCA01E4CFB8016C
:101E9000C7010E94D00EA1960FB6F894DEBF0FBE08
:101EA000CDBFDF91CF911F910F91FF90EF90DF9009
:101EB000CF90BF90AF909F908F900895CF92DF9278
:101EC000EF92FF920F931F93CF93DF93EC016A0180
:101ED0007B012115310579F4E881F9810190F081C8
:101EE000E02D642FDF91CF911F910F91FF90EF9024
:101EF000DF90CF9009942A303105E9F477FF1AC0BA
:101F00006DE20E94E80E8C0144275527BA014C1956
:101F10005D096E097F092AE0CE010E94050F800F3E
:101F2000911FDF91CF911F910F91FF90EF90DF9064
:101F3000CF9008952AE0B701A601CE01DF91CF919D
:101F40001F910F91FF90EF90DF90CF900C94050FB1
:101F50000F931F93CF93DF93EC019A01AB01662798
:101F600057FD6095762F0E945E0F8C01CE010E9476
:101F7000EF0E800F911FDF91CF911F910F91089568
:101F80002115310541F4DC01ED91FC910190F081C6
:101F9000E02D642F09940C94050F0F931F93CF939A
:101FA000DF93EC019A01462F50E060E070E00E9460
:101FB000C00F8C01CE010E94EF0E800F911FDF91A8
:101FC000CF911F910F9108950F931F93CF93DF939C
:101FD000EC010E94C00F8C01CE010E94EF0E800F19
:101FE000911FDF91CF911F910F9108954F925F92B2
:101FF0006F927F928F929F92AF92BF92CF92DF9219
:10200000EF92FF920F931F93CF93DF93EC016A013E
:102010007B01B22E9A01AB01C701B6010E942214C6
:10202000882319F060ED71E027C026013701E8949C
:1020300077F82FEF3FEF4FE75FE7C301B2010E9450
:10204000221481110DC02FEF3FEF4FE75FE7C3016F
:10205000B2010E946C1218161CF464ED71E00CC001
:102060002FEF3FEF4FE75FE4C701B6010E94BB13BC
:102070001816ACF468ED71E0CE01DF91CF911F919D
:102080000F91FF90EF90DF90CF90BF90AF909F9017
:102090008F907F906F905F904F900C94D00E2FEFA9
:1020A0003FEF4FE75FECC701B6010E946C1287FD5E
:1020B000E1CF20E030E0A901C701B6010E946C1217
:1020C00087FF0AC06DE2CE010E94E80E8C01F7FA8C
:1020D000F094F7F8F09402C000E010E0A12C60E06A
:1020E00070E080E09FE3AB1441F020E030E040E29C
:1020F00051E40E947012A394F6CF9B01AC01C7017A
:10210000B6010E9408126B017C010E94DD122B01B6
:102110003C010E9409139B01AC01C701B6010E945A
:1021200007126B017C012AE0B301A201CE010E94DB
:10213000050F080F191FBB2039F06CED71E0CE01BF
:102140000E94D00E080F191F7B2C772041F120E050
:1021500030E040E251E4C701B6010E94BF136B01B9
:102160007C010E94D8124B01AA2497FCA094BA2C9F
:102170002AE030E0B501A401CE010E945E0F080FF5
:10218000191FC501B4010E940B139B01AC01C701CB
:10219000B6010E9407126B017C017A94D6CFC80168
:1021A000DF91CF911F910F91FF90EF90DF90CF9033
:1021B000BF90AF909F908F907F906F905F904F9067
:1021C00008950F931F93CF93DF93EC010E94F60FB6
:1021D0008C01CE010E94EF0E800F911FDF91CF91F5
:1021E0001F910F9108950F931F93CF93DF93EC01ED
:1021F0000E94940B688779878A879B87E881F98199
:102200000084F185E02DCE01099597FF15C00E944D
:10221000940B088519852A853B85601B710B820B01
:10222000930B0C811D812E813F81601771078207FE
:10223000930720F38FEF9FEFDF91CF911F910F91C5
:102240000895CF93DF93EC01CE010E94F31097FD28
:1022500011C08D32910571F09C01205331092A3053
:10226000310540F0E881F9810680F781E02DCE014B
:102270000995EACFDF91CF910895CF92DF92FF9237
:102280000F931F93CF93DF9300D000D0CDB7DEB76D
:102290006C01062F0E942111FC0197FD4BC020E02C
:1022A00030E0A901F12C112707FD1095E017F10787
:1022B000E9F0ED32F105C1F0CF01C0970A97B0F413
:1022C000AAE0B0E00E9483149B01AC01CF01AA27D1
:1022D00097FDA095BA2F280F391F4A1F5B1F205367
:1022E00031094109510902C0FF24F394D601ED914F
:1022F000FC910680F781E02DC60129833A834B8348
:102300005C830995C6010E94F310FC01C0972981E6
:102310003A814B815C810A9748F2E017F10731F26C
:10232000FF2061F066277727CB01621B730B840BBC
:10233000950B06C060E070E0CB0102C0CA01B90194
:102340000F900F900F900F90DF91CF911F910F91F1
:10235000FF90DF90CF90089561E00C943D114F9273
:102360005F926F927F92AF92BF92CF92DF92EF9285
:10237000FF920F931F93CF93DF93CDB7DEB7290161
:102380003A01621B730B840B950B29893A894B899F
:102390005C892A193B094C095D09298B3A8B4B8BC7
:1023A0005C8B9B01AC0169897A898B899C890E942D
:1023B0002614E418F50806091709A80197010E94D8
:1023C00064142A0D3B1D4C1D5D1DCA01B901DF912E
:1023D000CF911F910F91FF90EF90DF90CF90BF9022
:1023E000AF907F906F905F904F90089508950E94F6
:1023F000EB0B0E94F6110E949402CBEEDCE00E94EF
:1024000019032097E1F30E94EB0CF9CF089550587F
:10241000BB27AA270ED075C166D130F06BD120F052
:1024200031F49F3F11F41EF45BC10EF4E095E7FB1D
:1024300051C1E92F77D180F3BA1762077307840778
:10244000950718F071F49EF58FC10EF4E0950B2EF0
:10245000BA2FA02D0B01B90190010C01CA01A001F6
:102460001124FF27591B99F0593F50F4503E68F151
:102470001A16F040A22F232F342F4427585FF3CF92
:10248000469537952795A795F0405395C9F77EF463
:102490001F16BA0B620B730B840BBAF09150A1F0AC
:1024A000FF0FBB1F661F771F881FC2F70EC0BA0F32
:1024B000621F731F841F48F4879577956795B795BA
:1024C000F7959E3F08F0B3CF9395880F08F09927B2
:1024D000EE0F979587950895D9D008F481E0089577
:1024E0000CD00FC107D140F0FED030F021F45F3F97
:1024F00019F0F0C0511139C1F3C014D198F39923E8
:10250000C9F35523B1F3951B550BBB27AA276217B7
:102510007307840738F09F5F5F4F220F331F441FFC
:10252000AA1FA9F333D00E2E3AF0E0E830D0915034
:102530005040E695001CCAF729D0FE2F27D0660F21
:10254000771F881FBB1F261737074807AB07B0E860
:1025500009F0BB0B802DBF01FF2793585F4F2AF076
:102560009E3F510568F0B6C000C15F3FECF3983E56
:10257000DCF3869577956795B795F7959F5FC9F7D3
:10258000880F911D9695879597F90895E1E0660F5C
:10259000771F881FBB1F621773078407BA0720F0D5
:1025A000621B730B840BBA0BEE1F88F7E09508953E
:1025B00004D06894B111D9C00895BCD088F09F5759
:1025C00090F0B92F9927B751A0F0D1F0660F771F7F
:1025D000881F991F1AF0BA95C9F712C0B13081F05F
:1025E000C3D0B1E00895C0C0672F782F8827B85FA7
:1025F00039F0B93FCCF3869577956795B395D9F7C0
:102600003EF490958095709561957F4F8F4F9F4FC9
:102610000895E89409C097FB3EF4909580957095D5
:1026200061957F4F8F4F9F4F9923A9F0F92F96E91E
:10263000BB279395F695879577956795B795F11193
:10264000F8CFFAF4BB0F11F460FF1BC06F5F7F4F30
:102650008F4F9F4F16C0882311F096E911C0772342
:1026600021F09EE8872F762F05C0662371F096E84B
:10267000862F70E060E02AF09A95660F771F881F1A
:10268000DAF7880F9695879597F90895990F0008BE
:10269000550FAA0BE0E8FEEF16161706E807F90734
:1026A000C0F012161306E407F50798F0621B730BCF
:1026B000840B950B39F40A2661F0232B242B252B50
:1026C00021F408950A2609F4A140A6958FEF811DF3
:1026D000811D089597F99F6780E870E060E0089594
:1026E0009FEF80EC089500240A941616170618062A
:1026F0000906089500240A94121613061406050606
:102700000895092E0394000C11F4882352F0BB0F96
:1027100040F4BF2B11F460FF04C06F5F7F4F8F4FF9
:102720009F4F089557FD9058440F551F59F05F3F34
:1027300071F04795880F97FB991F61F09F3F79F0E3
:1027400087950895121613061406551FF2CF469565
:10275000F1DF08C0161617061806991FF1CF8695E7
:102760007105610508940895E894BB2766277727CB
:10277000CB0197F908958ADF08F48FEF08950BD005
:10278000C0CFB1DF28F0B6DF18F0952309F0A2CF53
:10279000A7CF1124EACFC6DFA0F3959FD1F3950F01
:1027A00050E0551F629FF001729FBB27F00DB11DD5
:1027B000639FAA27F00DB11DAA1F649F6627B00D65
:1027C000A11D661F829F2227B00DA11D621F739F4E
:1027D000B00DA11D621F839FA00D611D221F749F5C
:1027E0003327A00D611D231F849F600D211D822FA3
:1027F000762F6A2F11249F5750408AF0E1F08823EA
:102800004AF0EE0FFF1FBB1F661F771F881F9150F6
:102810005040A9F79E3F510570F05CCFA6CF5F3FB7
:10282000ECF3983EDCF3869577956795B795F79529
:10283000E7959F5FC1F7FE2B880F911D96958795B1
:1028400097F9089523DF880B990B0895DB018F9387
:102850009F930E948314BF91AF91A29F800D911D01
:10286000A39F900DB29F900D11240895991B79E0BC
:1028700004C0991F961708F0961B881F7A95C9F710
:1028800080950895A1E21A2EAA1BBB1BFD010DC065
:10289000AA1FBB1FEE1FFF1FA217B307E407F50710
:1028A00020F0A21BB30BE40BF50B661F771F881FEC
:1028B000991F1A9469F760957095809590959B0182
:1028C000AC01BD01CF010895052E97FB1EF40094C5
:1028D0000E947B1457FD07D00E94421407FC03D0CE
:1028E0004EF40C947B1450954095309521953F4FB4
:1028F0004F4F5F4F089590958095709561957F4FEC
:102900008F4F9F4F08950E949414A59F900DB49FE0
:10291000900DA49F800D911D11240895EE0FFF1FAF
:102920000590F491E02D0994A29FB001B39FC001DE
:10293000A39F700D811D1124911DB29F700D811DEB
:0A2940001124911D0895F894FFCFB3
:10294A000000B503800001000000436F6C6F722025
:10295A0073656E736F722072656164696E67733A2C
:10296A0000523A0900473A0900423A0900436F6C9B
:10297A006F722073656E736F7220287363616C6562
:10298A006420746F203820626974293A004875659A
:10299A002028382D626974293A09004443204F6679
:1029AA00667365743A20004E6F697365204C6576CC
:1029BA00656C3A20004C3347443230482049324350
:1029CA00206779726F2073656E736F7200206E6F65
:1029DA00740020666F756E640050726573732067A9
:1029EA0020746F20636F6E74696E75650000000055
:1029FA00007A054D0522052A053D054C0500000013
:102A0A00003C0DA80EBE0CD70CC90C1A0D0D0A00FD
:0E2A1A006E616E00696E66006F7666002E00BB
:00000001FF
