:100000000C9465000C948D000C948D000C948D0064
:100010000C948D000C948D000C948D000C94800336
:100020000C948D000C948D000C948D000C94A703FF
:100030000C948D000C948D000C948D000C948D000C
:100040000C94530B0C948D000C940C0E0C943E0EDF
:100050000C948D000C948D000C948D000C948D00EC
:100060000C94BD070C948D000000000800020100F4
:100070000003040700000000000000000102040863
:100080001020408001020408102001020408102002
:10009000040404040404040402020202020203032E
:1000A00003030303000000002300260029000000D2
:1000B0000000250028002B0000000000240027007D
:1000C0002A002402D3064B0B6E0E11241FBECFEF65
:1000D000D8E0DEBFCDBF12E0A0E0B1E0E8E3F8E297
:1000E00002C005900D92A830B107D9F723E0A8E02F
:1000F000B2E001C01D92AF3DB207E1F710E0CAECDB
:10010000D0E004C02297FE010E940714C23CD10730
:10011000C9F70E9446110C941A140C940000CF9257
:10012000DF92EF92FF926B017C0161E08DE00E9413
:10013000910CF694E794D794C794C701B6010E9436
:10014000CC0B60E08DE00E94910CC701B601FF90DE
:10015000EF90DF90CF900C94CC0B68EE73E080E0D2
:1001600090E00C948F004F925F926F927F92AF92CB
:10017000BF92CF92DF92EF92FF920F931F93CF9394
:10018000DF93C8EED3E0C12CD12C760187E392E057
:100190000E94140A8091390290913A02AA2797FD91
:1001A000A095BA2FC80ED91EEA1EFB1E2AE030E029
:1001B000B701A60182E493E00E94C90F219731F7AD
:1001C000C701B60128EE33E040E050E00E94DB13A7
:1001D00030930D0220930C0265E571E082E493E018
:1001E0000E94EF0E60910C0270910D024AE050E007
:1001F00082E493E00E94B10FC8EED3E087E392E07F
:100200000E94140AA0903902B0903A0200910C02A8
:1002100010910D02B501601B710B882777FD809549
:10022000982F0E945A126B017C0140900802509056
:10023000090260900A0270900B02A30192010E94D1
:100240000A1318164CF4C0920802D0920902E092E8
:100250000A02F0920B021DC0A30192015058C7017F
:10026000B6010E94BB1187FF14C0662777276A1961
:100270007B09601B710B882777FD8095982F0E9462
:100280005A12609308027093090280930A029093B5
:100290000B02219709F0B2CF20E030E048EC52E4A5
:1002A000609108027091090280910A0290910B02FC
:1002B0000E94BF11609308027093090280930A02A2
:1002C00090930B0261E671E082E493E00E94EF0EEE
:1002D000409108025091090260910A0270910B024C
:1002E00024E030E082E493E0DF91CF911F910F9101
:1002F000FF90EF90DF90CF90BF90AF907F906F9086
:100300005F904F900C94EC103F924F925F926F92DF
:100310007F928F929F92AF92BF92CF92DF92EF9295
:10032000FF920F931F93CF93DF934B015C01342E09
:10033000442321F0C12CD12C760106C0C12CD12C34
:10034000F4EBEF2EF3E4FF2E00E010E0A5019401A2
:10035000C701B601332009F460C00E94BB1187FFBA
:1003600061C00E949D0B64197509860997096B305D
:1003700071058105910550F30E949D0B2B013C01F5
:1003800087E392E00E94140A8091390290913A0228
:1003900020910C0230910D02821B930B64E670E0F9
:1003A0000E94A513EB01B8016C0F7D1F882777FD14
:1003B0008095982F0E945A1220E030E040E251E4EC
:1003C0000E940E1320E030E04AEF54E40E94BF1177
:1003D0009B01AC01C701B6010E9457116B017C0162
:1003E0006FE671E082E493E00E94EF0E22E030E0DD
:1003F000B701A60182E493E00E94EA1067E771E08A
:1004000082E493E00E94EF0E4AE050E0BE0182E4F5
:1004100093E00E94B10F8E0199CF0E940A13181623
:100420000CF49FCFDF91CF911F910F91FF90EF9030
:10043000DF90CF90BF90AF909F908F907F906F9004
:100440005F904F903F90089587E492E00E9463048C
:1004500084E492E00E94630487E392E00E94CA0968
:1004600041E050E060E070E082E392E00E944209E7
:1004700024EF31E043E06BE080E292E00E94290348
:1004800024EF31E049E06AE08EE092E00C94290329
:1004900061E08EE00E94910CE0914203F0914303F1
:1004A0000190F081E02D6AEA82E493E0099582E40C
:1004B00093E00E94230D60E08EE00C94910CCF93AA
:1004C000DF9300D000D0CDB7DEB790E899838A8360
:1004D0006B83860F8F778C8361E08EE00E94910C96
:1004E000E0914203F09143030280F381E02D44E068
:1004F00050E0BE016F5F7F4F82E493E0099582E494
:1005000093E00E94230D60E08EE00E94910C0F901A
:100510000F900F900F90DF91CF91089564EF71E0ED
:1005200080E090E00E948F0064EF71E080E090E056
:100530000E948F006CE08AE00E945F0241E060E070
:1005400070E084EB92E40E94840160E08AE00C9405
:100550005F0261E08EE00E94580C60E08EE00E9435
:10056000910C26E040E855E260E070E082E493E020
:100570000E94AA0D6FE771E082E493E00E94FC0EF6
:1005800082E493E00E94E00C87369105C9F70E944F
:10059000480265E070E087E492E00E94FD046CE8A8
:1005A00070E087E492E00E94440566E070E084E435
:1005B00092E00E94FD046CE170E084E492E00E940D
:1005C000440561E08DE00E94580C63E971E082E42B
:1005D00093E00E94EF0E82E392E00E946A0981118B
:1005E00006C06EEA71E082E493E00E94EF0E61EDD6
:1005F00071E082E493E00E94FC0E63EB71E082E420
:1006000093E00E94EF0E42E050E063E070E087E389
:1006100092E00E94BE0A811106C06BEC71E082E498
:1006200093E00E94EF0E60ED71E082E493E00E949F
:10063000FC0E87E392E00E94FC090E94B3000E9436
:100640008E0284E492E00E94030587E492E00C9419
:100650000305CF93DF93DC0170E0FB01E458FF4F0B
:10066000E4911496EC931497842F90E0FC01E458E5
:10067000FF4FE4911596EC93159760577F4FFB0160
:10068000C491D0E0CC0FDD1FC255DF4FFE01459174
:10069000549117965C934E931697FC01E057FF4FC9
:1006A000849190E0880F991F8C559F4FFC014591D4
:1006B000549119965C934E931897FB016491E62F21
:1006C000F0E0EE0FFF1FE854FF4F859194911B96C9
:1006D0009C938E931A972F5F3F4F49E3429FC0012F
:1006E000439F900D11248E38FFE69F0710F08DE890
:1006F0009FE61D969C938E931C97DF91CF91089552
:100700001F920F920FB60F9211242F933F934F9386
:100710005F936F937F938F939F93AF93BF93EF9369
:10072000FF93E0914A02F0914B020995FF91EF91FE
:10073000BF91AF919F918F917F916F915F914F91F9
:100740003F912F910F900FBE0F901F9018951F9201
:100750000F920FB60F9211242F933F934F935F93F5
:100760006F937F938F939F93AF93BF93EF93FF9379
:1007700080914D0287FF05C0109285001092840081
:100780001AC020914D02332727FD309580914C02ED
:1007900090E0281739077CF480914D02992787FD56
:1007A0009095FC01EE0FFF1FE80FF91FE25BFD4F74
:1007B000808186FD15C080914D028F5F80934D0230
:1007C00020914D02332727FD309580914C0290E017
:1007D00028173907BCF480914D028C305CF112C0AF
:1007E00080914D02992787FD9095FC01EE0FFF1F28
:1007F000E80FF91FE25BFD4F808160E08F730E947C
:10080000910CD9CF8091840090918500049680341A
:100810009C4918F480E49CE905C080918400909183
:100820008500049690938900809388008FEF8093D1
:100830004D0238C0209184003091850080914D0296
:10084000992787FD9095FC01EE0FFF1FE80FF91F18
:10085000E25BFD4F81819281820F931F909389000B
:100860008093880080914D02992787FD9095FC0127
:10087000EE0FFF1FE80FF91FE25BFD4F808186FF3F
:1008800011C080914D02992787FD9095FC01EE0FD4
:10089000FF1FE80FF91FE25BFD4F808161E08F735E
:1008A0000E94910CFF91EF91BF91AF919F918F9119
:1008B0007F916F915F914F913F912F910F900FBE5C
:1008C0000F901F90189520914C022C30A0F431E02D
:1008D000320F30934C02FC012083822F90E0FC0108
:1008E000EE0FFF1FE80FF91FE25BFD4F88EB9BE067
:1008F0009283818308952FEFFC0120830895DF9276
:10090000EF92FF920F931F93CF93DF93EC01D62EBC
:100910007A01890188818C3008F066C061E08D2DF4
:100920000E94580C8881A82FB0E0FD01EE0FFF1F38
:10093000EA0FFB1FE25BFD4F2D2D2F739081907C02
:10094000922B908360E272E06E197F0977FF02C0FC
:100950006D5F7F4F7595679575956795698340E6DF
:1009600059E0401B510B57FF02C04D5F5F4F55953B
:100970004795559547954A836CE00E9485139CE006
:10098000899FB001112420E030E0A901460F571FD4
:10099000FA01EE0FFF1FE40FF51FE25BFD4F9081A0
:1009A00096FD16C02F5F3F4F2C30310571F7811136
:1009B0000FC01092800082E0809381001092850029
:1009C00010928400B19A80916F00826080936F00D2
:1009D000888190E0FC01EE0FFF1FE80FF91FE25B3A
:1009E000FD4F8081806480838881DF91CF911F914A
:1009F0000F91FF90EF90DF90089520E639E040E2FC
:100A000052E00C947F04FC01808190E0FC01EE0F29
:100A1000FF1FE80FF91FE25BFD4F80818F7B808312
:100A20000895FC0180818C3070F5918128E830E0D8
:100A3000291B310997FD3395220F331F220F331FD6
:100A4000621773077CF0928128E532E0291B310997
:100A500097FD3395220F331F220F331F6217730741
:100A60000CF49B0122503109220F331F4FB7F89429
:100A700090E0FC01EE0FFF1FE80FF91FE25BFD4F56
:100A8000328321834FBF08954F925F926F927F927E
:100A9000AF92BF92CF92DF92EF92FF920F931F938C
:100AA000CF93DF93EC01603282E078070CF040C016
:100AB00077FD06C0653B71052CF064EB70E002C069
:100AC00060E070E0898128E830E0281B310987FD6B
:100AD0003395220F331F220F331F5901CC24B7FC4B
:100AE000C094DC2C882777FD8095982F2A8148E5D3
:100AF00052E0421B510927FD5395440F551F440FE7
:100B0000551F2A01662457FC6094762C7F926F92C1
:100B10005F924F9214EBE12EF12C00E010E020E008
:100B200030E0A9010E94FE100F900F900F900F90DF
:100B3000CE01DF91CF911F910F91FF90EF90DF9049
:100B4000CF90BF90AF907F906F905F904F900C943C
:100B500011058091A20290E02091A302821B9109CD
:100B600008952091A3028091A202281750F4E22F49
:100B7000F0E0EC55FD4F808190E02F5F2093A302C1
:100B800008958FEF9FEF0895E091A3028091A20254
:100B9000E81730F4F0E0EC55FD4F808190E00895C7
:100BA0008FEF9FEF08950895CF92DF92EF92FF921B
:100BB0000F931F93CF93DF937C01CB018A01209188
:100BC0007E02222389F0EB016B01C40ED51ECC15E9
:100BD000DD0569F06991D701ED91FC910190F081FB
:100BE000E02DC7010995F3CF642F0E949407C80137
:100BF000DF91CF911F910F91FF90EF90DF90CF90F9
:100C00000895CF93DF931F92CDB7DEB7698320910C
:100C10007E022223D1F020917F02203240F021E099
:100C200030E0FC013383228380E090E015C08091A6
:100C30008002E82FF0E0EF57FD4F998190838F5F9E
:100C40008093800280937F0205C061E0CE0101960F
:100C50000E94940781E090E00F90DF91CF9108957A
:100C6000FC011382128248EE53E060E070E044839E
:100C70005583668377838BED91E09183808308951C
:100C80001092A3021092A2021092800210927F0290
:100C90000C94D70681E080937E026093A1021092AB
:100CA000800210927F0208950C944A060F93062F3B
:100CB00021E040917F0261E872E08091A1020E94F0
:100CC0003D071092800210927F0210927E020F91D7
:100CD00008958F929F92AF92BF92CF92DF92EF9240
:100CE000FF920F931F93CF93DF93EC01F62ED42E38
:100CF00048015901EE2019F10E944A061E2D1430B8
:100D000008F013E01150B8F0E881F98128E0129F53
:100D1000B0011124A501940104C05695479537955B
:100D200027956A95D2F7CA01B9010190F081E02DAB
:100D3000CE010995E7CF60E0CE010E9456064D2D09
:100D4000413208F040E22C2D64EA72E08F2D0E94BF
:100D5000F5061092A3028093A202DF91CF911F911A
:100D60000F91FF90EF90DF90CF90BF90AF909F904A
:100D70008F900895CF92EF920F931F93C22EE12C84
:100D800000E010E098010E9469061F910F91EF901A
:100D9000CF90089521E00C94BA0621E00C94BA0695
:100DA00061E00C94560682E792E00C9430061092B3
:100DB000310381E080932F0310922E0361E082E1E2
:100DC0000E94910C61E083E10E94910CE9EBF0E05C
:100DD00080818E7F808380818D7F808388E4809373
:100DE000B80085E48093BC000895413208F043C008
:100DF000909131039111FCCF91E0909331032093B6
:100E00002F032FEF2093C40210920903240F209385
:100E100008039093300390913003880F892B8093BF
:100E2000300380912E03813061F410922E03809163
:100E300030038093BB008091BC0083FDF8CF85EC2C
:100E400001C085EE8093BC00809131038130E1F3D5
:100E500080910903841710F4409109032AE033E0DC
:100E6000FB01D9018A2F821B841718F48D9181937D
:100E7000F9CF842F089580E008950F93413208F050
:100E80004AC0909131039111FCCF92E090933103CD
:100E900000932F039FEF9093C40210920903409395
:100EA0000803FB016AE073E0DB019A2F961B94179D
:100EB00018F491919D93F9CF1092300390913003E3
:100EC000880F892B8093300380912E03813061F449
:100ED00010922E03809130038093BB008091BC0060
:100EE00083FDF8CF85EC01C085EE8093BC00222302
:100EF00021F0809131038230E1F38091C4028F3F71
:100F000061F08091C402803251F08091C40280333C
:100F100041F483E007C081E005C080E003C082E0C7
:100F200001C084E00F910895613298F4209131035B
:100F3000243089F46093E602FC0188EE92E0DC0143
:100F40002A2F281B261718F421912D93F9CF80E022
:100F5000089581E0089582E0089585ED8093BC00B6
:100F60008091BC0084FDFCCF10923103089585EC84
:100F70008093BC001092310308951F920F920FB618
:100F80000F9211242F933F934F935F936F937F930F
:100F90008F939F93AF93BF93EF93FF938091B9008B
:100FA000887F803609F49EC078F5883209F45DC0E8
:100FB00090F4803109F456C038F4882309F4F5C060
:100FC000883009F44FC0F5C0883109F44EC0803232
:100FD00009F45FC0EEC0803409F46AC058F480336D
:100FE00009F457C0883309F0E4C08093C4020E941A
:100FF000B707DFC0803509F44FC0883509F45DC0FC
:10100000883409F0D6C0D3C0883909F4C4C0A8F424
:10101000883709F467C038F4883609F463C080372C
:1010200009F460C0C6C0883809F4B5C0803909F435
:101030005FC0803809F0BDC05BC0803B09F483C04D
:1010400038F4803A09F466C0883A09F47CC0B1C02B
:10105000803C09F4A4C0883C09F4A1C0883B09F491
:1010600087C0A7C08091300310C090910903809180
:101070000803981770F5E091090381E08E0F8093C3
:101080000903F0E0E65FFC4F80818093BB0085ECB4
:1010900083C08093C4028BC0E091090381E08E0F6E
:1010A000809309038091BB00F0E0E65FFC4F8083F2
:1010B00090910903809108036BC0E091090381E0DE
:1010C0008E0F809309038091BB00F0E0E65FFC4F38
:1010D000808380912F0381116AC081E080932E0369
:1010E00084EA5EC083E0809331031092C502CFCFC3
:1010F0008091C502803208F04EC0E091C50281E0C7
:101100008E0F8093C5028091BB00F0E0EA53FD4F43
:101110008083BDCF0E94B7078091C502803230F432
:10112000E091C502F0E0EA53FD4F10826091C502E4
:1011300070E0E0912A03F0912B0386EC92E0099590
:101140001092C50236C084E0809331031092E7020A
:101150001092E602E0912C03F0912D030995809105
:10116000E602811105C081E08093E6021092E80258
:10117000E091E70281E08E0F8093E702F0E0E85112
:10118000FD4F80818093BB009091E7028091E60241
:10119000981708F47CCF85E88093BC000AC085ECE2
:1011A0008093BC001092310304C01092C4020E94CC
:1011B000AD07FF91EF91BF91AF919F918F917F917B
:1011C0006F915F914F913F912F910F900FBE0F90B4
:1011D0001F901895DC01ED91FC910190F081E02DBC
:1011E00009941F93CF93DF9300D000D0CDB7DEB723
:1011F000162F69E270E082E792E029833A834B83FD
:101200005C830E9454061068612F70E082E792E0D0
:101210000E94EA08E0917202F091730229813A81FA
:101220004B815C81CA01B9017727882799270190F2
:10123000F081E02D82E792E0099582E792E00F903D
:101240000F900F900F90DF91CF911F910C94D006CB
:10125000CF93DF93EC0121E030E040E050E060E02C
:101260000E94F10863E070E080E090E00E94CC0B07
:1012700023E030E040E050E060E0CE01DF91CF912C
:101280000C94F108FC0110827483638352834183C0
:101290000895CF93C62F69E270E082E792E00E9442
:1012A0005406C0686C2F70E082E792E00E94EA0862
:1012B00082E792E00E94D00641E050E069E270E0EF
:1012C00082E792E00E94CD0682E792E00E94B1059B
:1012D000CF9108951F93CF93DF93EC0182E792E0C3
:1012E0000E94400662E1CE010E944909182F40E1A8
:1012F00050E0682F82E493E00E94E80F143489F4F0
:1013000081E088836B817C81CE010E94960969818E
:101310007A81CE010E94B009CE010E94280981E0A5
:1013200001C080E0DF91CF911F9108950F931F932B
:10133000CF93DF93EC018B018881811103C0CE0133
:101340000E946A09980140E050E061E0CE010E94ED
:10135000F1081C830B83DF91CF911F910F910895AA
:101360000F931F93CF93DF93EC018B018881811141
:1013700003C0CE010E946A09980140E050E06FE08E
:10138000CE010E94F1081A830983DF91CF911F914A
:101390000F910895FC0183E090E090878783138686
:1013A000128614860895EF92FF921F93CF93DF93D6
:1013B0001F92CDB7DEB77C01162FFC01618582E755
:1013C00092E049830E944A06612F82E792E00E94E0
:1013D00001064981642F82E792E00E94010682E7BC
:1013E00092E00E94D006F70186830F90DF91CF91A3
:1013F0001F91FF90EF900895CF93DF93EC018F81C1
:101400009885029729F440E069E3CE010E94D30950
:1014100040E063E2CE010E94D3094FE660E2CE01D4
:10142000DF91CF910C94D3099F92AF92BF92CF924C
:10143000DF92EF92FF920F931F93CF93DF93EC0114
:10144000698582E792E00E944A06E0917202F0917B
:1014500073020190F081E02D68EA82E792E009953D
:1014600082E792E00E94D00646E0698582E792E03A
:101470000E94CA060E949D0B7B0182E792E00E94B7
:10148000A905069784F48A859B85892BB1F30E9470
:101490009D0B6E197F098A859B858617970768F7CC
:1014A00081E08C872CC082E792E00E94B105A82ED3
:1014B00082E792E00E94B105982E82E792E00E94B6
:1014C000B105E82E82E792E00E94B105B82E82E7CE
:1014D00092E00E94B105F82E82E792E00E94B105E9
:1014E000D92CC12CCA28D982C8821B2D00E00E2914
:1014F0001B830A83982F88278F299D838C83DF91F4
:10150000CF911F910F91FF90EF90DF90CF90BF9000
:10151000AF909F9008951F93CF93DF931F92CDB705
:10152000DEB7162F82E792E049830E944A0649817E
:10153000642F82E792E00E94010682E792E00E9417
:10154000D006811114C041E0612F82E792E00E9431
:10155000CA0682E792E00E94A905892B41F082E742
:1015600092E00F90DF91CF911F910C94B1058FEF16
:101570009FEF0F90DF91CF911F910895EF92FF920F
:101580000F931F93CF93DF937C01EB018A016330AC
:10159000710521F04230510509F051C0CE0101978B
:1015A000039758F50115110581F04FE050E06BE607
:1015B000C7010E948B0A8F3F2FEF920719F001E0BD
:1015C00010E013C00130110551F04FE050E06AE621
:1015D000C7010E948B0A8F3FEFEF9E0721F4C330B3
:1015E000D10569F027C000E010E0C330D10529F42F
:1015F000873D9105F1F5C2E0D0E02097D9F40115BF
:10160000110561F04FE050E069E6C7010E948B0AC6
:10161000833D910589F10130110549F04FE050E01B
:1016200068E6C7010E948B0A833D910541F1C330F2
:10163000D10519F00230110511F480E025C0F70141
:10164000D087C783209759F0D7FD11C023977CF42A
:101650000130110511F48BE608C08AE606C001309E
:10166000110511F489E601C088E6F701818781E060
:101670000BC0C1E0D0E0C1CF01E010E002C000E04B
:1016800010E0C0E0D0E0D6CFDF91CF911F910F9155
:10169000FF90EF9008958FEF809332031092340300
:1016A0001092330308951F920F920FB60F921124D8
:1016B0002F933F938F939F93AF93BF9380913A0360
:1016C00090913B03A0913C03B0913D0330913903CD
:1016D00023E0230F2D3720F40196A11DB11D05C075
:1016E00026E8230F0296A11DB11D20933903809394
:1016F0003A0390933B03A0933C03B0933D03809146
:101700003E0390913F03A0914003B09141030196A5
:10171000A11DB11D80933E0390933F03A09340030E
:10172000B0934103BF91AF919F918F913F912F91C2
:101730000F900FBE0F901F9018952FB7F8946091DF
:101740003A0370913B0380913C0390913D032FBF7E
:1017500008953FB7F89480913E0390913F03A09184
:101760004003B091410326B5A89B05C02F3F19F057
:101770000196A11DB11D3FBF6627782F892F9A2F93
:10178000620F711D811D911D42E0660F771F881F3A
:10179000991F4A95D1F70895CF92DF92EF92FF9269
:1017A000CF93DF936B017C010E94A90BEB01C11465
:1017B000D104E104F10489F00E9455110E94A90BA3
:1017C0006C1B7D0B683E734090F381E0C81AD10812
:1017D000E108F108C851DC4FEACFDF91CF91FF90CB
:1017E000EF90DF90CF900895789484B5826084BDA7
:1017F00084B5816084BD85B5826085BD85B5816015
:1018000085BDEEE6F0E0808181608083E1E8F0E074
:101810001082808182608083808181608083E0E8A3
:10182000F0E0808181608083E1EBF0E08081846082
:101830008083E0EBF0E0808181608083EAE7F0E084
:1018400080818460808380818260808380818160E8
:1018500080838081806880831092C10008958330E6
:1018600081F028F4813099F08230A1F0089587301A
:10187000A9F08830B9F08430D1F4809180008F7D58
:1018800003C0809180008F7780938000089584B595
:101890008F7702C084B58F7D84BD08958091B0009C
:1018A0008F7703C08091B0008F7D8093B000089542
:1018B000CF93DF9390E0FC01E458FF4F2491FC01AB
:1018C000E057FF4F8491882349F190E0880F991FDA
:1018D000FC01E854FF4FA591B49182559F4FFC0144
:1018E000C591D4919FB7611108C0F8948C9120954F
:1018F00082238C93888182230AC0623051F4F89449
:101900008C91322F309583238C938881822B88830E
:1019100004C0F8948C91822B8C939FBFDF91CF9160
:1019200008950F931F93CF93DF931F92CDB7DEB728
:10193000282F30E0F901E859FF4F8491F901E4586C
:10194000FF4F1491F901E057FF4F04910023C9F0B4
:10195000882321F069830E942F0C6981E02FF0E039
:10196000EE0FFF1FE255FF4FA591B4919FB7F8947A
:101970008C91611103C01095812301C0812B8C9340
:101980009FBF0F90DF91CF911F910F910895FC01A0
:10199000818D228D90E0805C9F4F821B91098F7317
:1019A00099270895FC01918D828D981731F0828DD1
:1019B000E80FF11D858D90E008958FEF9FEF08955A
:1019C000FC01918D828D981761F0828DDF01A80F47
:1019D000B11D5D968C91928D9F5F9F73928F90E069
:1019E00008958FEF9FEF089584E69EE0892B49F0DC
:1019F00080E090E0892B29F00E94640E81110C9404
:101A000000000895FC01848DDF01A80FB11DA35AC9
:101A1000BF4F2C91848D90E001968F739927848F0E
:101A2000A689B7892C93A089B1898C9180648C9305
:101A3000938D848D981306C00288F389E02D8081F0
:101A40008F7D80830895CF93DF93EC01888D882369
:101A5000C9F0EA89FB89808185FD05C0A889B9891B
:101A60008C9186FD0FC00FB607FCF5CF808185FFF6
:101A7000F2CFA889B9898C9185FFEDCFCE010E9464
:101A8000020DE7CFDF91CF910895CF92DF92FF92C1
:101A90000F931F93CF93DF931F92CDB7DEB76C01E7
:101AA00081E0D60158968C9358975B969C915B97F2
:101AB0005C968C915C97981307C05096ED91FC91C1
:101AC0005197808185FD2EC0F601038D10E00F5FD8
:101AD0001F4F0F731127F02EF601848DF81211C0DD
:101AE0000FB607FCF9CFD6015096ED91FC915197B6
:101AF000808185FFF1CFC60169830E94020D698153
:101B0000EBCF838DE80FF11DE35AFF4F6083D601C1
:101B10005B960C935B975296ED91FC915397808165
:101B200080620CC0D6015696ED91FC915797608368
:101B30005096ED91FC91519780818064808381E083
:101B400090E00F90DF91CF911F910F91FF90DF9068
:101B5000CF900895BF92CF92DF92EF92FF92CF93F2
:101B6000DF93EC016A017B01B22EE889F98982E0FA
:101B70008083411581EE580761057105A1F060E091
:101B800079E08DE390E0A70196010E94B9132150FE
:101B900031094109510956954795379527952115E2
:101BA00080E1380798F0E889F989108260E874E8E4
:101BB0008EE190E0A70196010E94B91321503109EE
:101BC000410951095695479537952795EC85FD852F
:101BD0003083EE85FF852083188EEC89FD89B082E5
:101BE000EA89FB89808180618083EA89FB89808121
:101BF00088608083EA89FB89808180688083EA89A4
:101C0000FB8980818F7D8083DF91CF91FF90EF9062
:101C1000DF90CF90BF9008951F920F920FB60F9252
:101C200011242F938F939F93EF93FF93E09152038F
:101C3000F09153038081E0915803F091590382FDA4
:101C400012C0908180915B038F5F8F7320915C0342
:101C5000821751F0E0915B03F0E0EE5BFC4F958F53
:101C600080935B0301C08081FF91EF919F918F91E1
:101C70002F910F900FBE0F901F9018951F920F92EB
:101C80000FB60F9211242F933F934F935F936F934F
:101C90007F938F939F93AF93BF93EF93FF9382E4D0
:101CA00093E00E94020DFF91EF91BF91AF919F9140
:101CB0008F917F916F915F914F913F912F910F90F5
:101CC0000FBE0F901F90189582E493E00E94C70CFE
:101CD00021E0892B09F420E0822F0895109245031A
:101CE0001092440388EE93E0A0E0B0E080934603B6
:101CF00090934703A0934803B09349038BEE91E080
:101D0000909343038093420385EC90E090934F03BC
:101D100080934E0384EC90E09093510380935003A2
:101D200080EC90E0909353038093520381EC90E019
:101D3000909355038093540382EC90E09093570363
:101D40008093560386EC90E0909359038093580358
:101D500010925B0310925C0310925D0310925E037D
:101D60000895CF92DF92EF92FF920F931F93CF933C
:101D7000DF937C016A01EB0100E010E00C151D050A
:101D800071F06991D701ED91FC910190F081E02D06
:101D9000C7010995892B19F00F5F1F4FEFCFC801BD
:101DA000DF91CF911F910F91FF90EF90DF90CF9037
:101DB00008956115710581F0DB010D900020E9F7B0
:101DC000AD0141505109461B570BDC01ED91FC91CF
:101DD0000280F381E02D099480E090E008950C9456
:101DE000D90EDC01ED91FC910190F081E02D099478
:101DF00067EF71E00C94D90E0F931F93CF93DF938D
:101E0000EC010E94D90E8C01CE010E94F80E800FC9
:101E1000911FDF91CF911F910F9108958F929F9203
:101E2000AF92BF92CF92DF92EF92FF920F931F93E8
:101E3000CF93DF93CDB7DEB7A1970FB6F894DEBF8F
:101E40000FBECDBF7C01C42EE52FCB01D22E19A22F
:101E500021E02D1510F02AE0D22E8E010F5D1F4FCC
:101E60008D2C912CA12CB12C6C2D7E2FA5019401D1
:101E70000E94B9138C2DD29E801911240150110992
:101E80008A3014F4805D01C0895CF80180832115DB
:101E900031054105510521F0C22EE32FCA01E4CFDF
:101EA000B801C7010E94D90EA1960FB6F894DEBF03
:101EB0000FBECDBFDF91CF911F910F91FF90EF909B
:101EC000DF90CF90BF90AF909F908F900895CF926A
:101ED000DF92EF92FF920F931F93CF93DF93EC016A
:101EE0006A017B012115310579F4E881F9810190BE
:101EF000F081E02D642FDF91CF911F910F91FF9022
:101F0000EF90DF90CF9009942A303105E9F477FF04
:101F10001AC06DE20E94F10E8C0144275527BA01C8
:101F20004C195D096E097F092AE0CE010E940E0F4F
:101F3000800F911FDF91CF911F910F91FF90EF9034
:101F4000DF90CF9008952AE0B701A601CE01DF917E
:101F5000CF911F910F91FF90EF90DF90CF900C9455
:101F60000E0F0F931F93CF93DF93EC019A01AB01F8
:101F7000662757FD6095762F0E94670F8C01CE0172
:101F80000E94F80E800F911FDF91CF911F910F914A
:101F900008950F931F93CF93DF93EC010E94670F77
:101FA0008C01CE010E94F80E800F911FDF91CF911E
:101FB0001F910F9108952115310541F4DC01ED9138
:101FC000FC910190F081E02D642F09940C940E0F88
:101FD0000F931F93CF93DF93EC019A01462F50E0AC
:101FE00060E070E00E94DB0F8C01CE010E94F80ED1
:101FF000800F911FDF91CF911F910F9108954F9204
:102000005F926F927F928F929F92AF92BF92CF9288
:10201000DF92EF92FF920F931F93CF93DF93EC0128
:102020006A017B01B22E9A01AB01C701B6010E9481
:102030007113882319F06AEF71E027C02601370178
:10204000E89477F82FEF3FEF4FE75FE7C301B20166
:102050000E94711381110DC02FEF3FEF4FE75FE733
:10206000C301B2010E94BB1118161CF46EEF71E09F
:102070000CC02FEF3FEF4FE75FE4C701B6010E94AE
:102080000A131816ACF462E072E0CE01DF91CF9132
:102090001F910F91FF90EF90DF90CF90BF90AF9086
:1020A0009F908F907F906F905F904F900C94D90E7F
:1020B0002FEF3FEF4FE75FECC701B6010E94BB1166
:1020C00087FDE1CF20E030E0A901C701B6010E9401
:1020D000BB1187FF0AC06DE2CE010E94F10E8C0198
:1020E000F7FAF094F7F8F09402C000E010E0A12CA9
:1020F00060E070E080E09FE3AB1441F020E030E06E
:1021000040E251E40E94BF11A394F6CF9B01AC01C1
:10211000C701B6010E9457116B017C010E942C126D
:102120002B013C010E9458129B01AC01C701B60172
:102130000E9456116B017C012AE0B301A201CE017D
:102140000E940E0F080F191FBB2039F066E072E0E5
:10215000CE010E94D90E080F191F7B2C772041F168
:1021600020E030E040E251E4C701B6010E940E13C6
:102170006B017C010E9427124B01AA2497FCA094BA
:10218000BA2C2AE030E0B501A401CE010E94670F0D
:10219000080F191FC501B4010E945A129B01AC011E
:1021A000C701B6010E9456116B017C017A94D6CF0B
:1021B000C801DF91CF911F910F91FF90EF90DF90B9
:1021C000CF90BF90AF909F908F907F906F905F90D7
:1021D0004F9008950C94FF0F0F931F93CF93DF93AD
:1021E000EC010E94FF0F8C01CE010E94F80E800FBF
:1021F000911FDF91CF911F910F9108954F925F92A0
:102200006F927F92AF92BF92CF92DF92EF92FF9246
:102210000F931F93CF93DF93CDB7DEB729013A0118
:10222000621B730B840B950B29893A894B895C8956
:102230002A193B094C095D09298B3A8B4B8B5C8B26
:102240009B01AC0169897A898B899C890E947513ED
:10225000E418F50806091709A80197010E94DB1385
:102260002A0D3B1D4C1D5D1DCA01B901DF91CF91A7
:102270001F910F91FF90EF90DF90CF90BF90AF90A4
:102280007F906F905F904F90089508950E94F40B97
:102290000E9445110E94A902C4EFDCE00E94AD003B
:1022A0002097E1F30E94F40CF9CF08955058BB2712
:1022B000AA270ED075C166D130F06BD120F031F471
:1022C0009F3F11F41EF45BC10EF4E095E7FB51C192
:1022D000E92F77D180F3BA17620773078407950750
:1022E00018F071F49EF58FC10EF4E0950B2EBA2F05
:1022F000A02D0B01B90190010C01CA01A00111240C
:10230000FF27591B99F0593F50F4503E68F11A16B7
:10231000F040A22F232F342F4427585FF3CF469548
:1023200037952795A795F0405395C9F77EF41F166A
:10233000BA0B620B730B840BBAF09150A1F0FF0F34
:10234000BB1F661F771F881FC2F70EC0BA0F621F20
:10235000731F841F48F4879577956795B795F79510
:102360009E3F08F0B3CF9395880F08F09927EE0FA2
:10237000979587950895D9D008F481E008950CD0F9
:102380000FC107D140F0FED030F021F45F3F19F0CB
:10239000F0C0511139C1F3C014D198F39923C9F396
:1023A0005523B1F3951B550BBB27AA27621773075B
:1023B000840738F09F5F5F4F220F331F441FAA1F0F
:1023C000A9F333D00E2E3AF0E0E830D091505040CF
:1023D000E695001CCAF729D0FE2F27D0660F771F7D
:1023E000881FBB1F261737074807AB07B0E809F05F
:1023F000BB0B802DBF01FF2793585F4F2AF09E3FF4
:10240000510568F0B6C000C15F3FECF3983EDCF3C5
:10241000869577956795B795F7959F5FC9F7880F6C
:10242000911D9695879597F90895E1E0660F771FBE
:10243000881FBB1F621773078407BA0720F0621B4F
:10244000730B840BBA0BEE1F88F7E095089504D048
:102450006894B111D9C00895BCD088F09F5790F00E
:10246000B92F9927B751A0F0D1F0660F771F881FB9
:10247000991F1AF0BA95C9F712C0B13081F0C3D0D4
:10248000B1E00895C0C0672F782F8827B85F39F072
:10249000B93FCCF3869577956795B395D9F73EF418
:1024A00090958095709561957F4F8F4F9F4F0895C0
:1024B000E89409C097FB3EF49095809570956195DE
:1024C0007F4F8F4F9F4F9923A9F0F92F96E9BB2794
:1024D0009395F695879577956795B795F111F8CF10
:1024E000FAF4BB0F11F460FF1BC06F5F7F4F8F4F7B
:1024F0009F4F16C0882311F096E911C0772321F071
:102500009EE8872F762F05C0662371F096E8862F08
:1025100070E060E02AF09A95660F771F881FDAF75F
:10252000880F9695879597F90895990F0008550F8C
:10253000AA0BE0E8FEEF16161706E807F907C0F049
:1025400012161306E407F50798F0621B730B840B51
:10255000950B39F40A2661F0232B242B252B21F42B
:1025600008950A2609F4A140A6958FEF811D811DCB
:10257000089597F99F6780E870E060E008959FEF05
:1025800080EC089500240A9416161706180609060A
:10259000089500240A9412161306140605060895D9
:1025A000092E0394000C11F4882352F0BB0F40F461
:1025B000BF2B11F460FF04C06F5F7F4F8F4F9F4FA1
:1025C000089557FD9058440F551F59F05F3F71F023
:1025D0004795880F97FB991F61F09F3F79F087958A
:1025E0000895121613061406551FF2CF4695F1DF13
:1025F00008C0161617061806991FF1CF86957105A3
:10260000610508940895E894BB2766277727CB01D6
:1026100097F908958ADF08F48FEF08950BD0C0CFA3
:10262000B1DF28F0B6DF18F0952309F0A2CFA7CFCD
:102630001124EACFC6DFA0F3959FD1F3950F50E0A8
:10264000551F629FF001729FBB27F00DB11D639F64
:10265000AA27F00DB11DAA1F649F6627B00DA11D0A
:10266000661F829F2227B00DA11D621F739FB00DB0
:10267000A11D621F839FA00D611D221F749F332720
:10268000A00D611D231F849F600D211D822F762FB9
:102690006A2F11249F5750408AF0E1F088234AF0B6
:1026A000EE0FFF1FBB1F661F771F881F9150504002
:1026B000A9F79E3F510570F05CCFA6CF5F3FECF3CA
:1026C000983EDCF3869577956795B795F795E795EE
:1026D0009F5FC1F7FE2B880F911D9695879597F9FF
:1026E000089523DF880B990B0895DB018F939F9347
:1026F0000E94FA13BF91AF91A29F800D911DA39FDD
:10270000900DB29F900D11240895991B79E004C09B
:10271000991F961708F0961B881F7A95C9F7809520
:102720000895AA1BBB1B51E107C0AA1FBB1FA61718
:10273000B70710F0A61BB70B881F991F5A95A9F76A
:1027400080959095BC01CD01089597FB072E16F456
:10275000009407D077FD09D00E94911307FC05D0A3
:102760003EF4909581959F4F0895709561957F4FA8
:102770000895A1E21A2EAA1BBB1BFD010DC0AA1FC2
:10278000BB1FEE1FFF1FA217B307E407F50720F0DA
:10279000A21BB30BE40BF50B661F771F881F991F55
:1027A0001A9469F760957095809590959B01AC019E
:1027B000BD01CF010895052E97FB1EF400940E94E1
:1027C000F21357FD07D00E94B91307FC03D04EF453
:1027D0000C94F21350954095309521953F4F4F4FF3
:1027E0005F4F089590958095709561957F4F8F4FBD
:1027F0009F4F08950E940B14A59F900DB49F900DBC
:10280000A49F800D911D11240895EE0FFF1F0590C8
:10281000F491E02D0994A29FB001B39FC001A39F42
:10282000700D811D1124911DB29F700D811D112409
:08283000911D0895F894FFCFFB
:1028380001000000436F6C6F722073656E736F72D6
:102848002072656164696E67733A00523A090047FD
:102858003A0900423A0900436F6C6F722073656E43
:10286800736F7220287363616C656420746F2038FD
:1028780020626974293A004875652028382D6269F4
:1028880074293A09004443204F66667365743A20F8
:10289800004E6F697365204C6576656C3A2000615F
:1028A8006E676C653A200009726174653A200050C1
:1028B80072657373206720746F20636F6E74696E1E
:1028C8007565005443533334373235204932432039
:1028D800636F6C6F722073656E736F7220006E6F1A
:1028E8007420004C33474432304820493243206733
:1028F80079726F2073656E736F7200206E6F74004B
:1029080020666F756E6400000000000106D405A9FA
:1029180005B105C405D30500000000450DB10EC77B
:102928000CE00CD20C230D0D0A006E616E00696E6E
:0829380066006F7666002E00B8
:00000001FF
