:100000000C9465000C948D000C948D000C948D0064
:100010000C948D000C948D000C948D000C949D0319
:100020000C948D000C948D000C948D000C94C403E2
:100030000C948D000C948D000C948D000C948D000C
:100040000C94700B0C948D000C94290E0C945B0E88
:100050000C948D000C948D000C948D000C948D00EC
:100060000C94DA070C948D000000000800020100D7
:100070000003040700000000000000000102040863
:100080001020408001020408102001020408102002
:10009000040404040404040402020202020203032E
:1000A00003030303000000002300260029000000D2
:1000B0000000250028002B0000000000240027007D
:1000C0002A003002F006680B8B0E11241FBECFEF02
:1000D000D8E0DEBFCDBF11E0A0E0B1E0E6E9F9E293
:1000E00002C005900D92AE3FB107D9F723E0AEEF05
:1000F000B1E001C01D92A53DB207E1F710E0CAECE6
:10010000D0E004C02297FE010E94B614C23CD10781
:10011000C9F70E941D120C94C9140C940000CF92D0
:10012000DF92EF92FF926B017C0161E08DE00E9413
:10013000AE0CF694E794D794C794C701B6010E9419
:10014000E90B60E08DE00E94AE0CC701B601FF90A4
:10015000EF90DF90CF900C94E90B68EE73E080E0B5
:1001600090E00C948F004F925F926F927F92AF92CB
:10017000BF92CF92DF92EF92FF920F931F93CF9394
:10018000DF93C8EED3E0C12CD12C76018DE292E052
:100190000E94310A80912F0290913002AA2797FD88
:1001A000A095BA2FC80ED91EEA1EFB1E219771F723
:1001B000C701B60128EE33E040E050E00E948A1407
:1001C00030930302209302026BE571E088E393E031
:1001D0000E940C0F60910202709103024AE050E00D
:1001E00088E393E00E94CE0FC8EED3E08DE292E068
:1001F0000E94310AA0902F02B090300200910202BA
:1002000010910302B501601B710B882777FD809563
:10021000982F0E9431136B017C014090FE01509099
:10022000FF016090000270900102A30192010E9400
:10023000E11318164CF4C092FE01D092FF01E09237
:100240000002F09201021DC0A30192015058C701A3
:10025000B6010E94921287FF14C0662777276A1999
:100260007B09601B710B882777FD8095982F0E9472
:1002700031136093FE017093FF018093000290930D
:100280000102219709F0B2CF20E030E048EC52E4BF
:100290006091FE017091FF01809100029091010236
:1002A0000E9496126093FE017093FF0180930002FA
:1002B0009093010267E671E088E393E00E940C0FDF
:1002C0004091FE015091FF01609100027091010286
:1002D00024E030E088E393E0DF91CF911F910F910C
:1002E000FF90EF90DF90CF90BF90AF907F906F9096
:1002F0005F904F900C9407112F923F924F925F9214
:100300006F927F928F929F92AF92BF92CF92DF9225
:10031000EF92FF920F931F93CF93DF9300D000D003
:100320001F92CDB7DEB769837A838B839C83242E9B
:100330000E94BA0B4B015C01222021F0C12CD12C70
:10034000760106C0C12CD12CF4EBEF2EF3E4FF2E86
:10035000312C00E010E01D8229813A814B815C81C3
:10036000C701B601222009F45EC00E94921287FFE5
:100370005FC00E94BA0B681979098A099B096B3022
:1003800071058105910540F30E94BA0B2B013C01D8
:100390008DE292E00E94310AB301A2014819590985
:1003A0006A097B092AE030E088E393E00E940A10A2
:1003B00060912F02709130028091020290910302AD
:1003C000681B790B882777FD8095982F0E94311341
:1003D00022EF3FEF44EF5BE30E94E5134B015C012A
:1003E0009B01AC01632D702F812F9D810E942E12E5
:1003F00020E030E040E251E40E94E51320E030E0EC
:100400004AEF54E40E9496129B01AC01C701B60169
:100410000E942E126B017C01382C092D1A2DBD82F1
:100420005301420199CF0E94E11318160CF4A1CF99
:100430000F900F900F900F900F90DF91CF911F9121
:100440000F91FF90EF90DF90CF90BF90AF909F9073
:100450008F907F906F905F904F903F902F90089576
:100460008DE392E00E9480048AE392E00E9480047F
:100470008DE292E00E94E70941E050E060E070E028
:1004800088E292E00E945F0924EF31E043E06BE0F4
:1004900086E192E00E94460324EF31E049E06AE001
:1004A00084E092E00C94460361E08EE00E94AE0C82
:1004B000E0913803F09139030190F081E02D6AEA70
:1004C00088E393E0099588E393E00E94400D60E0A3
:1004D0008EE00C94AE0CCF93DF9300D000D0CDB75C
:1004E000DEB790E899838A836B83860F8F778C833E
:1004F00061E08EE00E94AE0CE0913803F091390388
:100500000280F381E02D44E050E0BE016F5F7F4F39
:1005100088E393E0099588E393E00E94400D60E052
:100520008EE00E94AE0C0F900F900F900F90DF9115
:10053000CF91089564EF71E080E090E00E948F0019
:1005400064EF71E080E090E00E948F0088E393E028
:100550000E94E40C0297D4F388E393E00E94D21146
:100560008AE00E946B0241E060E070E084EB92E47C
:100570000E947C0160E08BE00C946B0261E08EE0F5
:100580000E94750C60E08EE00E94AE0C26E040E810
:1005900055E260E070E088E393E00E94C70D65E7F4
:1005A00071E088E393E00E94190F88E393E00E94D2
:1005B000FD0C87369105C9F70E94540260E088E07F
:1005C0000E946B0260E08BE00E946B0265E070E0CD
:1005D0008DE392E00E941A056CE870E08DE392E0F2
:1005E0000E94610566E070E08AE392E00E941A05CD
:1005F0006CE170E08AE392E00E94610561E08DE0C9
:100600000E94750C69E871E088E393E00E940C0F8A
:1006100088E292E00E948709811106C064EA71E0D5
:1006200088E393E00E940C0F67EC71E088E393E0AD
:100630000E94190F69EA71E088E393E00E940C0FB1
:1006400042E050E063E070E08DE292E00E94DB0A5D
:10065000811106C061EC71E088E393E00E940C0F09
:1006600066EC71E088E393E00E94190F8DE292E05E
:100670000E94190A0E94B3000E949A028AE392E043
:100680000E9420058DE392E00C942005CF93DF9328
:10069000DC0170E0FB01E458FF4FE4911496EC9309
:1006A0001497842F90E0FC01E458FF4FE4911596D5
:1006B000EC93159760577F4FFB01C491D0E0CC0FAE
:1006C000DD1FC255DF4FFE014591549117965C9393
:1006D0004E931697FC01E057FF4F849190E0880FEE
:1006E000991F8C559F4FFC014591549119965C932D
:1006F0004E931897FB016491E62FF0E0EE0FFF1F79
:10070000E854FF4F859194911B969C938E931A9772
:100710002F5F3F4F49E3429FC001439F900D11243B
:100720008E38FFE69F0710F08DE89FE61D969C939C
:100730008E931C97DF91CF9108951F920F920FB661
:100740000F9211242F933F934F935F936F937F9357
:100750008F939F93AF93BF93EF93FF93E0914002EA
:10076000F09141020995FF91EF91BF91AF919F9157
:100770008F917F916F915F914F913F912F910F904A
:100780000FBE0F901F9018951F920F920FB60F92E9
:1007900011242F933F934F935F936F937F938F9386
:1007A0009F93AF93BF93EF93FF938091430287FF93
:1007B00005C010928500109284001AC02091430257
:1007C000332727FD30958091420290E028173907A2
:1007D0007CF480914302992787FD9095FC01EE0FF0
:1007E000FF1FE80FF91FEC5BFD4F808186FD15C0F0
:1007F000809143028F5F809343022091430233270D
:1008000027FD30958091420290E028173907BCF40B
:10081000809143028C305CF112C080914302992791
:1008200087FD9095FC01EE0FFF1FE80FF91FEC5BB1
:10083000FD4F808160E08F730E94AE0CD9CF809114
:10084000840090918500049680349C4918F480E4DB
:100850009CE905C080918400909185000496909356
:100860008900809388008FEF8093430238C02091E5
:1008700084003091850080914302992787FD9095EF
:10088000FC01EE0FFF1FE80FF91FEC5BFD4F8181AC
:100890009281820F931F90938900809388008091AA
:1008A0004302992787FD9095FC01EE0FFF1FE80F8B
:1008B000F91FEC5BFD4F808186FF11C080914302E0
:1008C000992787FD9095FC01EE0FFF1FE80FF91F98
:1008D000EC5BFD4F808161E08F730E94AE0CFF9155
:1008E000EF91BF91AF919F918F917F916F915F91A8
:1008F0004F913F912F910F900FBE0F901F90189521
:10090000209142022C30A0F431E0320F30934202A9
:10091000FC012083822F90E0FC01EE0FFF1FE80F07
:10092000F91FEC5BFD4F88EB9BE092838183089578
:100930002FEFFC0120830895DF92EF92FF920F9337
:100940001F93CF93DF93EC01D62E7A018901888122
:100950008C3008F066C061E08D2D0E94750C888196
:10096000A82FB0E0FD01EE0FFF1FEA0FFB1FEC5BAD
:10097000FD4F2D2D2F739081907C922B908360E200
:1009800072E06E197F0977FF02C06D5F7F4F75952A
:10099000679575956795698340E659E0401B510B53
:1009A00057FF02C04D5F5F4F559547955595479549
:1009B0004A836CE00E945C149CE0899FB001112482
:1009C00020E030E0A901460F571FFA01EE0FFF1F8C
:1009D000E40FF51FEC5BFD4F908196FD16C02F5F75
:1009E0003F4F2C30310571F781110FC010928000FC
:1009F00082E0809381001092850010928400B19A69
:100A000080916F00826080936F00888190E0FC018C
:100A1000EE0FFF1FE80FF91FEC5BFD4F8081806434
:100A200080838881DF91CF911F910F91FF90EF908C
:100A3000DF90089520E639E040E252E00C949C04F7
:100A4000FC01808190E0FC01EE0FFF1FE80FF91F11
:100A5000EC5BFD4F80818F7B80830895FC0180815A
:100A60008C3070F5918128E830E0291B310997FD21
:100A70003395220F331F220F331F621773077CF049
:100A8000928128E532E0291B310997FD3395220F29
:100A9000331F220F331F621773070CF49B01225080
:100AA0003109220F331F4FB7F89490E0FC01EE0F8D
:100AB000FF1FE80FF91FEC5BFD4F328321834FBF0F
:100AC00008954F925F926F927F92AF92BF92CF92B2
:100AD000DF92EF92FF920F931F93CF93DF93EC017E
:100AE000603282E078070CF040C077FD06C0653BBD
:100AF00071052CF064EB70E002C060E070E0898169
:100B000028E830E0281B310987FD3395220F331F79
:100B1000220F331F5901CC24B7FCC094DC2C88274A
:100B200077FD8095982F2A8148E552E0421B5109B4
:100B300027FD5395440F551F440F551F2A01662466
:100B400057FC6094762C7F926F925F924F9214EBD9
:100B5000E12EF12C00E010E020E030E0A9010E943D
:100B6000D5110F900F900F900F90CE01DF91CF9184
:100B70001F910F91FF90EF90DF90CF90BF90AF90BB
:100B80007F906F905F904F900C942E05809198020B
:100B900090E020919902821B910908952091990279
:100BA00080919802281750F4E22FF0E0E656FD4FAE
:100BB000808190E02F5F2093990208958FEF9FEF3F
:100BC0000895E091990280919802E81730F4F0E0DE
:100BD000E656FD4F808190E008958FEF9FEF0895D6
:100BE0000895CF92DF92EF92FF920F931F93CF93CE
:100BF000DF937C01CB018A0120917402222389F0CA
:100C0000EB016B01C40ED51ECC15DD0569F06991B1
:100C1000D701ED91FC910190F081E02DC70109957C
:100C2000F3CF642F0E94B107C801DF91CF911F91CC
:100C30000F91FF90EF90DF90CF900895CF93DF93C7
:100C40001F92CDB7DEB76983209174022223D1F0C1
:100C500020917502203240F021E030E0FC01338326
:100C6000228380E090E015C080917602E82FF0E0CA
:100C7000E958FD4F998190838F5F8093760280932E
:100C8000750205C061E0CE0101960E94B10781E0C6
:100C900090E00F90DF91CF910895FC0113821282B2
:100CA00048EE53E060E070E04483558366837783C9
:100CB00081ED91E0918380830895109299021092C2
:100CC000980210927602109275020C94F40681E05C
:100CD00080937402609397021092760210927502CC
:100CE00008950C9467060F93062F21E0409175023A
:100CF00067E772E0809197020E945A07109276028D
:100D000010927502109274020F9108958F929F9223
:100D1000AF92BF92CF92DF92EF92FF920F931F9309
:100D2000CF93DF93EC01F62ED42E48015901EE202B
:100D300019F10E9467061E2D143008F013E01150BF
:100D4000B8F0E881F98128E0129FB0011124A501D3
:100D5000940104C056954795379527956A95D2F723
:100D6000CA01B9010190F081E02DCE010995E7CFCC
:100D700060E0CE010E9473064D2D413208F040E242
:100D80002C2D6AE972E08F2D0E94120710929902B1
:100D900080939802DF91CF911F910F91FF90EF9078
:100DA000DF90CF90BF90AF909F908F900895CF929B
:100DB000EF920F931F93C22EE12C00E010E09801F8
:100DC0000E9486061F910F91EF90CF90089521E029
:100DD0000C94D70621E00C94D70661E00C947306BE
:100DE00088E692E00C944D061092270381E08093F0
:100DF00025031092240361E082E10E94AE0C61E0C1
:100E000083E10E94AE0CE9EBF0E080818E7F80836D
:100E100080818D7F808388E48093B80085E480930F
:100E2000BC000895413208F043C09091270391110E
:100E3000FCCF91E090932703209325032FEF20937D
:100E4000BA021092FF02240F2093FE029093260311
:100E500090912603880F892B809326038091240389
:100E6000813061F410922403809126038093BB00AB
:100E70008091BC0083FDF8CF85EC01C085EE8093A6
:100E8000BC00809127038130E1F38091FF02841739
:100E900010F44091FF0220E033E0FB01D9018A2FDA
:100EA000821B841718F48D918193F9CF842F0895B4
:100EB00080E008950F93413208F04AC090912703D3
:100EC0009111FCCF92E090932703009325039FEFAD
:100ED0009093BA021092FF024093FE02FB0160E081
:100EE00073E0DB019A2F961B941718F491919D9350
:100EF000F9CF1092260390912603880F892B8093B7
:100F0000260380912403813061F4109224038091A0
:100F100026038093BB008091BC0083FDF8CF85EC55
:100F200001C085EE8093BC00222321F0809127032D
:100F30008230E1F38091BA028F3F61F08091BA0272
:100F4000803251F08091BA02803341F483E007C0CF
:100F500081E005C080E003C082E001C084E00F9121
:100F60000895613298F420912703243089F4609326
:100F7000DC02FC018EED92E0DC012A2F281B2617F3
:100F800018F421912D93F9CF80E0089581E0089520
:100F900082E0089585ED8093BC008091BC0084FDC3
:100FA000FCCF10922703089585EC8093BC0010922B
:100FB000270308951F920F920FB60F9211242F93BB
:100FC0003F934F935F936F937F938F939F93AF93D1
:100FD000BF93EF93FF938091B900887F803609F427
:100FE0009EC078F5883209F45DC090F4803109F430
:100FF00056C038F4882309F4F5C0883009F44FC08E
:10100000F5C0883109F44EC0803209F45FC0EEC0EB
:10101000803409F46AC058F4803309F457C0883327
:1010200009F0E4C08093BA020E94D407DFC0803583
:1010300009F44FC0883509F45DC0883409F0D6C082
:10104000D3C0883909F4C4C0A8F4883709F467C04C
:1010500038F4883609F463C0803709F460C0C6C02C
:10106000883809F4B5C0803909F45FC0803809F0C8
:10107000BDC05BC0803B09F483C038F4803A09F4FA
:1010800066C0883A09F47CC0B1C0803C09F4A4C0B1
:10109000883C09F4A1C0883B09F487C0A7C08091AF
:1010A000260310C09091FF028091FE02981770F500
:1010B000E091FF0281E08E0F8093FF02F0E0E050AC
:1010C000FD4F80818093BB0085EC83C08093BA0282
:1010D0008BC0E091FF0281E08E0F8093FF02809130
:1010E000BB00F0E0E050FD4F80839091FF028091C3
:1010F000FE026BC0E091FF0281E08E0F8093FF0241
:101100008091BB00F0E0E050FD4F8083809125038B
:1011100081116AC081E08093240384EA5EC083E089
:10112000809327031092BB02CFCF8091BB02803205
:1011300008F04EC0E091BB0281E08E0F8093BB02AD
:101140008091BB00F0E0E454FD4F8083BDCF0E944E
:10115000D4078091BB02803230F4E091BB02F0E012
:10116000E454FD4F10826091BB0270E0E0912003D7
:10117000F09121038CEB92E009951092BB0236C0EE
:1011800084E0809327031092DD021092DC02E0914C
:101190002203F091230309958091DC02811105C09F
:1011A00081E08093DC021092DE02E091DD0281E0BA
:1011B0008E0F8093DD02F0E0E252FD4F808180933C
:1011C000BB009091DD028091DC02981708F47CCF7F
:1011D00085E88093BC000AC085EC8093BC00109227
:1011E000270304C01092BA020E94CA07FF91EF9130
:1011F000BF91AF919F918F917F916F915F914F912F
:101200003F912F910F900FBE0F901F901895DC010A
:10121000ED91FC910190F081E02D09941F93CF9303
:10122000DF9300D000D0CDB7DEB7162F69E270E0B3
:1012300088E692E029833A834B835C830E9471069F
:101240001068612F70E088E692E00E940709E09143
:101250006802F091690229813A814B815C81CA015F
:10126000B9017727882799270190F081E02D88E63A
:1012700092E0099588E692E00F900F900F900F9002
:10128000DF91CF911F910C94ED06CF93DF93EC018A
:1012900021E030E040E050E060E00E940E0963E0B1
:1012A00070E080E090E00E94E90B23E030E040E055
:1012B00050E060E0CE01DF91CF910C940E09FC016B
:1012C000108274836383528341830895CF93C62F22
:1012D00069E270E088E692E00E947106C0686C2FB7
:1012E00070E088E692E00E94070988E692E00E949A
:1012F000ED0641E050E069E270E088E692E00E948D
:10130000EA0688E692E00E94CE05CF9108951F93E9
:10131000CF93DF93EC0188E692E00E945D0662E1E4
:10132000CE010E946609182F40E150E0682F88E343
:1013300093E00E94F30F143489F481E088836B8179
:101340007C81CE010E94B30969817A81CE010E941D
:10135000CD09CE010E94450981E001C080E0DF9106
:10136000CF911F9108950F931F93CF93DF93EC01BB
:101370008B018881811103C0CE010E9487099801E9
:1013800040E050E061E0CE010E940E091C830B8317
:10139000DF91CF911F910F9108950F931F93CF93DA
:1013A000DF93EC018B018881811103C0CE010E9483
:1013B0008709980140E050E06FE0CE010E940E09DD
:1013C0001A830983DF91CF911F910F910895FC013A
:1013D00083E090E0908787831386128614860895B1
:1013E000EF92FF921F93CF93DF931F92CDB7DEB79B
:1013F0007C01162FFC01618588E692E049830E94FA
:101400006706612F88E692E00E941E064981642FDC
:1014100088E692E00E941E0688E692E00E94ED06B1
:10142000F70186830F90DF91CF911F91FF90EF908E
:101430000895CF93DF93EC018F819885029729F46B
:1014400040E069E3CE010E94F00940E063E2CE0192
:101450000E94F0094FE660E2CE01DF91CF910C943B
:10146000F0099F92AF92BF92CF92DF92EF92FF92DC
:101470000F931F93CF93DF93EC01698588E692E089
:101480000E946706E0916802F09169020190F08184
:10149000E02D68EA88E692E0099588E692E00E94ED
:1014A000ED0646E0698588E692E00E94E7060E9424
:1014B000BA0B7B0188E692E00E94C605069784F489
:1014C0008A859B85892BB1F30E94BA0B6E197F091F
:1014D0008A859B858617970768F781E08C872CC0E3
:1014E00088E692E00E94CE05A82E88E692E00E944F
:1014F000CE05982E88E692E00E94CE05E82E88E67A
:1015000092E00E94CE05B82E88E692E00E94CE05B9
:10151000F82E88E692E00E94CE05D92CC12CCA286C
:10152000D982C8821B2D00E00E291B830A83982FC5
:1015300088278F299D838C83DF91CF911F910F91F5
:10154000FF90EF90DF90CF90BF90AF909F90089565
:101550001F93CF93DF931F92CDB7DEB7162F88E688
:1015600092E049830E9467064981642F88E692E0F1
:101570000E941E0688E692E00E94ED06811114C0CA
:1015800041E0612F88E692E00E94E70688E692E05B
:101590000E94C605892B41F088E692E00F90DF910A
:1015A000CF911F910C94CE058FEF9FEF0F90DF919D
:1015B000CF911F910895EF92FF920F931F93CF93B6
:1015C000DF937C01EB018A016330710521F0423029
:1015D000510509F051C0CE010197039758F5011547
:1015E000110581F04FE050E06BE6C7010E94A80AA8
:1015F0008F3F2FEF920719F001E010E013C0013088
:10160000110551F04FE050E06AE6C7010E94A80AB8
:101610008F3FEFEF9E0721F4C330D10569F027C05B
:1016200000E010E0C330D10529F4873D9105F1F5C4
:10163000C2E0D0E02097D9F40115110561F04FE028
:1016400050E069E6C7010E94A80A833D910589F12F
:101650000130110549F04FE050E068E6C7010E94F3
:10166000A80A833D910541F1C330D10519F002303C
:10167000110511F480E025C0F701D087C7832097BA
:1016800059F0D7FD11C023977CF40130110511F4F6
:101690008BE608C08AE606C00130110511F489E620
:1016A00001C088E6F701818781E00BC0C1E0D0E08E
:1016B000C1CF01E010E002C000E010E0C0E0D0E0E7
:1016C000D6CFDF91CF911F910F91FF90EF900895AA
:1016D0008FEF8093280310922A0310922903089514
:1016E0001F920F920FB60F9211242F933F938F9357
:1016F0009F93AF93BF938091300390913103A0915A
:101700003203B091330330912F0323E0230F2D37A1
:1017100020F40196A11DB11D05C026E8230F0296F5
:10172000A11DB11D20932F038093300390933103AB
:10173000A0933203B0933303809134039091350327
:10174000A0913603B09137030196A11DB11D80937E
:10175000340390933503A0933603B0933703BF91BE
:10176000AF919F918F913F912F910F900FBE0F904E
:101770001F9018952FB7F894609130037091310342
:1017800080913203909133032FBF08953FB7F894AF
:101790008091340390913503A0913603B0913703C3
:1017A00026B5A89B05C02F3F19F00196A11DB11DBC
:1017B0003FBF6627782F892F9A2F620F711D811DD9
:1017C000911D42E0660F771F881F991F4A95D1F738
:1017D0000895CF92DF92EF92FF92CF93DF936B0148
:1017E0007C010E94C60BEB01C114D104E104F10499
:1017F00089F00E942C120E94C60B6C1B7D0B683E68
:10180000734090F381E0C81AD108E108F108C8518B
:10181000DC4FEACFDF91CF91FF90EF90DF90CF9038
:101820000895789484B5826084BD84B5816084BD58
:1018300085B5826085BD85B5816085BDEEE6F0E049
:10184000808181608083E1E8F0E0108280818260A5
:101850008083808181608083E0E8F0E08081816026
:101860008083E1EBF0E0808184608083E0EBF0E056
:10187000808181608083EAE7F0E0808184608083FA
:1018800080818260808380818160808380818068A4
:1018900080831092C1000895833081F028F4813054
:1018A00099F08230A1F008958730A9F08830B9F01E
:1018B0008430D1F4809180008F7D03C080918000BE
:1018C0008F7780938000089584B58F7702C084B5A8
:1018D0008F7D84BD08958091B0008F7703C0809183
:1018E000B0008F7D8093B0000895CF93DF9390E098
:1018F000FC01E458FF4F2491FC01E057FF4F849115
:10190000882349F190E0880F991FFC01E854FF4FAC
:10191000A591B49182559F4FFC01C591D4919FB779
:10192000611108C0F8948C91209582238C93888152
:1019300082230AC0623051F4F8948C91322F309592
:1019400083238C938881822B888304C0F8948C91A4
:10195000822B8C939FBFDF91CF9108950F931F939C
:10196000CF93DF931F92CDB7DEB7282F30E0F90178
:10197000E859FF4F8491F901E458FF4F1491F901A0
:10198000E057FF4F04910023C9F0882321F06983B9
:101990000E944C0C6981E02FF0E0EE0FFF1FE25532
:1019A000FF4FA591B4919FB7F8948C91611103C03A
:1019B0001095812301C0812B8C939FBF0F90DF91E5
:1019C000CF911F910F910895FC01818D228D90E0A0
:1019D000805C9F4F821B91098F7399270895FC01AA
:1019E000918D828D981731F0828DE80FF11D858DD4
:1019F00090E008958FEF9FEF0895FC01918D828D07
:101A0000981761F0828DDF01A80FB11D5D968C9152
:101A1000928D9F5F9F73928F90E008958FEF9FEF5D
:101A2000089581E89EE0892B49F080E090E0892BC1
:101A300029F00E94810E81110C9400000895FC0190
:101A4000848DDF01A80FB11DA35ABF4F2C91848D47
:101A500090E001968F739927848FA689B7892C937C
:101A6000A089B1898C9180648C93938D848D981317
:101A700006C00288F389E02D80818F7D80830895E0
:101A8000CF93DF93EC01888D8823C9F0EA89FB8925
:101A9000808185FD05C0A889B9898C9186FD0FC01C
:101AA0000FB607FCF5CF808185FFF2CFA889B989F1
:101AB0008C9185FFEDCFCE010E941F0DE7CFDF9106
:101AC000CF910895CF92DF92FF920F931F93CF9300
:101AD000DF931F92CDB7DEB76C0181E0D601589637
:101AE0008C9358975B969C915B975C968C915C97D6
:101AF000981307C05096ED91FC915197808185FD18
:101B00002EC0F601038D10E00F5F1F4F0F731127DA
:101B1000F02EF601848DF81211C00FB607FCF9CF34
:101B2000D6015096ED91FC915197808185FFF1CFC0
:101B3000C60169830E941F0D6981EBCF838DE80F79
:101B4000F11DE35AFF4F6083D6015B960C935B97C0
:101B50005296ED91FC915397808180620CC0D60122
:101B60005696ED91FC91579760835096ED91FC91BC
:101B7000519780818064808381E090E00F90DF91B5
:101B8000CF911F910F91FF90DF90CF900895BF925A
:101B9000CF92DF92EF92FF92CF93DF93EC016A0135
:101BA0007B01B22EE889F98982E08083411581EEBC
:101BB000580761057105A1F060E079E08DE390E0E0
:101BC000A70196010E946814215031094109510969
:101BD0005695479537952795211580E1380798F058
:101BE000E889F989108260E874E88EE190E0A70145
:101BF00096010E94681421503109410951095695F6
:101C0000479537952795EC85FD853083EE85FF85D3
:101C10002083188EEC89FD89B082EA89FB89808156
:101C200080618083EA89FB89808188608083EA897A
:101C3000FB89808180688083EA89FB8980818F7D30
:101C40008083DF91CF91FF90EF90DF90CF90BF9096
:101C500008951F920F920FB60F9211242F938F9316
:101C60009F93EF93FF93E0914803F09149038081A4
:101C7000E0914E03F0914F0382FD12C0908180915C
:101C800051038F5F8F7320915203821751F0E091BF
:101C90005103F0E0E85CFC4F958F8093510301C045
:101CA0008081FF91EF919F918F912F910F900FBEA7
:101CB0000F901F9018951F920F920FB60F9211243C
:101CC0002F933F934F935F936F937F938F939F9344
:101CD000AF93BF93EF93FF9388E393E00E941F0DB0
:101CE000FF91EF91BF91AF919F918F917F916F91F4
:101CF0005F914F913F912F910F900FBE0F901F90CA
:101D0000189588E393E00E94E40C21E0892B09F404
:101D100020E0822F089510923B0310923A0388EE40
:101D200093E0A0E0B0E080933C0390933D03A09348
:101D30003E03B0933F0381EE91E09093390380938B
:101D4000380385EC90E0909345038093440384EC42
:101D500090E0909347038093460380EC90E090934B
:101D600049038093480381EC90E090934B03809368
:101D70004A0382EC90E090934D0380934C0386ECF1
:101D800090E090934F0380934E0310925103109272
:101D9000520310925303109254030895CF92DF928E
:101DA000EF92FF920F931F93CF93DF937C016A0111
:101DB000EB0100E010E00C151D0571F06991D701F1
:101DC000ED91FC910190F081E02DC7010995892BDF
:101DD00019F00F5F1F4FEFCFC801DF91CF911F9117
:101DE0000F91FF90EF90DF90CF90089561157105EE
:101DF00081F0DB010D900020E9F7AD014150510960
:101E0000461B570BDC01ED91FC910280F381E02D24
:101E1000099480E090E008950C94F60EDC01ED91B9
:101E2000FC910190F081E02D09946DEE71E00C942D
:101E3000F60E0F931F93CF93DF93EC010E94F60EE3
:101E40008C01CE010E94150F800F911FDF91CF9161
:101E50001F910F9108958F929F92AF92BF92CF9250
:101E6000DF92EF92FF920F931F93CF93DF93CDB743
:101E7000DEB7A1970FB6F894DEBF0FBECDBF7C01D1
:101E8000C42EE52FCB01D22E19A221E02D1510F082
:101E90002AE0D22E8E010F5D1F4F8D2C912CA12C8C
:101EA000B12C6C2D7E2FA50194010E9468148C2DFD
:101EB000D29E80191124015011098A3014F4805DDA
:101EC00001C0895CF8018083211531054105510568
:101ED00021F0C22EE32FCA01E4CFB801C7010E944E
:101EE000F60EA1960FB6F894DEBF0FBECDBFDF9100
:101EF000CF911F910F91FF90EF90DF90CF90BF9007
:101F0000AF909F908F900895CF92DF92EF92FF92C3
:101F10000F931F93CF93DF93EC016A017B0121158F
:101F2000310579F4E881F9810190F081E02D642F89
:101F3000DF91CF911F910F91FF90EF90DF90CF90A5
:101F400009942A303105E9F477FF1AC06DE20E9446
:101F50000E0F8C0144275527BA014C195D096E09F3
:101F60007F092AE0CE010E942B0F800F911FDF9185
:101F7000CF911F910F91FF90EF90DF90CF90089538
:101F80002AE0B701A601CE01DF91CF911F910F91F9
:101F9000FF90EF90DF90CF900C942B0F0F931F9337
:101FA000CF93DF93EC019A01AB01662757FD609553
:101FB000762F0E94840F8C01CE010E94150F800F96
:101FC000911FDF91CF911F910F9108952115310538
:101FD00041F4DC01ED91FC910190F081E02D642F42
:101FE00009940C942B0F0F931F93CF93DF93EC0165
:101FF0009A01462F50E060E070E00E94E60F8C01ED
:10200000CE010E94150F800F911FDF91CF911F917C
:102010000F9108950F931F93CF93DF93EC010E94CC
:10202000E60F8C01CE010E94150F800F911FDF91EA
:10203000CF911F910F9108954F925F926F927F926F
:102040008F929F92AF92BF92CF92DF92EF92FF92C8
:102050000F931F93CF93DF93EC016A017B01B22EA4
:102060009A01AB01C701B6010E944814882319F0F8
:1020700060EF71E027C026013701E89477F82FEF71
:102080003FEF4FE75FE7C301B2010E94481481119F
:102090000DC02FEF3FEF4FE75FE7C301B2010E9492
:1020A000921218161CF464EF71E00CC02FEF3FEF92
:1020B0004FE75FE4C701B6010E94E1131816ACF4C4
:1020C00068EF71E0CE01DF91CF911F910F91FF90EA
:1020D000EF90DF90CF90BF90AF909F908F907F90C8
:1020E0006F905F904F900C94F60E2FEF3FEF4FE7FD
:1020F0005FECC701B6010E94921287FDE1CF20E09C
:1021000030E0A901C701B6010E94921287FF0AC000
:102110006DE2CE010E940E0F8C01F7FAF094F7F8F1
:10212000F09402C000E010E0A12C60E070E080E0DC
:102130009FE3AB1441F020E030E040E251E40E9424
:102140009612A394F6CF9B01AC01C701B6010E9481
:102150002E126B017C010E9403132B013C010E9493
:102160002F139B01AC01C701B6010E942D126B0118
:102170007C012AE0B301A201CE010E942B0F080FBF
:10218000191FBB2039F06CEF71E0CE010E94F60EF2
:10219000080F191F7B2C772041F120E030E040E24E
:1021A00051E4C701B6010E94E5136B017C010E9456
:1021B000FE124B01AA2497FCA094BA2C2AE030E02E
:1021C000B501A401CE010E94840F080F191FC5019B
:1021D000B4010E9431139B01AC01C701B6010E94FA
:1021E0002D126B017C017A94D6CFC801DF91CF917B
:1021F0001F910F91FF90EF90DF90CF90BF90AF9025
:102200009F908F907F906F905F904F9008950F9365
:102210001F93CF93DF93EC010E941C108C01CE0121
:102220000E94150F800F911FDF91CF911F910F9189
:1022300008950F931F93CF93DF93EC010E94BA0B85
:10224000688779878A879B87E881F9810084F1858F
:10225000E02DCE01099597FF15C00E94BA0B0885A5
:1022600019852A853B85601B710B820B930B0C81B2
:102270001D812E813F81601771078207930720F32C
:102280008FEF9FEFDF91CF911F910F910895CF9323
:10229000DF93EC01CE010E94191197FD11C08D3220
:1022A000910571F09C01205331092A30310540F02D
:1022B000E881F9810680F781E02DCE010995EACF0A
:1022C000DF91CF910895CF92DF92FF920F931F93EA
:1022D000CF93DF9300D000D0CDB7DEB76C01062FCF
:1022E0000E944711FC0197FD4BC020E030E0A9019E
:1022F000F12C112707FD1095E017F107E9F0ED32F9
:10230000F105C1F0CF01C0970A97B0F4AAE0B0E0A0
:102310000E94A9149B01AC01CF01AA2797FDA095AB
:10232000BA2F280F391F4A1F5B1F2053310941095B
:10233000510902C0FF24F394D601ED91FC9106806F
:10234000F781E02DC60129833A834B835C8309958D
:10235000C6010E941911FC01C09729813A814B8165
:102360005C810A9748F2E017F10731F2FF2061F033
:1023700066277727CB01621B730B840B950B06C076
:1023800060E070E0CB0102C0CA01B9010F900F906C
:102390000F900F90DF91CF911F910F91FF90DF90E1
:1023A000CF90089561E00C9463114F925F926F9209
:1023B0007F92AF92BF92CF92DF92EF92FF920F93F4
:1023C0001F93CF93DF93CDB7DEB729013A01621B8C
:1023D000730B840B950B29893A894B895C892A19DF
:1023E0003B094C095D09298B3A8B4B8B5C8B9B011C
:1023F000AC0169897A898B899C890E944C14E41804
:10240000F50806091709A80197010E948A142A0DE8
:102410003B1D4C1D5D1DCA01B901DF91CF911F917C
:102420000F91FF90EF90DF90CF90BF90AF907F9093
:102430006F905F904F90089508950E94110C0E9434
:102440001C120E94BE02C1E1DDE00E94AD00209797
:10245000E1F30E94110DF9CF08955058BB27AA2728
:102460000ED075C166D130F06BD120F031F49F3FB2
:1024700011F41EF45BC10EF4E095E7FB51C1E92FA6
:1024800077D180F3BA17620773078407950718F0AE
:1024900071F49EF58FC10EF4E0950B2EBA2FA02D8E
:1024A0000B01B90190010C01CA01A0011124FF2701
:1024B000591B99F0593F50F4503E68F11A16F040FC
:1024C000A22F232F342F4427585FF3CF46953795FB
:1024D0002795A795F0405395C9F77EF41F16BA0BC0
:1024E000620B730B840BBAF09150A1F0FF0FBB1F6E
:1024F000661F771F881FC2F70EC0BA0F621F731FB7
:10250000841F48F4879577956795B795F7959E3F13
:1025100008F0B3CF9395880F08F09927EE0F9795A1
:1025200087950895D9D008F481E008950CD00FC1A3
:1025300007D140F0FED030F021F45F3F19F0F0C039
:10254000511139C1F3C014D198F39923C9F355231C
:10255000B1F3951B550BBB27AA2762177307840796
:1025600038F09F5F5F4F220F331F441FAA1FA9F34C
:1025700033D00E2E3AF0E0E830D091505040E6953E
:10258000001CCAF729D0FE2F27D0660F771F881F9F
:10259000BB1F261737074807AB07B0E809F0BB0B8E
:1025A000802DBF01FF2793585F4F2AF09E3F5105B2
:1025B00068F0B6C000C15F3FECF3983EDCF386954F
:1025C00077956795B795F7959F5FC9F7880F911D28
:1025D0009695879597F90895E1E0660F771F881F14
:1025E000BB1F621773078407BA0720F0621B730BC7
:1025F000840BBA0BEE1F88F7E095089504D0689419
:10260000B111D9C00895BCD088F09F5790F0B92F70
:102610009927B751A0F0D1F0660F771F881F991F37
:102620001AF0BA95C9F712C0B13081F0C3D0B1E049
:102630000895C0C0672F782F8827B85F39F0B93F59
:10264000CCF3869577956795B395D9F73EF4909539
:102650008095709561957F4F8F4F9F4F0895E894B7
:1026600009C097FB3EF490958095709561957F4FDA
:102670008F4F9F4F9923A9F0F92F96E9BB27939588
:10268000F695879577956795B795F111F8CFFAF498
:10269000BB0F11F460FF1BC06F5F7F4F8F4F9F4FC9
:1026A00016C0882311F096E911C0772321F09EE827
:1026B000872F762F05C0662371F096E8862F70E08D
:1026C00060E02AF09A95660F771F881FDAF7880F67
:1026D0009695879597F90895990F0008550FAA0BBD
:1026E000E0E8FEEF16161706E807F907C0F0121625
:1026F0001306E407F50798F0621B730B840B950B28
:1027000039F40A2661F0232B242B252B21F408957C
:102710000A2609F4A140A6958FEF811D811D089519
:1027200097F99F6780E870E060E008959FEF80EC84
:10273000089500240A941616170618060906089527
:1027400000240A9412161306140605060895092E8D
:102750000394000C11F4882352F0BB0F40F4BF2BFC
:1027600011F460FF04C06F5F7F4F8F4F9F4F08953C
:1027700057FD9058440F551F59F05F3F71F0479532
:10278000880F97FB991F61F09F3F79F08795089517
:10279000121613061406551FF2CF4695F1DF08C036
:1027A000161617061806991FF1CF86957105610553
:1027B00008940895E894BB2766277727CB0197F9FB
:1027C00008958ADF08F48FEF08950BD0C0CFB1DFF2
:1027D00028F0B6DF18F0952309F0A2CFA7CF112477
:1027E000EACFC6DFA0F3959FD1F3950F50E0551FB8
:1027F000629FF001729FBB27F00DB11D639FAA2756
:10280000F00DB11DAA1F649F6627B00DA11D661FA4
:10281000829F2227B00DA11D621F739FB00DA11DC5
:10282000621F839FA00D611D221F749F3327A00D7F
:10283000611D231F849F600D211D822F762F6A2F1B
:1028400011249F5750408AF0E1F088234AF0EE0FA0
:10285000FF1FBB1F661F771F881F91505040A9F7AD
:102860009E3F510570F05CCFA6CF5F3FECF3983EE2
:10287000DCF3869577956795B795F795E7959F5F14
:10288000C1F7FE2B880F911D9695879597F90895AE
:1028900023DF880B990B0895DB018F939F930E9490
:1028A000A914BF91AF91A29F800D911DA39F900D80
:1028B000B29F900D11240895991B79E004C0991FCF
:1028C000961708F0961B881F7A95C9F7809508958A
:1028D000A1E21A2EAA1BBB1BFD010DC0AA1FBB1F24
:1028E000EE1FFF1FA217B307E407F50720F0A21B96
:1028F000B30BE40BF50B661F771F881F991F1A9403
:1029000069F760957095809590959B01AC01BD012C
:10291000CF010895052E97FB1EF400940E94A11488
:1029200057FD07D00E94681407FC03D04EF40C94A6
:10293000A11450954095309521953F4F4F4F5F4FD3
:10294000089590958095709561957F4F8F4F9F4F1B
:1029500008950E94BA14A59F900DB49F900DA49F56
:10296000800D911D11240895EE0FFF1F0590F49125
:10297000E02D0994A29FB001B39FC001A39F700DE9
:10298000811D1124911DB29F700D811D1124911D77
:062990000895F894FFCF4A
:102996000000D503800001000000436F6C6F7220B9
:1029A60073656E736F722072656164696E67733AE0
:1029B60000523A0900473A0900423A0900436F6C4F
:1029C6006F722073656E736F7220287363616C6516
:1029D6006420746F203820626974293A004875654E
:1029E6002028382D626974293A09004443204F662D
:1029F600667365743A20004E6F697365204C657680
:102A0600656C3A20005072657373206720746F20DE
:102A1600636F6E74696E7565005443533334373291
:102A2600352049324320636F6C6F722073656E7375
:102A36006F7220006E6F7420004C3347443230486A
:102A460020493243206779726F2073656E736F7207
:102A560000206E6F740020666F756E6400000000C3
:102A6600001E06F105C605CE05E105F005000000CD
:102A760000620DCE0EE40CFD0CEF0C400D0D0A00AD
:0E2A86006E616E00696E66006F7666002E004F
:107E0000112484B714BE81FFF0D085E080938100F7
:107E100082E08093C00088E18093C10086E0809377
:107E2000C20080E18093C4008EE0C9D0259A86E02C
:107E300020E33CEF91E0309385002093840096BBD3
:107E4000B09BFECF1D9AA8958150A9F7CC24DD24C4
:107E500088248394B5E0AB2EA1E19A2EF3E0BF2EE7
:107E6000A2D0813461F49FD0082FAFD0023811F036
:107E7000013811F484E001C083E08DD089C08234E0
:107E800011F484E103C0853419F485E0A6D080C0E4
:107E9000853579F488D0E82EFF2485D0082F10E0AE
:107EA000102F00270E291F29000F111F8ED06801E7
:107EB0006FC0863521F484E090D080E0DECF843638
:107EC00009F040C070D06FD0082F6DD080E0C81688
:107ED00080E7D80618F4F601B7BEE895C0E0D1E017
:107EE00062D089930C17E1F7F0E0CF16F0E7DF06D8
:107EF00018F0F601B7BEE89568D007B600FCFDCFD4
:107F0000A601A0E0B1E02C9130E011968C91119780
:107F100090E0982F8827822B932B1296FA010C0160
:107F200087BEE89511244E5F5F4FF1E0A038BF0790
:107F300051F7F601A7BEE89507B600FCFDCF97BE46
:107F4000E89526C08437B1F42ED02DD0F82E2BD052
:107F50003CD0F601EF2C8F010F5F1F4F84911BD097
:107F6000EA94F801C1F70894C11CD11CFA94CF0C13
:107F7000D11C0EC0853739F428D08EE10CD085E9AC
:107F80000AD08FE07ACF813511F488E018D01DD067
:107F900080E101D065CF982F8091C00085FFFCCF94
:107FA0009093C60008958091C00087FFFCCF809118
:107FB000C00084FD01C0A8958091C6000895E0E648
:107FC000F0E098E1908380830895EDDF803219F02E
:107FD00088E0F5DFFFCF84E1DECF1F93182FE3DFCA
:107FE0001150E9F7F2DF1F91089580E0E8DFEE27F6
:047FF000FF270994CA
:027FFE00040479
:0400000300007E007B
:00000001FF
