:100000000C9465000C948D000C948D000C948D0064
:100010000C948D000C948D000C948D000C944C0B62
:100020000C948D000C948D000C948D000C945F0347
:100030000C948D000C948D000C948D000C948D000C
:100040000C94730B0C948D000C94550E0C94870E2D
:100050000C948D000C948D000C948D000C948D00EC
:100060000C9467070C948D0000000008000201004A
:100070000003040700000000000000000102040863
:100080001020408001020408102001020408102002
:10009000040404040404040402020202020203032E
:1000A00003030303000000002300260029000000D2
:1000B0000000250028002B0000000000240027007D
:1000C0002A002E027D06ED0AB70E11241FBECFEFC7
:1000D000D8E0DEBFCDBF12E0A0E0B1E0E0EDF9E294
:1000E00002C005900D92A830B107D9F723E0A8E02F
:1000F000B2E001C01D92AF3DB207E1F710E0CAECDB
:10010000D0E004C02297FE010E94D314C23CD10764
:10011000C9F70E943A120C94E6140C940000CF9296
:10012000DF92EF92FF926B017C0161E08DE00E9413
:10013000B10CF694E794D794C794C701B6010E9416
:10014000EC0B60E08DE00E94B10CC701B601FF909E
:10015000EF90DF90CF900C94EC0B4F925F926F92E8
:100160007F92AF92BF92CF92DF92EF92FF920F9366
:100170001F93CF93DF93C8EED3E0C12CD12C76012F
:1001800087E392E00E94B6098091390290913A0289
:10019000AA2797FDA095BA2FC80ED91EEA1EFB1EEE
:1001A000219771F7C701B60128EE33E040E050E037
:1001B0000E94A71430930D0220930C026BE571E0AE
:1001C00082E493E00E94380F60910C0270910D025E
:1001D0004AE050E082E493E00E94FA0FC8EED3E0D8
:1001E00087E392E00E94B609A0903902B0903A02EB
:1001F00000910C0210910D02B501601B710B882754
:1002000077FD8095982F0E944E136B017C014090E2
:1002100008025090090260900A0270900B02A3013C
:1002200092010E94FE1318164CF4C0920802D0925C
:100230000902E0920A02F0920B021DC0A301920192
:100240005058C701B6010E94AF1287FF14C066273D
:1002500077276A197B09601B710B882777FD8095CA
:10026000982F0E944E1360930802709309028093A6
:100270000A0290930B02219709F0B2CF20E030E000
:1002800048EC52E4609108027091090280910A02E0
:1002900090910B020E94B3126093080270930902BE
:1002A00080930A0290930B0267E671E082E493E088
:1002B0000E94380F409108025091090260910A0291
:1002C00070910B0224E030E082E493E0DF91CF9163
:1002D0001F910F91FF90EF90DF90CF90BF90AF9064
:1002E0007F906F905F904F900C94FF103F924F92D1
:1002F0005F926F927F928F929F92AF92BF92CF92B6
:10030000DF92EF92FF920F931F93CF93DF934B01F6
:100310005C01742E442321F0C12CD12C760106C03F
:10032000C12CD12CF4EBEF2EF3E4FF2E40E06EE273
:1003300087E392E00E94750940E46EE287E392E071
:100340000E947509612C512C412C312CA50194017E
:10035000C701B601772009F465C00E94AF1287FF7C
:1003600066C088E00E94E70C892B81F787E392E062
:100370000E94B6096091390270913A0280910C0294
:1003800090910D02681B790B882777FD8095982F37
:100390000E944E1329E23CE54FE05CE30E94021408
:1003A0008B01D82FC92F9B01482F592F662D752DF2
:1003B000842D932D0E944B1226E636E64DE353E43E
:1003C0000E94B31220E030E040E05FE30E9402149C
:1003D0009B01AC01C701B6010E944B126B017C016D
:1003E00065E771E082E493E00E94380F22E030E09C
:1003F000B701A60182E493E00E94FD106DE771E071
:1004000082E493E00E94380F22E030E0A8016D2FD3
:100410007C2F82E493E00E94FF10602E512E4D2E1F
:100420003C2E94CF0E94FE1318160CF49ACF40E095
:100430006EE287E392E0DF91CF911F910F91FF90E1
:10044000EF90DF90CF90BF90AF909F908F907F9074
:100450006F905F904F903F900C94750987E492E005
:100460000E941B0484E492E00E941B0487E392E054
:100470000E946C0941E050E060E070E082E392E0AD
:100480000E94EC0824EF31E043E06BE080E292E070
:100490000E94F50A24EF31E049E06AE08EE092E044
:1004A0000C94F50A61E08EE00E94B10CE0914203E9
:1004B000F09143030190F081E02D6AEA82E493E039
:1004C000099582E493E00E946C0D60E08EE00C944C
:1004D000B10CCF93DF9300D000D0CDB7DEB790E85A
:1004E00099838A836B83860F8F778C8361E08EE09C
:1004F0000E94B10CE0914203F09143030280F3812A
:10050000E02D44E050E0BE016F5F7F4F82E493E056
:10051000099582E493E00E946C0D60E08EE00E94F9
:10052000B10C0F900F900F900F90DF91CF91089525
:1005300061E08EE00E94780C60E08EE00E94B10CD9
:1005400026E040E056E960E070E082E493E00E943B
:10055000F30D60ED77E080E090E00E94EC0B0E94EC
:10056000520260E088E00E94690260E08BE00E9435
:10057000690265E070E087E492E00E94B5046CE8EF
:1005800070E087E492E00E94EE0466E070E084E4AC
:1005900092E00E94B5046CE170E084E492E00E9475
:1005A000EE0461E08DE00E94780C65E871E082E481
:1005B00093E00E94380F82E392E00E9414098111B7
:1005C00006C06FE971E082E493E00E94380F64EAAC
:1005D00071E082E493E00E94450F6BEA71E082E4EF
:1005E00093E00E94380F42E050E063E070E087E360
:1005F00092E00E94600A811106C06FE971E082E416
:1006000093E00E94380F64EA71E082E493E00E9474
:10061000450F87E392E00E949E090E94AD0060E0D2
:1006200088E00E94780C40E464E287E392E00E9454
:10063000750949E062E287E392E00C94750964EF82
:1006400071E080E090E00E948F0064EF71E080E054
:1006500090E00E948F0082E493E00E94100D0297C8
:10066000D4F341E060E070E082E493E00E94821104
:100670008AE00E94690241E060E070E084EB92E46D
:100680000E94760160E088E00E94690260E08BE0F1
:100690000C94690263EC71E082E493E00E94450FE0
:1006A00082E493E00E94290D87369105C9F70E94E4
:1006B0001F0368EE73E080E090E00C948F001F92BF
:1006C0000F920FB60F9211242F933F934F935F9386
:1006D0006F937F938F939F93AF93BF93EF93FF930A
:1006E00080914B0287FF05C0109285001092840014
:1006F0001AC020914B02332727FD309580914A0282
:1007000090E0281739077CF480914B02992787FDE8
:100710009095FC01EE0FFF1FE80FF91FE45BFD4F02
:10072000808186FD15C080914B028F5F80934B02C4
:1007300020914B02332727FD309580914A0290E0AB
:1007400028173907BCF480914B028C305CF112C041
:1007500080914B02992787FD9095FC01EE0FFF1FBA
:10076000E80FF91FE45BFD4F808160E08F730E940A
:10077000B10CD9CF8091840090918500049680348B
:100780009C4918F480E49CE905C080918400909114
:100790008500049690938900809388008FEF809362
:1007A0004B0238C0209184003091850080914B022B
:1007B000992787FD9095FC01EE0FFF1FE80FF91FA9
:1007C000E45BFD4F81819281820F931F909389009A
:1007D0008093880080914B02992787FD9095FC01BA
:1007E000EE0FFF1FE80FF91FE45BFD4F808186FFCE
:1007F00011C080914B02992787FD9095FC01EE0F67
:10080000FF1FE80FF91FE45BFD4F808161E08F73EC
:100810000E94B10CFF91EF91BF91AF919F918F9189
:100820007F916F915F914F913F912F910F900FBEEC
:100830000F901F90189520914A022C30A0F431E0BF
:10084000320F30934A02FC012083822F90E0FC019A
:10085000EE0FFF1FE80FF91FE45BFD4F88EB9BE0F5
:100860009283818308952FEFFC0120830895DF9206
:10087000EF92FF920F931F93CF93DF93EC01D62E4D
:100880007A01890188818C3008F066C061E08D2D85
:100890000E94780C8881A82FB0E0FD01EE0FFF1FA9
:1008A000EA0FFB1FE45BFD4F2D2D2F739081907C91
:1008B000922B908360E272E06E197F0977FF02C08D
:1008C0006D5F7F4F7595679575956795698340E670
:1008D00059E0401B510B57FF02C04D5F5F4F5595CC
:1008E0004795559547954A836CE00E9479149CE0A2
:1008F000899FB001112420E030E0A901460F571F65
:10090000FA01EE0FFF1FE40FF51FE45BFD4F90812E
:1009100096FD16C02F5F3F4F2C30310571F78111C6
:100920000FC01092800082E08093810010928500B9
:1009300010928400B19A80916F00826080936F0062
:10094000888190E0FC01EE0FFF1FE80FF91FE45BC8
:10095000FD4F8081806480838881DF91CF911F91DA
:100960000F91FF90EF90DF90089520E639E040E28C
:1009700052E00C943704FC0180818C3070F5918139
:1009800028E830E0291B310997FD3395220F331FEA
:10099000220F331F621773077CF0928128E532E043
:1009A000291B310997FD3395220F331F220F331F67
:1009B000621773070CF49B0122503109220F331F79
:1009C0004FB7F89490E0FC01EE0FFF1FE80FF91FFE
:1009D000E45BFD4F328321834FBF08954F925F92B6
:1009E0006F927F92AF92BF92CF92DF92EF92FF927F
:1009F0000F931F93CF93DF93EC01603282E078076F
:100A00000CF040C077FD06C0653B71052CF064EB2F
:100A100070E002C060E070E0898128E830E0281BC7
:100A2000310987FD3395220F331F220F331F5901E0
:100A3000CC24B7FCC094DC2C882777FD8095982FB8
:100A40002A8148E552E0421B510927FD5395440F86
:100A5000551F440F551F2A01662457FC6094762CBD
:100A60007F926F925F924F9214EBE12EF12C00E097
:100A700010E020E030E0A9010E94F2110F900F90E9
:100A80000F900F90CE01DF91CF911F910F91FF90AA
:100A9000EF90DF90CF90BF90AF907F906F905F907E
:100AA0004F900C94BB048091A00290E02091A10291
:100AB000821B910908952091A1028091A00228171C
:100AC00050F4E22FF0E0EE55FD4F808190E02F5F73
:100AD0002093A10208958FEF9FEF0895E091A10266
:100AE0008091A002E81730F4F0E0EE55FD4F8081D0
:100AF00090E008958FEF9FEF08950895CF92DF92D1
:100B0000EF92FF920F931F93CF93DF937C01CB0162
:100B10008A0120917C02222389F0EB016B01C40E33
:100B2000D51ECC15DD0569F06991D701ED91FC91D9
:100B30000190F081E02DC7010995F3CF642F0E9449
:100B40003E07C801DF91CF911F910F91FF90EF9069
:100B5000DF90CF900895CF93DF931F92CDB7DEB78C
:100B6000698320917C022223D1F020917D022032E2
:100B700040F021E030E0FC013383228380E090E00C
:100B800015C080917E02E82FF0E0E158FD4F998179
:100B900090838F5F80937E0280937D0205C061E029
:100BA000CE0101960E943E0781E090E00F90DF9118
:100BB000CF910895FC011382128248EE53E060E069
:100BC00070E044835583668377838BED91E0918356
:100BD000808308951092A1021092A00210927E02CA
:100BE00010927D020C94810681E080937C026093D8
:100BF0009F0210927E0210927D0208950C94F405DB
:100C00000F93062F21E040917D026FE772E0809103
:100C10009F020E94E70610927E0210927D021092BF
:100C20007C020F9108958F929F92AF92BF92CF92C4
:100C3000DF92EF92FF920F931F93CF93DF93EC011C
:100C4000F62ED42E48015901EE2019F10E94F40528
:100C50001E2D143008F013E01150B8F0E881F9812E
:100C600028E0129FB0011124A501940104C05695FB
:100C70004795379527956A95D2F7CA01B901019032
:100C8000F081E02DCE010995E7CF60E0CE010E9412
:100C900000064D2D413208F040E22C2D62EA72E050
:100CA0008F2D0E949F061092A1028093A002DF91D7
:100CB000CF911F910F91FF90EF90DF90CF90BF9059
:100CC000AF909F908F900895CF92EF920F931F93C4
:100CD000C22EE12C00E010E098010E9413061F9143
:100CE0000F91EF90CF90089521E00C94640621E0DD
:100CF0000C94640661E00C94000680E792E00C948A
:100D0000DA0510922F0381E080932D0310922C03BB
:100D100061E082E10E94B10C61E083E10E94B10CCC
:100D2000E9EBF0E080818E7F808380818D7F8083FE
:100D300088E48093B80085E48093BC000895413234
:100D400008F043C090912F039111FCCF91E0909354
:100D50002F0320932D032FEF2093C202109207033D
:100D6000240F2093060390932E0390912E03880F57
:100D7000892B80932E0380912C03813061F4109293
:100D80002C0380912E038093BB008091BC0083FDD7
:100D9000F8CF85EC01C085EE8093BC0080912F03D5
:100DA0008130E1F380910703841710F44091070329
:100DB00028E033E0FB01D9018A2F821B841718F445
:100DC0008D918193F9CF842F089580E008950F933A
:100DD000413208F04AC090912F039111FCCF92E06C
:100DE00090932F0300932D039FEF9093C2021092D4
:100DF000070340930603FB0168E073E0DB019A2FD1
:100E0000961B941718F491919D93F9CF10922E038D
:100E100090912E03880F892B80932E0380912C03B1
:100E2000813061F410922C0380912E038093BB00DB
:100E30008091BC0083FDF8CF85EC01C085EE8093E6
:100E4000BC00222321F080912F038230E1F38091B6
:100E5000C2028F3F61F08091C202803251F08091D6
:100E6000C202803341F483E007C081E005C080E026
:100E700003C082E001C084E00F910895613298F4CC
:100E800020912F03243089F46093E402FC0186EE64
:100E900092E0DC012A2F281B261718F421912D93AC
:100EA000F9CF80E0089581E0089582E0089585ED0E
:100EB0008093BC008091BC0084FDFCCF10922F0376
:100EC000089585EC8093BC0010922F0308951F9223
:100ED0000F920FB60F9211242F933F934F935F936E
:100EE0006F937F938F939F93AF93BF93EF93FF93F2
:100EF0008091B900887F803609F49EC078F58832E9
:100F000009F45DC090F4803109F456C038F48823A8
:100F100009F4F5C0883009F44FC0F5C0883109F4F0
:100F20004EC0803209F45FC0EEC0803409F46AC05C
:100F300058F4803309F457C0883309F0E4C0809333
:100F4000C2020E946107DFC0803509F44FC08835B6
:100F500009F45DC0883409F0D6C0D3C0883909F4DB
:100F6000C4C0A8F4883709F467C038F4883609F497
:100F700063C0803709F460C0C6C0883809F4B5C0C2
:100F8000803909F45FC0803809F0BDC05BC0803B88
:100F900009F483C038F4803A09F466C0883A09F449
:100FA0007CC0B1C0803C09F4A4C0883C09F4A1C055
:100FB000883B09F487C0A7C080912E0310C0909190
:100FC000070380910603981770F5E091070381E00D
:100FD0008E0F80930703F0E0E85FFC4F80818093E1
:100FE000BB0085EC83C08093C2028BC0E0910703F5
:100FF00081E08E0F809307038091BB00F0E0E85FF3
:10100000FC4F808390910703809106036BC0E091B1
:10101000070381E08E0F809307038091BB00F0E00F
:10102000E85FFC4F808380912D0381116AC081E0CD
:1010300080932C0384EA5EC083E080932F03109298
:10104000C302CFCF8091C302803208F04EC0E0913E
:10105000C30281E08E0F8093C3028091BB00F0E059
:10106000EC53FD4F8083BDCF0E9461078091C30286
:10107000803230F4E091C302F0E0EC53FD4F108277
:101080006091C30270E0E0912803F091290384ECA1
:1010900092E009951092C30236C084E080932F033A
:1010A0001092E5021092E402E0912A03F0912B03E2
:1010B00009958091E402811105C081E08093E402EA
:1010C0001092E602E091E50281E08E0F8093E50246
:1010D000F0E0EA51FD4F80818093BB009091E502E2
:1010E0008091E402981708F47CCF85E88093BC00D7
:1010F0000AC085EC8093BC0010922F0304C01092AC
:10110000C2020E945707FF91EF91BF91AF919F914B
:101110008F917F916F915F914F913F912F910F90A0
:101120000FBE0F901F901895DC01ED91FC9101907E
:10113000F081E02D09941F93CF93DF9300D000D06E
:10114000CDB7DEB7162F69E270E080E792E0298321
:101150003A834B835C830E94FE051068612F70E028
:1011600080E792E00E949408E0917002F091710291
:1011700029813A814B815C81CA01B901772788278F
:1011800099270190F081E02D80E792E0099580E7B2
:1011900092E00F900F900F900F90DF91CF911F91E1
:1011A0000C947A06CF93DF93EC0121E030E040E02D
:1011B00050E060E00E949B0863E070E080E090E017
:1011C0000E94EC0B23E030E040E050E060E0CE0114
:1011D000DF91CF910C949B08FC0110827483638390
:1011E000528341830895CF93C62F69E270E080E770
:1011F00092E00E94FE05C0686C2F70E080E792E0EC
:101200000E94940880E792E00E947A0641E050E054
:1012100069E270E080E792E00E94770680E792E062
:101220000E945B05CF910895CF93DF93EC0180E797
:1012300092E00E94EA0562E1CE010E94F308843444
:1012400011F0803189F481E088836B817C81CE014B
:101250000E94380969817A81CE010E945209CE012B
:101260000E94D20881E001C080E0DF91CF91089513
:101270000F931F93CF93DF93EC018B018881811132
:1012800003C0CE010E941409980140E050E061E0E3
:10129000CE010E949B081C830B83DF91CF911F918D
:1012A0000F9108950F931F93CF93DF93EC018B0160
:1012B0008881811103C0CE010E941409980140E089
:1012C00050E06FE0CE010E949B081A830983DF91F2
:1012D000CF911F910F910895FC0183E090E09087DA
:1012E00087831386128614860895EF92FF921F93C8
:1012F000CF93DF931F92CDB7DEB77C01162FFC0191
:10130000618580E792E049830E94F405612F80E7C0
:1013100092E00E94AB054981642F80E792E00E9431
:10132000AB0580E792E00E947A06F70186830F9072
:10133000DF91CF911F91FF90EF900895CF93DF93AE
:10134000EC018F819885029729F440E069E3CE0192
:101350000E94750940E063E2CE010E9475094FE6E4
:1013600060E2CE01DF91CF910C9475099F92AF920C
:10137000BF92CF92DF92EF92FF920F931F93CF9382
:10138000DF93EC01698580E792E00E94F405E0912B
:101390007002F09171020190F081E02D68EA80E71F
:1013A00092E0099580E792E00E947A0646E069851E
:1013B00080E792E00E9474060E94BD0B7B0180E7EB
:1013C00092E00E945305069784F48A859B85892BB9
:1013D000B1F30E94BD0B6E197F098A859B85861724
:1013E000970768F781E08C872CC080E792E00E9425
:1013F0005B05A82E80E792E00E945B05982E80E7AF
:1014000092E00E945B05E82E80E792E00E945B0577
:10141000B82E80E792E00E945B05F82E80E792E00C
:101420000E945B05D92CC12CCA28D982C8821B2DE9
:1014300000E00E291B830A83982F88278F299D831C
:101440008C83DF91CF911F910F91FF90EF90DF90F0
:10145000CF90BF90AF909F9008951F93CF93DF934D
:101460001F92CDB7DEB7162F80E792E049830E9426
:10147000F4054981642F80E792E00E94AB0580E784
:1014800092E00E947A06811114C041E0612F80E74A
:1014900092E00E94740680E792E00E945305892B37
:1014A00041F080E792E00F90DF91CF911F910C9473
:1014B0005B058FEF9FEF0F90DF91CF911F91089504
:1014C000EF92FF920F931F93CF93DF937C01EB0179
:1014D0008A016330710521F04230510509F051C095
:1014E000CE010197039758F50115110581F04FE0E2
:1014F00050E06BE6C7010E942D0A8F3F2FEF920745
:1015000019F001E010E013C00130110551F04FE077
:1015100050E06AE6C7010E942D0A8F3FEFEF9E0759
:1015200021F4C330D10569F027C000E010E0C330DA
:10153000D10529F4873D9105F1F5C2E0D0E020976F
:10154000D9F40115110561F04FE050E069E6C701DB
:101550000E942D0A833D910589F10130110549F062
:101560004FE050E068E6C7010E942D0A833D9105D7
:1015700041F1C330D10519F00230110511F480E0BA
:1015800025C0F701D087C783209759F0D7FD11C038
:1015900023977CF40130110511F48BE608C08AE62C
:1015A00006C00130110511F489E601C088E6F70193
:1015B000818781E00BC0C1E0D0E0C1CF01E010E045
:1015C00002C000E010E0C0E0D0E0D6CFDF91CF91C4
:1015D0001F910F91FF90EF9008958FEF809330034C
:1015E00010923203109231030895CF93DF93DC0100
:1015F00070E0FB01E458FF4FE4911496EC931497CC
:10160000842F90E0FC01E458FF4FE4911596EC9391
:10161000159760577F4FFB01C491D0E0CC0FDD1FC1
:10162000C255DF4FFE014591549117965C934E933E
:101630001697FC01E057FF4F849190E0880F991FA7
:101640008C559F4FFC014591549119965C934E9394
:101650001897FB016491E62FF0E0EE0FFF1FE854AE
:10166000FF4F859194911B969C938E931A972F5FB1
:101670003F4F49E3429FC001439F900D11248E3894
:10168000FFE69F0710F08DE89FE61D969C938E93D2
:101690001C97DF91CF9108951F920F920FB60F9272
:1016A00011242F933F934F935F936F937F938F9367
:1016B0009F93AF93BF93EF93FF93E0913703F09124
:1016C00038030995FF91EF91BF91AF919F918F9151
:1016D0007F916F915F914F913F912F910F900FBE2E
:1016E0000F901F9018951F920F920FB60F92112412
:1016F0002F933F938F939F93AF93BF9380913A0320
:1017000090913B03A0913C03B0913D03309139038C
:1017100023E0230F2D3720F40196A11DB11D05C034
:1017200026E8230F0296A11DB11D20933903809353
:101730003A0390933B03A0933C03B0933D03809105
:101740003E0390913F03A0914003B0914103019665
:10175000A11DB11D80933E0390933F03A0934003CE
:10176000B0934103BF91AF919F918F913F912F9182
:101770000F900FBE0F901F9018952FB7F89460919F
:101780003A0370913B0380913C0390913D032FBF3E
:1017900008953FB7F89480913E0390913F03A09144
:1017A0004003B091410326B5A89B05C02F3F19F017
:1017B0000196A11DB11D3FBF6627782F892F9A2F53
:1017C000620F711D811D911D42E0660F771F881FFA
:1017D000991F4A95D1F70895CF92DF92EF92FF9229
:1017E000CF93DF936B017C010E94C90BEB01C11405
:1017F000D104E104F10489F00E9449120E94C90B4E
:101800006C1B7D0B683E734090F381E0C81AD108D1
:10181000E108F108C851DC4FEACFDF91CF91FF908A
:10182000EF90DF90CF900895789484B5826084BD66
:1018300084B5816084BD85B5826085BD85B58160D4
:1018400085BDEEE6F0E0808181608083E1E8F0E034
:101850001082808182608083808181608083E0E863
:10186000F0E0808181608083E1EBF0E08081846042
:101870008083E0EBF0E0808181608083EAE7F0E044
:1018800080818460808380818260808380818160A8
:1018900080838081806880831092C10008958330A6
:1018A00081F028F4813099F08230A1F008958730DA
:1018B000A9F08830B9F08430D1F4809180008F7D18
:1018C00003C0809180008F7780938000089584B555
:1018D0008F7702C084B58F7D84BD08958091B0005C
:1018E0008F7703C08091B0008F7D8093B000089502
:1018F000CF93DF9390E0FC01E458FF4F2491FC016B
:10190000E057FF4F8491882349F190E0880F991F99
:10191000FC01E854FF4FA591B49182559F4FFC0103
:10192000C591D4919FB7611108C0F8948C9120950E
:1019300082238C93888182230AC0623051F4F89408
:101940008C91322F309583238C938881822B8883CE
:1019500004C0F8948C91822B8C939FBFDF91CF9120
:1019600008950F931F93CF93DF931F92CDB7DEB7E8
:10197000282F30E0F901E859FF4F8491F901E4582C
:10198000FF4F1491F901E057FF4F04910023C9F074
:10199000882321F069830E944F0C6981E02FF0E0D9
:1019A000EE0FFF1FE255FF4FA591B4919FB7F8943A
:1019B0008C91611103C01095812301C0812B8C9300
:1019C0009FBF0F90DF91CF911F910F910895CF93FB
:1019D000DF93282F30E0F901E859FF4F8491F90196
:1019E000E458FF4FD491F901E057FF4FC491CC2345
:1019F00091F081110E944F0CEC2FF0E0EE0FFF1FD1
:101A0000EC55FF4FA591B4912C912D2381E090E0EE
:101A100021F480E002C080E090E0DF91CF91089552
:101A2000FC01818D228D90E0805C9F4F821B91098B
:101A30008F7399270895FC01918D828D981731F04D
:101A4000828DE80FF11D858D90E008958FEF9FEF57
:101A50000895FC01918D828D981761F0828DDF01D0
:101A6000A80FB11D5D968C91928D9F5F9F73928F91
:101A700090E008958FEF9FEF08958DEA9EE0892B07
:101A800049F080E090E0892B29F00E94AD0E811191
:101A90000C9400000895FC01848DDF01A80FB11D96
:101AA000A35ABF4F2C91848D90E001968F73992794
:101AB000848FA689B7892C93A089B1898C91806481
:101AC0008C93938D848D981306C00288F389E02D42
:101AD00080818F7D80830895CF93DF93EC01888D83
:101AE0008823C9F0EA89FB89808185FD05C0A88922
:101AF000B9898C9186FD0FC00FB607FCF5CF8081A8
:101B000085FFF2CFA889B9898C9185FFEDCFCE01F1
:101B10000E944B0DE7CFDF91CF910895CF92DF92D6
:101B2000FF920F931F93CF93DF931F92CDB7DEB732
:101B30006C0181E0D60158968C9358975B969C91E6
:101B40005B975C968C915C97981307C05096ED91CB
:101B5000FC915197808185FD2EC0F601038D10E028
:101B60000F5F1F4F0F731127F02EF601848DF812AF
:101B700011C00FB607FCF9CFD6015096ED91FC913C
:101B80005197808185FFF1CFC60169830E944B0D7B
:101B90006981EBCF838DE80FF11DE35AFF4F60831E
:101BA000D6015B960C935B975296ED91FC915397FF
:101BB000808180620CC0D6015696ED91FC915797BA
:101BC00060835096ED91FC91519780818064808371
:101BD00081E090E00F90DF91CF911F910F91FF90E6
:101BE000DF90CF900895BF92CF92DF92EF92FF9255
:101BF000CF93DF93EC016A017B01B22EE889F9896A
:101C000082E08083411581EE580761057105A1F0DE
:101C100060E079E08DE390E0A70196010E948514D1
:101C20002150310941095109569547953795279516
:101C3000211580E1380798F0E889F989108260E879
:101C400074E88EE190E0A70196010E94851421506E
:101C50003109410951095695479537952795EC85E6
:101C6000FD853083EE85FF852083188EEC89FD8904
:101C7000B082EA89FB89808180618083EA89FB895F
:101C8000808188608083EA89FB8980818068808385
:101C9000EA89FB8980818F7D8083DF91CF91FF90DE
:101CA000EF90DF90CF90BF9008951F920F920FB6E4
:101CB0000F9211242F938F939F93EF93FF93E091B3
:101CC0005203F09153038081E0915803F09159033E
:101CD00082FD12C0908180915B038F5F8F73209192
:101CE0005C03821751F0E0915B03F0E0EE5BFC4F88
:101CF000958F80935B0301C08081FF91EF919F914D
:101D00008F912F910F900FBE0F901F9018951F92DB
:101D10000F920FB60F9211242F933F934F935F931F
:101D20006F937F938F939F93AF93BF93EF93FF93A3
:101D300082E493E00E944B0DFF91EF91BF91AF9130
:101D40009F918F917F916F915F914F913F912F91D3
:101D50000F900FBE0F901F90189582E493E00E94A1
:101D6000100D21E0892B09F420E0822F08951092B4
:101D700045031092440388EE93E0A0E0B0E0809326
:101D8000460390934703A0934803B09349038BEE17
:101D900091E0909343038093420385EC90E090930D
:101DA0004F0380934E0384EC90E090935103809313
:101DB000500380EC90E0909353038093520381ECA6
:101DC00090E0909355038093540382EC90E09093BD
:101DD00057038093560386EC90E0909359038093C9
:101DE000580310925B0310925C0310925D031092F3
:101DF0005E030895CF92DF92EF92FF920F931F93AD
:101E0000CF93DF937C016A01EB0100E010E00C1539
:101E10001D0571F06991D701ED91FC910190F08160
:101E2000E02DC7010995892B19F00F5F1F4FEFCFE8
:101E3000C801DF91CF911F910F91FF90EF90DF903C
:101E4000CF9008956115710581F0DB010D900020A0
:101E5000E9F7AD0141505109461B570BDC01ED91EB
:101E6000FC910280F381E02D099480E090E00895D8
:101E70000C94220FDC01ED91FC910190F081E02D9A
:101E8000099467EF71E00C94220F0F931F93CF9387
:101E9000DF93EC010E94220F8C01CE010E94410FC2
:101EA000800F911FDF91CF911F910F9108958F9215
:101EB0009F92AF92BF92CF92DF92EF92FF920F93D9
:101EC0001F93CF93DF93CDB7DEB7A1970FB6F894EA
:101ED000DEBF0FBECDBF7C01C42EE52FCB01D22EBD
:101EE00019A221E02D1510F02AE0D22E8E010F5DEF
:101EF0001F4F8D2C912CA12CB12C6C2D7E2FA50168
:101F000094010E9485148C2DD29E801911240150B9
:101F100011098A3014F4805D01C0895CF801808366
:101F2000211531054105510521F0C22EE32FCA01CB
:101F3000E4CFB801C7010E94220FA1960FB6F89412
:101F4000DEBF0FBECDBFDF91CF911F910F91FF90EC
:101F5000EF90DF90CF90BF90AF909F908F900895BB
:101F6000CF92DF92EF92FF920F931F93CF93DF9365
:101F7000EC016A017B012115310579F4E881F981D1
:101F80000190F081E02D642FDF91CF911F910F918F
:101F9000FF90EF90DF90CF9009942A303105E9F45B
:101FA00077FF1AC06DE20E943A0F8C014427552733
:101FB000BA014C195D096E097F092AE0CE010E9421
:101FC000570F800F911FDF91CF911F910F91FF90BD
:101FD000EF90DF90CF9008952AE0B701A601CE01DF
:101FE000DF91CF911F910F91FF90EF90DF90CF90F5
:101FF0000C94570F0F931F93CF93DF93EC019A012B
:10200000AB01662757FD6095762F0E94B00F8C01BB
:10201000CE010E94410F800F911FDF91CF911F9140
:102020000F9108954F925F926F927F928F929F923D
:10203000AF92BF92CF92DF92EF92FF920F931F93D6
:10204000CF93DF93EC016A017B01B22E9A01AB01C1
:10205000C701B6010E946514882319F06AEF71E088
:1020600027C026013701E89477F82FEF3FEF4FE7BD
:102070005FE7C301B2010E94651481110DC02FEF0B
:102080003FEF4FE75FE7C301B2010E94AF1218169E
:102090001CF46EEF71E00CC02FEF3FEF4FE75FE4F1
:1020A000C701B6010E94FE131816ACF462E072E09C
:1020B000CE01DF91CF911F910F91FF90EF90DF90B4
:1020C000CF90BF90AF909F908F907F906F905F90D8
:1020D0004F900C94220F2FEF3FEF4FE75FECC701BB
:1020E000B6010E94AF1287FDE1CF20E030E0A901E8
:1020F000C701B6010E94AF1287FF0AC06DE2CE0190
:102100000E943A0F8C01F7FAF094F7F8F09402C0AD
:1021100000E010E0A12C60E070E080E09FE3AB14F1
:1021200041F020E030E040E251E40E94B312A39479
:10213000F6CF9B01AC01C701B6010E944B126B01A7
:102140007C010E9420132B013C010E944C139B0137
:10215000AC01C701B6010E944A126B017C012AE062
:10216000B301A201CE010E94570F080F191FBB2017
:1021700039F066E072E0CE010E94220F080F191FAD
:102180007B2C772041F120E030E040E251E4C701B0
:10219000B6010E9402146B017C010E941B134B01CB
:1021A000AA2497FCA094BA2C2AE030E0B501A4013F
:1021B000CE010E94B00F080F191FC501B4010E9483
:1021C0004E139B01AC01C701B6010E944A126B017C
:1021D0007C017A94D6CFC801DF91CF911F910F91E6
:1021E000FF90EF90DF90CF90BF90AF909F908F9037
:1021F0007F906F905F904F9008950C9412100F9302
:102200001F93CF93DF93EC010E9412108C01CE013B
:102210000E94410F800F911FDF91CF911F910F916D
:1022200008950F931F93CF93DF93EC010E94BD0B92
:10223000688779878A879B87E881F9810084F1859F
:10224000E02DCE01099597FF15C00E94BD0B0885B2
:1022500019852A853B85601B710B820B930B0C81C2
:102260001D812E813F81601771078207930720F33C
:102270008FEF9FEFDF91CF911F910F910895FF9204
:102280000F931F93CF93DF93EC018B01F42ECE01BC
:102290000E9411119C0197FD28C08D32910519F102
:1022A000C0970A9710F1FF2019F02E323105F9F08E
:1022B00001301105F9F00230110569F42D303105B6
:1022C00051F034F4295031092230310520F012C088
:1022D0002032310579F4E881F9810680F781E02D1B
:1022E000CE010995D4CF8DE203C0C90105C08EE2AD
:1022F00090E002C08FEF9FEFDF91CF911F910F9180
:10230000FF900895CF92DF92FF920F931F93CF9388
:10231000DF9300D000D0CDB7DEB76C01042F40E0D2
:102320000E943F11FC0197FD4BC020E030E0A90165
:10233000F12C112707FD1095E017F107E9F0ED32B8
:10234000F105C1F0CF01C0970A97B0F4AAE0B0E060
:102350000E94C6149B01AC01CF01AA2797FDA0954E
:10236000BA2F280F391F4A1F5B1F2053310941091B
:10237000510902C0FF24F394D601ED91FC9106802F
:10238000F781E02DC60129833A834B835C8309954D
:10239000C6010E941111FC01C09729813A814B812D
:1023A0005C810A9748F2E017F10731F2FF2061F0F3
:1023B00066277727CB01621B730B840B950B06C036
:1023C00060E070E0CB0102C0CA01B9010F900F902C
:1023D0000F900F90DF91CF911F910F91FF90DF90A1
:1023E000CF9008954F925F926F927F92AF92BF927B
:1023F000CF92DF92EF92FF920F931F93CF93DF93D1
:10240000CDB7DEB729013A01621B730B840B950B24
:1024100029893A894B895C892A193B094C095D094C
:10242000298B3A8B4B8B5C8B9B01AC0169897A8938
:102430008B899C890E946914E418F508060917091C
:10244000A80197010E94A7142A0D3B1D4C1D5D1D7C
:10245000CA01B901DF91CF911F910F91FF90EF90C9
:10246000DF90CF90BF90AF907F906F905F904F9034
:10247000089508950E94140C0E9439120E94980237
:10248000CDE3DDE00E944A032097E1F30E943D0D79
:10249000F9CF08955058BB27AA270ED075C166D131
:1024A00030F06BD120F031F49F3F11F41EF45BC18A
:1024B0000EF4E095E7FB51C1E92F77D180F3BA170D
:1024C000620773078407950718F071F49EF58FC1B2
:1024D0000EF4E0950B2EBA2FA02D0B01B90190013F
:1024E0000C01CA01A0011124FF27591B99F0593F83
:1024F00050F4503E68F11A16F040A22F232F342FCB
:102500004427585FF3CF469537952795A795F04018
:102510005395C9F77EF41F16BA0B620B730B840B2D
:10252000BAF09150A1F0FF0FBB1F661F771F881FE5
:10253000C2F70EC0BA0F621F731F841F48F487953D
:1025400077956795B795F7959E3F08F0B3CF93952C
:10255000880F08F09927EE0F979587950895D9D0A1
:1025600008F481E008950CD00FC107D140F0FED0EF
:1025700030F021F45F3F19F0F0C0511139C1F3C0C0
:1025800014D198F39923C9F35523B1F3951B550B37
:10259000BB27AA2762177307840738F09F5F5F4F36
:1025A000220F331F441FAA1FA9F333D00E2E3AF077
:1025B000E0E830D091505040E695001CCAF729D091
:1025C000FE2F27D0660F771F881FBB1F26173707E0
:1025D0004807AB07B0E809F0BB0B802DBF01FF2710
:1025E00093585F4F2AF09E3F510568F0B6C000C176
:1025F0005F3FECF3983EDCF3869577956795B7954A
:10260000F7959F5FC9F7880F911D9695879597F964
:102610000895E1E0660F771F881FBB1F62177307DD
:102620008407BA0720F0621B730B840BBA0BEE1FF2
:1026300088F7E095089504D06894B111D9C0089541
:10264000BCD088F09F5790F0B92F9927B751A0F0D0
:10265000D1F0660F771F881F991F1AF0BA95C9F736
:1026600012C0B13081F0C3D0B1E00895C0C0672F6F
:10267000782F8827B85F39F0B93FCCF386957795E6
:102680006795B395D9F73EF49095809570956195CF
:102690007F4F8F4F9F4F0895E89409C097FB3EF4FA
:1026A00090958095709561957F4F8F4F9F4F99239F
:1026B000A9F0F92F96E9BB279395F695879577951D
:1026C0006795B795F111F8CFFAF4BB0F11F460FFDD
:1026D0001BC06F5F7F4F8F4F9F4F16C0882311F035
:1026E00096E911C0772321F09EE8872F762F05C049
:1026F000662371F096E8862F70E060E02AF09A95E4
:10270000660F771F881FDAF7880F9695879597F9D8
:102710000895990F0008550FAA0BE0E8FEEF161672
:102720001706E807F907C0F012161306E407F507C5
:1027300098F0621B730B840B950B39F40A2661F039
:10274000232B242B252B21F408950A2609F4A140DC
:10275000A6958FEF811D811D089597F99F6780E8E9
:1027600070E060E008959FEF80EC089500240A94E3
:102770001616170618060906089500240A9412165C
:102780001306140605060895092E0394000C11F48F
:10279000882352F0BB0F40F4BF2B11F460FF04C03C
:1027A0006F5F7F4F8F4F9F4F089557FD9058440F95
:1027B000551F59F05F3F71F04795880F97FB991FA0
:1027C00061F09F3F79F0879508951216130614065D
:1027D000551FF2CF4695F1DF08C0161617061806EA
:1027E000991FF1CF86957105610508940895E894C5
:1027F000BB2766277727CB0197F908958ADF08F46E
:102800008FEF08950BD0C0CFB1DF28F0B6DF18F0FE
:10281000952309F0A2CFA7CF1124EACFC6DFA0F3FA
:10282000959FD1F3950F50E0551F629FF001729F65
:10283000BB27F00DB11D639FAA27F00DB11DAA1F84
:10284000649F6627B00DA11D661F829F2227B00DD1
:10285000A11D621F739FB00DA11D621F839FA00D5C
:10286000611D221F749F3327A00D611D231F849FAC
:10287000600D211D822F762F6A2F11249F57504003
:102880008AF0E1F088234AF0EE0FFF1FBB1F661F9E
:10289000771F881F91505040A9F79E3F510570F057
:1028A0005CCFA6CF5F3FECF3983EDCF3869577953F
:1028B0006795B795F795E7959F5FC1F7FE2B880F52
:1028C000911D9695879597F9089523DF880B990BAD
:1028D0000895DB018F939F930E94C614BF91AF911F
:1028E000A29F800D911DA39F900DB29F900D11246A
:1028F0000895991B79E004C0991F961708F0961B5C
:10290000881F7A95C9F780950895A1E21A2EAA1B0F
:10291000BB1BFD010DC0AA1FBB1FEE1FFF1FA2178F
:10292000B307E407F50720F0A21BB30BE40BF50B8C
:10293000661F771F881F991F1A9469F76095709515
:10294000809590959B01AC01BD01CF010895052EA6
:1029500097FB1EF400940E94BE1457FD07D00E94FE
:10296000851407FC03D04EF40C94BE14509540958A
:10297000309521953F4F4F4F5F4F0895909580952B
:10298000709561957F4F8F4F9F4F08950E94D71488
:10299000A59F900DB49F900DA49F800D911D1124B3
:1029A0000895EE0FFF1F0590F491E02D0994A29F6A
:1029B000B001B39FC001A39F700D811D1124911D13
:1029C000B29F700D811D1124911D0895F894FFCFC1
:1029D0000000DF03800001000000436F6C6F722075
:1029E00073656E736F722072656164696E67733AA6
:1029F00000523A0900473A0900423A0900436F6C15
:102A00006F722073656E736F7220287363616C65DB
:102A10006420746F203820626974293A0048756513
:102A20002028382D626974293A09004443204F66F2
:102A3000667365743A20004E6F697365204C657645
:102A4000656C3A2000616E676C653A20000972611E
:102A500074653A20005443533334373235204932B9
:102A60004320636F6C6F722073656E736F7200200A
:102A70006E6F740020666F756E64004C334744328D
:102A8000304820493243206779726F2073656E7336
:102A90006F72005072657373206720746F20636FCC
:102AA0006E74696E75650000000000AB057E05530D
:102AB000055B056E057D05000000008E0DFA0E1009
:102AC0000D290D1B0D6C0D0D0A006E616E00696EF7
:082AD00066006F7666002E001F
:107E0000112484B714BE81FFF0D085E080938100F7
:107E100082E08093C00088E18093C10086E0809377
:107E2000C20080E18093C4008EE0C9D0259A86E02C
:107E300020E33CEF91E0309385002093840096BBD3
:107E4000B09BFECF1D9AA8958150A9F7CC24DD24C4
:107E500088248394B5E0AB2EA1E19A2EF3E0BF2EE7
:107E6000A2D0813461F49FD0082FAFD0023811F036
:107E7000013811F484E001C083E08DD089C08234E0
:107E800011F484E103C0853419F485E0A6D080C0E4
:107E9000853579F488D0E82EFF2485D0082F10E0AE
:107EA000102F00270E291F29000F111F8ED06801E7
:107EB0006FC0863521F484E090D080E0DECF843638
:107EC00009F040C070D06FD0082F6DD080E0C81688
:107ED00080E7D80618F4F601B7BEE895C0E0D1E017
:107EE00062D089930C17E1F7F0E0CF16F0E7DF06D8
:107EF00018F0F601B7BEE89568D007B600FCFDCFD4
:107F0000A601A0E0B1E02C9130E011968C91119780
:107F100090E0982F8827822B932B1296FA010C0160
:107F200087BEE89511244E5F5F4FF1E0A038BF0790
:107F300051F7F601A7BEE89507B600FCFDCF97BE46
:107F4000E89526C08437B1F42ED02DD0F82E2BD052
:107F50003CD0F601EF2C8F010F5F1F4F84911BD097
:107F6000EA94F801C1F70894C11CD11CFA94CF0C13
:107F7000D11C0EC0853739F428D08EE10CD085E9AC
:107F80000AD08FE07ACF813511F488E018D01DD067
:107F900080E101D065CF982F8091C00085FFFCCF94
:107FA0009093C60008958091C00087FFFCCF809118
:107FB000C00084FD01C0A8958091C6000895E0E648
:107FC000F0E098E1908380830895EDDF803219F02E
:107FD00088E0F5DFFFCF84E1DECF1F93182FE3DFCA
:107FE0001150E9F7F2DF1F91089580E0E8DFEE27F6
:047FF000FF270994CA
:027FFE00040479
:0400000300007E007B
:00000001FF
