:100000000C9465000C948D000C948D000C948D0064
:100010000C948D000C948D000C948D000C94660B48
:100020000C948D000C948D000C948D000C9479032D
:100030000C948D000C948D000C948D000C948D000C
:100040000C94B70D0C948D000C9499100C94CB105B
:100050000C948D000C948D000C948D000C948D00EC
:100060000C9481070C948D00000000080002010030
:100070000003040700000000000000000102040863
:100080001020408001020408102001020408102002
:10009000040404040404040402020202020203032E
:1000A00003030303000000002300260029000000D2
:1000B0000000250028002B0000000000240027007D
:1000C0002A00D8019706070BFB1011241FBECFEFA3
:1000D000D8E0DEBFCDBF12E0A0E0B1E0E2E9FCE293
:1000E00002C005900D92A238B107D9F724E0A2E82A
:1000F000B2E001C01D92A23AB207E1F710E0CAECEB
:10010000D0E004C02297FE010E943416C23CD10701
:10011000C9F70E949B130C9447160C940000CF92D1
:10012000DF92EF92FF926B017C0161E08DE00E9413
:10013000F50EF694E794D794C794C701B6010E94D0
:10014000300E60E08DE00E94F50EC701B601FF9011
:10015000EF90DF90CF900C94300E4F925F926F92A1
:100160007F92AF92BF92CF92DF92EF92FF920F9366
:100170001F93CF93DF9369E671E085E094E00E94DE
:100180007C11C8EED3E0C12CD12C76018AEF92E02D
:100190000E94D0098091FC029091FD02AA2797FD50
:1001A000A095BA2FC80ED91EEA1EFB1E219771F723
:1001B000C701B60128EE33E040E050E00E94081687
:1001C000CA01B9013093F9022093F8024AE050E0E5
:1001D00085E094E00E943E126AE771E085E094E0D9
:1001E0000E947C11C8EED3E08AEF92E00E94D00911
:1001F000A090FC02B090FD020091F8021091F9026B
:10020000B501601B710B882777FD8095982F0E94A0
:10021000AF146B017C014090F4025090F5026090A5
:10022000F6027090F702A30192010E945F15181662
:100230004CF4C092F402D092F502E092F602F092F1
:10024000F7021DC0A30192015058C701B6010E94D8
:10025000101487FF14C0662777276A197B09601B73
:10026000710B882777FD8095982F0E94AF146093BB
:10027000F4027093F5028093F6029093F7022197AF
:1002800009F0B2CF20E030E048EC52E46091F40293
:100290007091F5028091F6029091F7020E94141479
:1002A000AB01BC014093F4025093F5026093F60257
:1002B0007093F70224E030E085E094E0DF91CF9185
:1002C0001F910F91FF90EF90DF90CF90BF90AF9074
:1002D0007F906F905F904F900C944113CF92DF927C
:1002E000EF92FF928AEF92E00E94D0090E94010EE5
:1002F0006B017C018091040190910501A0910601A0
:10030000B0910701C81AD90AEA0AFB0A0E94010E35
:100310006093040170930501809306019093070197
:10032000C701B6010E94AD14209186023091870268
:1003300040918802509189020E94AC136B017C01AC
:10034000609386027093870280938802909389025B
:100350006091820270918302809184029091850263
:100360006F5F7F4F8F4F9F4F609382027093830226
:1003700080938402909385020E94AD149B01AC018E
:10038000C701B6010E9414149B01AC0160E070E04B
:100390008AE794E40E941414AB01BC0122E030E02F
:1003A00085E094E0FF90EF90DF90CF900C944113A4
:1003B000AF92BF92CF92DF92EF92FF920F931F9373
:1003C0008AE093E00E94350487E093E00E943504C0
:1003D0008AEF92E00E948609A0900C01B0900D0176
:1003E000C0900E01D0900F01E0901001F09011012B
:1003F00000911201109113011F921F9280910B0125
:100400008F9380910A018F93809109018F9380913E
:1004100008018F932CEE32E044E151E060EF72E08E
:1004200083EB92E00E944A0D41E050E060E070E012
:100430008EEA92E00E94060924EF31E043E06BE08F
:100440008CE992E00E940F0B0F900F900F900F908D
:100450000F900F9024EF31E049E06AE08AE892E0E3
:100460001F910F91FF90EF90DF90CF90BF90AF90D2
:100470000C940F0B64EF71E080E090E00E948F001D
:1004800064EF71E080E090E00E948F0085E094E0EE
:100490000E94540F892B41F48CE00E942B0F01978E
:1004A000A9F70E946E01F2CF089567E971E085E037
:1004B00094E00E94891185E094E00E946D0F8736D8
:1004C000910539F060ED77E080E090E00E948F00C8
:1004D000F2CF0E943A0268EE73E080E090E00C9464
:1004E0008F0085E094E00E94B00F61E08EE00E94F2
:1004F000F50EE0910504F09106040190F081E02DE5
:100500006AEA85E094E0099585E094E00E94B00FE6
:1005100060E08EE00C94F50ECF93DF9300D000D016
:10052000CDB7DEB790E899838A836B83860F8F7788
:100530008C8385E094E00E94B00F61E08EE00E9421
:10054000F50EE0910504F09106040280F381E02DA0
:1005500044E050E0BE016F5F7F4F85E094E0099575
:1005600085E094E00E94B00F60E08EE00E94F50EFE
:100570000F900F900F900F90DF91CF9108950F93F0
:100580001F9361E088E00E94BC0E60E088E00E945A
:10059000F50E61E08EE00E94BC0E60E08EE00E94ED
:1005A000F50E26E040E056E960E070E085E094E07A
:1005B0000E9437106BEA71E085E094E00E94891197
:1005C00060ED77E080E090E00E94300E62ED71E037
:1005D00085E094E00E947C110E9471026DEE71E052
:1005E00085E094E00E947C1160E088E00E948C022B
:1005F00060E08BE00E948C0261E088E00E94F50ED2
:1006000061E072E085E094E00E94891165E070E0AD
:100610008AE093E00E94CF046CE870E08AE093E007
:100620000E94080566E070E087E093E00E94CF0436
:100630006CE170E087E093E00E94080561E08DE0E6
:100640000E94BC0E65E172E085E094E00E947C119E
:100650008EEA92E00E942E09811106C06FE272E0DC
:1006600085E094E00E947C1164E372E085E094E010
:100670000E9489116BE372E085E094E00E947C1196
:1006800042E050E063E070E08AEF92E00E947A0A74
:10069000811106C06FE272E085E094E00E947C1157
:1006A00064E372E085E094E00E9489118AEF92E0B1
:1006B0000E94B8090E94AD0060E08CE00E94BC0E70
:1006C00048E062E28AEF92E00E948F0900E010E0C9
:1006D0002EEF32E440E050E0BA0183EB92E00E945A
:1006E0008E0C65E070E083EB92E01F910F910C940B
:1006F000400C1F920F920FB60F9211242F933F932D
:100700004F935F936F937F938F939F93AF93BF9319
:10071000EF93FF9380910E0387FF05C01092850031
:10072000109284001AC020910E03332727FD3095C4
:1007300080910D0390E0281739077CF480910E0317
:10074000992787FD9095FC01EE0FFF1FE80FF91F19
:10075000E15FFC4F808186FD15C080910E038F5FA5
:1007600080930E0320910E03332727FD309580914F
:100770000D0390E028173907BCF480910E038C30EC
:100780005CF112C080910E03992787FD9095FC01C2
:10079000EE0FFF1FE80FF91FE15FFC4F808160E063
:1007A0008F730E94F50ED9CF8091840090918500BF
:1007B000049680349C4918F480E49CE905C080913B
:1007C000840090918500049690938900809388001E
:1007D0008FEF80930E0338C0209184003091850004
:1007E00080910E03992787FD9095FC01EE0FFF1F66
:1007F000E80FF91FE15FFC4F81819281820F931F07
:10080000909389008093880080910E03992787FD3B
:100810009095FC01EE0FFF1FE80FF91FE15FFC4F01
:10082000808186FF11C080910E03992787FD9095E6
:10083000FC01EE0FFF1FE80FF91FE15FFC4F808105
:1008400061E08F730E94F50EFF91EF91BF91AF9120
:100850009F918F917F916F915F914F913F912F91D8
:100860000F900FBE0F901F90189520910D032C3004
:10087000A0F431E0320F30930D03FC012083822F6E
:1008800090E0FC01EE0FFF1FE80FF91FE15FFC4F46
:1008900088EB9BE09283818308952FEFFC012083F6
:1008A0000895DF92EF92FF920F931F93CF93DF9300
:1008B000EC01D62E7A01890188818C3008F066C05F
:1008C00061E08D2D0E94BC0E8881A82FB0E0FD0153
:1008D000EE0FFF1FEA0FFB1FE15FFC4F2D2D2F7363
:1008E0009081907C922B908360E272E06E197F0978
:1008F00077FF02C06D5F7F4F75956795759567951A
:10090000698340E659E0401B510B57FF02C04D5F21
:100910005F4F55954795559547954A836CE00E94E2
:10092000DA159CE0899FB001112420E030E0A90194
:10093000460F571FFA01EE0FFF1FE40FF51FE15F8F
:10094000FC4F908196FD16C02F5F3F4F2C30310534
:1009500071F781110FC01092800082E080938100B6
:100960001092850010928400B19A80916F0082608D
:1009700080936F00888190E0FC01EE0FFF1FE80F6D
:10098000F91FE15FFC4F8081806480838881DF9163
:10099000CF911F910F91FF90EF90DF90089520E687
:1009A00039E040E252E00C945104FC0180818C302B
:1009B00070F5918128E830E0291B310997FD3395C6
:1009C000220F331F220F331F621773077CF09281AF
:1009D00028E532E0291B310997FD3395220F331F9B
:1009E000220F331F621773070CF49B012250310949
:1009F000220F331F4FB7F89490E0FC01EE0FFF1F5A
:100A0000E80FF91FE15FFC4F328321834FBF089548
:100A10004F925F926F927F92AF92BF92CF92DF928E
:100A2000EF92FF920F931F93CF93DF93EC0160320D
:100A300082E078070CF040C077FD06C0653B710589
:100A40002CF064EB70E002C060E070E0898128E87F
:100A500030E0281B310987FD3395220F331F220F09
:100A6000331F5901CC24B7FCC094DC2C882777FDB8
:100A70008095982F2A8148E552E0421B510927FDB5
:100A80005395440F551F440F551F2A01662457FCE8
:100A90006094762C7F926F925F924F9214EBE12ECE
:100AA000F12C00E010E020E030E0A9010E94531397
:100AB0000F900F900F900F90CE01DF91CF911F916B
:100AC0000F91FF90EF90DF90CF90BF90AF907F900D
:100AD0006F905F904F900C94D5048091630390E0E9
:100AE00020916403821B91090895209164038091F1
:100AF0006303281750F4E22FF0E0EB59FC4F80819C
:100B000090E02F5F2093640308958FEF9FEF089587
:100B1000E091640380916303E81730F4F0E0EB594F
:100B2000FC4F808190E008958FEF9FEF0895089526
:100B3000CF92DF92EF92FF920F931F93CF93DF93A9
:100B40007C01CB018A0120913F03222389F0EB0134
:100B50006B01C40ED51ECC15DD0569F06991D70176
:100B6000ED91FC910190F081E02DC7010995F3CF43
:100B7000642F0E945807C801DF91CF911F910F91F8
:100B8000FF90EF90DF90CF900895CF93DF931F9267
:100B9000CDB7DEB7698320913F032223D1F02091A6
:100BA0004003203240F021E030E0FC013383228317
:100BB00080E090E015C080914103E82FF0E0EE5B0B
:100BC000FC4F998190838F5F809341038093400312
:100BD00005C061E0CE0101960E94580781E090E0D7
:100BE0000F90DF91CF910895FC011382128248EE9D
:100BF00053E060E070E0448355836683778387E544
:100C000092E09183808308951092640310926303AD
:100C100010924103109240030C949B0681E0809354
:100C20003F036093620310924103109240030895C2
:100C30000C940E060F93062F21E04091400362E4CE
:100C400073E0809162030E940107109241031092A9
:100C5000400310923F030F9108958F929F92AF929D
:100C6000BF92CF92DF92EF92FF920F931F93CF9399
:100C7000DF93EC01F62ED42E48015901EE2019F134
:100C80000E940E061E2D143008F013E01150B8F02B
:100C9000E881F98128E0129FB0011124A501940197
:100CA00004C056954795379527956A95D2F7CA019E
:100CB000B9010190F081E02DCE010995E7CF60E008
:100CC000CE010E941A064D2D413208F040E22C2D33
:100CD00065E673E08F2D0E94B9061092640380933D
:100CE0006303DF91CF911F910F91FF90EF90DF9001
:100CF000CF90BF90AF909F908F900895CF92EF923A
:100D00000F931F93C22EE12C00E010E098010E9487
:100D10002D061F910F91EF90CF90089521E00C9434
:100D20007E0621E00C947E0661E00C941A0683E3B3
:100D300093E00C94F4051092F20381E08093F003A9
:100D40001092EF0361E082E10E94F50E61E083E121
:100D50000E94F50EE9EBF0E080818E7F8083808138
:100D60008D7F808388E48093B80085E48093BC0005
:100D70000895413208F043C09091F2039111FCCFE5
:100D800091E09093F2032093F0032FEF20938503DB
:100D90001092CA03240F2093C9039093F1039091FA
:100DA000F103880F892B8093F1038091EF03813049
:100DB00061F41092EF038091F1038093BB00809166
:100DC000BC0083FDF8CF85EC01C085EE8093BC00AC
:100DD0008091F2038130E1F38091CA03841710F40B
:100DE0004091CA032BEC33E0FB01D9018A2F821B0F
:100DF000841718F48D918193F9CF842F089580E0A2
:100E000008950F93413208F04AC09091F203911176
:100E1000FCCF92E09093F2030093F0039FEF909346
:100E200085031092CA034093C903FB016BEC73E086
:100E3000DB019A2F961B941718F491919D93F9CF8B
:100E40001092F1039091F103880F892B8093F103A5
:100E50008091EF03813061F41092EF038091F103F0
:100E60008093BB008091BC0083FDF8CF85EC01C06E
:100E700085EE8093BC00222321F08091F203823022
:100E8000E1F3809185038F3F61F08091850380328B
:100E900051F080918503803341F483E007C081E005
:100EA00005C080E003C082E001C084E00F91089596
:100EB000613298F42091F203243089F46093A703FF
:100EC000FC0189EA93E0DC012A2F281B261718F47D
:100ED00021912D93F9CF80E0089581E0089582E07B
:100EE000089585ED8093BC008091BC0084FDFCCF0B
:100EF0001092F203089585EC8093BC001092F203E7
:100F000008951F920F920FB60F9211242F933F93C3
:100F10004F935F936F937F938F939F93AF93BF9301
:100F2000EF93FF938091B900887F803609F49EC0CB
:100F300078F5883209F45DC090F4803109F456C028
:100F400038F4882309F4F5C0883009F44FC0F5C09F
:100F5000883109F44EC0803209F45FC0EEC080349D
:100F600009F46AC058F4803309F457C0883309F093
:100F7000E4C0809385030E947B07DFC0803509F4BD
:100F80004FC0883509F45DC0883409F0D6C0D3C09D
:100F9000883909F4C4C0A8F4883709F467C038F464
:100FA000883609F463C0803709F460C0C6C0883849
:100FB00009F4B5C0803909F45FC0803809F0BDC0BC
:100FC0005BC0803B09F483C038F4803A09F466C002
:100FD000883A09F47CC0B1C0803C09F4A4C0883CC4
:100FE00009F4A1C0883B09F487C0A7C08091F10330
:100FF00010C09091CA038091C903981770F5E091D1
:10100000CA0381E08E0F8093CA03F0E0E553FC4FE2
:1010100080818093BB0085EC83C0809385038BC067
:10102000E091CA0381E08E0F8093CA038091BB00D8
:10103000F0E0E553FC4F80839091CA038091C9038F
:101040006BC0E091CA0381E08E0F8093CA03809148
:10105000BB00F0E0E553FC4F80838091F0038111E9
:101060006AC081E08093EF0384EA5EC083E08093EE
:10107000F20310928603CFCF80918603803208F06E
:101080004EC0E091860381E08E0F809386038091AD
:10109000BB00F0E0E957FC4F8083BDCF0E947B0787
:1010A00080918603803230F4E0918603F0E0E957C6
:1010B000FC4F10826091860370E0E091EB03F091A9
:1010C000EC0387E893E009951092860336C084E02C
:1010D0008093F2031092A8031092A703E091ED030E
:1010E000F091EE0309958091A703811105C081E07D
:1010F0008093A7031092A903E091A80381E08E0FCB
:101100008093A803F0E0E755FC4F80818093BB00FB
:101110009091A8038091A703981708F47CCF85E8E5
:101120008093BC000AC085EC8093BC001092F2034F
:1011300004C0109285030E947107FF91EF91BF9147
:10114000AF919F918F917F916F915F914F913F915F
:101150002F910F900FBE0F901F901895DC01ED910D
:10116000FC910190F081E02D09941F93CF93DF93C0
:1011700000D000D0CDB7DEB7162F69E270E083E370
:1011800093E029833A834B835C830E94180610689E
:10119000612F70E083E393E00E94AE08E091330397
:1011A000F091340329813A814B815C81CA01B901F4
:1011B0007727882799270190F081E02D83E393E03A
:1011C000099583E393E00F900F900F900F90DF91BC
:1011D000CF911F910C949406CF93DF93EC0121E003
:1011E00030E040E050E060E00E94B50863E070E06D
:1011F00080E090E00E94300E23E030E040E050E0DC
:1012000060E0CE01DF91CF910C94B508FC01108213
:1012100074836383528341830895CF93C62F69E219
:1012200070E083E393E00E941806C0686C2F70E0C2
:1012300083E393E00E94AE0883E393E00E94940668
:1012400041E050E069E270E083E393E00E949106A0
:1012500083E393E00E947505CF910895CF93DF93C8
:10126000EC0183E393E00E94040662E1CE010E9458
:101270000D09843411F0803189F481E088836B8119
:101280007C81CE010E94520969817A81CE010E943F
:101290006C09CE010E94EC0881E001C080E0DF9182
:1012A000CF9108950F931F93CF93DF93EC018B01A0
:1012B0008881811103C0CE010E942E09980140E06F
:1012C00050E061E0CE010E94B5081C830B83DF91E2
:1012D000CF911F910F9108950F931F93CF93DF9399
:1012E000EC018B018881811103C0CE010E942E097F
:1012F000980140E050E06FE0CE010E94B5081A83EB
:101300000983DF91CF911F910F910895FC0183E034
:1013100090E0908787831386128614860895EF9253
:10132000FF921F93CF93DF931F92CDB7DEB77C015F
:10133000162FFC01618583E393E049830E940E062A
:10134000612F83E393E00E94C5054981642F83E305
:1013500093E00E94C50583E393E00E949406F701A1
:1013600086830F90DF91CF911F91FF90EF900895AA
:10137000CF93DF93EC018F819885029729F440E0A9
:1013800069E3CE010E948F0940E063E2CE010E9432
:101390008F094FE660E2CE01DF91CF910C948F0967
:1013A0009F92AF92BF92CF92DF92EF92FF920F93F4
:1013B0001F93CF93DF93EC01698583E393E00E9451
:1013C0000E06E0913303F09134030190F081E02D9B
:1013D00068EA83E393E0099583E393E00E9494062F
:1013E00046E0698583E393E00E948E060E94010E29
:1013F0007B0183E393E00E946D05069784F48A8560
:101400009B85892BB1F30E94010E6E197F098A8595
:101410009B858617970768F781E08C872CC083E34C
:1014200093E00E947505A82E83E393E00E94750562
:10143000982E83E393E00E947505E82E83E393E002
:101440000E947505B82E83E393E00E947505F82E7F
:1014500083E393E00E947505D92CC12CCA28D98258
:10146000C8821B2D00E00E291B830A83982F882732
:101470008F299D838C83DF91CF911F910F91FF90D6
:10148000EF90DF90CF90BF90AF909F9008951F9303
:10149000CF93DF931F92CDB7DEB7162F83E393E090
:1014A00049830E940E064981642F83E393E00E94E2
:1014B000C50583E393E00E949406811114C041E0C6
:1014C000612F83E393E00E948E0683E393E00E9402
:1014D0006D05892B41F083E393E00F90DF91CF916D
:1014E0001F910C9475058FEF9FEF0F90DF91CF91B7
:1014F0001F910895EF92FF920F931F93CF93DF9365
:101500007C01EB018A016330710521F04230510505
:1015100009F051C0CE010197039758F50115110547
:1015200081F04FE050E06BE6C7010E94470A8F3F11
:101530002FEF920719F001E010E013C00130110500
:1015400051F04FE050E06AE6C7010E94470A8F3F22
:10155000EFEF9E0721F4C330D10569F027C000E00A
:1015600010E0C330D10529F4873D9105F1F5C2E0C3
:10157000D0E02097D9F40115110561F04FE050E05B
:1015800069E6C7010E94470A833D910589F1013050
:10159000110549F04FE050E068E6C7010E94470A94
:1015A000833D910541F1C330D10519F00230110599
:1015B00011F480E025C0F701D087C783209759F048
:1015C000D7FD11C023977CF40130110511F48BE68F
:1015D00008C08AE606C00130110511F489E601C091
:1015E00088E6F701818781E00BC0C1E0D0E0C1CF80
:1015F00001E010E002C000E010E0C0E0D0E0D6CF93
:10160000DF91CF911F910F91FF90EF9008958FEF91
:101610008093F3031092F5031092F4030895CF938F
:10162000DF93DC0170E0FB01E458FF4FE491149676
:10163000EC931497842F90E0FC01E458FF4FE49161
:101640001596EC93159760577F4FFB01C491D0E03E
:10165000CC0FDD1FC255DF4FFE0145915491179607
:101660005C934E931697FC01E057FF4F849190E0F6
:10167000880F991F8C559F4FFC01459154911996E5
:101680005C934E931897FB016491E62FF0E0EE0F08
:10169000FF1FE854FF4F859194911B969C938E9366
:1016A0001A972F5F3F4F49E3429FC001439F900D20
:1016B00011248E38FFE69F0710F08DE89FE61D96F7
:1016C0009C938E931C97DF91CF9108951F920F9258
:1016D0000FB60F9211242F933F934F935F936F9305
:1016E0007F938F939F93AF93BF93EF93FF93E0917B
:1016F000FA03F091FB030995FF91EF91BF91AF9130
:101700009F918F917F916F915F914F913F912F9119
:101710000F900FBE0F901F9018952F923F924F92EF
:101720005F926F927F928F929F92AF92BF92CF9271
:10173000DF92EF92FF920F931F93CF93DF9300D02E
:1017400000D0CDB7DEB71C012A013B014801590189
:1017500020E030E0A901C301B2010E94101487FD0E
:1017600078C020E030E0A901C501B4010E94101446
:1017700087FD6FC020E030E0A901C701B6010E94DB
:10178000101487FD66C0F10140825182628273822B
:1017900084829582A682B782C086D186E286F3864D
:1017A00064A575A586A597A50E94AD1420E030E03C
:1017B0004AE754E40E94141469837A838B839C83E0
:1017C000F10144865586668677869B01AC01C5018A
:1017D000B4010E9463154B015C01F101608B718BB8
:1017E000828B938B29813A814B815C81C701B60141
:1017F0000E9414146B017C01F101648B758B868B44
:10180000978B808D918D019721F5A301920160E066
:1018100070E0CB010E94AB13F10164877587868766
:101820009787A501940160E070E0CB010E94AB13A3
:10183000F101608B718B828B938BA701960160E025
:1018400070E0CB010E94AB13F101648B758B868B2A
:10185000978B0F900F900F900F90DF91CF911F916A
:101860000F91FF90EF90DF90CF90BF90AF909F903F
:101870008F907F906F905F904F903F902F90089542
:101880008F929F92AF92BF92CF92DF92EF92FF9290
:10189000CF93DF93EC0116161706ACF56B01EE241F
:1018A000D7FCE094FE2CC701B6010E94AF144B0197
:1018B0005C016CA57DA58EA59FA50E94AD149B0122
:1018C000AC01C501B4010E9414144B015C019B01E1
:1018D000AC01688979898A899B890E946315688B24
:1018E000798B8A8B9B8BA50194016C897D898E896C
:1018F0009F890E9414146C8B7D8B8E8B9F8BCCA642
:10190000DDA6EEA6FFA6DF91CF91FF90EF90DF90CE
:10191000CF90BF90AF909F908F9008952F923F925D
:101920004F925F926F927F928F929F92AF92BF92EF
:10193000CF92DF92EF92FF920F931F93CF93DF939B
:10194000EC016A017B0148015901A9019801C70115
:10195000B6010E945F1587FF4EC0C8AAD9AAEAAA9D
:10196000FBAA8CAA9DAAAEAABFAA88AD882309F4B7
:1019700042C02C8C3D8CF10140805180628073808C
:10198000A5019401C301B2010E945F15181634F439
:10199000F10180829182A282B3820DC0A7019601DB
:1019A000C301B2010E94101487FF05C0F101C0827B
:1019B000D182E282F3828CA09DA0AEA0BFA0CCA871
:1019C000DDA8EEA8FFA8A7019601C501B4010E94F9
:1019D0005F15181664F0C8A8D9A8EAA8FBA8A70143
:1019E0009601C501B4010E94101487FF04C0CCA267
:1019F000DDA2EEA2FFA2DF91CF911F910F91FF9088
:101A0000EF90DF90CF90BF90AF909F908F907F909E
:101A10006F905F904F903F902F9008950F931F937A
:101A2000CF93DF93EC018B0188AD882361F1888D22
:101A3000998D6817790739F12C853D854E855F852D
:101A400060E070E0CB010E94AB136C877D878E87CE
:101A50009F87288939894A895B8960E070E0CB01DA
:101A60000E94AB13688B798B8A8B9B8B2C893D8969
:101A70004E895F8960E070E0CB010E94AB136C8BF4
:101A80007D8B8E8B9F8B198F088FDF91CF911F914C
:101A90000F9108954F925F926F927F928F929F92D3
:101AA000AF92BF92CF92DF92EF92FF920F931F936C
:101AB000CF93DF9300D000D0CDB7DEB74C01270124
:101AC0003801A982BA82CB82DC82FC01558F448F17
:101AD000738F628F378F268F10AE10AA11AA12AAA9
:101AE00013AA80E090E0AFE7B3E484AB95ABA6AB7C
:101AF000B7AB84E690E0A0E0B0E084A795A7A6A7E6
:101B0000B7A76B8D7C8DC4010E940E0DCF88D88C39
:101B1000E98CFA8C09811A812B813C81B301A201E5
:101B2000C4010E948D0B0E94010EF40144A455A42F
:101B300066A477A4641975098609970960A371A33F
:101B400082A393A30F900F900F900F90DF91CF91EE
:101B50001F910F91FF90EF90DF90CF90BF90AF90CB
:101B60009F908F907F906F905F904F9008951F92FD
:101B70000F920FB60F9211242F933F938F939F9341
:101B8000AF93BF938091FD039091FE03A091FF035B
:101B9000B09100043091FC0323E0230F2D3720F493
:101BA0000196A11DB11D05C026E8230F0296A11DB7
:101BB000B11D2093FC038093FD039093FE03A0933B
:101BC000FF03B09300048091010490910204A0915E
:101BD0000304B09104040196A11DB11D809301047A
:101BE00090930204A0930304B0930404BF91AF91B7
:101BF0009F918F913F912F910F900FBE0F901F904B
:101C000018952FB7F8946091FD037091FE038091B1
:101C1000FF03909100042FBF08953FB7F89480917F
:101C2000010490910204A0910304B091040426B52C
:101C3000A89B05C02F3F19F00196A11DB11D3FBF04
:101C40006627782F892F9A2F620F711D811D911D94
:101C500042E0660F771F881F991F4A95D1F70895B4
:101C6000CF92DF92EF92FF92CF93DF936B017C01D3
:101C70000E940D0EEB01C114D104E104F10489F0BE
:101C80000E94AA130E940D0E6C1B7D0B683E7340D0
:101C900090F381E0C81AD108E108F108C851DC4F7F
:101CA000EACFDF91CF91FF90EF90DF90CF90089532
:101CB000789484B5826084BD84B5816084BD85B527
:101CC000826085BD85B5816085BDEEE6F0E08081EE
:101CD00081608083E1E8F0E010828081826080830F
:101CE000808181608083E0E8F0E080818160808392
:101CF000E1EBF0E0808184608083E0EBF0E08081C4
:101D000081608083EAE7F0E0808184608083808165
:101D1000826080838081816080838081806880830D
:101D20001092C1000895833081F028F4813099F039
:101D30008230A1F008958730A9F08830B9F084305E
:101D4000D1F4809180008F7D03C0809180008F77D7
:101D500080938000089584B58F7702C084B58F7D0D
:101D600084BD08958091B0008F7703C08091B0004A
:101D70008F7D8093B0000895CF93DF9390E0FC01B6
:101D8000E458FF4F2491FC01E057FF4F84918823D2
:101D900049F190E0880F991FFC01E854FF4FA5918D
:101DA000B49182559F4FFC01C591D4919FB76111A9
:101DB00008C0F8948C91209582238C93888182238B
:101DC0000AC0623051F4F8948C91322F30958323FD
:101DD0008C938881822B888304C0F8948C91822B09
:101DE0008C939FBFDF91CF9108950F931F93CF9353
:101DF000DF931F92CDB7DEB7282F30E0F901E85905
:101E0000FF4F8491F901E458FF4F1491F901E05715
:101E1000FF4F04910023C9F0882321F069830E94B9
:101E2000930E6981E02FF0E0EE0FFF1FE255FF4FA8
:101E3000A591B4919FB7F8948C91611103C010954E
:101E4000812301C0812B8C939FBF0F90DF91CF9195
:101E50001F910F910895CF93DF93282F30E0F90160
:101E6000E859FF4F8491F901E458FF4FD491F901EB
:101E7000E057FF4FC491CC2391F081110E94930E43
:101E8000EC2FF0E0EE0FFF1FEC55FF4FA591B49142
:101E90002C912D2381E090E021F480E002C080E0CD
:101EA00090E0DF91CF910895FC01818D228D90E02B
:101EB000805C9F4F821B91098F7399270895FC01C5
:101EC000918D828D981731F0828DE80FF11D858DEF
:101ED00090E008958FEF9FEF0895FC01918D828D22
:101EE000981761F0828DDF01A80FB11D5D968C916E
:101EF000928D9F5F9F73928F90E008958FEF9FEF79
:101F0000089581EF90E1892B49F080E090E0892BE2
:101F100029F00E94F11081110C9400000895FC0139
:101F2000848DDF01A80FB11DA35ABF4F2C91848D62
:101F300090E001968F739927848FA689B7892C9397
:101F4000A089B1898C9180648C93938D848D981332
:101F500006C00288F389E02D80818F7D80830895FB
:101F6000CF93DF93EC01888D8823C9F0EA89FB8940
:101F7000808185FD05C0A889B9898C9186FD0FC037
:101F80000FB607FCF5CF808185FFF2CFA889B9890C
:101F90008C9185FFEDCFCE010E948F0FE7CFDF91AF
:101FA000CF910895CF92DF92FF920F931F93CF931B
:101FB000DF931F92CDB7DEB76C0181E0D601589652
:101FC0008C9358975B969C915B975C968C915C97F1
:101FD000981307C05096ED91FC915197808185FD33
:101FE0002EC0F601038D10E00F5F1F4F0F731127F6
:101FF000F02EF601848DF81211C00FB607FCF9CF50
:10200000D6015096ED91FC915197808185FFF1CFDB
:10201000C60169830E948F0F6981EBCF838DE80F22
:10202000F11DE35AFF4F6083D6015B960C935B97DB
:102030005296ED91FC915397808180620CC0D6013D
:102040005696ED91FC91579760835096ED91FC91D7
:10205000519780818064808381E090E00F90DF91D0
:10206000CF911F910F91FF90DF90CF900895BF9275
:10207000CF92DF92EF92FF92CF93DF93EC016A0150
:102080007B01B22EE889F98982E08083411581EED7
:10209000580761057105A1F060E079E08DE390E0FB
:1020A000A70196010E94E615215031094109510905
:1020B0005695479537952795211580E1380798F073
:1020C000E889F989108260E874E88EE190E0A70160
:1020D00096010E94E6152150310941095109569592
:1020E000479537952795EC85FD853083EE85FF85EF
:1020F0002083188EEC89FD89B082EA89FB89808172
:1021000080618083EA89FB89808188608083EA8995
:10211000FB89808180688083EA89FB8980818F7D4B
:102120008083DF91CF91FF90EF90DF90CF90BF90B1
:1021300008951F920F920FB60F9211242F938F9331
:102140009F93EF93FF93E0911504F0911604808123
:10215000E0911B04F0911C0482FD12C090818091DB
:102160001E048F5F8F7320911F04821751F0E0913E
:102170001E04F0E0EB5FFB4F958F80931E0401C0BF
:102180008081FF91EF919F918F912F910F900FBEC2
:102190000F901F9018951F920F920FB60F92112457
:1021A0002F933F934F935F936F937F938F939F935F
:1021B000AF93BF93EF93FF9385E094E00E948F0F5E
:1021C000FF91EF91BF91AF919F918F917F916F910F
:1021D0005F914F913F912F910F900FBE0F901F90E5
:1021E000189585E094E00E94540F21E0892B09F4B2
:1021F00020E0822F0895109208041092070488EEC0
:1022000093E0A0E0B0E08093090490930A04A093C7
:102210000B04B0930C0487E692E09093060480933D
:10222000050485EC90E0909312048093110484ECF3
:1022300090E0909314048093130480EC90E09093CA
:1022400016048093150481EC90E090931804809319
:10225000170482EC90E090931A048093190486ECA2
:1022600090E090931C0480931B0410921E04109223
:102270001F0410922004109221040895CF92DF923F
:10228000EF92FF920F931F93CF93DF937C016A012C
:10229000EB0100E010E00C151D0571F06991D7010C
:1022A000ED91FC910190F081E02DC7010995892BFA
:1022B00019F00F5F1F4FEFCFC801DF91CF911F9132
:1022C0000F91FF90EF90DF90CF9008956115710509
:1022D00081F0DB010D900020E9F7AD01415051097B
:1022E000461B570BDC01ED91FC910280F381E02D40
:1022F000099480E090E008950C946611DC01ED9162
:10230000FC910190F081E02D099463E772E00C9458
:1023100066110F931F93CF93DF93EC010E94661118
:102320008C01CE010E948511800F911FDF91CF910A
:102330001F910F9108958F929F92AF92BF92CF926B
:10234000DF92EF92FF920F931F93CF93DF93CDB75E
:10235000DEB7A1970FB6F894DEBF0FBECDBF7C01EC
:10236000C42EE52FCB01D22E19A221E02D1510F09D
:102370002AE0D22E8E010F5D1F4F8D2C912CA12CA7
:10238000B12C6C2D7E2FA50194010E94E6158C2D99
:10239000D29E80191124015011098A3014F4805DF5
:1023A00001C0895CF8018083211531054105510583
:1023B00021F0C22EE32FCA01E4CFB801C7010E9469
:1023C0006611A1960FB6F894DEBF0FBECDBFDF91A8
:1023D000CF911F910F91FF90EF90DF90CF90BF9022
:1023E000AF909F908F900895CF92DF92EF92FF92DF
:1023F0000F931F93CF93DF93EC016A017B012115AB
:10240000310579F4E881F9810190F081E02D642FA4
:10241000DF91CF911F910F91FF90EF90DF90CF90C0
:1024200009942A303105E9F477FF1AC06DE20E9461
:102430007E118C0144275527BA014C195D096E099C
:102440007F092AE0CE010E949B11800F911FDF912E
:10245000CF911F910F91FF90EF90DF90CF90089553
:102460002AE0B701A601CE01DF91CF911F910F9114
:10247000FF90EF90DF90CF900C949B110F931F93E0
:10248000CF93DF93EC019A01AB01662757FD60956E
:10249000762F0E94F4118C01CE010E948511800FCD
:1024A000911FDF91CF911F910F9108954F925F92ED
:1024B0006F927F928F929F92AF92BF92CF92DF9254
:1024C000EF92FF920F931F93CF93DF93EC016A017A
:1024D0007B01B22E9A01AB01C701B6010E94C6155D
:1024E000882319F066E772E027C026013701E894D7
:1024F00077F82FEF3FEF4FE75FE7C301B2010E948C
:10250000C61581110DC02FEF3FEF4FE75FE7C30105
:10251000B2010E94101418161CF46AE772E00CC095
:102520002FEF3FEF4FE75FE4C701B6010E945F1551
:102530001816ACF46EE772E0CE01DF91CF911F91D7
:102540000F91FF90EF90DF90CF90BF90AF909F9052
:102550008F907F906F905F904F900C9466112FEF4B
:102560003FEF4FE75FECC701B6010E94101487FDF3
:10257000E1CF20E030E0A901C701B6010E941014AC
:1025800087FF0AC06DE2CE010E947E118C01F7FA2E
:10259000F094F7F8F09402C000E010E0A12C60E0A5
:1025A00070E080E09FE3AB1441F020E030E040E2D7
:1025B00051E40E941414A394F6CF9B01AC01C7010F
:1025C000B6010E94AC136B017C010E9481142B01A7
:1025D0003C010E94AD149B01AC01C701B6010E94F1
:1025E000AB136B017C012AE0B301A201CE010E9472
:1025F0009B11080F191FBB2039F06BEE71E0CE0163
:102600000E946611080F191F7B2C772041F120E0F2
:1026100030E040E251E4C701B6010E9463156B014E
:102620007C010E947C144B01AA2497FCA094BA2C34
:102630002AE030E0B501A401CE010E94F411080F98
:10264000191FC501B4010E94AF149B01AC01C70161
:10265000B6010E94AB136B017C017A94D6CFC801FE
:10266000DF91CF911F910F91FF90EF90DF90CF906E
:10267000BF90AF909F908F907F906F905F904F90A2
:1026800008950F931F93CF93DF93EC010E9456128E
:102690008C01CE010E948511800F911FDF91CF9197
:1026A0001F910F9108954F925F926F927F92AF9218
:1026B000BF92CF92DF92EF92FF920F931F93CF932F
:1026C000DF93CDB7DEB729013A01621B730B840B90
:1026D000950B29893A894B895C892A193B094C0950
:1026E0005D09298B3A8B4B8B5C8B9B01AC01698913
:1026F0007A898B899C890E94CA15E418F508060915
:102700001709A80197010E9408162A0D3B1D4C1DB0
:102710005D1DCA01B901DF91CF911F910F91FF900B
:10272000EF90DF90CF90BF90AF907F906F905F90D1
:102730004F90089508950E94580E0E949A130E9487
:10274000BF02C1E8DFE00E9455022097E1F30E943A
:10275000810FF9CF08955058BB27AA270ED075C115
:1027600066D130F06BD120F031F49F3F11F41EF4AC
:102770005BC10EF4E095E7FB51C1E92F77D180F3FF
:10278000BA17620773078407950718F071F49EF56E
:102790008FC10EF4E0950B2EBA2FA02D0B01B901BD
:1027A00090010C01CA01A0011124FF27591B99F0C7
:1027B000593F50F4503E68F11A16F040A22F232FD3
:1027C000342F4427585FF3CF469537952795A79523
:1027D000F0405395C9F77EF41F16BA0B620B730BCA
:1027E000840BBAF09150A1F0FF0FBB1F661F771F3B
:1027F000881FC2F70EC0BA0F621F731F841F48F4F0
:10280000879577956795B795F7959E3F08F0B3CF75
:102810009395880F08F09927EE0F9795879508955F
:10282000D9D008F481E008950CD00FC107D140F051
:10283000FED030F021F45F3F19F0F0C0511139C1E2
:10284000F3C014D198F39923C9F35523B1F3951B21
:10285000550BBB27AA2762177307840738F09F5FC1
:102860005F4F220F331F441FAA1FA9F333D00E2E30
:102870003AF0E0E830D091505040E695001CCAF79D
:1028800029D0FE2F27D0660F771F881FBB1F261762
:1028900037074807AB07B0E809F0BB0B802DBF0135
:1028A000FF2793585F4F2AF09E3F510568F0B6C04E
:1028B00000C15F3FECF3983EDCF386957795679512
:1028C000B795F7959F5FC9F7880F911D96958795E6
:1028D00097F90895E1E0660F771F881FBB1F621705
:1028E00073078407BA0720F0621B730B840BBA0BC3
:1028F000EE1F88F7E095089504D06894B111D9C00F
:102900000895BCD088F09F5790F0B92F9927B75100
:10291000A0F0D1F0660F771F881F991F1AF0BA95A3
:10292000C9F712C0B13081F0C3D0B1E00895C0C082
:10293000672F782F8827B85F39F0B93FCCF3869599
:1029400077956795B395D9F73EF4909580957095F6
:1029500061957F4F8F4F9F4F0895E89409C097FB73
:102960003EF490958095709561957F4F8F4F9F4F66
:102970009923A9F0F92F96E9BB279395F6958795AA
:1029800077956795B795F111F8CFFAF4BB0F11F46D
:1029900060FF1BC06F5F7F4F8F4F9F4F16C0882314
:1029A00011F096E911C0772321F09EE8872F762F4A
:1029B00005C0662371F096E8862F70E060E02AF08B
:1029C0009A95660F771F881FDAF7880F9695879577
:1029D00097F90895990F0008550FAA0BE0E8FEEF4C
:1029E00016161706E807F907C0F012161306E407D3
:1029F000F50798F0621B730B840B950B39F40A26CC
:102A000061F0232B242B252B21F408950A2609F4A9
:102A1000A140A6958FEF811D811D089597F99F67AD
:102A200080E870E060E008959FEF80EC0895002456
:102A30000A941616170618060906089500240A9423
:102A400012161306140605060895092E0394000CA9
:102A500011F4882352F0BB0F40F4BF2B11F460FF38
:102A600004C06F5F7F4F8F4F9F4F089557FD905861
:102A7000440F551F59F05F3F71F04795880F97FB42
:102A8000991F61F09F3F79F08795089512161306FC
:102A90001406551FF2CF4695F1DF08C0161617062B
:102AA0001806991FF1CF8695710561050894089560
:102AB000E894BB2766277727CB0197F908958ADF2B
:102AC00008F48FEF08950BD0C0CFB1DF28F0B6DF48
:102AD00018F0952309F0A2CFA7CF1124EACFC6DFC3
:102AE000A0F3959FD1F3950F50E0551F629FF00121
:102AF000729FBB27F00DB11D639FAA27F00DB11D7A
:102B0000AA1F649F6627B00DA11D661F829F222702
:102B1000B00DA11D621F739FB00DA11D621F839F89
:102B2000A00D611D221F749F3327A00D611D231F5F
:102B3000849F600D211D822F762F6A2F11249F57AD
:102B400050408AF0E1F088234AF0EE0FFF1FBB1FD0
:102B5000661F771F881F91505040A9F79E3F51056F
:102B600070F05CCFA6CF5F3FECF3983EDCF3869528
:102B700077956795B795F795E7959F5FC1F7FE2B1A
:102B8000880F911D9695879597F9089523DF880BF7
:102B9000990B0895DB018F939F930E942716BF9195
:102BA000AF91A29F800D911DA39F900DB29F900D9C
:102BB00011240895991B79E004C0991F961708F015
:102BC000961B881F7A95C9F780950895A1E21A2E61
:102BD000AA1BBB1BFD010DC0AA1FBB1FEE1FFF1FC1
:102BE000A217B307E407F50720F0A21BB30BE40B11
:102BF000F50B661F771F881F991F1A9469F7609558
:102C00007095809590959B01AC01BD01CF01089511
:102C1000052E97FB1EF400940E941F1657FD07D047
:102C20000E94E61507FC03D04EF40C941F16509535
:102C30004095309521953F4F4F4F5F4F08959095A8
:102C40008095709561957F4F8F4F9F4F08950E949B
:102C50003816A59F900DB49F900DA49F800D911DD7
:102C600011240895EE0FFF1F0590F491E02D0994B3
:102C7000A29FB001B39FC001A39F700D811D1124BD
:102C8000911DB29F700D811D1124911D0895F8941E
:022C9000FFCF74
:102C920001000000050000000000803F0000803FAE
:102CA2000000803F00008042436F6C6F72207365AA
:102CB2006E736F722072656164696E67733A005257
:102CC2003A0900473A0900423A0900436F6C6F72B1
:102CD2002073656E736F7220287363616C65642064
:102CE200746F203820626974293A0048756520287B
:102CF200382D626974293A09004779726F2044437A
:102D0200204F66667365743A20004779726F204ED1
:102D12006F697365204C6576656C3A20006779723D
:102D22006F416E676C650050726573732067207423
:102D32006F20636F6E74696E7565000A57616974FE
:102D4200696E6720666F72205361626572746F6F7D
:102D5200746820746F20706F7765722075702E2EE4
:102D62002E00496E697469616C697A696E672053D5
:102D720061626572746F6F74682E2E2E000A53742E
:102D82006F7070696E67206D6F746F72732E2E2E66
:102D920000417474616368696E6720736572766F4F
:102DA200732E2E2E0054435333343732352049329A
:102DB2004320636F6C6F722073656E736F720020B5
:102DC2006E6F740020666F756E64004C3347443238
:102DD200304820493243206779726F2073656E73E1
:102DE2006F720000000000C50598056D0575058825
:102DF20005970500000000D20F3E11540F6D0F5FC2
:102E02000FB00F0D0A006E616E00696E66006F767C
:022E1200660058
:00000001FF
