:1000000017C1000046C1000044C1000042C1000009
:1000100040C100003EC100003CC100003AC10000E8
:1000200038C1000036C1000034C1000032C10000F8
:1000300030C100000C94260C2CC100002AC1000025
:1000400028C100002EC4000024C1000022C100000D
:1000500020C100001EC100001CC100000C94510C06
:1000600018C100000C94820F0C94B80F12C100004C
:1000700010C100000EC100000CC100000AC1000048
:100080003DC4000006C1000004C1000002C1000020
:1000900000C10000FEC00000FCC000000C9471080C
:1000A000F8C00000F6C0000056C40000F2C0000016
:1000B000F0C00000EEC00000ECC0000079C40000F9
:1000C000E8C00000E6C00000E4C00000E2C000009C
:1000D000E0C00000DEC00000DCC00000DAC00000AC
:1000E000D8C000006A0D6D0D5C0D600D660DA40D8D
:1000F000710D750D7B0D7F0D830D890D8D0D910D8E
:10010000A40D970D9B0D9F0D00000A0B02090C0D0D
:100110000E080703040100000000000000000000BA
:1001200000000000000000000000000000000000CF
:10013000000000001211100000000000000000008C
:1001400000000000000000000000000000000102AC
:1001500010202008081020401020408002010201D9
:100160000804020101020408102040808040201091
:1001700008040201800402018040201008040201EA
:100180000804020101020408102040800102040852
:10019000102040800505050507050808080802022B
:1001A00002020A0A08080404040401010101010111
:1001B00001010303030303030303040707070C0CF4
:1001C0000C0C0C0C0C0C02020202060606060606BB
:1001D00006060B0B0B0B0B0B0B0B00002000230078
:1001E000260029002C002F0032000001000003012E
:1001F0000601090100002200250028002B002E0026
:100200003100340002010000050108010B0100006B
:100210002100240027002A002D00300033000101B6
:100220000000040107010A0129028A07C70BEA0F2F
:1002300011241FBECFEFD1E2DEBFCDBF00E00CBF67
:1002400013E0A0E0B2E0E8EDFBE200E00BBF02C08B
:1002500007900D92A238B107D9F725E0A2E8B3E0E4
:1002600001C01D92A83CB207E1F712E0C0E3D2E062
:1002700000E006C022970109FE010BBF0E94D715BE
:10028000C832D10780E00807A9F70E9442130C94F6
:10029000EA15B6CECF92DF92EF92FF926B017C010E
:1002A00061E08DE00E94DE0DF694E794D794C79448
:1002B000C701B6010E94CA0C60E08DE00E94DE0D0D
:1002C000C701B601FF90EF90DF90CF900C94CA0C5D
:1002D0004F925F926F927F92AF92BF92CF92DF92D6
:1002E000EF92FF920F931F93CF93DF936BE572E032
:1002F0008BE295E00E946B10C8EED3E0C12CD12CAC
:10030000760181EB93E00E94A60A8091B30390915D
:10031000B403AA2797FDA095BA2FC80ED91EEA1ECE
:10032000FB1E219771F7C701B60128EE33E040E0CC
:1003300050E00E94AB15CA01B901309387032093A6
:1003400086034AE050E08BE295E00E9424116CE6BF
:1003500072E08BE295E00E946B10C8EED3E081EB77
:1003600093E00E94A60AA090B303B090B40300915A
:10037000860310918703B501601B710B882777FDF9
:100380008095982F0E9453146B017C01409082034A
:10039000509083036090840370908503A3019201C1
:1003A0000E94031518164CF4C0928203D092830366
:1003B000E0928403F09285031DC0A301920150587E
:1003C000C701B6010E94B41387FF14C066277727C0
:1003D0006A197B09601B710B882777FD8095982F20
:1003E0000E94531460938203709383038093840369
:1003F00090938503219709F0B2CF20E030E048ECDC
:1004000052E4609182037091830380918403909100
:1004100085030E94B813AB01BC0140938203509343
:100420008303609384037093850324E030E08BE2C0
:1004300095E0DF91CF911F910F91FF90EF90DF90AA
:10044000CF90BF90AF907F906F905F904F900C9443
:10045000111281EC93E0D9D28EEB93E0D6D281EBEE
:1004600093E00E94630A41E050E060E070E08CEAB3
:1004700093E0B7D724EF31E043E06BE08AE993E003
:100480000E94CF0B24EF31E049E06AE088E893E076
:100490000C94CF0B8BE295E00E949D0E61E08EE004
:1004A0000E94DE0DE0912B05F0912C050190F0816A
:1004B000E02D6AEA8BE295E019958BE295E00E94C7
:1004C0009D0E60E08EE00C94DE0DCF93DF9300D0A4
:1004D0001F92CDB7DEB790E899838A836B83860F2E
:1004E0008F778C838BE295E00E949D0E61E08EE019
:1004F0000E94DE0DE0912B05F0912C050280F38126
:10050000E02D44E050E0BE016F5F7F4F8BE295E04D
:1005100019958BE295E00E949D0E60E08EE00E94AE
:10052000DE0D0F900F900F900F90DF91CF910895F7
:1005300061E088E00E94A50D60E088E00E94DE0D89
:1005400061E08EE00E94A50D60E08EE00E94DE0D6D
:1005500026E040E056E960E070E08BE295E00E9422
:10056000220F69E872E08BE295E00E94761060ED60
:1005700077E080E090E00E94CA0C60EB72E08BE2D2
:1005800095E00E946B1086DF6BEC72E08BE295E0E9
:100590000E946B1060E088E098DF60E08BE095DF00
:1005A0006FED72E08BE295E00E94761065E070E0FE
:1005B00081EC93E0F5D26CE870E081EC93E028D315
:1005C00066E070E08EEB93E0EBD26CE170E08EEBD6
:1005D00093E01ED361E08DE00E94A50D63EF72E011
:1005E0008BE295E00E946B108CEA93E01DD781119D
:1005F00006C06DE073E08BE295E00E946B1062E153
:1006000073E08BE295E00E94761069E173E08BE283
:1006100095E00E946B1042E050E063E070E081EBF7
:1006200093E00E943E0B811106C06DE073E08BE207
:1006300095E00E946B1062E173E08BE295E00E940E
:10064000761081EB93E06DD743DE60E08BE00E9493
:10065000A50D48E062E281EB93E03EC7CF9364EFE3
:1006600071E080E090E016DE64EF71E080E090E001
:1006700011DE61E373E08BE295E00E946B108BE288
:1006800095E00E94130E029734F468EE73E080E068
:1006900090E000DEF4CF41E060E070E08BE295E0B6
:1006A0000E948F12C62F88E010DF68EE73E080E0B2
:1006B00090E00E94CA0C60E088E007DF60E08BE019
:1006C00004DF68EE73E080E090E00E94CA0C6C2FBB
:1006D00089E0FBDE68EE73E080E090E00E94CA0CE7
:1006E00060E088E0F2DE60E08BE0CF91EECE6FE379
:1006F00073E08BE295E00E9476108BE295E00E9419
:100700002C0E8736910531F060ED77E080E090E0C7
:10071000C1DDF3CFA3DF68EE73E080E090E0BACDF7
:10072000CF92DF92EF92FF920F931F93CF93DF93BD
:100730006C018B017A01EC01CB53DC4F888187FF80
:1007400004C0FB011182108223C02CE02C9DC0014B
:100750002D9D900D11242881AC01420F511D27FDC4
:100760005A952091C40330E0421753078CF4288136
:10077000AC01420F511D27FD5A959A01FA01EE0F67
:10078000FF1FE20FF31FE753FC4F208126FD19C026
:1007900088818F5F88838CE08C9D90018D9D300DCA
:1007A00011248881A901480F511D87FD5A95809118
:1007B000C40390E048175907B4F488818C303CF1A9
:1007C00012C02881820F911D27FD9A95FC01EE0F22
:1007D000FF1FE80FF91FE753FC4F808160E08F7324
:1007E0000E94DE0DD5CFF80180819181049680347E
:1007F0009C4918F480E49CE904C0F801808191814F
:100800000496F701918380838FEF888341C0F801BC
:10081000808191814881B901640F711D47FD7A95EE
:10082000AB01FB01EE0FFF1FE40FF51FE753FC4F79
:1008300041815281840F951FF701918380838881C4
:10084000A901480F511D87FD5A95FA01EE0FFF1FB0
:10085000E40FF51FE753FC4F808186FF19C08881A4
:10086000280F311D87FD3A95F901EE0FFF1FE20FAA
:10087000F31FE753FC4F808161E08F73DF91CF91CD
:100880001F910F91FF90EF90DF90CF900C94DE0DB1
:10089000DF91CF911F910F91FF90EF90DF90CF905C
:1008A00008951F920F920FB60F9211240BB60F925C
:1008B0002F933F934F935F936F937F938F939F9368
:1008C000AF93BF93EF93FF9348E850E064E870E084
:1008D00081E090E025DFFF91EF91BF91AF919F9173
:1008E0008F917F916F915F914F913F912F910F90D9
:1008F0000BBE0F900FBE0F901F9018951F920F9276
:100900000FB60F9211240BB60F922F933F934F9374
:100910005F936F937F938F939F93AF93BF93EF9367
:10092000FF9348E950E064E970E082E090E0F8DE8F
:10093000FF91EF91BF91AF919F918F917F916F91B7
:100940005F914F913F912F910F900BBE0F900FBE73
:100950000F901F9018951F920F920FB60F921124AF
:100960000BB60F922F933F934F935F936F937F93A9
:100970008F939F93AF93BF93EF93FF9348EA50E019
:1009800064EA70E083E090E0CBDEFF91EF91BF91ED
:10099000AF919F918F917F916F915F914F913F9117
:1009A0002F910F900BBE0F900FBE0F901F901895B8
:1009B0001F920F920FB60F9211240BB60F922F9326
:1009C0003F934F935F936F937F938F939F93AF93D7
:1009D000BF93EF93FF9348E251E064E271E080E05F
:1009E00090E09EDEFF91EF91BF91AF919F918F912B
:1009F0007F916F915F914F913F912F910F900BBE1F
:100A00000F900FBE0F901F9018952091C4032033B4
:100A1000A0F431E0320F3093C403FC012083822F15
:100A200090E0FC01EE0FFF1FE80FF91FE753FC4FAA
:100A300088EB9BE09283818308952FEFFC01208354
:100A40000895DF92EF92FF920F931F93CF93DF935E
:100A5000EC01D62E7A0189018881803308F068C0C4
:100A600061E08D2D0E94A50D8881A82FB0E0FD01C9
:100A7000EE0FFF1FEA0FFB1FE753FC4F2D2D2F73C7
:100A80009081907C922B908360E272E06E197F09D6
:100A900077FF02C06D5F7F4F759567957595679578
:100AA000698340E659E0401B510B57FF02C04D5F80
:100AB0005F4F55954795559547954A836CE00E9441
:100AC0007D159CE0899FB001112420E030E0A90150
:100AD000460F571FFA01EE0FFF1FE40FF51FE753F4
:100AE000FC4F908196FD18C02F5F3F4F2C30310591
:100AF00071F790E08130910521F51092800082E03D
:100B0000809381001092850010928400B19A8091A8
:100B10006F00826080936F00888190E0FC01EE0F8F
:100B2000FF1FE80FF91FE753FC4F8081806480832B
:100B30008881DF91CF911F910F91FF90EF90DF900F
:100B400008958230910569F41092900082E08093BC
:100B50009100109295001092940088BB80937100D0
:100B6000DBCF8330910569F41092A00082E080937E
:100B7000A1001092A5001092A40089BB809372007E
:100B8000CBCF892B49F61092200182E0809321017E
:100B900010922501109224018ABB80937300BCCF70
:100BA00020E639E040E252E04CCFFC018081803306
:100BB00070F5918128E830E0291B310997FD3395C4
:100BC000220F331F220F331F621773077CF09281AD
:100BD00028E532E0291B310997FD3395220F331F99
:100BE000220F331F621773070CF49B012250310947
:100BF000220F331F4FB7F89490E0FC01EE0FFF1F58
:100C0000E80FF91FE753FC4F328321834FBF08954C
:100C10004F925F926F927F92AF92BF92CF92DF928C
:100C2000EF92FF920F931F93CF93DF93EC0160320B
:100C300082E078070CF040C077FD06C0653B710587
:100C40002CF064EB70E002C060E070E0898128E87D
:100C500030E0281B310987FD3395220F331F220F07
:100C6000331F5901CC24B7FCC094DC2C882777FDB6
:100C70008095982F2A8148E552E0421B510927FDB3
:100C80005395440F551F440F551F2A01662457FCE6
:100C90006094762C7F926F925F924F9214EBE12ECC
:100CA000F12C00E010E020E030E0A9010E94FC12ED
:100CB0000F900F900F900F90CE01DF91CF911F9169
:100CC0000F91FF90EF90DF90CF90BF90AF907F900B
:100CD0006F905F904F9069CF8091890490E0209150
:100CE0008A04821B9109089520918A0480918904C5
:100CF000281750F4E22FF0E0E557FB4F808190E099
:100D00002F5F20938A0408958FEF9FEF0895E0915D
:100D10008A0480918904E81730F4F0E0E557FB4F2E
:100D2000808190E008958FEF9FEF08950895CF920E
:100D3000DF92EF92FF920F931F93CF93DF937C018B
:100D4000CB018A0120916504222389F0EB016B011C
:100D5000C40ED51ECC15DD0561F06991D701ED916A
:100D6000FC910190F081E02DC7011995F3CF642F1C
:100D70008FD1C801DF91CF911F910F91FF90EF901C
:100D8000DF90CF900895CF93DF931F92CDB7DEB75A
:100D90006983209165042223D1F0209166042032DA
:100DA00040F021E030E0FC013383228380E090E0DA
:100DB00014C080916704E82FF0E0E859FB4F998157
:100DC00090838F5F809367048093660404C061E022
:100DD000CE0101965DD181E090E00F90DF91CF913F
:100DE0000895FC011382128248EE53E060E070E047
:100DF000448355836683778387E593E0918380837B
:100E0000089510928A041092890410926704109237
:100E1000660483C081E08093650460938804109227
:100E20006704109266040895F5CF0F93062F21E012
:100E30004091660468E674E080918804D2D01092F4
:100E4000670410926604109265040F9108958F92C2
:100E50009F92AF92BF92CF92DF92EF92FF920F9349
:100E60001F93CF93DF93EC01F62ED42E4801590146
:100E7000EE2009F1CFDF1E2D143008F013E01150E1
:100E8000B8F0E881F98128E0129FB0011124A50192
:100E9000940104C056954795379527956A95D2F7E2
:100EA000CA01B9010190F081E02DCE011995E7CF7B
:100EB00060E0CE01BADF4D2D413208F040E22C2D2A
:100EC0006BE874E08F2D45D010928A0480938904DA
:100ED000DF91CF911F910F91FF90EF90DF90CF9016
:100EE000BF90AF909F908F900895CF92EF920F9305
:100EF0001F93C22EE12C00E010E09801A8DF1F91A3
:100F00000F91EF90CF90089521E0EFCF21E0EDCF4A
:100F100061E08BCF89E594E064CF1092180581E001
:100F2000809316051092150561E084E147D661E0D3
:100F300085E144D6E9EBF0E080818E7F808380817B
:100F40008D7F808388E48093B80085E48093BC0023
:100F50000895413208F043C0909118059111FCCFDB
:100F600091E090931805209316052FEF2093AB0482
:100F70001092F004240F2093EF04909317059091A2
:100F80001705880F892B80931705809115058130EF
:100F900061F410921505809117058093BB00809134
:100FA000BC0083FDF8CF85EC01C085EE8093BC00CA
:100FB000809118058130E1F38091F004841710F4DA
:100FC0004091F00421EF34E0FB01D9018A2F821B0C
:100FD000841718F48D918193F9CF842F089580E0C0
:100FE00008950F93413208F04AC09091180591116D
:100FF000FCCF92E090931805009316059FEF909315
:10100000AB041092F0044093EF04FB0161EF74E035
:10101000DB019A2F961B941718F491919D93F9CFA9
:101020001092170590911705880F892B809317054B
:1010300080911505813061F4109215058091170596
:101040008093BB008091BC0083FDF8CF85EC01C08C
:1010500085EE8093BC00222321F080911805823018
:10106000E1F38091AB048F3F61F08091AB0480325B
:1010700051F08091AB04803341F483E007C081E0FC
:1010800005C080E003C082E001C084E00F910895B4
:10109000613298F420911805243089F46093CD04CE
:1010A000FC018FEC94E0DC012A2F281B261718F492
:1010B00021912D93F9CF80E0089581E0089582E099
:1010C000089585ED8093BC008091BC0084FDFCCF29
:1010D00010921805089585EC8093BC0010921805B5
:1010E00008951F920F920FB60F9211240BB60F9214
:1010F0002F933F934F935F936F937F938F939F9320
:10110000AF93BF93EF93FF938091B900887F8036B0
:1011100009F49DC070F5883209F45CC090F4803108
:1011200009F455C038F4882309F4F3C0883009F471
:101130004EC0F2C0883109F44DC0803209F45EC05F
:10114000EBC0803409F469C050F4803309F456C010
:10115000883309F0E1C08093AB04BDDFDDC080358A
:1011600009F44FC0883509F45DC0883409F0D4C053
:10117000D2C0883909F4C3C0A8F4883709F467C01D
:1011800038F4883609F463C0803709F460C0C4C0FD
:10119000883809F4B4C0803909F45FC0803809F098
:1011A000BBC05BC0803B09F482C038F4803A09F4CC
:1011B00066C0883A09F47BC0AFC0803C09F4A3C084
:1011C000883C09F4A0C0883B09F486C0A5C0809182
:1011D000170510C09091F0048091EF04981770F5F6
:1011E000E091F00481E08E0F8093F004F0E0EF5086
:1011F000FB4F80818093BB0085EC82C08093AB0461
:101200008AC0E091F00481E08E0F8093F004809119
:10121000BB00F0E0EF50FB4F80839091F004809191
:10122000EF046AC0E091F00481E08E0F8093F00437
:101230008091BB00F0E0EF50FB4F8083809116055A
:10124000811169C081E08093150584EA5DC083E067
:10125000809318051092AC04CFCF8091AC048032FB
:1012600008F04DC0E091AC0481E08E0F8093AC0497
:101270008091BB00F0E0E355FB4F8083BDCF2BDFB7
:101280008091AC04803230F4E091AC04F0E0E3559E
:10129000FB4F10826091AC0470E0E0911105F09179
:1012A00012058DEA94E019951092AC0435C084E0E3
:1012B000809318051092CE041092CD04E09113058E
:1012C000F091140519958091CD04811105C081E03C
:1012D0008093CD041092CF04E091CE0481E08E0F74
:1012E0008093CE04F0E0E153FB4F80818093BB00FC
:1012F0009091CE048091CD04981708F47DCF85E8B5
:101300008093BC0009C085EC8093BC001092180546
:1013100003C01092AB04D5DEFF91EF91BF91AF9166
:101320009F918F917F916F915F914F913F912F91FD
:101330000F900BBE0F900FBE0F901F901895DC0101
:10134000ED91FC910190F081E02D19941F93CF93C2
:10135000DF9300D01F92CDB7DEB7162F69E270E0A1
:1013600089E594E029833A834B835C835DDD1068D3
:10137000612F70E089E594E0E2DFE0915904F0919B
:101380005A0429813A814B815C81CA01B9017727CE
:10139000882799270190F081E02D89E594E019953F
:1013A00089E594E00F900F900F900F90DF91CF910F
:1013B0001F91AECDCF93DF93EC0121E030E040E010
:1013C00050E060E0C3DF63E070E080E090E0E2D2F4
:1013D00023E030E040E050E060E0CE01DF91CF91CB
:1013E000B5CFFC01108274836383528341830895D7
:1013F000CF93C62F69E270E089E594E015DDC068FF
:101400006C2F70E089E594E09ADF89E594E080DD57
:1014100041E050E069E270E089E594E077DD89E53C
:1014200094E062DCCF910895CF93DF93EC0189E5DE
:1014300094E0E7DC62E1CE01DBDF843411F080313F
:1014400071F481E088836B817C81CE010CD069814D
:101450007A81CE0120D0CE01ADDF81E001C080E0F5
:10146000DF91CF9108950F931F93CF93DF93EC01FA
:101470008B018881811102C0CE01D6DF980140E046
:1014800050E061E0CE0162DF1C830B83DF91CF91DE
:101490001F910F9108950F931F93CF93DF93EC014A
:1014A0008B018881811102C0CE01BEDF980140E02E
:1014B00050E06FE0CE014ADF1A830983DF91CF91BC
:1014C0001F910F910895FC0183E090E0908787833E
:1014D0001386128614860895EF92FF921F93CF937E
:1014E000DF931F92CDB7DEB77C01162FFC0161851B
:1014F00089E594E049838EDC612F89E594E043DC43
:101500004981642F89E594E03EDC89E594E000DDC3
:10151000F70186830F90DF91CF911F91FF90EF909D
:101520000895CF93DF93EC018F819885029721F482
:1015300040E069E3CE01D0DF40E063E2CE01CCDFE2
:101540004FE660E2CE01DF91CF91C6CF9F92AF927E
:10155000BF92CF92DF92EF92FF920F931F93CF93A0
:10156000DF93EC01698589E594E054DCE09159044E
:10157000F0915A040190F081E02D68EA89E594E049
:10158000199589E594E0C4DC46E0698589E594E035
:10159000BBDCD1D17B0189E594E09EDB06977CF42E
:1015A0008A859B85892BB9F3C6D16E197F098A85F7
:1015B0009B858617970778F781E08C8726C089E599
:1015C00094E092DBA82E89E594E08EDB982E89E5E5
:1015D00094E08ADBE82E89E594E086DBB82E89E585
:1015E00094E082DBF82E89E594E07EDBD92CC12CD7
:1015F000CA28D982C8821B2D00E00E291B830A83CA
:10160000982F88278F299D838C83DF91CF911F91FD
:101610000F91FF90EF90DF90CF90BF90AF909F9091
:1016200008951F93CF93DF931F92CDB7DEB7162F88
:1016300089E594E04983EEDB4981642F89E594E0F4
:10164000A2DB89E594E064DC811111C041E0612FE7
:1016500089E594E059DC89E594E03EDB892B39F09B
:1016600089E594E00F90DF91CF911F913DCB8FEFF3
:101670009FEF0F90DF91CF911F910895EF92FF920E
:101680000F931F93CF93DF937C01EB018A016330AB
:10169000710521F04230510509F04DC0CE0101978E
:1016A000039748F50115110579F04FE050E06BE61E
:1016B000C701B7DF8F3F2FEF920719F001E010E06D
:1016C00012C00130110549F04FE050E06AE6C70151
:1016D000A8DF8F3FEFEF9E0721F4C330D10569F0FB
:1016E00025C000E010E0C330D10529F4873D910505
:1016F000E1F5C2E0D0E02097C9F40115110559F0D9
:101700004FE050E069E6C7018CDF833D910581F130
:101710000130110541F04FE050E068E6C70181DF7C
:10172000833D910541F1C330D10519F00230110517
:1017300011F480E025C0F701D087C783209759F0C6
:10174000D7FD11C023977CF40130110511F48BE60D
:1017500008C08AE606C00130110511F489E601C00F
:1017600088E6F701818781E00BC0C1E0D0E0C3CFFC
:1017700001E010E002C000E010E0C0E0D0E0D6CF11
:10178000DF91CF911F910F91FF90EF9008958FEF10
:101790008093190510921B0510921A050895CF9396
:1017A000DF93DC0170E0FB01E25BFE4FE4911496F5
:1017B000EC931497842F90E0FC01E25BFE4FE491E0
:1017C0001596EC9315976C567E4FFB01C491D0E0B3
:1017D000CC0FDD1FCC50DE4FFE0145915491179682
:1017E0005C934E931697FC01EC56FE4F849190E06B
:1017F000880F991F86529E4FFC014591549119966E
:101800005C934E931897FB016491E62FF0E0EE0F86
:10181000FF1FE25FFD4F859194911B969C938E93E1
:101820001A972F5F3F4F49E3429FC001439F900D9E
:1018300011248E38FFE69F0710F08DE89FE61D9675
:101840009C938E931C97DF91CF9108951F920F92D6
:101850000FB60F9211240BB60F922F933F934F9315
:101860005F936F937F938F939F93AF93BF93EF9308
:10187000FF93E0912005F09121051995FF91EF91DB
:10188000BF91AF919F918F917F916F915F914F9198
:101890003F912F910F900BBE0F900FBE0F901F9096
:1018A00018951F920F920FB60F9211242F933F930A
:1018B0008F939F93AF93BF938091230590912405BD
:1018C000A0912505B09126053091220523E0230F34
:1018D0002D3720F40196A11DB11D05C026E8230F68
:1018E0000296A11DB11D209322058093230590939C
:1018F0002405A0932505B093260580912705909196
:101900002805A0912905B0912A050196A11DB11DB8
:101910008093270590932805A0932905B0932A0565
:10192000BF91AF919F918F913F912F910F900FBEDB
:101930000F901F9018952FB7F89460912305709120
:10194000240580912505909126052FBF08953FB766
:10195000F8948091270590912805A0912905B091D0
:101960002A0526B5A89B05C02F3F19F00196A11D99
:10197000B11D3FBF6627782F892F9A2F620F711DE7
:10198000811D911D42E0660F771F881F991F4A95A0
:10199000D1F70895CF92DF92EF92FF92CF93DF932A
:1019A0006B017C01D4DFEB01C114D104E104F1042B
:1019B00079F074D6CCDF6C1B7D0B683E7340A0F3CE
:1019C00081E0C81AD108E108F108C851DC4FECCF1A
:1019D000DF91CF91FF90EF90DF90CF9008957894B2
:1019E00084B5826084BD84B5816084BD85B5826024
:1019F00085BD85B5816085BDEEE6F0E080818160C2
:101A00008083E1E8F0E010828081826080838081C1
:101A100081608083E0E8F0E0808181608083E1EB99
:101A2000F0E0808184608083E0EBF0E08081816081
:101A30008083E1E9F0E08081826080838081816041
:101A40008083E0E9F0E0808181608083E1EAF0E07A
:101A5000808182608083808181608083E0EAF0E021
:101A6000808181608083E1E2F1E080818260808317
:101A7000808181608083E0E2F1E080818160808309
:101A8000EAE7F0E0808184608083808182608083E7
:101A90008081816080838081806880831092C10012
:101AA000089590E0FC013197E231F10508F04CC057
:101AB000EE58FF4F0C94C715809180008F7703C0BC
:101AC000809180008F7D80938000089580918000B8
:101AD000877FF9CF84B58F7702C084B58F7D84BDB1
:101AE00008958091B0008F7703C08091B0008F7D02
:101AF0008093B0000895809190008F7707C0809107
:101B000090008F7D03C080919000877F809390002C
:101B100008958091A0008F7707C08091A0008F7DED
:101B200003C08091A000877F8093A00008958091DA
:101B300020018F7707C0809120018F7D03C08091A5
:101B40002001877F809320010895CF93DF9390E059
:101B5000FC01E25BFE4F2491FC01EC56FE4F8491A8
:101B6000882349F190E0880F991FFC01E25FFD4F47
:101B7000A591B4918C509E4FFC01C591D4919FB713
:101B8000611108C0F8948C91209582238C938881F0
:101B900082230AC0623051F4F8948C91322F309530
:101BA00083238C938881822B888304C0F8948C9142
:101BB000822B8C939FBFDF91CF9108950F931F933A
:101BC000CF93DF931F92CDB7DEB7282F30E0F90116
:101BD000E85FFE4F8491F901E25BFE4F1491F90139
:101BE000EC56FE4F04910023C1F0882319F069835D
:101BF00058DF6981E02FF0E0EE0FFF1FEC50FE4F41
:101C0000A591B4919FB7F8948C91611103C0109580
:101C1000812301C0812B8C939FBF0F90DF91CF91C7
:101C20001F910F910895FC01818D228D90E0805CC1
:101C30009F4F821B91098F7399270895FC01918D05
:101C4000828D981731F0828DE80FF11D858D90E01F
:101C500008958FEF9FEF0895FC01918D828D981765
:101C600061F0828DDF01A80FB11D5D968C91928D80
:101C70009F5F9F73928F90E008958FEF9FEF08957D
:101C800081EE9FE0892B39F080E090E0892B19F0FC
:101C900098D1811125C080E090E0892B41F080E04F
:101CA00090E0892B21F00E94000081111CC080E08F
:101CB00090E0892B41F080E090E0892B21F00E9498
:101CC0000000811113C080E090E0892BA1F080E03A
:101CD00090E0892B81F00E94000081110AC00895D4
:101CE0000E940000D8CF0E940000E1CF0E940000B7
:101CF000EACF0C9400000895FC01848DDF01A80F49
:101D0000B11DA35ABF4F2C91848D90E001968F7323
:101D10009927848FA689B7892C93A089B1898C9142
:101D200080648C93938D848D981306C00288F38908
:101D3000E02D80818F7D80830895CF93DF93EC0128
:101D4000888D8823C1F0EA89FB89808185FD05C0E3
:101D5000A889B9898C9186FD0EC00FB607FCF5CF16
:101D6000808185FFF2CFA889B9898C9185FFEDCF5D
:101D7000CE01C2DFE8CFDF91CF910895CF92DF92FD
:101D8000FF920F931F93CF93DF931F92CDB7DEB7D0
:101D90006C0181E0D60158968C9358975B969C9184
:101DA0005B975C968C915C97981307C05096ED9169
:101DB000FC915197808185FD2DC0F601038D10E0C7
:101DC0000F5F1F4F0F731127F02EF601848DF8124D
:101DD00010C00FB607FCF9CFD6015096ED91FC91DB
:101DE0005197808185FFF1CFC601698385DF6981C5
:101DF000ECCF838DE80FF11DE35AFF4F6083D601CE
:101E00005B960C935B975296ED91FC915397808172
:101E100080620CC0D6015696ED91FC915797608375
:101E20005096ED91FC91519780818064808381E090
:101E300090E00F90DF91CF911F910F91FF90DF9075
:101E4000CF900895BF92CF92DF92EF92FF92CF93FF
:101E5000DF93EC016A017B01B22EE889F98982E007
:101E60008083411581EE58076105710599F060E0A6
:101E700079E08DE390E0A70196014BD6215031091E
:101E8000410951095695479537952795211580E1C8
:101E9000380790F0E889F989108260E874E88EE1EB
:101EA00090E0A701960135D6215031094109510929
:101EB0005695479537952795EC85FD853083EE85BA
:101EC000FF852083188EEC89FD89B082EA89FB8921
:101ED000808180618083EA89FB898081886080833A
:101EE000EA89FB89808180688083EA89FB89808117
:101EF0008F7D8083DF91CF91FF90EF90DF90CF9027
:101F0000BF9008951F920F920FB60F9211240BB637
:101F10000F922F938F939F93EF93FF93E0913B0545
:101F2000F0913C058081E0914105F091420582FDF0
:101F300012C09081809144058F5F8F732091450579
:101F4000821751F0E0914405F0E0E55DFA4F958F7E
:101F50008093440501C08081FF91EF919F918F9103
:101F60002F910F900BBE0F900FBE0F901F901895E2
:101F70001F920F920FB60F9211240BB60F922F9350
:101F80003F934F935F936F937F938F939F93AF9301
:101F9000BF93EF93FF938BE295E0AEDEFF91EF915D
:101FA000BF91AF919F918F917F916F915F914F9171
:101FB0003F912F910F900BBE0F900FBE0F901F906F
:101FC00018958BE295E02FDE21E0892B09F420E0C3
:101FD000822F089510922E0510922D0588EE93E021
:101FE000A0E0B0E080932F0590933005A0933105D9
:101FF000B093320587E693E090932C0580932B05F0
:1020000085EC90E0909338058093370584EC90E060
:1020100090933A058093390580EC90E090933C05CD
:1020200080933B0581EC90E090933E0580933D05C5
:1020300082EC90E09093400580933F0586EC90E021
:1020400090934205809341051092440510924505F6
:1020500010924605109247050895CF92DF92EF92B5
:10206000FF920F931F93CF93DF937C016A01EB01E3
:1020700000E010E00C151D0571F06991D701ED919C
:10208000FC910190F081E02DC7011995892B19F081
:102090000F5F1F4FEFCFC801DF91CF911F910F91BD
:1020A000FF90EF90DF90CF9008956115710581F05A
:1020B000DB010D900020E9F7AD0141505109461BAD
:1020C000570BDC01ED91FC910280F381E02D199416
:1020D00080E090E00895E9CFDC01ED91FC91019062
:1020E000F081E02D199463E773E0DFCF0F931F9326
:1020F000CF93DF93EC01D9DF8C01CE01F4DF800FA9
:10210000911FDF91CF911F910F9108958F929F9210
:10211000AF92BF92CF92DF92EF92FF920F931F93F5
:10212000CF93DF93CDB7DEB7A1970FB6F894DEBF9C
:102130000FBECDBF7C01C42EE52FCB01D22E19A23C
:1021400021E02D1510F02AE0D22E8E010F5D1F4FD9
:102150008D2C912CA12CB12C6C2D7E2FA5019401DE
:10216000D8D48C2DD29E80191124015011098A30A7
:1021700014F4805D01C0895CF8018083211531056C
:102180004105510521F0C22EE32FCA01E5CFB80168
:10219000C7018BDFA1960FB6F894DEBF0FBECDBF8F
:1021A000DF91CF911F910F91FF90EF90DF90CF9033
:1021B000BF90AF909F908F900895CF92DF92EF9253
:1021C000FF920F931F93CF93DF93EC016A017B0182
:1021D0002115310579F4E881F9810190F081E02D34
:1021E000642FDF91CF911F910F91FF90EF90DF90BF
:1021F000CF9019942A303105D9F477FF18C06DE2D9
:102200006BDF8C0144275527BA014C195D096E0913
:102210007F092AE0CE017ADF800F911FDF91CF91F5
:102220001F910F91FF90EF90DF90CF9008952AE0DB
:10223000B701A601CE01DF91CF911F910F91FF90C1
:10224000EF90DF90CF9062CF0F931F93CF93DF93E8
:10225000EC019A01AB01662757FD6095762FADDF43
:102260008C01CE0140DF800F911FDF91CF911F9134
:102270000F9108954F925F926F927F928F929F92EB
:10228000AF92BF92CF92DF92EF92FF920F931F9384
:10229000CF93DF93EC016A017B01B22E9A01AB016F
:1022A000C701B60117D4882319F066E773E024C08C
:1022B00026013701E89477F82FEF3FEF4FE75FE70C
:1022C000C301B20107D481110CC02FEF3FEF4FE7DC
:1022D0005FE7C301B20148D218161CF46AE773E045
:1022E0000BC02FEF3FEF4FE75FE4C701B6018BD381
:1022F0001816A4F46EE773E0CE01DF91CF911F9121
:102300000F91FF90EF90DF90CF90BF90AF909F9094
:102310008F907F906F905F904F90C7CE2FEF3FEFE1
:102320004FE75FECC701B6011FD287FDE3CF20E086
:1023300030E0A901C701B60117D287FF09C06DE2DD
:10234000CE01CADE8C01F7FAF094F7F8F09402C0DF
:1023500000E010E0A12C60E070E080E09FE3AB14AF
:1023600039F020E030E040E251E402D2A394F7CF0C
:102370009B01AC01C701B60193D16B017C0165D211
:102380002B013C018ED29B01AC01C701B60187D164
:102390006B017C012AE0B301A201CE01B7DE080F78
:1023A000191FBB2031F069EC72E0CE017EDE080F10
:1023B000191F7B2C772019F120E030E040E251E436
:1023C000C701B60124D36B017C013AD24B01AA2488
:1023D00097FCA094BA2C2AE030E0B501A401CE010C
:1023E000ECDE080F191FC501B4015DD29B01AC01E1
:1023F000C701B60154D16B017C017A94DBCFC801CF
:10240000DF91CF911F910F91FF90EF90DF90CF90D0
:10241000BF90AF909F908F907F906F905F904F9004
:1024200008950F931F93CF93DF93EC0123DF8C016B
:10243000CE0159DE800F911FDF91CF911F910F9137
:1024400008950F931F93CF93DF93EC0174DA68879D
:1024500079878A879B87E881F9810084F185E02D5F
:10246000CE01199597FF14C066DA088519852A856B
:102470003B85601B710B820B930B0C811D812E81A0
:102480003F81601771078207930728F38FEF9FEF53
:10249000DF91CF911F910F910895FF920F931F939A
:1024A000CF93DF93EC018B01F42ECE01CADF9C01A8
:1024B00097FD28C08D32910519F1C0970A9710F148
:1024C000FF2019F02E323105F9F001301105F9F035
:1024D0000230110569F42D30310551F034F42950E2
:1024E00031092230310520F012C02032310579F453
:1024F000E881F9810680F781E02DCE011995D5CFCD
:102500008DE203C0C90105C08EE290E002C08FEFEA
:102510009FEFDF91CF911F910F91FF900895CF9280
:10252000DF92FF920F931F93CF93DF9300D01F9200
:10253000CDB7DEB76C01042F40E0AFDFFC0197FDA3
:1025400049C020E030E0A901F12C112707FD1095CA
:10255000E017F107E1F0ED32F105B9F0CF01C097D6
:102560000A97A8F4AAE0B0E018D39B01AC01CF0110
:10257000AA2797FDA095BA2F280F391F4A1F5B1F66
:10258000205331094109510902C0FF24F394D601B7
:10259000ED91FC910680F781E02DC60129833A83F5
:1025A0004B835C831995C6014CDFFC01C0972981E0
:1025B0003A814B815C810A9758F2E017F10741F2AA
:1025C000FF2061F066277727CB01621B730B840B1A
:1025D000950B06C060E070E0CB0102C0CA01B901F2
:1025E0000F900F900F900F90DF91CF911F910F914F
:1025F000FF90DF90CF9008954F925F926F927F92FD
:10260000AF92BF92CF92DF92EF92FF920F931F9300
:10261000CF93DF93CDB7DEB729013A01621B730B6D
:10262000840B950B2A893B894C895D892A193B09C2
:102630004C095D092A8B3B8B4C8B5D8B9B01AC015C
:102640006A897B898C899D8949D2E418F508060935
:102650001709A80197017FD22A0D3B1D4C1D5D1D56
:10266000CA01B901DF91CF911F910F91FF90EF90B7
:10267000DF90CF90BF90AF907F906F905F904F9022
:1026800008950895ACD9FDDF0E949802C0E4DEE011
:102690000E9477032097E1F3F3DAFACF08955058B8
:1026A000BB27AA270ED075C166D130F06BD120F0C0
:1026B00031F49F3F11F41EF45BC10EF4E095E7FB8B
:1026C00051C1E92F77D180F3BA17620773078407E6
:1026D000950718F071F49EF58FC10EF4E0950B2E5E
:1026E000BA2FA02D0B01B90190010C01CA01A00164
:1026F0001124FF27591B99F0593F50F4503E68F1BF
:102700001A16F040A22F232F342F4427585FF3CFFF
:10271000469537952795A795F0405395C9F77EF4D0
:102720001F16BA0B620B730B840BBAF09150A1F019
:10273000FF0FBB1F661F771F881FC2F70EC0BA0F9F
:10274000621F731F841F48F4879577956795B79527
:10275000F7959E3F08F0B3CF9395880F08F099271F
:10276000EE0F979587950895D9D008F481E00895E4
:102770000CD00FC107D140F0FED030F021F45F3F04
:1027800019F0F0C0511139C1F3C014D198F3992355
:10279000C9F35523B1F3951B550BBB27AA27621725
:1027A0007307840738F09F5F5F4F220F331F441F6A
:1027B000AA1FA9F333D00E2E3AF0E0E830D09150A2
:1027C0005040E695001CCAF729D0FE2F27D0660F8F
:1027D000771F881FBB1F261737074807AB07B0E8CE
:1027E00009F0BB0B802DBF01FF2793585F4F2AF0E4
:1027F0009E3F510568F0B6C000C15F3FECF3983EC4
:10280000DCF3869577956795B795F7959F5FC9F740
:10281000880F911D9695879597F90895E1E0660FC9
:10282000771F881FBB1F621773078407BA0720F042
:10283000621B730B840BBA0BEE1F88F7E0950895AB
:1028400004D06894B111D9C00895BCD088F09F57C6
:1028500090F0B92F9927B751A0F0D1F0660F771FEC
:10286000881F991F1AF0BA95C9F712C0B13081F0CC
:10287000C3D0B1E00895C0C0672F782F8827B85F14
:1028800039F0B93FCCF3869577956795B395D9F72D
:102890003EF490958095709561957F4F8F4F9F4F37
:1028A0000895E89409C097FB3EF490958095709543
:1028B00061957F4F8F4F9F4F9923A9F0F92F96E98C
:1028C000BB279395F695879577956795B795F11101
:1028D000F8CFFAF4BB0F11F460FF1BC06F5F7F4F9E
:1028E0008F4F9F4F16C0882311F096E911C07723B0
:1028F00021F09EE8872F762F05C0662371F096E8B9
:10290000862F70E060E02AF09A95660F771F881F87
:10291000DAF7880F9695879597F90895990F00082B
:10292000550FAA0BE0E8FEEF16161706E807F907A1
:10293000C0F012161306E407F50798F0621B730B3C
:10294000840B950B39F40A2661F0232B242B252BBD
:1029500021F408950A2609F4A140A6958FEF811D60
:10296000811D089597F99F6780E870E060E0089501
:102970009FEF80EC089500240A9416161706180697
:102980000906089500240A94121613061406050673
:102990000895092E0394000C11F4882352F0BB0F04
:1029A00040F4BF2B11F460FF04C06F5F7F4F8F4F67
:1029B0009F4F089557FD9058440F551F59F05F3FA2
:1029C00071F04795880F97FB991F61F09F3F79F051
:1029D00087950895121613061406551FF2CF4695D3
:1029E000F1DF08C0161617061806991FF1CF869555
:1029F0007105610508940895E894BB276627772739
:102A0000CB0197F908958ADF08F48FEF08950BD072
:102A1000C0CFB1DF28F0B6DF18F0952309F0A2CFC0
:102A2000A7CF1124EACFC6DFA0F3959FD1F3950F6E
:102A300050E0551F629FF001729FBB27F00DB11D42
:102A4000639FAA27F00DB11DAA1F649F6627B00DD2
:102A5000A11D661F829F2227B00DA11D621F739FBB
:102A6000B00DA11D621F839FA00D611D221F749FC9
:102A70003327A00D611D231F849F600D211D822F10
:102A8000762F6A2F11249F5750408AF0E1F0882357
:102A90004AF0EE0FFF1FBB1F661F771F881F915064
:102AA0005040A9F79E3F510570F05CCFA6CF5F3F25
:102AB000ECF3983EDCF3869577956795B795F79597
:102AC000E7959F5FC1F7FE2B880F911D969587951F
:102AD00097F9089523DF880B990B0895DB018F93F5
:102AE0009F935BD0BF91AF91A29F800D911DA39F3B
:102AF000900DB29F900D11240895991B79E004C0A8
:102B0000991F961708F0961B881F7A95C9F780952C
:102B10000895A1E21A2EAA1BBB1BFD010DC0AA1F1E
:102B2000BB1FEE1FFF1FA217B307E407F50720F036
:102B3000A21BB30BE40BF50B661F771F881F991FB1
:102B40001A9469F760957095809590959B01AC01FA
:102B5000BD01CF010895052E97FB16F400940FD008
:102B600057FD05D0D6DF07FC02D046F408C05095CB
:102B70004095309521953F4F4F4F5F4F0895909569
:102B80008095709561957F4F8F4F9F4F0895EE0F01
:102B9000FF1F0590F491E02D19940DD0A59F900D85
:102BA000B49F900DA49F800D911D1124089507904E
:102BB000F691E02D1994A29FB001B39FC001A39F8D
:102BC000700D811D1124911DB29F700D811D112466
:082BD000911D0895F894FFCF58
:102BD8000000C805800001000000436F6C6F722080
:102BE80073656E736F722072656164696E67733A9C
:102BF80000523A0900473A0900423A0900436F6C0B
:102C08006F722073656E736F7220287363616C65D1
:102C18006420746F203820626974293A0048756509
:102C28002028382D626974293A09004779726F2083
:102C38004443204F66667365743A20004779726F83
:102C4800204E6F697365204C6576656C3A20006785
:102C580079726F416E676C65000A57616974696EB5
:102C68006720666F72205361626572746F6F746853
:102C780020746F20706F7765722075702E2E2E006D
:102C8800496E697469616C697A696E67205361621B
:102C98006572746F6F74682E2E2E000A53746F70ED
:102CA80070696E67206D6F746F72732E2E2E0041DF
:102CB8007474616368696E6720736572766F732ECA
:102CC8002E2E0054435333343732352049324320B3
:102CD800636F6C6F722073656E736F7200206E6F16
:102CE800740020666F756E64004C33474432304878
:102CF80020493243206779726F2073656E736F7253
:102D080000456E74657220706F7765723A200050C6
:102D180072657373206720746F20636F6E74696EB9
:102D280075650000000000C30697066C06740687E8
:102D380006960600000000BE0E2D10130E2C0E1E67
:102D48000E9D0E0D0A006E616E00696E66006F764C
:022D5800660013
:020000023000CC
:10E000000D9489F10D94B2F10D94B2F10D94B2F129
:10E010000D94B2F10D94B2F10D94B2F10D94B2F1F0
:10E020000D94B2F10D94B2F10D94B2F10D94B2F1E0
:10E030000D94B2F10D94B2F10D94B2F10D94B2F1D0
:10E040000D94B2F10D94B2F10D94B2F10D94B2F1C0
:10E050000D94B2F10D94B2F10D94B2F10D94B2F1B0
:10E060000D94B2F10D94B2F10D94B2F10D94B2F1A0
:10E070000D94B2F10D94B2F10D94B2F10D94B2F190
:10E080000D94B2F10D94B2F10D94B2F10D94B2F180
:10E090000D94B2F10D94B2F10D94B2F10D94B2F170
:10E0A0000D94B2F10D94B2F10D94B2F10D94B2F160
:10E0B0000D94B2F10D94B2F10D94B2F10D94B2F150
:10E0C0000D94B2F10D94B2F10D94B2F10D94B2F140
:10E0D0000D94B2F10D94B2F10D94B2F10D94B2F130
:10E0E0000D94B2F141546D656761323536300041AF
:10E0F000726475696E6F206578706C6F72657220DE
:10E1000073746B3530305632206279204D4C530099
:10E11000426F6F746C6F616465723E004875683F52
:10E1200000436F6D70696C6564206F6E203D200048
:10E130004350552054797065202020203D20005FF9
:10E140005F4156525F415243485F5F3D2000415658
:10E1500052204C696243205665723D20004743437C
:10E160002056657273696F6E203D20004350552024
:10E1700049442020202020203D20004C6F7720663D
:10E18000757365202020203D20004869676820665F
:10E190007573652020203D200045787420667573D6
:10E1A00065202020203D20004C6F636B2066757336
:10E1B000652020203D20004D617220203720323024
:10E1C000313300312E362E3800342E332E350056A2
:10E1D00023202020414444522020206F7020636F70
:10E1E00064652020202020696E73747275637469E1
:10E1F0006F6E2061646472202020496E74657272B3
:10E20000757074006E6F20766563746F7200726A49
:10E210006D702020006A6D70200057686174207056
:10E220006F72743A00506F7274206E6F7420737541
:10E2300070706F72746564004D7573742062652030
:10E2400061206C6574746572002000577269747483
:10E25000696E672045450052656164696E672045B7
:10E26000450045452065727220636E743D00504F35
:10E27000525400303D5A65726F2061646472003FF1
:10E280003D43505520737461747300403D454550C3
:10E29000524F4D207465737400423D426C696E6B41
:10E2A000204C454400453D44756D70204545505215
:10E2B0004F4D00463D44756D7020464C415348001B
:10E2C000483D48656C70004C3D4C69737420492F83
:10E2D0004F20506F72747300513D51756974005234
:10E2E0003D44756D702052414D00563D73686F7707
:10E2F00020696E7465727275707420566563746FF0
:10E30000727300593D506F727420626C696E6B00BD
:10E310002A0011241FBECFEFD1E2DEBFCDBF01E046
:10E320000CBF12E0A0E0B2E0EEE1FDEF03E00BBFB6
:10E3300002C007900D92A030B107D9F712E0A0E01B
:10E34000B2E001C01D92AE30B107E1F70F9460F367
:10E350000D948DFE01E20EBF0FEF0DBF11241FBE05
:10E360000D9460F30D9400F020E030E040ED57E0B4
:10E3700005C0FA013197F1F72F5F3F4F2817390792
:10E38000C0F308959C01260F311DC901A0E0B0E043
:10E390002F5F3F4FABBFFC018791882361F08093D3
:10E3A000C6008091C00086FFFCCF8091C0008064D1
:10E3B0008093C000EACF08958DE08093C6008091DD
:10E3C000C00086FFFCCF8091C00080648093C000B5
:10E3D0008AE08093C6008091C00086FFFCCF8091C8
:10E3E000C00080648093C00008950F94C2F10F9420
:10E3F000DCF10895FC019081992359F09093C600B7
:10E400008091C00086FFFCCF8091C0008064809323
:10E41000C0003196992379F70895282F982F929567
:10E420009F70892F805D8A3308F0895F8093C600D2
:10E430008091C00086FFFCCF8091C00080648093F3
:10E44000C000822F8F70982F905D9A3308F0995FEB
:10E450009093C6008091C00086FFFCCF8091C000E1
:10E4600080648093C00008959C01FB01853691056E
:10E470001CF46330710594F0C90164E670E00F94F8
:10E480002EFE605D7F4F6093C6008091C00086FFC6
:10E49000FCCF8091C00080648093C0002B30310598
:10E4A00014F43297B4F0C90164E670E00F942EFEC4
:10E4B0006AE070E00F942EFE605D7F4F6093C600AF
:10E4C0008091C00086FFFCCF8091C0008064809363
:10E4D000C000C9016AE070E00F942EFEC0968093E0
:10E4E000C6008091C00086FFFCCF8091C000806490
:10E4F0008093C00008951F93182F8EE692EE60E07F
:10E500000F94C2F11093C6008091C00086FFFCCF2B
:10E510008091C00080648093C0000F94DCF11F9153
:10E5200008952F923F924F925F926F927F928F92B7
:10E530009F92AF92BF92CF92DF92EF92FF920F9392
:10E540001F93DF93CF93CDB7DEB762970FB6F894E2
:10E55000DEBF0FBECDBF382E622ECA01DB015C01CB
:10E560006D01772420E2222E2E010894411C511CBB
:10E570008BC081E0A81680E0B80681E0C80680E084
:10E58000D80628F0C601AA27BB270F940DF2BB2797
:10E59000AD2D9C2D8B2D0F940DF28A2D0F940DF225
:10E5A0002092C6008091C00086FFFCCF8091C00001
:10E5B00080648093C0009DE29093C6008091C0006B
:10E5C00086FFFCCF8091C00080648093C0002092C1
:10E5D000C6008091C00086FFFCCF8091C00080649F
:10E5E0008093C00019828601750188249924A1E0D6
:10E5F0003A1651F03A1620F0B2E03B1661F409C029
:10E600000BBFF701779007C0C7010F9477FE782EF4
:10E6100002C0F7017080872D0F940DF22092C60082
:10E620008091C00086FFFCCF8091C0008064809301
:10E63000C000872D8052F401EF70F0708F3520F408
:10E64000E40DF51D708204C0E40DF51D8EE280839B
:10E650000894E11CF11C011D111D0894811C911CE2
:10E6600090E18916910409F0C2CF80E190E0A0E02A
:10E67000B0E0A80EB91ECA1EDB1E198AC2010F9493
:10E68000FAF10F94DCF16A94662009F072CF629679
:10E690000FB6F894DEBF0FBECDBFCF91DF911F91B3
:10E6A0000F91FF90EF90DF90CF90BF90AF909F9031
:10E6B0008F907F906F905F904F903F902F90089534
:10E6C0002F923F924F925F926F927F928F929F9282
:10E6D000AF92BF92CF92DF92EF92FF920F931F9370
:10E6E000DF93CF93CDB7DEB7CD53D1400FB6F894BB
:10E6F000DEBF0FBECDBF01E20EBF0FEF0DBF94B75F
:10E70000F894A89514BE80916000886180936000A1
:10E7100010926000789493FF05C0E0910002F091A0
:10E7200001021995279A2F9A8091C00082608093E8
:10E73000C00080E18093C40088E18093C1000000A4
:10E74000EE24FF24870144E0A42EB12CCC24DD2448
:10E7500024C0C5010197F1F70894E11CF11C011DCB
:10E76000111D21E2E2162EE4F20620E0020720E06D
:10E77000120718F031E0C32ED12CC801B70127ECE5
:10E780003BE140E050E00F9441FE611571058105C9
:10E79000910519F485B1805885B98091C00087FD35
:10E7A00003C0C114D104A9F2A6014F5F5F4FC25E3E
:10E7B000DE4F59834883CE51D140C25EDE4F8881FF
:10E7C0009981CE51D140019711F00D9410FEC05D9A
:10E7D000DE4F19821882C053D14060E0C15DDE4F28
:10E7E0001882CF52D14088249924C35DDE4F19820C
:10E7F0001882CD52D140C05EDE4F188219821A8233
:10E800001B82C052D140CE5CDE4F188219821A8220
:10E810001B82C253D140EE24FF2487010BBFF701B6
:10E8200007911691C45CDE4F19830883CC53D14005
:10E830000D940BFEC25EDE4F28813981CE51D1404E
:10E840002130310509F52091C600C25EDE4F1982E4
:10E850001882CE51D14022C02F5F3F4F4F4F5F4FA4
:10E86000213082E138078AE7480780E0580780F0C6
:10E87000C45CDE4FE881F981CC53D140EF5FFF4F9C
:10E8800019F0EE27FF27099420E030E040E050E047
:10E890008091C00087FFE0CF2091C600C35DDE4FAE
:10E8A00048815981CD52D1404F5F5F4FC35DDE4FEC
:10E8B00059834883CD52D140213209F063C64A3092
:10E8C000510508F05FC60894811C911C53E0851621
:10E8D000910409F059C600E010E018C081E280936D
:10E8E000C6008091C00086FFFCCF8091C00080648C
:10E8F0008093C0002F5F3F4F2931310579F70F9486
:10E90000DCF10F5F1F4F0530110519F020E030E0FA
:10E91000E5CF10920A0210920B0210920C02109294
:10E920000D02109206021092070210920802109235
:10E930000902109202021092030210920402109235
:10E9400005028FEE90EE60E00F94F5F180E191EE1C
:10E9500060E00F94C2F18091C00087FFFCCF9091DE
:10E96000C600903608F09F759032B8F09093C600BC
:10E970008091C00086FFFCCF8091C00080648093AE
:10E98000C000A0E2A093C6008091C00086FFFCCF2B
:10E990008091C00080648093C000983409F4D7C18E
:10E9A0009934B8F4923409F459C1933458F490333B
:10E9B00019F1903308F4E3C59F33A1F1903409F0C5
:10E9C000DEC5BDC0953409F470C1963409F0D7C5D1
:10E9D00098C1923509F42BC2933538F49C3409F46C
:10E9E000F5C1913509F0CBC518C2963509F445C279
:10E9F000993509F0C4C567C483E792EE62E00F94CD
:10EA0000F5F110920602109207021092080210927D
:10EA1000090210920A0210920B0210920C0210923C
:10EA20000D0213C18FE792EE62E00F94F5F18FEEC5
:10EA300090EE60E00F94F5F181E291EE60E00F94CA
:10EA4000C2F187EB91EE60E00F94F5F180E391EE77
:10EA500060E00F94C2F184EE90EE60E00F94F5F167
:10EA60008FE391EE60E00F94C2F186E090E061E008
:10EA700070E00F9434F20F94DCF18DE591EE60E0DC
:10EA80000F94C2F189EC91EE60E00F94F5F18EE401
:10EA900091EE60E00F94C2F183EC91EE60E00F9490
:10EAA000F5F18CE691EE60E00F94C2F18EE10F94E7
:10EAB0000DF288E90F940DF281E00F940DF20F949E
:10EAC000DCF18BE791EE60E00F94C2F119E0E0E039
:10EAD000F0E010935700E4918E2F0F940DF20F94F5
:10EAE000DCF18AE891EE60E00F94C2F1E3E0F0E03F
:10EAF00010935700E4918E2F0F940DF20F94DCF1D8
:10EB000089E991EE60E00F94C2F1E2E0F0E0109349
:10EB10005700E4918E2F0F940DF20F94DCF188EAE8
:10EB200091EE60E00F94C2F1E1E0F0E01093570045
:10EB30001491812F0F940DF20F94DCF107CF8BE825
:10EB400092EE62E00F94F5F18BE492EE60E00F94A8
:10EB5000F5F10F94DCF100E010E019C0C8016F2D51
:10EB60000F947FFEFF2031F489E492EE60E00F9471
:10EB7000C2F10BC0F092C6008091C00086FFFCCFAE
:10EB80008091C00080648093C0000F5F1F4FC80158
:10EB900081519F41A0E0B0E0ABBFFC01F790BAE229
:10EBA000FB1621F0E2E000301E07C1F60F94DCF105
:10EBB0000F94DCF187E592EE60E00F94F5F10F948D
:10EBC000DCF1CC24DD2400E010E01EC0C8010F946D
:10EBD00077FEF82E882331F489E492EE60E00F94FA
:10EBE000C2F10BC08093C6008091C00086FFFCCFAD
:10EBF0008091C00080648093C000FE1419F00894D6
:10EC0000C11CD11C0F5F1F4FC80181519F41A0E063
:10EC1000B0E0ABBFFC01E790FAE2EF1621F022E092
:10EC20000030120799F60F94DCF10F94DCF182E6C4
:10EC300092EE60E00F94C2F1C60161E070E00F94C3
:10EC400034F20F94DCF10F94DCF110920202109276
:10EC50000302109204021092050278CE89E992EE26
:10EC600062E00F94F5F1279A2F9A16C02F9880E052
:10EC700090E0E0EDF7E03197F1F7019684369105E9
:10EC8000C1F72F9A80E090E0E0EDF7E03197F1F7DF
:10EC9000019684369105C1F78091C00087FFE6CFC9
:10ECA0008091C00087FFFCCF64C485EA92EE62E0E9
:10ECB0000F94F5F140910202509103026091040219
:10ECC0007091050281E020E10F9491F2809102029F
:10ECD00090910302A0910402B091050280509F4FD1
:10ECE000AF4FBF4F8093020290930302A0930402A0
:10ECF000B093050280509041A040B04008F426CE69
:10ED0000A4CF83EB92EE62E00F94F5F140910602FE
:10ED100050910702609108027091090280E020E1A1
:10ED20000F9491F28091060290910702A09108023F
:10ED3000B091090280509F4FAF4FBF4F80930602A2
:10ED400090930702A0930802B0930902FFCD80ECD4
:10ED500092EE62E00F94F5F183E792EE60E00F949B
:10ED6000F5F18FE792EE60E00F94F5F18BE892EE0B
:10ED700060E00F94F5F189E992EE60E00F94F5F10F
:10ED800085EA92EE60E00F94F5F183EB92EE60E09D
:10ED90000F94F5F180EC92EE60E00F94F5F187ECC2
:10EDA00092EE60E00F94F5F188ED92EE60E00F9442
:10EDB000F5F18FED92EE60E00F94F5F18AEE92EEB0
:10EDC00060E00F94F5F183E093EEBDCD87EC92EE19
:10EDD00062E00F94F5F181E40F947BF282E40F94EA
:10EDE0007BF283E40F947BF284E40F947BF285E45E
:10EDF0000F947BF286E40F947BF287E40F947BF20E
:10EE000088E40F947BF28AE40F947BF28BE40F94F6
:10EE10007BF28CE40F947BF299CD88ED92EE62E068
:10EE20000F94F5F1772473948824992409C48FED05
:10EE300092EE62E00F94F5F140910A0250910B02BC
:10EE400060910C0270910D0282E020E10F9491F22A
:10EE500080910A0290910B02A0910C02B0910D02D8
:10EE600080509F4FAF4FBF4F80930A0290930B0289
:10EE7000A0930C02B0930D0269CD8AEE92EE62E08F
:10EE80000F94F5F184EE90EE60E00F94F5F18FECC5
:10EE900091EE60E00F94F5F1662477244301CC5D98
:10EEA000DE4F19821882C452D140D401C301B695F5
:10EEB000A79597958795CA5DDE4F88839983AA8326
:10EEC000BB83C652D140CC5DDE4FA881B981C4520C
:10EED000D1401196CC5DDE4FB983A883C452D14096
:10EEE000CD0162E070E00F9434F2B0E2B093C6005E
:10EEF0008091C00086FFFCCF8091C0008064809329
:10EF0000C000EDE2E093C6008091C00086FFFCCF18
:10EF10008091C00080648093C000F0E2F093C6004E
:10EF20008091C00086FFFCCF8091C00080648093F8
:10EF3000C000CA5DDE4FE880F9800A811B81C6529D
:10EF4000D140BB27A12F902F8F2D0F940DF2CA5DBA
:10EF5000DE4F8881C652D1400F940DF2B0E2FB2EF5
:10EF6000F092C6008091C00086FFFCCF8091C00067
:10EF700080648093C0000DE30093C6008091C000C0
:10EF800086FFFCCF8091C00080648093C00010E2B7
:10EF90001093C6008091C00086FFFCCF8091C00016
:10EFA00080648093C0008BBEF3012791C65DDE4F65
:10EFB0002883CA52D140A22EBB24CC24DD2408943D
:10EFC000611C711C811C911C8BBEF3018791282E42
:10EFD0003324442455240894611C711C811C911C09
:10EFE0008BBEF3013791C55DDE4F3883CB52D140E4
:10EFF0000894611C711C811C911C8BBEF30147910C
:10F00000C45DDE4F4883CC52D140ADEFEA2EAFEF66
:10F01000FA2EAFEF0A2FAFEF1A2F6E0C7F1C801E57
:10F02000911E142D032DF22CEE24EA0CFB1C0C1D5A
:10F030001D1D0F940DF220E22093C6008091C000A8
:10F0400086FFFCCF8091C00080648093C000C65DC5
:10F05000DE4F8881CA52D1400F940DF230E23093D6
:10F06000C6008091C00086FFFCCF8091C000806404
:10F070008093C000C45DDE4F8881CC52D1400F9494
:10F080000DF240E24093C6008091C00086FFFCCFA5
:10F090008091C00080648093C000C55DDE4F888190
:10F0A000CB52D1400F940DF250E25093C6008091A4
:10F0B000C00086FFFCCF8091C00080648093C000B8
:10F0C0008FEFE8168FEFF80680E0080780E018075A
:10F0D00031F484E092EE60E00F94C2F1DFC0D80119
:10F0E000C7018070907CA070B0708050904CA040A0
:10F0F000B040D1F52FEF3FE340E050E0E222F322B1
:10F1000004231523CA5DDE4FA880B980CA80DB8046
:10F11000C652D140AE0CBF1CC01ED11EAA0CBB1CD7
:10F12000CC1CDD1C8EE092EE60E00F94C2F1BB2798
:10F13000A12F902F8F2D0F940DF28E2D0F940DF285
:10F1400030E23093C6008091C00086FFFCCF8091F2
:10F15000C00080648093C0004EE34093C60080915D
:10F16000C00086FFFCCF87C08EE09EEFA0E0B0E03D
:10F17000E822F9220A231B239CE0E91694E9F90608
:10F1800090E0090790E0190709F088C0C45DDE4FE0
:10F19000A881CC52D140EA2EFF2400E010E0102FCD
:10F1A0000F2DFE2CEE24C55DDE4FB881CB52D14031
:10F1B000EB0EF11C011D111DD601C501817090706F
:10F1C000A070B070DC0199278827E80EF91E0A1F8D
:10F1D0001B1F20EF30E040E050E0A222B322C42207
:10F1E000D52241E1AA0CBB1CCC1CDD1C4A95D1F7F1
:10F1F000EA0CFB1C0C1D1D1D81E090E0A0E0B0E0BE
:10F20000282239224A225B2235E1220C331C441C7D
:10F21000551C3A95D1F7E20CF31C041D151D57013E
:10F220006801AA0CBB1CCC1CDD1C85E192EE60E0E1
:10F230000F94C2F1C801AA27BB270F940DF2BB2778
:10F24000A12F902F8F2D0F940DF28E2D0F940DF274
:10F2500090E29093C6008091C00086FFFCCF809121
:10F26000C00080648093C000AEE3A093C60080918C
:10F27000C00086FFFCCF8091C00080648093C000F6
:10F28000C601AA27BB270F940DF2BB27AD2D9C2DDD
:10F290008B2D0F940DF28A2D0F940DF20F94DCF14B
:10F2A000CC5DDE4FE881F981C452D140F99709F471
:10F2B0004DCBF4E0EF2EF12C012D112D6E0C7F1CA7
:10F2C000801E911EF2CD83E093EE62E00F94F5F183
:10F2D0008AE192EE60E00F94C2F18091C00087FF56
:10F2E000FCCF1091C6001F751093C6008091C0001E
:10F2F00086FFFCCF8091C00080648093C0000F9493
:10F30000DCF1812F81548A3108F036C1163409F4BA
:10F3100095C0173490F4133409F44EC0143430F40B
:10F320001134F1F0123409F01DC130C0143409F465
:10F3300059C0153409F016C16BC01A3409F4C4C0A1
:10F340001B3438F4173409F48FC0183409F00AC19B
:10F35000A1C01B3409F4D2C01C3409F003C1E8C0B9
:10F360008FEF81B90DC082B1809582B980E090E0C5
:10F37000E0EDF7E03197F1F70196883C9105C1F790
:10F380008091C00087FFEFCF12B8EFC08FEF84B934
:10F390000DC085B1809585B980E090E0E0EDF7E0A3
:10F3A0003197F1F70196883C9105C1F78091C00033
:10F3B00087FFEFCF15B8D9C08FEF87B90DC088B1DF
:10F3C000809588B980E090E0E0EDF7E03197F1F7C3
:10F3D0000196883C9105C1F78091C00087FFEFCF6F
:10F3E00018B8C3C08FEF8AB90DC08BB180958BB9A7
:10F3F00080E090E0E0EDF7E03197F1F70196883C8E
:10F400009105C1F78091C00087FFEFCF1BB8ADC059
:10F410008FEF8DB90DC08EB180958EB980E090E0F0
:10F42000E0EDF7E03197F1F70196883C9105C1F7DF
:10F430008091C00087FFEFCF1EB897C08FEF80BBD1
:10F440000DC081B3809581BB80E090E0E0EDF7E0F6
:10F450003197F1F70196883C9105C1F78091C00082
:10F4600087FFEFCF11BA81C08FEF83BB0DC084B38C
:10F47000809584BB80E090E0E0EDF7E03197F1F714
:10F480000196883C9105C1F78091C00087FFEFCFBE
:10F4900014BA6BC08FEF809301010FC080910201FD
:10F4A00080958093020180E090E0E0EDF7E03197F5
:10F4B000F1F70196883C9105C1F78091C00087FF64
:10F4C000EDCF1092020151C08FEF809304010FC065
:10F4D0008091050180958093050180E090E0E0ED4A
:10F4E000F7E03197F1F70196883C9105C1F78091DB
:10F4F000C00087FFEDCF1092050137C08FEF8093DA
:10F5000007010FC08091080180958093080180E079
:10F5100090E0E0EDF7E03197F1F70196883C910536
:10F52000C1F78091C00087FFEDCF109208011DC088
:10F530008FEF80930A010FC080910B01809580931B
:10F540000B0180E090E0E0EDF7E03197F1F70196F4
:10F55000883C9105C1F78091C00087FFEDCF1092E4
:10F560000B0103C085E292EEEEC98091C00087FFD7
:10F57000FCCF8091C600EAC988E392EEE4C98CE131
:10F5800091EEE1C988249924933011F1943028F444
:10F59000913089F09230B8F408C0953061F195301F
:10F5A000F0F0963009F048C043C02B3109F042C951
:10F5B00091E06BE13FC96227C15DDE4F2883CF52E6
:10F5C000D14092E037C9B22FA0E0622793E032C960
:10F5D000822F90E0A82BB92B622794E02BC92E3004
:10F5E00009F039C3622795E0C05DDE4F19821882A9
:10F5F000C053D1401FC9E1E0F0E0EC0FFD1FC05D3A
:10F60000DE4F08811981C053D140E00FF11F2083E4
:10F610000F5F1F4FC05DDE4F19830883C053D14079
:10F6200062270A171B0709F005C9D80196E002C92D
:10F63000261709F010C303C0973009F0FBC87724E0
:10F640009981933109F412C19431C8F4963009F4C8
:10F65000D8C0973050F4923009F406C1933009F4C1
:10F660006DC0913009F059C253C0913109F477C08F
:10F67000923108F0BBC0903109F04FC2F5C098310B
:10F6800009F487C0993150F4953109F4EFC09531F0
:10F6900008F4C6C1963109F040C2C2C19A3109F4DA
:10F6A0006CC09A3108F491C09B3109F45BC09D3164
:10F6B00009F033C29D81903359F48F81882311F46E
:10F6C0009EE11CC0813011F091E018C098E916C08D
:10F6D000892F807591F0903539F4E0E0F0E089E011
:10F6E0008093570094910AC0983539F4E3E0F0E034
:10F6F00089E080935700949101C090E01A821B82A8
:10F700008D818C831D829E831F8227E030E009C299
:10F710001A8288E08B8381E48C8386E58D8382E581
:10F720008E8389E48F8383E5888780E589878FE5E9
:10F730008A8782E38B872BE030E0F3C18A818139AD
:10F7400041F0823941F0803911F48FE005C080E04A
:10F7500003C082E001C08AE01A828B8344C0772410
:10F76000739482C08D81882311F48EE12CC0813086
:10F7700011F081E028C088E926C01A82E1E0F0E0BB
:10F7800089E08093570084918B831C8224E030E0D1
:10F79000C8C18B81803589F48C81883039F4E2E0EE
:10F7A000F0E089E08093570084910DC0E0E0F0E044
:10F7B00089E080935700849106C0E3E0F0E089E09F
:10F7C0008093570084911A82DFCF8D81836C99E0FA
:10F7D000E1E0F0E0082E90935700E89507B600FCB2
:10F7E000FDCF1A821B8223E030E09BC180EC8A832C
:10F7F000CE5CDE4F188219821A821B82C253D1401E
:10F800008EC18A8190E0A0E0B0E0582F44273327D2
:10F8100022278B8190E0A0E0B0E0DC0199278827C7
:10F82000282B392B4A2B5B2B8D8190E0A0E0B0E098
:10F83000282B392B4A2B5B2B8C8190E0A0E0B0E089
:10F84000BA2FA92F982F8827282B392B4A2B5B2BCF
:10F85000220F331F441F551FC05EDE4F288339839C
:10F860004A835B83C052D1401A8259C13A81C95C34
:10F87000DE4F3883C753D140CA5CDE4F1882C6536F
:10F88000D1408B81C82EDD24CA5CDE4F488159816E
:10F89000C653D140C42AD52A933109F082C0CE5C28
:10F8A000DE4F88819981AA81BB81C253D1408050AB
:10F8B000904CA340B04030F583E0CE5CDE4FE88052
:10F8C000F9800A811B81C253D140F70100935B008C
:10F8D00080935700E89507B600FCFDCFCE5CDE4F65
:10F8E000088119812A813B81C253D14000501F4FAA
:10F8F0002F4F3F4FCE5CDE4F088319832A833B8313
:10F90000C253D140C05EDE4F488159816A817B81FC
:10F91000C052D140DE011B9631E08C9111962C91A2
:10F9200011971296C75CDE4F2883C953D140C85C3B
:10F93000DE4F1882C853D14090E0C85CDE4FE881AA
:10F94000F981C853D1408E2B9F2B0C01FA01609393
:10F950005B0030935700E89511244E5F5F4F6F4F67
:10F960007F4F0EEFE02E0FEFF02ECE0CDF1CC114F8
:10F97000D10499F685E0C05EDE4F088119812A81A5
:10F980003B81C052D140F80120935B008093570027
:10F99000E89507B600FCFDCF81E180935700E8951C
:10F9A00035C0C05EDE4F88819981AA81BB81C0527B
:10F9B000D140B695A795979587957C018601ABE0D8
:10F9C000AA2EB12CAC0EBD1E0BC0D5016D915D01F0
:10F9D000C7010F947FFE0894E11CF11C01501040F8
:10F9E0000115110591F7A60160E070E0440F551F65
:10F9F000661F771FC05EDE4FE880F9800A811B8199
:10FA0000C052D1404E0D5F1D601F711F1A82C05E33
:10FA1000DE4F488359836A837B83C052D1407FC0C5
:10FA2000FA80C55CDE4FF882CB53D140C65CDE4F16
:10FA30001882CA53D1408B81C82EDD24C65CDE4FAC
:10FA400008811981CA53D140C02AD12A1A828981DA
:10FA5000BE016D5F7F4F843121F59601C05EDE4FA0
:10FA6000E880F9800A811B81C052D1400BBFF701A9
:10FA700087919691DB018C9311969C936E5F7F4FDB
:10FA8000D801C7010296A11DB11DC05EDE4F88835B
:10FA90009983AA83BB83C052D14022503040F1F6F3
:10FAA00036C0C05EDE4F288139814A815B81C052F9
:10FAB000D1400894C108D108760100E010E0089414
:10FAC000C11CD11C0894E11CF11C011D111DE20E8A
:10FAD000F31E041F151F21BDBB27A52F942F832FB5
:10FAE00082BD2F5F3F4F4F4F5F4FF89A80B5DB01CC
:10FAF0008D93BD012E153F054007510761F7C05E8C
:10FB0000DE4F288339834A835B83C052D1409601FC
:10FB10002D5F3F4FFB01108204C080EC8A8322E0FE
:10FB200030E08BE18093C6008091C00086FFFCCF5F
:10FB30008091C00080648093C000C15DDE4FF88179
:10FB4000CF52D140F093C6008091C00086FFFCCF19
:10FB50008091C00080648093C000432F3093C60022
:10FB60008091C00086FFFCCF8091C00080648093AC
:10FB7000C000922F2093C6008091C00086FFFCCF6A
:10FB80008091C00080648093C0008EE08093C600A6
:10FB90008091C00086FFFCCF8091C000806480937C
:10FBA000C00065E1C15DDE4FE880CF52D1406E25D7
:10FBB00069276427FE01319610C090819093C6009A
:10FBC0008091C00086FFFCCF31968091C000806498
:10FBD0008093C0006927215030402115310569F715
:10FBE0006093C6008091C00086FFFCCF8091C0006A
:10FBF00080648093C00085B1805885B9772081F4F6
:10FC0000C15DDE4F0881CF52D1400F5FC15DDE4F35
:10FC10000883CF52D14090E0A0E0B0E00D941AF4F8
:10FC200027982F9880E090E020ED37E0F901319798
:10FC3000F1F7019684369105C9F700008091C00064
:10FC40008D7F8093C00081E180935700E895EE2777
:10FC5000FF270994FFCF90E00D941AF497FB092E2B
:10FC600007260AD077FD04D02ED006D000201AF443
:10FC7000709561957F4F0895F6F7909581959F4F08
:10FC80000895A1E21A2EAA1BBB1BFD010DC0AA1FDD
:10FC9000BB1FEE1FFF1FA217B307E407F50720F0F5
:10FCA000A21BB30BE40BF50B661F771F881F991F70
:10FCB0001A9469F760957095809590959B01AC01B9
:10FCC000BD01CF010895AA1BBB1B51E107C0AA1FAC
:10FCD000BB1FA617B70710F0A61BB70B881F991FED
:10FCE0005A95A9F780959095BC01CD010895F99991
:10FCF000FECF92BD81BDF89A992780B50895262F31
:10FD0000F999FECF1FBA92BD81BD20BD0FB6F89400
:0EFD1000FA9AF99A0FBE01960895F894FFCF63
:040000033000E000E9
:00000001FF
