:100000000C9465000C948D000C948D000C948D0064
:100010000C948D000C948D000C948D000C94660B48
:100020000C948D000C948D000C948D000C9479032D
:100030000C948D000C948D000C948D000C948D000C
:100040000C948D0B0C948D000C946F0E0C94A10EDF
:100050000C948D000C948D000C948D000C948D00EC
:100060000C9481070C948D00000000080002010030
:100070000003040700000000000000000102040863
:100080001020408001020408102001020408102002
:10009000040404040404040402020202020203032E
:1000A00003030303000000002300260029000000D2
:1000B0000000250028002B0000000000240027007D
:1000C0002A0038029706070BD10E11241FBECFEF6E
:1000D000D8E0DEBFCDBF12E0A0E0B1E0ECE4FAE290
:1000E00002C005900D92AA35B107D9F724E0AAE520
:1000F000B2E001C01D92A133B207E1F710E0CAECF3
:10010000D0E004C02297FE010E941115C23CD10725
:10011000C9F70E9478120C9424150C940000CF9219
:10012000DF92EF92FF926B017C0161E08DE00E9413
:10013000CB0CF694E794D794C794C701B6010E94FC
:10014000060C60E08DE00E94CB0CC701B601FF9069
:10015000EF90DF90CF900C94060C4F925F926F92CD
:100160007F92AF92BF92CF92DF92EF92FF920F9366
:100170001F93CF93DF936BE571E084E993E00E94D6
:10018000520FC8EED3E0C12CD12C760189E892E061
:100190000E94D00980918B0290918C02AA2797FD32
:1001A000A095BA2FC80ED91EEA1EFB1E219771F723
:1001B000C701B60128EE33E040E050E00E94E514AC
:1001C000CA01B90130935F0220935E024AE050E019
:1001D00084E993E00E9414106CE671E084E993E0F6
:1001E0000E94520FC8EED3E089E892E00E94D00945
:1001F000A0908B02B0908C0200915E0210915F0281
:10020000B501601B710B882777FD8095982F0E94A0
:100210008C136B017C0140905A0250905B026090FD
:100220005C0270905D02A30192010E943C141816BA
:100230004CF4C0925A02D0925B02E0925C02F092BF
:100240005D021DC0A30192015058C701B6010E9472
:10025000ED1287FF14C0662777276A197B09601B98
:10026000710B882777FD8095982F0E948C136093DF
:100270005A0270935B0280935C0290935D02219717
:1002800009F0B2CF20E030E048EC52E460915A022D
:1002900070915B0280915C0290915D020E94F1126C
:1002A000AB01BC0140935A0250935B0260935C0225
:1002B00070935D0224E030E084E993E0DF91CF9118
:1002C0001F910F91FF90EF90DF90CF90BF90AF9074
:1002D0007F906F905F904F900C943D113F924F92A2
:1002E0005F926F927F928F929F92AF92BF92CF92C6
:1002F000DF92EF92FF920F931F93CF93DF934B0107
:100300005C01742E442321F0C12CD12C760106C04F
:10031000C12CD12CF4EBEF2EF3E4FF2E6FE771E04C
:1003200084E993E00E945F0F40E06EE289E892E08A
:100330000E948F0969E871E084E993E00E945F0FF1
:1003400040E46EE289E892E00E948F096BE971E077
:1003500084E993E00E945F0F612C512C412C312CD9
:10036000A5019401C701B601772009F465C00E9478
:10037000ED1287FF66C088E00E94010D892B81F78E
:1003800089E892E00E94D00960918B0270918C0202
:1003900080915E0290915F02681B790B882777FD40
:1003A0008095982F0E948C1329E23CE54FE05CE396
:1003B0000E9440148B01D82FC92F9B01482F592F21
:1003C000662D752D842D932D0E94891226E636E622
:1003D0004DE353E40E94F11220E030E040E05FE39F
:1003E0000E9440149B01AC01C701B6010E94891212
:1003F0006B017C0164EB71E084E993E00E94520F91
:1004000022E030E0B701A60184E993E00E943B11AD
:100410006CEB71E084E993E00E94520F22E030E03F
:10042000A8016D2F7C2F84E993E00E943D11602E7E
:10043000512E4D2E3C2E94CF0E943C1418160CF4D5
:100440009ACF40E06EE289E892E0DF91CF911F9170
:100450000F91FF90EF90DF90CF90BF90AF909F9063
:100460008F907F906F905F904F903F900C948F098A
:1004700089E992E00E94350486E992E00E94350401
:1004800089E892E00E94860941E050E060E070E077
:1004900084E892E00E94060924EF31E043E06BE03B
:1004A00082E792E00E940F0B24EF31E049E06AE01E
:1004B00080E692E00C940F0B61E08EE00E94CB0C82
:1004C000E0919403F09195030190F081E02D6AEAA8
:1004D00084E993E0099584E993E00E94860D60E049
:1004E0008EE00C94CB0CCF93DF9300D000D0CDB72F
:1004F000DEB790E899838A836B83860F8F778C832E
:1005000061E08EE00E94CB0CE0919403F0919503A2
:100510000280F381E02D44E050E0BE016F5F7F4F29
:1005200084E993E0099584E993E00E94860D60E0F8
:100530008EE00E94CB0C0F900F900F900F90DF91E8
:10054000CF91089561E08EE00E94920C60E08EE011
:100550000E94CB0C26E040E056E960E070E084E9C0
:1005600093E00E940D0E60ED77E080E090E00E9445
:10057000060C0E945C0260E088E00E94730260E06A
:100580008BE00E94730265E070E089E992E00E94CE
:10059000CF046CE870E089E992E00E94080566E00B
:1005A00070E086E992E00E94CF046CE170E086E999
:1005B00092E00E94080561E08DE00E94920C64ECDC
:1005C00071E084E993E00E94520F84E892E00E9477
:1005D0002E09811106C06EED71E084E993E00E945E
:1005E000520F63EE71E084E993E00E945F0F6AEEC0
:1005F00071E084E993E00E94520F42E050E063E032
:1006000070E089E892E00E947A0A811106C06EEDDE
:1006100071E084E993E00E94520F63EE71E084E997
:1006200093E00E945F0F89E892E00E94B8090E945F
:10063000AD0060E088E00E94920C40E464E289E84A
:1006400092E00E948F0949E062E289E892E00C940E
:100650008F09CF9364EF71E080E090E00E948F00FB
:1006600064EF71E080E090E00E948F0062E072E051
:1006700084E993E00E94520F84E993E00E942A0DDE
:100680000297D4F341E060E070E084E993E00E94D7
:10069000C011C62F4AE050E084E993E00E9439106F
:1006A0006C2F8AE00E94730241E060E070E084EB0E
:1006B00092E40E946E0160E088E00E94730260E0B4
:1006C0008BE0CF910C94730265E172E084E993E0D2
:1006D0000E945F0F84E993E00E94430D87369105E5
:1006E000C9F70E94290368EE73E080E090E00C9463
:1006F0008F001F920F920FB60F9211242F933F93EA
:100700004F935F936F937F938F939F93AF93BF9319
:10071000EF93FF9380919D0287FF05C010928500A3
:10072000109284001AC020919D02332727FD309536
:1007300080919C0290E0281739077CF480919D02FB
:10074000992787FD9095FC01EE0FFF1FE80FF91F19
:10075000E256FD4F808186FD15C080919D028F5F1E
:1007600080939D0220919D02332727FD3095809133
:100770009C0290E028173907BCF480919D028C30D0
:100780005CF112C080919D02992787FD9095FC0134
:10079000EE0FFF1FE80FF91FE256FD4F808160E06A
:1007A0008F730E94CB0CD9CF8091840090918500EB
:1007B000049680349C4918F480E49CE905C080913B
:1007C000840090918500049690938900809388001E
:1007D0008FEF80939D0238C0209184003091850076
:1007E00080919D02992787FD9095FC01EE0FFF1FD8
:1007F000E80FF91FE256FD4F81819281820F931F0E
:10080000909389008093880080919D02992787FDAD
:100810009095FC01EE0FFF1FE80FF91FE256FD4F08
:10082000808186FF11C080919D02992787FD909558
:10083000FC01EE0FFF1FE80FF91FE256FD4F80810C
:1008400061E08F730E94CB0CFF91EF91BF91AF914C
:100850009F918F917F916F915F914F913F912F91D8
:100860000F900FBE0F901F90189520919C022C3076
:10087000A0F431E0320F30939C02FC012083822FE0
:1008800090E0FC01EE0FFF1FE80FF91FE256FD4F4D
:1008900088EB9BE09283818308952FEFFC012083F6
:1008A0000895DF92EF92FF920F931F93CF93DF9300
:1008B000EC01D62E7A01890188818C3008F066C05F
:1008C00061E08D2D0E94920C8881A82FB0E0FD017F
:1008D000EE0FFF1FEA0FFB1FE256FD4F2D2D2F736A
:1008E0009081907C922B908360E272E06E197F0978
:1008F00077FF02C06D5F7F4F75956795759567951A
:10090000698340E659E0401B510B57FF02C04D5F21
:100910005F4F55954795559547954A836CE00E94E2
:10092000B7149CE0899FB001112420E030E0A901B8
:10093000460F571FFA01EE0FFF1FE40FF51FE25697
:10094000FD4F908196FD16C02F5F3F4F2C30310533
:1009500071F781110FC01092800082E080938100B6
:100960001092850010928400B19A80916F0082608D
:1009700080936F00888190E0FC01EE0FFF1FE80F6D
:10098000F91FE256FD4F8081806480838881DF916A
:10099000CF911F910F91FF90EF90DF90089520E687
:1009A00039E040E252E00C945104FC0180818C302B
:1009B00070F5918128E830E0291B310997FD3395C6
:1009C000220F331F220F331F621773077CF09281AF
:1009D00028E532E0291B310997FD3395220F331F9B
:1009E000220F331F621773070CF49B012250310949
:1009F000220F331F4FB7F89490E0FC01EE0FFF1F5A
:100A0000E80FF91FE256FD4F328321834FBF08954F
:100A10004F925F926F927F92AF92BF92CF92DF928E
:100A2000EF92FF920F931F93CF93DF93EC0160320D
:100A300082E078070CF040C077FD06C0653B710589
:100A40002CF064EB70E002C060E070E0898128E87F
:100A500030E0281B310987FD3395220F331F220F09
:100A6000331F5901CC24B7FCC094DC2C882777FDB8
:100A70008095982F2A8148E552E0421B510927FDB5
:100A80005395440F551F440F551F2A01662457FCE8
:100A90006094762C7F926F925F924F9214EBE12ECE
:100AA000F12C00E010E020E030E0A9010E943012BB
:100AB0000F900F900F900F90CE01DF91CF911F916B
:100AC0000F91FF90EF90DF90CF90BF90AF907F900D
:100AD0006F905F904F900C94D5048091F20290E05B
:100AE0002091F302821B910908952091F3028091D5
:100AF000F202281750F4E22FF0E0EC50FD4F808115
:100B000090E02F5F2093F30208958FEF9FEF0895F9
:100B1000E091F3028091F202E81730F4F0E0EC503B
:100B2000FD4F808190E008958FEF9FEF0895089525
:100B3000CF92DF92EF92FF920F931F93CF93DF93A9
:100B40007C01CB018A012091CE02222389F0EB01A6
:100B50006B01C40ED51ECC15DD0569F06991D70176
:100B6000ED91FC910190F081E02DC7010995F3CF43
:100B7000642F0E945807C801DF91CF911F910F91F8
:100B8000FF90EF90DF90CF900895CF93DF931F9267
:100B9000CDB7DEB769832091CE022223D1F0209118
:100BA000CF02203240F021E030E0FC013383228389
:100BB00080E090E015C08091D002E82FF0E0EF5285
:100BC000FD4F998190838F5F8093D0028093CF02F5
:100BD00005C061E0CE0101960E94580781E090E0D7
:100BE0000F90DF91CF910895FC011382128248EE9D
:100BF00053E060E070E044835583668377838DE241
:100C000092E09183808308951092F3021092F20291
:100C10001092D0021092CF020C949B0681E0809338
:100C2000CE026093F1021092D0021092CF0208958A
:100C30000C940E060F93062F21E04091CF0261ED38
:100C400072E08091F1020E9401071092D00210928E
:100C5000CF021092CE020F9108958F929F92AF9281
:100C6000BF92CF92DF92EF92FF920F931F93CF9399
:100C7000DF93EC01F62ED42E48015901EE2019F134
:100C80000E940E061E2D143008F013E01150B8F02B
:100C9000E881F98128E0129FB0011124A501940197
:100CA00004C056954795379527956A95D2F7CA019E
:100CB000B9010190F081E02DCE010995E7CF60E008
:100CC000CE010E941A064D2D413208F040E22C2D33
:100CD00064EF72E08F2D0E94B9061092F3028093A8
:100CE000F202DF91CF911F910F91FF90EF90DF9073
:100CF000CF90BF90AF909F908F900895CF92EF923A
:100D00000F931F93C22EE12C00E010E098010E9487
:100D10002D061F910F91EF90CF90089521E00C9434
:100D20007E0621E00C947E0661E00C941A0682ECAB
:100D300092E00C94F4051092810381E080937F038C
:100D400010927E0361E082E10E94CB0C61E083E1BE
:100D50000E94CB0CE9EBF0E080818E7F8083808164
:100D60008D7F808388E48093B80085E48093BC0005
:100D70000895413208F043C0909181039111FCCF56
:100D800091E09093810320937F032FEF209314032E
:100D900010925903240F209358039093800390914D
:100DA0008003880F892B8093800380917E0381309C
:100DB00061F410927E03809180038093BB00809148
:100DC000BC0083FDF8CF85EC01C085EE8093BC00AC
:100DD000809181038130E1F380915903841710F4ED
:100DE000409159032AE533E0FB01D9018A2F821B88
:100DF000841718F48D918193F9CF842F089580E0A2
:100E000008950F93413208F04AC0909181039111E7
:100E1000FCCF92E09093810300937F039FEF909328
:100E200014031092590340935803FB016AE573E0E1
:100E3000DB019A2F961B941718F491919D93F9CF8B
:100E40001092800390918003880F892B80938003F8
:100E500080917E03813061F410927E038091800343
:100E60008093BB008091BC0083FDF8CF85EC01C06E
:100E700085EE8093BC00222321F080918103823093
:100E8000E1F3809114038F3F61F08091140380326D
:100E900051F080911403803341F483E007C081E076
:100EA00005C080E003C082E001C084E00F91089596
:100EB000613298F420918103243089F460933603E1
:100EC000FC0188E393E0DC012A2F281B261718F485
:100ED00021912D93F9CF80E0089581E0089582E07B
:100EE000089585ED8093BC008091BC0084FDFCCF0B
:100EF00010928103089585EC8093BC0010928103C9
:100F000008951F920F920FB60F9211242F933F93C3
:100F10004F935F936F937F938F939F93AF93BF9301
:100F2000EF93FF938091B900887F803609F49EC0CB
:100F300078F5883209F45DC090F4803109F456C028
:100F400038F4882309F4F5C0883009F44FC0F5C09F
:100F5000883109F44EC0803209F45FC0EEC080349D
:100F600009F46AC058F4803309F457C0883309F093
:100F7000E4C0809314030E947B07DFC0803509F42E
:100F80004FC0883509F45DC0883409F0D6C0D3C09D
:100F9000883909F4C4C0A8F4883709F467C038F464
:100FA000883609F463C0803709F460C0C6C0883849
:100FB00009F4B5C0803909F45FC0803809F0BDC0BC
:100FC0005BC0803B09F483C038F4803A09F466C002
:100FD000883A09F47CC0B1C0803C09F4A4C0883CC4
:100FE00009F4A1C0883B09F487C0A7C080918003A1
:100FF00010C09091590380915803981770F5E091B3
:10100000590381E08E0F80935903F0E0E65AFC4FBC
:1010100080818093BB0085EC83C0809314038BC0D8
:10102000E091590381E08E0F809359038091BB00BA
:10103000F0E0E65AFC4F8083909159038091580369
:101040006BC0E091590381E08E0F8093590380912A
:10105000BB00F0E0E65AFC4F808380917F03811152
:101060006AC081E080937E0384EA5EC083E080935F
:10107000810310921503CFCF80911503803208F0C1
:101080004EC0E091150381E08E0F8093150380918F
:10109000BB00F0E0EA5EFC4F8083BDCF0E947B077F
:1010A00080911503803230F4E0911503F0E0EA5EA0
:1010B000FC4F10826091150370E0E0917A03F0918B
:1010C0007B0386E193E009951092150336C084E016
:1010D000809381031092370310923603E0917C03D2
:1010E000F0917D03099580913603811105C081E05F
:1010F0008093360310923803E091370381E08E0F1E
:1011000080933703F0E0E85CFC4F80818093BB0064
:101110009091370380913603981708F47CCF85E8C7
:101120008093BC000AC085EC8093BC0010928103C0
:1011300004C0109214030E947107FF91EF91BF91B8
:10114000AF919F918F917F916F915F914F913F915F
:101150002F910F900FBE0F901F901895DC01ED910D
:10116000FC910190F081E02D09941F93CF93DF93C0
:1011700000D000D0CDB7DEB7162F69E270E082EC68
:1011800092E029833A834B835C830E94180610689F
:10119000612F70E082EC92E00E94AE08E091C20202
:1011A000F091C30229813A814B815C81CA01B90166
:1011B0007727882799270190F081E02D82EC92E033
:1011C000099582EC92E00F900F900F900F90DF91B5
:1011D000CF911F910C949406CF93DF93EC0121E003
:1011E00030E040E050E060E00E94B50863E070E06D
:1011F00080E090E00E94060C23E030E040E050E008
:1012000060E0CE01DF91CF910C94B508FC01108213
:1012100074836383528341830895CF93C62F69E219
:1012200070E082EC92E00E941806C0686C2F70E0BB
:1012300082EC92E00E94AE0882EC92E00E9494065A
:1012400041E050E069E270E082EC92E00E94910699
:1012500082EC92E00E947505CF910895CF93DF93C1
:10126000EC0182EC92E00E94040662E1CE010E9451
:101270000D09843411F0803189F481E088836B8119
:101280007C81CE010E94520969817A81CE010E943F
:101290006C09CE010E94EC0881E001C080E0DF9182
:1012A000CF9108950F931F93CF93DF93EC018B01A0
:1012B0008881811103C0CE010E942E09980140E06F
:1012C00050E061E0CE010E94B5081C830B83DF91E2
:1012D000CF911F910F9108950F931F93CF93DF9399
:1012E000EC018B018881811103C0CE010E942E097F
:1012F000980140E050E06FE0CE010E94B5081A83EB
:101300000983DF91CF911F910F910895FC0183E034
:1013100090E0908787831386128614860895EF9253
:10132000FF921F93CF93DF931F92CDB7DEB77C015F
:10133000162FFC01618582EC92E049830E940E0623
:10134000612F82EC92E00E94C5054981642F82ECF6
:1013500092E00E94C50582EC92E00E949406F7019B
:1013600086830F90DF91CF911F91FF90EF900895AA
:10137000CF93DF93EC018F819885029729F440E0A9
:1013800069E3CE010E948F0940E063E2CE010E9432
:101390008F094FE660E2CE01DF91CF910C948F0967
:1013A0009F92AF92BF92CF92DF92EF92FF920F93F4
:1013B0001F93CF93DF93EC01698582EC92E00E944A
:1013C0000E06E091C202F091C3020190F081E02D7F
:1013D00068EA82EC92E0099582EC92E00E94940621
:1013E00046E0698582EC92E00E948E060E94D70B4F
:1013F0007B0182EC92E00E946D05069784F48A8559
:101400009B85892BB1F30E94D70B6E197F098A85C2
:101410009B858617970768F781E08C872CC082EC44
:1014200092E00E947505A82E82EC92E00E9475055C
:10143000982E82EC92E00E947505E82E82EC92E0F4
:101440000E947505B82E82EC92E00E947505F82E78
:1014500082EC92E00E947505D92CC12CCA28D98251
:10146000C8821B2D00E00E291B830A83982F882732
:101470008F299D838C83DF91CF911F910F91FF90D6
:10148000EF90DF90CF90BF90AF909F9008951F9303
:10149000CF93DF931F92CDB7DEB7162F82EC92E089
:1014A00049830E940E064981642F82EC92E00E94DB
:1014B000C50582EC92E00E949406811114C041E0BF
:1014C000612F82EC92E00E948E0682EC92E00E94F4
:1014D0006D05892B41F082EC92E00F90DF91CF9166
:1014E0001F910C9475058FEF9FEF0F90DF91CF91B7
:1014F0001F910895EF92FF920F931F93CF93DF9365
:101500007C01EB018A016330710521F04230510505
:1015100009F051C0CE010197039758F50115110547
:1015200081F04FE050E06BE6C7010E94470A8F3F11
:101530002FEF920719F001E010E013C00130110500
:1015400051F04FE050E06AE6C7010E94470A8F3F22
:10155000EFEF9E0721F4C330D10569F027C000E00A
:1015600010E0C330D10529F4873D9105F1F5C2E0C3
:10157000D0E02097D9F40115110561F04FE050E05B
:1015800069E6C7010E94470A833D910589F1013050
:10159000110549F04FE050E068E6C7010E94470A94
:1015A000833D910541F1C330D10519F00230110599
:1015B00011F480E025C0F701D087C783209759F048
:1015C000D7FD11C023977CF40130110511F48BE68F
:1015D00008C08AE606C00130110511F489E601C091
:1015E00088E6F701818781E00BC0C1E0D0E0C1CF80
:1015F00001E010E002C000E010E0C0E0D0E0D6CF93
:10160000DF91CF911F910F91FF90EF9008958FEF91
:101610008093820310928403109283030895CF93E2
:10162000DF93DC0170E0FB01E458FF4FE491149676
:10163000EC931497842F90E0FC01E458FF4FE49161
:101640001596EC93159760577F4FFB01C491D0E03E
:10165000CC0FDD1FC255DF4FFE0145915491179607
:101660005C934E931697FC01E057FF4F849190E0F6
:10167000880F991F8C559F4FFC01459154911996E5
:101680005C934E931897FB016491E62FF0E0EE0F08
:10169000FF1FE854FF4F859194911B969C938E9366
:1016A0001A972F5F3F4F49E3429FC001439F900D20
:1016B00011248E38FFE69F0710F08DE89FE61D96F7
:1016C0009C938E931C97DF91CF9108951F920F9258
:1016D0000FB60F9211242F933F934F935F936F9305
:1016E0007F938F939F93AF93BF93EF93FF93E0917B
:1016F0008903F0918A030995FF91EF91BF91AF9112
:101700009F918F917F916F915F914F913F912F9119
:101710000F900FBE0F901F9018951F920F920FB64B
:101720000F9211242F933F938F939F93AF93BF9367
:1017300080918C0390918D03A0918E03B0918F03C3
:1017400030918B0323E0230F2D3720F40196A11D48
:10175000B11D05C026E8230F0296A11DB11D2093DF
:101760008B0380938C0390938D03A0938E03B0938F
:101770008F038091900390919103A0919203B09177
:1017800093030196A11DB11D809390039093910343
:10179000A0939203B0939303BF91AF919F918F91C8
:1017A0003F912F910F900FBE0F901F9018952FB75C
:1017B000F89460918C0370918D0380918E039091C9
:1017C0008F032FBF08953FB7F894809190039091B5
:1017D0009103A0919203B091930326B5A89B05C0F5
:1017E0002F3F19F00196A11DB11D3FBF6627782F2D
:1017F000892F9A2F620F711D811D911D42E0660F86
:10180000771F881F991F4A95D1F70895CF92DF92CD
:10181000EF92FF92CF93DF936B017C010E94E30B69
:10182000EB01C114D104E104F10489F00E94871294
:101830000E94E30B6C1B7D0B683E734090F381E0CC
:10184000C81AD108E108F108C851DC4FEACFDF918E
:10185000CF91FF90EF90DF90CF900895789484B56A
:10186000826084BD84B5816084BD85B5826085BD9C
:1018700085B5816085BDEEE6F0E080818160808382
:10188000E1E8F0E010828081826080838081816065
:101890008083E0E8F0E0808181608083E1EBF0E02C
:1018A000808184608083E0EBF0E0808181608083D0
:1018B000EAE7F0E0808184608083808182608083B9
:1018C0008081816080838081806880831092C100E4
:1018D0000895833081F028F4813099F08230A1F0AE
:1018E00008958730A9F08830B9F08430D1F4809120
:1018F00080008F7D03C0809180008F77809380006F
:10190000089584B58F7702C084B58F7D84BD089516
:101910008091B0008F7703C08091B0008F7D80935D
:10192000B0000895CF93DF9390E0FC01E458FF4F9F
:101930002491FC01E057FF4F8491882349F190E006
:10194000880F991FFC01E854FF4FA591B49182556F
:101950009F4FFC01C591D4919FB7611108C0F894C5
:101960008C91209582238C93888182230AC06230D7
:1019700051F4F8948C91322F309583238C93888185
:10198000822B888304C0F8948C91822B8C939FBF08
:10199000DF91CF9108950F931F93CF93DF931F9201
:1019A000CDB7DEB7282F30E0F901E859FF4F849119
:1019B000F901E458FF4F1491F901E057FF4F0491EA
:1019C0000023C9F0882321F069830E94690C698192
:1019D000E02FF0E0EE0FFF1FE255FF4FA591B4910D
:1019E0009FB7F8948C91611103C01095812301C0B9
:1019F000812B8C939FBF0F90DF91CF911F910F91FF
:101A00000895CF93DF93282F30E0F901E859FF4F75
:101A10008491F901E458FF4FD491F901E057FF4F49
:101A2000C491CC2391F081110E94690CEC2FF0E05D
:101A3000EE0FFF1FEC55FF4FA591B4912C912D2374
:101A400081E090E021F480E002C080E090E0DF914E
:101A5000CF910895FC01818D228D90E0805C9F4F95
:101A6000821B91098F7399270895FC01918D828DB6
:101A7000981731F0828DE80FF11D858D90E0089563
:101A80008FEF9FEF0895FC01918D828D981761F083
:101A9000828DDF01A80FB11D5D968C91928D9F5FA5
:101AA0009F73928F90E008958FEF9FEF089587ECDA
:101AB0009EE0892B49F080E090E0892B29F00E947C
:101AC000C70E81110C9400000895FC01848DDF0184
:101AD000A80FB11DA35ABF4F2C91848D90E00196A1
:101AE0008F739927848FA689B7892C93A089B18990
:101AF0008C9180648C93938D848D981306C002889A
:101B0000F389E02D80818F7D80830895CF93DF93CB
:101B1000EC01888D8823C9F0EA89FB89808185FDE5
:101B200005C0A889B9898C9186FD0FC00FB607FC46
:101B3000F5CF808185FFF2CFA889B9898C9185FF87
:101B4000EDCFCE010E94650DE7CFDF91CF910895D3
:101B5000CF92DF92FF920F931F93CF93DF931F9249
:101B6000CDB7DEB76C0181E0D60158968C935897BB
:101B70005B969C915B975C968C915C97981307C0E1
:101B80005096ED91FC915197808185FD2EC0F60114
:101B9000038D10E00F5F1F4F0F731127F02EF6011A
:101BA000848DF81211C00FB607FCF9CFD6015096FC
:101BB000ED91FC915197808185FFF1CFC60169833A
:101BC0000E94650D6981EBCF838DE80FF11DE35A0B
:101BD000FF4F6083D6015B960C935B975296ED9115
:101BE000FC915397808180620CC0D6015696ED918E
:101BF000FC91579760835096ED91FC9151978081AD
:101C00008064808381E090E00F90DF91CF911F91FD
:101C10000F91FF90DF90CF900895BF92CF92DF9207
:101C2000EF92FF92CF93DF93EC016A017B01B22E1A
:101C3000E889F98982E08083411581EE58076105C2
:101C40007105A1F060E079E08DE390E0A7019601D5
:101C50000E94C314215031094109510956954795F5
:101C600037952795211580E1380798F0E889F9899B
:101C7000108260E874E88EE190E0A70196010E946E
:101C8000C31421503109410951095695479537959B
:101C90002795EC85FD853083EE85FF852083188EA2
:101CA000EC89FD89B082EA89FB898081806180832B
:101CB000EA89FB89808188608083EA89FB89808149
:101CC00080688083EA89FB8980818F7D8083DF91B2
:101CD000CF91FF90EF90DF90CF90BF9008951F922B
:101CE0000F920FB60F9211242F938F939F93EF9320
:101CF000FF93E091A403F091A5038081E091AA03F2
:101D0000F091AB0382FD12C090818091AD038F5F93
:101D10008F732091AE03821751F0E091AD03F0E094
:101D2000EC56FC4F958F8093AD0301C08081FF91ED
:101D3000EF919F918F912F910F900FBE0F901F9059
:101D400018951F920F920FB60F9211242F933F9365
:101D50004F935F936F937F938F939F93AF93BF93B3
:101D6000EF93FF9384E993E00E94650DFF91EF915B
:101D7000BF91AF919F918F917F916F915F914F91A3
:101D80003F912F910F900FBE0F901F90189584E9EF
:101D900093E00E942A0D21E0892B09F420E0822F94
:101DA0000895109297031092960388EE93E0A0E0B6
:101DB000B0E08093980390939903A0939A03B09313
:101DC0009B038DE392E0909395038093940385ECBD
:101DD00090E09093A1038093A00384EC90E0909313
:101DE000A3038093A20380EC90E09093A5038093DB
:101DF000A40381EC90E09093A7038093A60382EC68
:101E000090E09093A9038093A80386EC90E09093D0
:101E1000AB038093AA031092AD031092AE0310920D
:101E2000AF031092B0030895CF92DF92EF92FF922A
:101E30000F931F93CF93DF937C016A01EB0100E0C6
:101E400010E00C151D0571F06991D701ED91FC9121
:101E50000190F081E02DC7010995892B19F00F5FE2
:101E60001F4FEFCFC801DF91CF911F910F91FF90CE
:101E7000EF90DF90CF9008956115710581F0DB013F
:101E80000D900020E9F7AD0141505109461B570B59
:101E9000DC01ED91FC910280F381E02D099480E05A
:101EA00090E008950C943C0FDC01ED91FC910190C1
:101EB000F081E02D099469E472E00C943C0F0F93DB
:101EC0001F93CF93DF93EC010E943C0F8C01CE0156
:101ED0000E945B0F800F911FDF91CF911F910F9197
:101EE00008958F929F92AF92BF92CF92DF92EF921E
:101EF000FF920F931F93CF93DF93CDB7DEB7A197D8
:101F00000FB6F894DEBF0FBECDBF7C01C42EE52F07
:101F1000CB01D22E19A221E02D1510F02AE0D22EED
:101F20008E010F5D1F4F8D2C912CA12CB12C6C2D8F
:101F30007E2FA50194010E94C3148C2DD29E80197E
:101F40001124015011098A3014F4805D01C0895CAC
:101F5000F8018083211531054105510521F0C22E7C
:101F6000E32FCA01E4CFB801C7010E943C0FA1963C
:101F70000FB6F894DEBF0FBECDBFDF91CF911F919A
:101F80000F91FF90EF90DF90CF90BF90AF909F9018
:101F90008F900895CF92DF92EF92FF920F931F934D
:101FA000CF93DF93EC016A017B012115310579F4B0
:101FB000E881F9810190F081E02D642FDF91CF91CC
:101FC0001F910F91FF90EF90DF90CF9009942A30EE
:101FD0003105E9F477FF1AC06DE20E94540F8C01BD
:101FE00044275527BA014C195D096E097F092AE07B
:101FF000CE010E94710F800F911FDF91CF911F9131
:102000000F91FF90EF90DF90CF9008952AE0B701F5
:10201000A601CE01DF91CF911F910F91FF90EF901C
:10202000DF90CF900C94710F0F931F93CF93DF939A
:10203000EC019A01AB01662757FD6095762F0E944F
:10204000CA0F8C01CE010E945B0F800F911FDF91A0
:10205000CF911F910F9108952115310541F4DC01B5
:10206000ED91FC910190F081E02D642F09940C9486
:10207000710F0F931F93CF93DF93EC019A01462FBB
:1020800050E060E070E00E942C108C01CE010E94B4
:102090005B0F800F911FDF91CF911F910F910895DA
:1020A0004F925F926F927F928F929F92AF92BF9268
:1020B000CF92DF92EF92FF920F931F93CF93DF9314
:1020C000EC016A017B01B22E9A01AB01C701B60196
:1020D0000E94A314882319F06CE472E027C0260143
:1020E0003701E89477F82FEF3FEF4FE75FE7C30141
:1020F000B2010E94A31481110DC02FEF3FEF4FE7F3
:102100005FE7C301B2010E94ED1218161CF460E5EE
:1021100072E00CC02FEF3FEF4FE75FE4C701B6015D
:102120000E943C141816ACF464E572E0CE01DF9115
:10213000CF911F910F91FF90EF90DF90CF90BF90C4
:10214000AF909F908F907F906F905F904F900C9486
:102150003C0F2FEF3FEF4FE75FECC701B6010E9446
:10216000ED1287FDE1CF20E030E0A901C701B60103
:102170000E94ED1287FF0AC06DE2CE010E94540F4B
:102180008C01F7FAF094F7F8F09402C000E010E048
:10219000A12C60E070E080E09FE3AB1441F020E010
:1021A00030E040E251E40E94F112A394F6CF9B018B
:1021B000AC01C701B6010E9489126B017C010E942B
:1021C0005E132B013C010E948A139B01AC01C701E5
:1021D000B6010E9488126B017C012AE0B301A201C2
:1021E000CE010E94710F080F191FBB2039F068E55E
:1021F00072E0CE010E943C0F080F191F7B2C772044
:1022000041F120E030E040E251E4C701B6010E9414
:1022100040146B017C010E9459134B01AA2497FCC6
:10222000A094BA2C2AE030E0B501A401CE010E94AE
:10223000CA0F080F191FC501B4010E948C139B011E
:10224000AC01C701B6010E9488126B017C017A942F
:10225000D6CFC801DF91CF911F910F91FF90EF90E2
:10226000DF90CF90BF90AF909F908F907F906F90B6
:102270005F904F9008950C9450100F931F93CF933D
:10228000DF93EC010E9450108C01CE010E945B0F85
:10229000800F911FDF91CF911F910F9108950F93A0
:1022A0001F93CF93DF93EC010E94D70B6887798748
:1022B0008A879B87E881F9810084F185E02DCE0132
:1022C000099597FF15C00E94D70B088519852A85A7
:1022D0003B85601B710B820B930B0C811D812E8142
:1022E0003F81601771078207930720F38FEF9FEFFD
:1022F000DF91CF911F910F910895FF920F931F933C
:10230000CF93DF93EC018B01F42ECE010E944F118D
:102310009C0197FD28C08D32910519F1C0970A974D
:1023200010F1FF2019F02E323105F9F001301105BE
:10233000F9F00230110569F42D30310551F034F413
:10234000295031092230310520F012C020323105E8
:1023500079F4E881F9810680F781E02DCE010995B5
:10236000D4CF8DE203C0C90105C08EE290E002C067
:102370008FEF9FEFDF91CF911F910F91FF90089505
:10238000CF92DF92FF920F931F93CF93DF9300D0F2
:1023900000D0CDB7DEB76C01042F40E00E947D1164
:1023A000FC0197FD4BC020E030E0A901F12C112782
:1023B00007FD1095E017F107E9F0ED32F105C1F0E6
:1023C000CF01C0970A97B0F4AAE0B0E00E940415CC
:1023D0009B01AC01CF01AA2797FDA095BA2F280F2A
:1023E000391F4A1F5B1F205331094109510902C09F
:1023F000FF24F394D601ED91FC910680F781E02D46
:10240000C60129833A834B835C830995C6010E94E8
:102410004F11FC01C09729813A814B815C810A9759
:1024200048F2E017F10731F2FF2061F066277727C5
:10243000CB01621B730B840B950B06C060E070E050
:10244000CB0102C0CA01B9010F900F900F900F90FD
:10245000DF91CF911F910F91FF90DF90CF90089562
:102460004F925F926F927F92AF92BF92CF92DF9224
:10247000EF92FF920F931F93CF93DF93CDB7DEB709
:1024800029013A01621B730B840B950B29893A8948
:102490004B895C892A193B094C095D09298B3A8BC8
:1024A0004B8B5C8B9B01AC0169897A898B899C89F8
:1024B0000E94A714E418F50806091709A801970156
:1024C0000E94E5142A0D3B1D4C1D5D1DCA01B9017A
:1024D000DF91CF911F910F91FF90EF90DF90CF9000
:1024E000BF90AF907F906F905F904F900895089548
:1024F0000E942E0C0E9477120E94A202C7E5DDE026
:102500000E9464032097E1F30E94570DF9CF0895CC
:102510005058BB27AA270ED075C166D130F06BD1B9
:1025200020F031F49F3F11F41EF45BC10EF4E095EE
:10253000E7FB51C1E92F77D180F3BA176207730720
:102540008407950718F071F49EF58FC10EF4E0959D
:102550000B2EBA2FA02D0B01B90190010C01CA015D
:10256000A0011124FF27591B99F0593F50F4503E08
:1025700068F11A16F040A22F232F342F4427585FFA
:10258000F3CF469537952795A795F0405395C9F712
:102590007EF41F16BA0B620B730B840BBAF09150CA
:1025A000A1F0FF0FBB1F661F771F881FC2F70EC069
:1025B000BA0F621F731F841F48F48795779567953C
:1025C000B795F7959E3F08F0B3CF9395880F08F025
:1025D0009927EE0F979587950895D9D008F481E053
:1025E00008950CD00FC107D140F0FED030F021F497
:1025F0005F3F19F0F0C0511139C1F3C014D198F305
:102600009923C9F35523B1F3951B550BBB27AA2773
:1026100062177307840738F09F5F5F4F220F331FE5
:10262000441FAA1FA9F333D00E2E3AF0E0E830D0B1
:1026300091505040E695001CCAF729D0FE2F27D0B4
:10264000660F771F881FBB1F261737074807AB0782
:10265000B0E809F0BB0B802DBF01FF2793585F4FF7
:102660002AF09E3F510568F0B6C000C15F3FECF311
:10267000983EDCF3869577956795B795F7959F5FBC
:10268000C9F7880F911D9695879597F90895E1E010
:10269000660F771F881FBB1F621773078407BA076F
:1026A00020F0621B730B840BBA0BEE1F88F7E095CA
:1026B000089504D06894B111D9C00895BCD088F0B1
:1026C0009F5790F0B92F9927B751A0F0D1F0660F1E
:1026D000771F881F991F1AF0BA95C9F712C0B13039
:1026E00081F0C3D0B1E00895C0C0672F782F88274C
:1026F000B85F39F0B93FCCF3869577956795B39578
:10270000D9F73EF490958095709561957F4F8F4FE6
:102710009F4F0895E89409C097FB3EF490958095EB
:10272000709561957F4F8F4F9F4F9923A9F0F92F97
:1027300096E9BB279395F695879577956795B79515
:10274000F111F8CFFAF4BB0F11F460FF1BC06F5FFB
:102750007F4F8F4F9F4F16C0882311F096E911C00D
:10276000772321F09EE8872F762F05C0662371F02E
:1027700096E8862F70E060E02AF09A95660F771F42
:10278000881FDAF7880F9695879597F90895990F1E
:102790000008550FAA0BE0E8FEEF16161706E8072B
:1027A000F907C0F012161306E407F50798F0621B4C
:1027B000730B840B950B39F40A2661F0232B242B21
:1027C000252B21F408950A2609F4A140A6958FEF40
:1027D000811D811D089597F99F6780E870E060E092
:1027E00008959FEF80EC089500240A9416161706AA
:1027F00018060906089500240A94121613061406F2
:1028000005060895092E0394000C11F4882352F054
:10281000BB0F40F4BF2B11F460FF04C06F5F7F4F0C
:102820008F4F9F4F089557FD9058440F551F59F0F3
:102830005F3F71F04795880F97FB991F61F09F3FAD
:1028400079F087950895121613061406551FF2CFD6
:102850004695F1DF08C0161617061806991FF1CF26
:1028600086957105610508940895E894BB2766274D
:102870007727CB0197F908958ADF08F48FEF089541
:102880000BD0C0CFB1DF28F0B6DF18F0952309F0E8
:10289000A2CFA7CF1124EACFC6DFA0F3959FD1F333
:1028A000950F50E0551F629FF001729FBB27F00DFE
:1028B000B11D639FAA27F00DB11DAA1F649F662753
:1028C000B00DA11D661F829F2227B00DA11D621FA2
:1028D000739FB00DA11D621F839FA00D611D221F5C
:1028E000749F3327A00D611D231F849F600D211D40
:1028F000822F762F6A2F11249F5750408AF0E1F0E3
:1029000088234AF0EE0FFF1FBB1F661F771F881F2B
:1029100091505040A9F79E3F510570F05CCFA6CF73
:102920005F3FECF3983EDCF3869577956795B79516
:10293000F795E7959F5FC1F7FE2B880F911D969540
:10294000879597F9089523DF880B990B0895DB018C
:102950008F939F930E940415BF91AF91A29F800D0A
:10296000911DA39F900DB29F900D11240895991B66
:1029700079E004C0991F961708F0961B881F7A9576
:10298000C9F780950895A1E21A2EAA1BBB1BFD0171
:102990000DC0AA1FBB1FEE1FFF1FA217B307E4073E
:1029A000F50720F0A21BB30BE40BF50B661F771F96
:1029B000881F991F1A9469F7609570958095909576
:1029C0009B01AC01BD01CF010895052E97FB1EF4BC
:1029D00000940E94FC1457FD07D00E94C31407FC0A
:1029E00003D04EF40C94FC145095409530952195ED
:1029F0003F4F4F4F5F4F089590958095709561952B
:102A00007F4F8F4F9F4F08950E941515A59F900DE2
:102A1000B49F900DA49F800D911D11240895EE0F79
:102A2000FF1F0590F491E02D0994A29FB001B39F80
:102A3000C001A39F700D811D1124911DB29F700DC7
:0C2A4000811D1124911D0895F894FFCF12
:102A4C0000003104800001000000436F6C6F7220A5
:102A5C0073656E736F722072656164696E67733A29
:102A6C0000523A0900473A0900423A0900436F6C98
:102A7C006F722073656E736F7220287363616C655F
:102A8C006420746F203820626974293A0048756597
:102A9C002028382D626974293A09004779726F2011
:102AAC004443204F66667365743A20004779726F11
:102ABC00204E6F697365204C6576656C3A20006713
:102ACC0079726F416E676C65006779726F20464949
:102ADC00464F20636C6561726564006779726F2084
:102AEC004649464F2073747265616D206D6F646545
:102AFC00206F6E00616E676C653A2000097261741C
:102B0C00653A20005443533334373235204932432D
:102B1C0020636F6C6F722073656E736F7200206E22
:102B2C006F740020666F756E64004C33474432300E
:102B3C004820493243206779726F2073656E736F3A
:102B4C007200456E746572207475726E20737065B8
:102B5C0065643A20005072657373206720746F208F
:102B6C00636F6E74696E75650000000000C5059892
:102B7C00056D0575058805970500000000A80D1466
:102B8C000F2A0D430D350D860D0D0A006E616E007A
:0A2B9C00696E66006F7666002E0079
:00000001FF
