:100000000C9465000C94BB0D0C94E20D0C948D00C7
:100010000C948D000C948D000C948D000C94490B65
:100020000C948D000C948D000C948D000C945C034A
:100030000C948D000C948D000C948D000C948D000C
:100040000C94090E0C948D000C94C2100C94F410B6
:100050000C948D000C948D000C948D000C948D00EC
:100060000C9464070C948D0000000008000201004D
:100070000003040700000000000000000102040863
:100080001020408001020408102001020408102002
:10009000040404040404040402020202020203032E
:1000A00003030303000000002300260029000000D2
:1000B0000000250028002B0000000000240027007D
:1000C0002A00B2017A06EA0A241111241FBECFEFDA
:1000D000D8E0DEBFCDBF12E0A0E0B1E0E4EEFCE28C
:1000E00002C005900D92A238B107D9F724E0A2E82A
:1000F000B2E001C01D92AE39B207E1F710E0CAECE0
:10010000D0E004C02297FE010E945D16C23CD107D8
:10011000C9F70E94C4130C9470160C940000CF937E
:10012000DF9300D000D0CDB7DEB786EF92E00E941B
:10013000B3090E94530E9B01AC018091F202909191
:10014000F302A091F402B091F502281B390B4A0B7F
:100150005B0B29833A834B835C830E94530E60932D
:10016000F2027093F3028093F4029093F50268EE2A
:1001700073E080E090E029813A814B815C810E94AC
:100180000F16CA01B9010E94D614AB01BC0122E0CE
:1001900030E081E094E00F900F900F900F90DF918E
:1001A000CF910C946A13CF92DF92EF92FF926B0182
:1001B0007C0161E08DE00E94470FF694E794D794AC
:1001C000C794C701B6010E94820E60E08DE00E94D4
:1001D000470FC701B601FF90EF90DF90CF900C94CE
:1001E000820E4F925F926F927F92AF92BF92CF92A8
:1001F000DF92EF92FF920F931F93CF93DF9369E605
:1002000071E081E094E00E94A511C8EED3E0C12C1A
:10021000D12C760186EF92E00E94B3098091F8021A
:100220009091F902AA2797FDA095BA2FC80ED91E62
:10023000EA1EFB1E219771F7C701B60128EE33E0D5
:1002400040E050E00E943116CA01B9013093F1023A
:100250002093F0024AE050E081E094E00E946712AF
:100260006AE771E081E094E00E94A511C8EED3E056
:1002700086EF92E00E94B309A090F802B090F902D4
:100280000091F0021091F102B501601B710B8827FB
:1002900077FD8095982F0E94D8146B017C014090C7
:1002A000EC025090ED026090EE027090EF02A3011C
:1002B00092010E94881518164CF4C092EC02D0925C
:1002C000ED02E092EE02F092EF021DC0A301920156
:1002D0005058C701B6010E94391487FF14C0662721
:1002E00077276A197B09601B710B882777FD80953A
:1002F000982F0E94D8146093EC027093ED028093C3
:10030000EE029093EF02219709F0B2CF20E030E0A7
:1003100048EC52E46091EC027091ED028091EE02A3
:100320009091EF020E943D14AB01BC014093EC029E
:100330005093ED026093EE027093EF0224E030E000
:1003400081E094E0DF91CF911F910F91FF90EF90AA
:10035000DF90CF90BF90AF907F906F905F904F9065
:100360000C946A13AF92BF92CF92DF92EF92FF92FA
:100370000F931F9386E093E00E94180483E093E0BC
:100380000E94180486EF92E00E946909A09008017B
:10039000B0900901C0900A01D0900B01E0900C01CF
:1003A000F0900D0100910E0110910F011F921F920C
:1003B000809107018F93809106018F9380910501B1
:1003C0008F93809104018F9324EE32E040E151E05D
:1003D00068EE72E08BEA92E00E942D0D41E050E061
:1003E00060E070E086EA92E00E94E90824EF31E0E4
:1003F00043E06BE084E992E00E94F20A0F900F90D4
:100400000F900F900F900F9024EF31E049E06AE0D9
:1004100082E892E01F910F91FF90EF90DF90CF90D4
:10042000BF90AF900C94F20A64EF71E080E090E02E
:100430000E94D30064EF71E080E090E00E94D3005E
:100440000E94530E6093F2027093F3028093F402C1
:100450009093F50240E050E06FE870E080E00E9489
:100460009B0D81E094E00E947D0F892BD1F30895CC
:1004700067E971E081E094E00E94B21181E094E0CC
:100480000E94960F8736910539F060ED77E080E0A5
:1004900090E00E94D300F2CF0E94140268EE73E055
:1004A00080E090E00C94D30081E094E00E94D90FAA
:1004B00061E08EE00E94470FE0910104F091020498
:1004C0000190F081E02D6AEA81E094E0099581E0F5
:1004D00094E00E94D90F60E08EE00C94470FCF9318
:1004E000DF9300D000D0CDB7DEB790E899838A8340
:1004F0006B83860F8F778C8381E094E00E94D90F05
:1005000061E08EE00E94470FE0910104F091020447
:100510000280F381E02D44E050E0BE016F5F7F4F29
:1005200081E094E0099581E094E00E94D90F60E0B9
:100530008EE00E94470F0F900F900F900F90DF9169
:10054000CF9108950F931F9361E088E00E940E0FF2
:1005500060E088E00E94470F61E08EE00E940E0F8D
:1005600060E08EE00E94470F26E040E056E960E040
:1005700070E081E094E00E9460106BEA71E081E03D
:1005800094E00E94B21160ED77E080E090E00E947C
:10059000820E62ED71E081E094E00E94A5110E945C
:1005A00054026DEE71E081E094E00E94A51160E0DC
:1005B00088E00E946F0260E08BE00E946F0261E0C1
:1005C00088E00E94470F61E072E081E094E00E94C1
:1005D000B21165E070E086E093E00E94B2046CE83E
:1005E00070E086E093E00E94EB0466E070E083E058
:1005F00093E00E94B2046CE170E083E093E00E941B
:10060000EB0461E08DE00E940E0F65E172E081E095
:1006100094E00E94A51186EA92E00E9411098111DE
:1006200006C06FE272E081E094E00E94A51164E3ED
:1006300072E081E094E00E94B2116BE372E081E02D
:1006400094E00E94A51142E050E063E070E086EF84
:1006500092E00E945D0A811106C06FE272E081E0C3
:1006600094E00E94A51164E372E081E094E00E94AE
:10067000B21186EF92E00E949B090E94F10060E0B7
:100680008BE00E940E0F48E262E286EF92E00E9449
:10069000720900E010E02EEF32E440E050E0BA01D1
:1006A0008BEA92E00E94710C65E070E08BEA92E0C8
:1006B0001F910F910C94230C1F920F920FB60F9263
:1006C00011242F933F934F935F936F937F938F9357
:1006D0009F93AF93BF93EF93FF9380910A0387FF9C
:1006E00005C010928500109284001AC020910A0360
:1006F000332727FD30958091090390E028173907AB
:100700007CF480910A03992787FD9095FC01EE0FF8
:10071000FF1FE80FF91FE55FFC4F808186FD15C0C4
:1007200080910A038F5F80930A0320910A03332785
:1007300027FD30958091090390E028173907BCF414
:1007400080910A038C305CF112C080910A039927D2
:1007500087FD9095FC01EE0FFF1FE80FF91FE55F85
:10076000FC4F808160E08F730E94470FD9CF80914A
:10077000840090918500049680349C4918F480E4AC
:100780009CE905C080918400909185000496909327
:100790008900809388008FEF80930A0338C02091EE
:1007A00084003091850080910A03992787FD9095F8
:1007B000FC01EE0FFF1FE80FF91FE55FFC4F818181
:1007C0009281820F931F909389008093880080917B
:1007D0000A03992787FD9095FC01EE0FFF1FE80F94
:1007E000F91FE55FFC4F808186FF11C080910A03ED
:1007F000992787FD9095FC01EE0FFF1FE80FF91F69
:10080000E55FFC4F808161E08F730E94470FFF918D
:10081000EF91BF91AF919F918F917F916F915F9178
:100820004F913F912F910F900FBE0F901F901895F1
:10083000209109032C30A0F431E0320F30930903EA
:10084000FC012083822F90E0FC01EE0FFF1FE80FD8
:10085000F91FE55FFC4F88EB9BE09283818308954D
:100860002FEFFC0120830895DF92EF92FF920F9308
:100870001F93CF93DF93EC01D62E7A0189018881F3
:100880008C3008F066C061E08D2D0E940E0F8881CB
:10089000A82FB0E0FD01EE0FFF1FEA0FFB1FE55F81
:1008A000FC4F2D2D2F739081907C922B908360E2D2
:1008B00072E06E197F0977FF02C06D5F7F4F7595FB
:1008C000679575956795698340E659E0401B510B24
:1008D00057FF02C04D5F5F4F55954795559547951A
:1008E0004A836CE00E9403169CE0899FB0011124AA
:1008F00020E030E0A901460F571FFA01EE0FFF1F5D
:10090000E40FF51FE55FFC4F908196FD16C02F5F49
:100910003F4F2C30310571F781110FC010928000CC
:1009200082E0809381001092850010928400B19A39
:1009300080916F00826080936F00888190E0FC015D
:10094000EE0FFF1FE80FF91FE55FFC4F8081806409
:1009500080838881DF91CF911F910F91FF90EF905D
:10096000DF90089520E639E040E252E00C94340430
:10097000FC0180818C3070F5918128E830E0291BE2
:10098000310997FD3395220F331F220F331F621752
:1009900073077CF0928128E532E0291B310997FD2D
:1009A0003395220F331F220F331F621773070CF486
:1009B0009B0122503109220F331F4FB7F89490E06A
:1009C000FC01EE0FFF1FE80FF91FE55FFC4F3283BC
:1009D00021834FBF08954F925F926F927F92AF92A3
:1009E000BF92CF92DF92EF92FF920F931F93CF931C
:1009F000DF93EC01603282E078070CF040C077FDB5
:100A000006C0653B71052CF064EB70E002C060E04D
:100A100070E0898128E830E0281B310987FD339593
:100A2000220F331F220F331F5901CC24B7FCC0946F
:100A3000DC2C882777FD8095982F2A8148E552E0A5
:100A4000421B510927FD5395440F551F440F551F55
:100A50002A01662457FC6094762C7F926F925F92F5
:100A60004F9214EBE12EF12C00E010E020E030E09A
:100A7000A9010E947C130F900F900F900F90CE0150
:100A8000DF91CF911F910F91FF90EF90DF90CF906A
:100A9000BF90AF907F906F905F904F900C94B80490
:100AA00080915F0390E020916003821B910908957B
:100AB0002091600380915F03281750F4E22FF0E04B
:100AC000EF59FC4F808190E02F5F209360030895E1
:100AD0008FEF9FEF0895E091600380915F03E81727
:100AE00030F4F0E0EF59FC4F808190E008958FEFF3
:100AF0009FEF08950895CF92DF92EF92FF920F93A8
:100B00001F93CF93DF937C01CB018A0120913B039C
:100B1000222389F0EB016B01C40ED51ECC15DD0537
:100B200069F06991D701ED91FC910190F081E02D80
:100B3000C7010995F3CF642F0E943B07C801DF91DD
:100B4000CF911F910F91FF90EF90DF90CF9008957C
:100B5000CF93DF931F92CDB7DEB7698320913B031C
:100B60002223D1F020913C03203240F021E030E0FC
:100B7000FC013383228380E090E015C080913D0327
:100B8000E82FF0E0E25CFC4F998190838F5F8093C7
:100B90003D0380933C0305C061E0CE0101960E94B5
:100BA0003B0781E090E00F90DF91CF910895FC0129
:100BB0001382128248EE53E060E070E04483558374
:100BC0006683778387E592E091838083089510920E
:100BD000600310925F0310923D0310923C030C944B
:100BE0007E0681E080933B0360935E0310923D0399
:100BF00010923C0308950C94F1050F93062F21E009
:100C000040913C036EE373E080915E030E94E40632
:100C100010923D0310923C0310923B030F910895F4
:100C20008F929F92AF92BF92CF92DF92EF92FF92FC
:100C30000F931F93CF93DF93EC01F62ED42E480130
:100C40005901EE2019F10E94F1051E2D143008F013
:100C500013E01150B8F0E881F98128E0129FB0014B
:100C60001124A501940104C0569547953795279501
:100C70006A95D2F7CA01B9010190F081E02DCE0149
:100C80000995E7CF60E0CE010E94FD054D2D413270
:100C900008F040E22C2D61E673E08F2D0E949C0647
:100CA0001092600380935F03DF91CF911F910F91AA
:100CB000FF90EF90DF90CF90BF90AF909F908F907C
:100CC0000895CF92EF920F931F93C22EE12C00E074
:100CD00010E098010E9410061F910F91EF90CF90A5
:100CE000089521E00C94610621E00C94610661E016
:100CF0000C94FD058FE293E00C94D7051092EE035F
:100D000081E08093EC031092EB0361E082E10E94AA
:100D1000470F61E083E10E94470FE9EBF0E080813B
:100D20008E7F808380818D7F808388E48093B8006C
:100D300085E48093BC000895413208F043C090914F
:100D4000EE039111FCCF91E09093EE032093EC031E
:100D50002FEF209381031092C603240F2093C50325
:100D60009093ED039091ED03880F892B8093ED0311
:100D70008091EB03813061F41092EB038091ED03DD
:100D80008093BB008091BC0083FDF8CF85EC01C04F
:100D900085EE8093BC008091EE038130E1F3809179
:100DA000C603841710F44091C60327EC33E0FB011F
:100DB000D9018A2F821B841718F48D918193F9CF62
:100DC000842F089580E008950F93413208F04AC0BF
:100DD0009091EE039111FCCF92E09093EE0300937B
:100DE000EC039FEF909381031092C6034093C503D9
:100DF000FB0167EC73E0DB019A2F961B941718F444
:100E000091919D93F9CF1092ED039091ED03880F8E
:100E1000892B8093ED038091EB03813061F4109274
:100E2000EB038091ED038093BB008091BC0083FDB8
:100E3000F8CF85EC01C085EE8093BC00222321F021
:100E40008091EE038230E1F3809181038F3F61F066
:100E500080918103803251F080918103803341F48D
:100E600083E007C081E005C080E003C082E001C0EC
:100E700084E00F910895613298F42091EE032430BC
:100E800089F46093A303FC0185EA93E0DC012A2F37
:100E9000281B261718F421912D93F9CF80E008958F
:100EA00081E0089582E0089585ED8093BC008091F3
:100EB000BC0084FDFCCF1092EE03089585EC809376
:100EC000BC001092EE0308951F920F920FB60F927E
:100ED00011242F933F934F935F936F937F938F933F
:100EE0009F93AF93BF93EF93FF938091B900887F57
:100EF000803609F49EC078F5883209F45DC090F41C
:100F0000803109F456C038F4882309F4F5C08830DC
:100F100009F44FC0F5C0883109F44EC0803209F49D
:100F20005FC0EEC0803409F46AC058F4803309F41D
:100F300057C0883309F0E4C0809381030E945E07A4
:100F4000DFC0803509F44FC0883509F45DC08834AE
:100F500009F0D6C0D3C0883909F4C4C0A8F48837D2
:100F600009F467C038F4883609F463C0803709F49F
:100F700060C0C6C0883809F4B5C0803909F45FC0C4
:100F8000803809F0BDC05BC0803B09F483C038F4F1
:100F9000803A09F466C0883A09F47CC0B1C0803C4C
:100FA00009F4A4C0883C09F4A1C0883B09F487C0B7
:100FB000A7C08091ED0310C09091C6038091C50336
:100FC000981770F5E091C60381E08E0F8093C603F9
:100FD000F0E0E953FC4F80818093BB0085EC83C037
:100FE000809381038BC0E091C60381E08E0F8093D4
:100FF000C6038091BB00F0E0E953FC4F80839091E1
:10100000C6038091C5036BC0E091C60381E08E0FDB
:101010008093C6038091BB00F0E0E953FC4F8083CE
:101020008091EC0381116AC081E08093EB0384EA34
:101030005EC083E08093EE0310928203CFCF809155
:101040008203803208F04EC0E091820381E08E0F6F
:10105000809382038091BB00F0E0ED57FC4F8083CA
:10106000BDCF0E945E0780918203803230F4E09110
:101070008203F0E0ED57FC4F10826091820370E034
:10108000E091E703F091E80383E893E0099510927B
:10109000820336C084E08093EE031092A403109282
:1010A000A303E091E903F091EA0309958091A3037A
:1010B000811105C081E08093A3031092A503E09104
:1010C000A40381E08E0F8093A403F0E0EB55FC4F66
:1010D00080818093BB009091A4038091A303981713
:1010E00008F47CCF85E88093BC000AC085EC80932F
:1010F000BC001092EE0304C0109281030E945407BA
:10110000FF91EF91BF91AF919F918F917F916F91DF
:101110005F914F913F912F910F900FBE0F901F90B5
:101120001895DC01ED91FC910190F081E02D09947E
:101130001F93CF93DF9300D000D0CDB7DEB7162F2B
:1011400069E270E08FE293E029833A834B835C830A
:101150000E94FB051068612F70E08FE293E00E940F
:101160009108E0912F03F091300329813A814B815E
:101170005C81CA01B9017727882799270190F081FE
:10118000E02D8FE293E009958FE293E00F900F90AE
:101190000F900F90DF91CF911F910C947706CF9312
:1011A000DF93EC0121E030E040E050E060E00E949D
:1011B000980863E070E080E090E00E94820E23E0F7
:1011C00030E040E050E060E0CE01DF91CF910C9440
:1011D0009808FC01108274836383528341830895CD
:1011E000CF93C62F69E270E08FE293E00E94FB0587
:1011F000C0686C2F70E08FE293E00E9491088FE24C
:1012000093E00E94770641E050E069E270E08FE2EF
:1012100093E00E9474068FE293E00E945805CF91FC
:101220000895CF93DF93EC018FE293E00E94E705EE
:1012300062E1CE010E94F008843411F0803189F41B
:1012400081E088836B817C81CE010E9435096981B0
:101250007A81CE010E944F09CE010E94CF0881E021
:1012600001C080E0DF91CF9108950F931F93CF933A
:10127000DF93EC018B018881811103C0CE010E94B4
:101280001109980140E050E061E0CE010E94980809
:101290001C830B83DF91CF911F910F9108950F93C2
:1012A0001F93CF93DF93EC018B018881811103C0E1
:1012B000CE010E941109980140E050E06FE0CE019C
:1012C0000E9498081A830983DF91CF911F910F9193
:1012D0000895FC0183E090E090878783138612864F
:1012E00014860895EF92FF921F93CF93DF931F927E
:1012F000CDB7DEB77C01162FFC0161858FE293E04C
:1013000049830E94F105612F8FE293E00E94A805B6
:101310004981642F8FE293E00E94A8058FE293E059
:101320000E947706F70186830F90DF91CF911F917E
:10133000FF90EF900895CF93DF93EC018F81988514
:10134000029729F440E069E3CE010E94720940E06F
:1013500063E2CE010E9472094FE660E2CE01DF91A6
:10136000CF910C9472099F92AF92BF92CF92DF926D
:10137000EF92FF920F931F93CF93DF93EC01698558
:101380008FE293E00E94F105E0912F03F09130038A
:101390000190F081E02D68EA8FE293E009958FE2F9
:1013A00093E00E94770646E069858FE293E00E9411
:1013B00071060E94530E7B018FE293E00E9450055C
:1013C000069784F48A859B85892BB1F30E94530E7E
:1013D0006E197F098A859B858617970768F781E0D4
:1013E0008C872CC08FE293E00E945805A82E8FE2D4
:1013F00093E00E945805982E8FE293E00E945805D2
:10140000E82E8FE293E00E945805B82E8FE293E019
:101410000E945805F82E8FE293E00E945805D92CBF
:10142000C12CCA28D982C8821B2D00E00E291B833B
:101430000A83982F88278F299D838C83DF91CF91F2
:101440001F910F91FF90EF90DF90CF90BF90AF90E2
:101450009F9008951F93CF93DF931F92CDB7DEB770
:10146000162F8FE293E049830E94F1054981642F92
:101470008FE293E00E94A8058FE293E00E94770636
:10148000811114C041E0612F8FE293E00E94710648
:101490008FE293E00E945005892B41F08FE293E0A8
:1014A0000F90DF91CF911F910C9458058FEF9FEF14
:1014B0000F90DF91CF911F910895EF92FF920F93BC
:1014C0001F93CF93DF937C01EB018A016330710599
:1014D00021F04230510509F051C0CE010197039728
:1014E00058F50115110581F04FE050E06BE6C7019A
:1014F0000E942A0A8F3F2FEF920719F001E010E0B7
:1015000013C00130110551F04FE050E06AE6C70109
:101510000E942A0A8F3FEFEF9E0721F4C330D105C6
:1015200069F027C000E010E0C330D10529F4873D01
:101530009105F1F5C2E0D0E02097D9F4011511052D
:1015400061F04FE050E069E6C7010E942A0A833D3E
:10155000910589F10130110549F04FE050E068E64E
:10156000C7010E942A0A833D910541F1C330D1058C
:1015700019F00230110511F480E025C0F701D08781
:10158000C783209759F0D7FD11C023977CF4013011
:10159000110511F48BE608C08AE606C0013011057A
:1015A00011F489E601C088E6F701818781E00BC06C
:1015B000C1E0D0E0C1CF01E010E002C000E010E0E7
:1015C000C0E0D0E0D6CFDF91CF911F910F91FF9077
:1015D000EF9008958FEF8093EF031092F103109234
:1015E000F0030895CF93DF93DC0170E0FB01E45832
:1015F000FF4FE4911496EC931497842F90E0FC0134
:10160000E458FF4FE4911596EC93159760577F4F80
:10161000FB01C491D0E0CC0FDD1FC255DF4FFE01AE
:101620004591549117965C934E931697FC01E057A1
:10163000FF4F849190E0880F991F8C559F4FFC01BC
:101640004591549119965C934E931897FB016491C0
:10165000E62FF0E0EE0FFF1FE854FF4F85919491C5
:101660001B969C938E931A972F5F3F4F49E3429F9F
:10167000C001439F900D11248E38FFE69F0710F0A4
:101680008DE89FE61D969C938E931C97DF91CF91DA
:1016900008951F920F920FB60F9211242F933F932C
:1016A0004F935F936F937F938F939F93AF93BF936A
:1016B000EF93FF93E091F603F091F7030995FF9103
:1016C000EF91BF91AF919F918F917F916F915F91BA
:1016D0004F913F912F910F900FBE0F901F90189533
:1016E0002F923F924F925F926F927F928F929F9232
:1016F000AF92BF92CF92DF92EF92FF920F931F9320
:10170000CF93DF9300D000D0CDB7DEB71C012A0104
:101710003B014801590120E030E0A901C301B201B9
:101720000E94391487FD78C020E030E0A901C5018E
:10173000B4010E94391487FD6FC020E030E0A90198
:10174000C701B6010E94391487FD66C0F1014082CD
:1017500051826282738284829582A682B782C08619
:10176000D186E286F38664A575A586A597A50E9415
:10177000D61420E030E04AE754E40E943D14698327
:101780007A838B839C83F1014486558666867786AF
:101790009B01AC01C501B4010E948C154B015C0199
:1017A000F101608B718B828B938B29813A814B8104
:1017B0005C81C701B6010E943D146B017C01F101FF
:1017C000648B758B868B978B808D918D019721F51E
:1017D000A301920160E070E0CB010E94D413F101FB
:1017E0006487758786879787A501940160E070E01C
:1017F000CB010E94D413F101608B718B828B938B90
:10180000A701960160E070E0CB010E94D413F101C2
:10181000648B758B868B978B0F900F900F900F902A
:10182000DF91CF911F910F91FF90EF90DF90CF90BC
:10183000BF90AF909F908F907F906F905F904F90F0
:101840003F902F9008958F929F92AF92BF92CF9228
:10185000DF92EF92FF92CF93DF93EC0116161706FB
:10186000ACF56B01EE24D7FCE094FE2CC701B60169
:101870000E94D8144B015C016CA57DA58EA59FA587
:101880000E94D6149B01AC01C501B4010E943D1415
:101890004B015C019B01AC01688979898A899B892C
:1018A0000E948C15688B798B8A8B9B8BA501940188
:1018B0006C897D898E899F890E943D146C8B7D8BFC
:1018C0008E8B9F8BCCA6DDA6EEA6FFA6DF91CF91D7
:1018D000FF90EF90DF90CF90BF90AF909F908F9050
:1018E00008952F923F924F925F926F927F928F92C4
:1018F0009F92AF92BF92CF92DF92EF92FF920F939F
:101900001F93CF93DF93EC016A017B0148015901DA
:10191000A9019801C701B6010E94881587FF4EC032
:10192000C8AAD9AAEAAAFBAA8CAA9DAAAEAABFAA4B
:1019300088AD882309F442C02C8C3D8CF101408095
:10194000518062807380A5019401C301B2010E949D
:101950008815181634F4F10180829182A282B38234
:101960000DC0A7019601C301B2010E94391487FF7F
:1019700005C0F101C082D182E282F3828CA09DA0D9
:10198000AEA0BFA0CCA8DDA8EEA8FFA8A701960135
:10199000C501B4010E948815181664F0C8A8D9A81A
:1019A000EAA8FBA8A7019601C501B4010E94391459
:1019B00087FF04C0CCA2DDA2EEA2FFA2DF91CF91EF
:1019C0001F910F91FF90EF90DF90CF90BF90AF905D
:1019D0009F908F907F906F905F904F903F902F904F
:1019E00008950F931F93CF93DF93EC018B0188AD84
:1019F000882361F1888D998D6817790739F12C85D5
:101A00003D854E855F8560E070E0CB010E94D41378
:101A10006C877D878E879F87288939894A895B896A
:101A200060E070E0CB010E94D413688B798B8A8BC5
:101A30009B8B2C893D894E895F8960E070E0CB01EA
:101A40000E94D4136C8B7D8B8E8B9F8B198F088F8C
:101A5000DF91CF911F910F9108954F925F926F92F6
:101A60007F928F929F92AF92BF92CF92DF92EF922E
:101A7000FF920F931F93CF93DF9300D000D0CDB789
:101A8000DEB74C0127013801A982BA82CB82DC8201
:101A9000FC01558F448F738F628F378F268F10AE66
:101AA00010AA11AA12AA13AA80E090E0AFE7B3E44B
:101AB00084AB95ABA6ABB7AB84E690E0A0E0B0E01A
:101AC00084A795A7A6A7B7A76B8D7C8DC4010E949C
:101AD000F10CCF88D88CE98CFA8C09811A812B8182
:101AE0003C81B301A201C4010E94700B0E94530EFD
:101AF000F40144A455A466A477A464197509860961
:101B0000970960A371A382A393A30F900F900F90E6
:101B10000F90DF91CF911F910F91FF90EF90DF9089
:101B2000CF90BF90AF909F908F907F906F905F907D
:101B30004F90089508958230E8F4E82FF0E0EE0F1A
:101B4000FF1FEC5EFE4F71836083813041F0809116
:101B500069008C7F842B80936900E89A08958091B6
:101B60006900440F551F440F551F837F842B8093BA
:101B70006900E99A08951F920F920FB60F921124EF
:101B80002F933F934F935F936F937F938F939F9385
:101B9000AF93BF93EF93FF93E0911401F091150180
:101BA0000995FF91EF91BF91AF919F918F917F9197
:101BB0006F915F914F913F912F910F900FBE0F90BA
:101BC0001F9018951F920F920FB60F9211242F930A
:101BD0003F934F935F936F937F938F939F93AF93B5
:101BE000BF93EF93FF93E0911601F09117010995D0
:101BF000FF91EF91BF91AF919F918F917F916F91E5
:101C00005F914F913F912F910F900FBE0F901F90BA
:101C100018951F920F920FB60F9211242F933F9396
:101C20008F939F93AF93BF938091F9039091FA03A1
:101C3000A091FB03B091FC033091F80323E0230F44
:101C40002D3720F40196A11DB11D05C026E8230FF4
:101C50000296A11DB11D2093F8038093F903909380
:101C6000FA03A093FB03B093FC038091FD039091D2
:101C7000FE03A091FF03B09100040196A11DB11DC8
:101C80008093FD039093FE03A093FF03B0930004A1
:101C9000BF91AF919F918F913F912F910F900FBE68
:101CA0000F901F9018952FB7F8946091F9037091D9
:101CB000FA038091FB039091FC032FBF08953FB777
:101CC000F8948091FD039091FE03A091FF03B091E1
:101CD000000426B5A89B05C02F3F19F00196A11D51
:101CE000B11D3FBF6627782F892F9A2F620F711D74
:101CF000811D911D42E0660F771F881F991F4A952D
:101D0000D1F70895CF92DF92EF92FF92CF93DF93B6
:101D10006B017C010E945F0EEB01C114D104E10450
:101D2000F10489F00E94D3130E945F0E6C1B7D0B9F
:101D3000683E734090F381E0C81AD108E108F108C9
:101D4000C851DC4FEACFDF91CF91FF90EF90DF9049
:101D5000CF900895789484B5826084BD84B5816005
:101D600084BD85B5826085BD85B5816085BDEEE6A3
:101D7000F0E0808181608083E1E8F0E01082808182
:101D800082608083808181608083E0E8F0E08081F0
:101D900081608083E1EBF0E0808184608083E0EB10
:101DA000F0E0808181608083EAE7F0E080818460F8
:101DB0008083808182608083808181608083808154
:101DC000806880831092C1000895833081F028F4E8
:101DD000813099F08230A1F008958730A9F08830E1
:101DE000B9F08430D1F4809180008F7D03C0809160
:101DF00080008F7780938000089584B58F7702C02C
:101E000084B58F7D84BD08958091B0008F7703C025
:101E10008091B0008F7D8093B0000895CF93DF93C1
:101E200090E0FC01E458FF4F2491FC01E057FF4F84
:101E30008491882349F190E0880F991FFC01E854B0
:101E4000FF4FA591B49182559F4FFC01C591D4914C
:101E50009FB7611108C0F8948C91209582238C93D0
:101E6000888182230AC0623051F4F8948C91322F19
:101E7000309583238C938881822B888304C0F894C7
:101E80008C91822B8C939FBFDF91CF9108950F93FC
:101E90001F93CF93DF931F92CDB7DEB7282F30E08B
:101EA000F901E859FF4F8491F901E458FF4F14916B
:101EB000F901E057FF4F04910023C9F0882321F076
:101EC00069830E94E50E6981E02FF0E0EE0FFF1FAD
:101ED000E255FF4FA591B4919FB7F8948C91611191
:101EE00003C01095812301C0812B8C939FBF0F905D
:101EF000DF91CF911F910F910895FC01818D228D6B
:101F000090E0805C9F4F821B91098F739927089501
:101F1000FC01918D828D981731F0828DE80FF11DB3
:101F2000858D90E008958FEF9FEF0895FC01918DCE
:101F3000828D981761F0828DDF01A80FB11D5D962B
:101F40008C91928D9F5F9F73928F90E008958FEF99
:101F50009FEF08958AE191E1892B49F080E090E0BC
:101F6000892B29F00E941A1181110C940000089508
:101F7000FC01848DDF01A80FB11DA35ABF4F2C9126
:101F8000848D90E001968F739927848FA689B789F5
:101F90002C93A089B1898C9180648C93938D848DCE
:101FA000981306C00288F389E02D80818F7D80839D
:101FB0000895CF93DF93EC01888D8823C9F0EA89D7
:101FC000FB89808185FD05C0A889B9898C9186FD32
:101FD0000FC00FB607FCF5CF808185FFF2CFA8892F
:101FE000B9898C9185FFEDCFCE010E94B80FE7CF64
:101FF000DF91CF910895CF92DF92FF920F931F93BD
:10200000CF93DF931F92CDB7DEB76C0181E0D6018D
:1020100058968C9358975B969C915B975C968C91A5
:102020005C97981307C05096ED91FC915197808171
:1020300085FD2EC0F601038D10E00F5F1F4F0F735B
:102040001127F02EF601848DF81211C00FB607FC8F
:10205000F9CFD6015096ED91FC915197808185FF83
:10206000F1CFC60169830E94B80F6981EBCF838DE0
:10207000E80FF11DE35AFF4F6083D6015B960C9386
:102080005B975296ED91FC915397808180620CC0D2
:10209000D6015696ED91FC91579760835096ED913D
:1020A000FC91519780818064808381E090E00F9063
:1020B000DF91CF911F910F91FF90DF90CF90089506
:1020C000BF92CF92DF92EF92FF92CF93DF93EC011A
:1020D0006A017B01B22EE889F98982E0808341158B
:1020E00081EE580761057105A1F060E079E08DE3AC
:1020F00090E0A70196010E940F1621503109410975
:1021000051095695479537952795211580E1380750
:1021100098F0E889F989108260E874E88EE190E02F
:10212000A70196010E940F1621503109410951095A
:102130005695479537952795EC85FD853083EE8537
:10214000FF852083188EEC89FD89B082EA89FB899E
:10215000808180618083EA89FB89808188608083B7
:10216000EA89FB89808180688083EA89FB89808194
:102170008F7D8083DF91CF91FF90EF90DF90CF90A4
:10218000BF9008951F920F920FB60F9211242F93B4
:102190008F939F93EF93FF93E0911104F0911204BA
:1021A0008081E0911704F091180482FD12C09081A3
:1021B00080911A048F5F8F7320911B04821751F056
:1021C000E0911A04F0E0EF5FFB4F958F80931A04C3
:1021D00001C08081FF91EF919F918F912F910F907E
:1021E0000FBE0F901F9018951F920F920FB60F926F
:1021F00011242F933F934F935F936F937F938F930C
:102200009F93AF93BF93EF93FF9381E094E00E947D
:10221000B80FFF91EF91BF91AF919F918F917F91F7
:102220006F915F914F913F912F910F900FBE0F9043
:102230001F90189581E094E00E947D0F21E0892B8A
:1022400009F420E0822F08951092040410920304F0
:1022500088EE93E0A0E0B0E080930504909306043C
:10226000A0930704B093080487E692E090930204D9
:102270008093010485EC90E090930E0480930D040C
:1022800084EC90E09093100480930F0480EC90E035
:10229000909312048093110481EC90E090931404C5
:1022A0008093130482EC90E09093160480931504BD
:1022B00086EC90E0909318048093170410921A040F
:1022C00010921B0410921C0410921D040895CF92CA
:1022D000DF92EF92FF920F931F93CF93DF937C01D6
:1022E0006A01EB0100E010E00C151D0571F0699129
:1022F000D701ED91FC910190F081E02DC701099586
:10230000892B19F00F5F1F4FEFCFC801DF91CF91DD
:102310001F910F91FF90EF90DF90CF90089561157E
:10232000710581F0DB010D900020E9F7AD0141500E
:102330005109461B570BDC01ED91FC910280F381A2
:10234000E02D099480E090E008950C948F11DC0159
:10235000ED91FC910190F081E02D099463E772E02A
:102360000C948F110F931F93CF93DF93EC010E9476
:102370008F118C01CE010E94AE11800F911FDF9151
:10238000CF911F910F9108958F929F92AF92BF921C
:10239000CF92DF92EF92FF920F931F93CF93DF9331
:1023A000CDB7DEB7A1970FB6F894DEBF0FBECDBF95
:1023B0007C01C42EE52FCB01D22E19A221E02D15D0
:1023C00010F02AE0D22E8E010F5D1F4F8D2C912C24
:1023D000A12CB12C6C2D7E2FA50194010E940F160B
:1023E0008C2DD29E80191124015011098A3014F4C9
:1023F000805D01C0895CF8018083211531054105AC
:10240000510521F0C22EE32FCA01E4CFB801C70164
:102410000E948F11A1960FB6F894DEBF0FBECDBFFC
:10242000DF91CF911F910F91FF90EF90DF90CF90B0
:10243000BF90AF909F908F900895CF92DF92EF92D0
:10244000FF920F931F93CF93DF93EC016A017B01FF
:102450002115310579F4E881F9810190F081E02DB1
:10246000642FDF91CF911F910F91FF90EF90DF903C
:10247000CF9009942A303105E9F477FF1AC06DE254
:102480000E94A7118C0144275527BA014C195D09F8
:102490006E097F092AE0CE010E94C411800F911FAE
:1024A000DF91CF911F910F91FF90EF90DF90CF9030
:1024B00008952AE0B701A601CE01DF91CF911F91C7
:1024C0000F91FF90EF90DF90CF900C94C4110F9379
:1024D0001F93CF93DF93EC019A01AB01662757FD61
:1024E0006095762F0E941D128C01CE010E94AE11C4
:1024F000800F911FDF91CF911F910F9108954F92FF
:102500005F926F927F928F929F92AF92BF92CF9283
:10251000DF92EF92FF920F931F93CF93DF93EC0123
:102520006A017B01B22E9A01AB01C701B6010E947C
:10253000EF15882319F066E772E027C026013701FE
:10254000E89477F82FEF3FEF4FE75FE7C301B20161
:102550000E94EF1581110DC02FEF3FEF4FE75FE7AE
:10256000C301B2010E94391418161CF46AE772E024
:102570000CC02FEF3FEF4FE75FE4C701B6010E94A9
:1025800088151816ACF46EE772E0CE01DF91CF919A
:102590001F910F91FF90EF90DF90CF90BF90AF9081
:1025A0009F908F907F906F905F904F900C948F11C1
:1025B0002FEF3FEF4FE75FECC701B6010E943914E0
:1025C00087FDE1CF20E030E0A901C701B6010E94FC
:1025D000391487FF0AC06DE2CE010E94A7118C0159
:1025E000F7FAF094F7F8F09402C000E010E0A12CA4
:1025F00060E070E080E09FE3AB1441F020E030E069
:1026000040E251E40E943D14A394F6CF9B01AC013B
:10261000C701B6010E94D5136B017C010E94AA1468
:102620002B013C010E94D6149B01AC01C701B601ED
:102630000E94D4136B017C012AE0B301A201CE01F8
:102640000E94C411080F191FBB2039F06BEE71E016
:10265000CE010E948F11080F191F7B2C772041F1AA
:1026600020E030E040E251E4C701B6010E948C1541
:102670006B017C010E94A5144B01AA2497FCA09435
:10268000BA2C2AE030E0B501A401CE010E941D124F
:10269000080F191FC501B4010E94D8149B01AC0199
:1026A000C701B6010E94D4136B017C017A94D6CF86
:1026B000C801DF91CF911F910F91FF90EF90DF90B4
:1026C000CF90BF90AF909F908F907F906F905F90D2
:1026D0004F9008950F931F93CF93DF93EC010E94C7
:1026E0007F128C01CE010E94AE11800F911FDF91ED
:1026F000CF911F910F9108954F925F926F927F92A9
:10270000AF92BF92CF92DF92EF92FF920F931F93FF
:10271000CF93DF93CDB7DEB729013A01621B730B6C
:10272000840B950B29893A894B895C892A193B09C5
:102730004C095D09298B3A8B4B8B5C8B9B01AC015F
:1027400069897A898B899C890E94F315E418F508B8
:1027500006091709A80197010E9431162A0D3B1D91
:102760004C1D5D1DCA01B901DF91CF911F910F91E1
:10277000FF90EF90DF90CF90BF90AF907F906F90E1
:102780005F904F90089508950E94AA0E0E94C3136F
:102790000E94A202CAEADFE00E9438022097E1F319
:1027A0000E94AA0FF9CF08955058BB27AA270ED030
:1027B00075C166D130F06BD120F031F49F3F11F438
:1027C0001EF45BC10EF4E095E7FB51C1E92F77D110
:1027D00080F3BA17620773078407950718F071F43E
:1027E0009EF58FC10EF4E0950B2EBA2FA02D0B0194
:1027F000B90190010C01CA01A0011124FF27591B46
:1028000099F0593F50F4503E68F11A16F040A22F4B
:10281000232F342F4427585FF3CF469537952795BC
:10282000A795F0405395C9F77EF41F16BA0B620BBB
:10283000730B840BBAF09150A1F0FF0FBB1F661F02
:10284000771F881FC2F70EC0BA0F621F731F841F45
:1028500048F4879577956795B795F7959E3F08F06B
:10286000B3CF9395880F08F09927EE0F979587952A
:102870000895D9D008F481E008950CD00FC107D194
:1028800040F0FED030F021F45F3F19F0F0C051115C
:1028900039C1F3C014D198F39923C9F35523B1F387
:1028A000951B550BBB27AA2762177307840738F0BF
:1028B0009F5F5F4F220F331F441FAA1FA9F333D01E
:1028C0000E2E3AF0E0E830D091505040E695001CD2
:1028D000CAF729D0FE2F27D0660F771F881FBB1F8E
:1028E000261737074807AB07B0E809F0BB0B802D68
:1028F000BF01FF2793585F4F2AF09E3F510568F0B4
:10290000B6C000C15F3FECF3983EDCF38695779547
:102910006795B795F7959F5FC9F7880F911D9695B5
:10292000879597F90895E1E0660F771F881FBB1F11
:10293000621773078407BA0720F0621B730B840BBE
:10294000BA0BEE1F88F7E095089504D06894B11192
:10295000D9C00895BCD088F09F5790F0B92F99271F
:10296000B751A0F0D1F0660F771F881F991F1AF09A
:10297000BA95C9F712C0B13081F0C3D0B1E0089563
:10298000C0C0672F782F8827B85F39F0B93FCCF3E4
:10299000869577956795B395D9F73EF49095809590
:1029A000709561957F4F8F4F9F4F0895E89409C0B0
:1029B00097FB3EF490958095709561957F4F8F4F72
:1029C0009F4F9923A9F0F92F96E9BB279395F69588
:1029D000879577956795B795F111F8CFFAF4BB0F06
:1029E00011F460FF1BC06F5F7F4F8F4F9F4F16C06A
:1029F000882311F096E911C0772321F09EE8872FF4
:102A0000762F05C0662371F096E8862F70E060E0AF
:102A10002AF09A95660F771F881FDAF7880F969528
:102A2000879597F90895990F0008550FAA0BE0E8CC
:102A3000FEEF16161706E807F907C0F01216130680
:102A4000E407F50798F0621B730B840B950B39F4C0
:102A50000A2661F0232B242B252B21F408950A2626
:102A600009F4A140A6958FEF811D811D089597F966
:102A70009F6780E870E060E008959FEF80EC089524
:102A800000240A941616170618060906089500244D
:102A90000A9412161306140605060895092E0394C7
:102AA000000C11F4882352F0BB0F40F4BF2B11F43B
:102AB00060FF04C06F5F7F4F8F4F9F4F089557FD9A
:102AC0009058440F551F59F05F3F71F04795880F9C
:102AD00097FB991F61F09F3F79F087950895121633
:102AE00013061406551FF2CF4695F1DF08C01616DF
:102AF00017061806991FF1CF869571056105089490
:102B00000895E894BB2766277727CB0197F90895A6
:102B10008ADF08F48FEF08950BD0C0CFB1DF28F023
:102B2000B6DF18F0952309F0A2CFA7CF1124EACF82
:102B3000C6DFA0F3959FD1F3950F50E0551F629F1C
:102B4000F001729FBB27F00DB11D639FAA27F00D06
:102B5000B11DAA1F649F6627B00DA11D661F829F2D
:102B60002227B00DA11D621F739FB00DA11D621F12
:102B7000839FA00D611D221F749F3327A00D611D2F
:102B8000231F849F600D211D822F762F6A2F112411
:102B90009F5750408AF0E1F088234AF0EE0FFF1F64
:102BA000BB1F661F771F881F91505040A9F79E3F9B
:102BB000510570F05CCFA6CF5F3FECF3983EDCF39D
:102BC000869577956795B795F795E7959F5FC1F7D8
:102BD000FE2B880F911D9695879597F9089523DF11
:102BE000880B990B0895DB018F939F930E945016D9
:102BF000BF91AF91A29F800D911DA39F900DB29F99
:102C0000900D11240895991B79E004C0991F96171F
:102C100008F0961B881F7A95C9F780950895A1E260
:102C20001A2EAA1BBB1BFD010DC0AA1FBB1FEE1F46
:102C3000FF1FA217B307E407F50720F0A21BB30B91
:102C4000E40BF50B661F771F881F991F1A9469F70D
:102C500060957095809590959B01AC01BD01CF0169
:102C60000895052E97FB1EF400940E94481657FD08
:102C700007D00E940F1607FC03D04EF40C944816A0
:102C800050954095309521953F4F4F4F5F4F089598
:102C900090958095709561957F4F8F4F9F4F0895C8
:102CA0000E946116A59F900DB49F900DA49F800D6A
:102CB000911D11240895EE0FFF1F0590F491E02D52
:102CC0000994A29FB001B39FC001A39F700D811D05
:102CD0001124911DB29F700D811D1124911D089525
:042CE000F894FFCF96
:102CE400010000000000803F0000803F0000803FA2
:102CF400000080429A0D9A0D436F6C6F72207365C9
:102D04006E736F722072656164696E67733A005204
:102D14003A0900473A0900423A0900436F6C6F725E
:102D24002073656E736F7220287363616C65642011
:102D3400746F203820626974293A00487565202828
:102D4400382D626974293A09004779726F20444327
:102D5400204F66667365743A20004779726F204E7F
:102D64006F697365204C6576656C3A2000677972EB
:102D74006F416E676C6500507265737320672074D1
:102D84006F20636F6E74696E7565000A57616974AC
:102D9400696E6720666F72205361626572746F6F2B
:102DA400746820746F20706F7765722075702E2E92
:102DB4002E00496E697469616C697A696E67205383
:102DC40061626572746F6F74682E2E2E000A5374DC
:102DD4006F7070696E67206D6F746F72732E2E2E14
:102DE40000417474616368696E6720736572766FFD
:102DF400732E2E2E00544353333437323520493248
:102E04004320636F6C6F722073656E736F72002062
:102E14006E6F740020666F756E64004C33474432E5
:102E2400304820493243206779726F2073656E738E
:102E34006F720000000000A8057B05500558056B63
:102E4400057A0500000000FB0F67117D0F960F88BF
:102E54000FD90F0D0A006E616E00696E66006F7601
:022E6400660006
:107E0000112484B714BE81FFF0D085E080938100F7
:107E100082E08093C00088E18093C10086E0809377
:107E2000C20080E18093C4008EE0C9D0259A86E02C
:107E300020E33CEF91E0309385002093840096BBD3
:107E4000B09BFECF1D9AA8958150A9F7CC24DD24C4
:107E500088248394B5E0AB2EA1E19A2EF3E0BF2EE7
:107E6000A2D0813461F49FD0082FAFD0023811F036
:107E7000013811F484E001C083E08DD089C08234E0
:107E800011F484E103C0853419F485E0A6D080C0E4
:107E9000853579F488D0E82EFF2485D0082F10E0AE
:107EA000102F00270E291F29000F111F8ED06801E7
:107EB0006FC0863521F484E090D080E0DECF843638
:107EC00009F040C070D06FD0082F6DD080E0C81688
:107ED00080E7D80618F4F601B7BEE895C0E0D1E017
:107EE00062D089930C17E1F7F0E0CF16F0E7DF06D8
:107EF00018F0F601B7BEE89568D007B600FCFDCFD4
:107F0000A601A0E0B1E02C9130E011968C91119780
:107F100090E0982F8827822B932B1296FA010C0160
:107F200087BEE89511244E5F5F4FF1E0A038BF0790
:107F300051F7F601A7BEE89507B600FCFDCF97BE46
:107F4000E89526C08437B1F42ED02DD0F82E2BD052
:107F50003CD0F601EF2C8F010F5F1F4F84911BD097
:107F6000EA94F801C1F70894C11CD11CFA94CF0C13
:107F7000D11C0EC0853739F428D08EE10CD085E9AC
:107F80000AD08FE07ACF813511F488E018D01DD067
:107F900080E101D065CF982F8091C00085FFFCCF94
:107FA0009093C60008958091C00087FFFCCF809118
:107FB000C00084FD01C0A8958091C6000895E0E648
:107FC000F0E098E1908380830895EDDF803219F02E
:107FD00088E0F5DFFFCF84E1DECF1F93182FE3DFCA
:107FE0001150E9F7F2DF1F91089580E0E8DFEE27F6
:047FF000FF270994CA
:027FFE00040479
:0400000300007E007B
:00000001FF
