:100000000C9465000C94DB0D0C94020E0C948D0086
:100010000C948D000C948D000C948D000C94570B57
:100020000C948D000C948D000C948D000C946A033C
:100030000C948D000C948D000C948D000C948D000C
:100040000C94290E0C948D000C94E2100C94141155
:100050000C948D000C948D000C948D000C948D00EC
:100060000C9472070C948D0000000008000201003F
:100070000003040700000000000000000102040863
:100080001020408001020408102001020408102002
:10009000040404040404040402020202020203032E
:1000A00003030303000000002300260029000000D2
:1000B0000000250028002B0000000000240027007D
:1000C0002A00BE018806F80A441111241FBECFEF92
:1000D000D8E0DEBFCDBF12E0A0E0B1E0E4E2FDE297
:1000E00002C005900D92A239B107D9F724E0A2E928
:1000F000B2E001C01D92AE3AB207E1F710E0CAECDF
:10010000D0E004C02297FE010E947D16C23CD107B8
:10011000C9F70E94E4130C9490160C940000CF933E
:10012000DF9300D000D0CDB7DEB768E171E081E1A8
:1001300094E00E94C51186E093E00E94C10963E249
:1001400071E081E194E00E94C5110E94730E9B0151
:10015000AC018091020390910303A0910403B0913C
:100160000503281B390B4A0B5B0B29833A834B830E
:100170005C830E94730E6093020370930303809369
:1001800004039093050368EE73E080E090E029811A
:100190003A814B815C810E942F16CA01B9010E94ED
:1001A000F614AB01BC0122E030E081E194E00F9055
:1001B0000F900F900F90DF91CF910C948A13CF92F4
:1001C000DF92EF92FF926B017C0161E08DE00E9473
:1001D000670FF694E794D794C794C701B6010E94BD
:1001E000A20E60E08DE00E94670FC701B601FF908C
:1001F000EF90DF90CF900C94A20E4F925F926F928F
:100200007F92AF92BF92CF92DF92EF92FF920F93C5
:100210001F93CF93DF9369E771E081E194E00E943F
:10022000C511C8EED3E0C12CD12C760186E093E055
:100230000E94C1098091080390910903AA2797FDA4
:10024000A095BA2FC80ED91EEA1EFB1E219771F782
:10025000C701B60128EE33E040E050E00E9451169D
:10026000CA01B90130930103209300034AE050E032
:1002700081E194E00E9487126AE871E081E194E0F4
:100280000E94C511C8EED3E086E093E00E94C10948
:10029000A0900803B090090300910003109101039E
:1002A000B501601B710B882777FD8095982F0E9400
:1002B000F8146B017C014090FC025090FD026090AC
:1002C000FE027090FF02A30192010E94A815181669
:1002D0004CF4C092FC02D092FD02E092FE02F09239
:1002E000FF021DC0A30192015058C701B6010E9430
:1002F000591487FF14C0662777276A197B09601B8A
:10030000710B882777FD8095982F0E94F8146093D1
:10031000FC027093FD028093FE029093FF022197EE
:1003200009F0B2CF20E030E048EC52E46091FC02EA
:100330007091FD028091FE029091FF020E945D1477
:10034000AB01BC014093FC025093FD026093FE029E
:100350007093FF0224E030E081E194E0DF91CF91DF
:100360001F910F91FF90EF90DF90CF90BF90AF90D3
:100370007F906F905F904F900C948A13AF92BF92D2
:10038000CF92DF92EF92FF920F931F9386E193E05B
:100390000E94260483E193E00E94260486E093E015
:1003A0000E947709A0900801B0900901C0900A014D
:1003B000D0900B01E0900C01F0900D0100910E0126
:1003C00010910F011F921F92809107018F938091CE
:1003D00006018F93809105018F93809104018F9383
:1003E00024EF32E040E151E068EF72E08BEB92E005
:1003F0000E943B0D41E050E060E070E086EB92E04F
:100400000E94F70824EF31E043E06BE084EA92E0D9
:100410000E94000B0F900F900F900F900F900F9075
:1004200024EF31E049E06AE082E992E01F910F9108
:10043000FF90EF90DF90CF90BF90AF900C94000BA7
:1004400064EF71E080E090E00E94DF0064EF71E013
:1004500080E090E00E94DF000E94730E6093020330
:1004600070930303809304039093050340E050E0EE
:100470006FE870E080E00E94A90D81E194E00E94A5
:100480009D0F892BD1F380E00C94C90D67EA71E0D0
:1004900081E194E00E94D21181E194E00E94B60FC4
:1004A0008736910539F060ED77E080E090E00E94BA
:1004B000DF00F2CF0E94200268EE73E080E090E05F
:1004C0000C94DF0081E194E00E94F90F61E08EE07E
:1004D0000E94670FE0911104F09112040190F081E5
:1004E000E02D6AEA81E194E0099581E194E00E94BF
:1004F000F90F60E08EE00C94670FCF93DF9300D08C
:1005000000D0CDB7DEB790E899838A836B83860FDE
:100510008F778C8381E194E00E94F90F61E08EE097
:100520000E94670FE0911104F09112040280F381A0
:10053000E02D44E050E0BE016F5F7F4F81E194E029
:10054000099581E194E00E94F90F60E08EE00E943D
:10055000670F0F900F900F900F90DF91CF9108953C
:100560000F931F9361E088E00E942E0F60E088E007
:100570000E94670F61E08EE00E942E0F60E08EE027
:100580000E94670F26E040E056E960E070E081E1FC
:1005900094E00E9480106BEB71E081E194E00E9496
:1005A000D21160ED77E080E090E00E94A20E62EE52
:1005B00071E081E194E00E94C5110E9462026DEF3A
:1005C00071E081E194E00E94C51160E088E00E9442
:1005D0007D0260E08BE00E947D0261E088E00E9485
:1005E000670F61E172E081E194E00E94D21165E061
:1005F00070E086E193E00E94C0046CE870E086E160
:1006000093E00E94F90466E070E083E193E00E94C9
:10061000C0046CE170E083E193E00E94F90461E0C2
:100620008DE00E942E0F65E272E081E194E00E946D
:10063000C51186EB92E00E941F09811106C06FE38D
:1006400072E081E194E00E94C51164E472E081E10E
:1006500094E00E94D2116BE472E081E194E00E9488
:10066000C51142E050E063E070E086E093E00E9454
:100670006B0A811106C06FE372E081E194E00E9491
:10068000C51164E472E081E194E00E94D21186E039
:1006900093E00E94A9090E94FD0060E08CE00E94A6
:1006A0002E0F48E062E286E093E00E94800900E0BD
:1006B00010E02EEF32E440E050E0BA018BEB92E024
:1006C0000E947F0C65E070E08BEB92E01F910F9130
:1006D0000C94310C1F920F920FB60F9211242F938E
:1006E0003F934F935F936F937F938F939F93AF93BA
:1006F000BF93EF93FF9380911A0387FF05C0109279
:100700008500109284001AC020911A03332727FD18
:1007100030958091190390E0281739077CF4809177
:100720001A03992787FD9095FC01EE0FFF1FE80F34
:10073000F91FE55EFC4F808186FD15C080911A038C
:100740008F5F80931A0320911A03332727FD30957A
:100750008091190390E028173907BCF480911A039F
:100760008C305CF112C080911A03992787FD909517
:10077000FC01EE0FFF1FE80FF91FE55EFC4F8081C3
:1007800060E08F730E94670FD9CF809184009091B1
:100790008500049680349C4918F480E49CE905C0E7
:1007A00080918400909185000496909389008093B5
:1007B00088008FEF80931A0338C020918400309115
:1007C000850080911A03992787FD9095FC01EE0F13
:1007D000FF1FE80FF91FE55EFC4F81819281820FB8
:1007E000931F909389008093880080911A03992722
:1007F00087FD9095FC01EE0FFF1FE80FF91FE55EE6
:10080000FC4F808186FF11C080911A03992787FDD4
:100810009095FC01EE0FFF1FE80FF91FE55EFC4FFE
:10082000808161E08F730E94670FFF91EF91BF910C
:10083000AF919F918F917F916F915F914F913F9178
:100840002F910F900FBE0F901F90189520911903B4
:100850002C30A0F431E0320F30931903FC012083D7
:10086000822F90E0FC01EE0FFF1FE80FF91FE55EFD
:10087000FC4F88EB9BE09283818308952FEFFC016E
:1008800020830895DF92EF92FF920F931F93CF93EF
:10089000DF93EC01D62E7A01890188818C3008F033
:1008A00066C061E08D2D0E942E0F8881A82FB0E0D8
:1008B000FD01EE0FFF1FEA0FFB1FE55EFC4F2D2D24
:1008C0002F739081907C922B908360E272E06E197E
:1008D0007F0977FF02C06D5F7F4F759567957595AE
:1008E0006795698340E659E0401B510B57FF02C0F2
:1008F0004D5F5F4F55954795559547954A836CE0F9
:100900000E9423169CE0899FB001112420E030E072
:10091000A901460F571FFA01EE0FFF1FE40FF51F45
:10092000E55EFC4F908196FD16C02F5F3F4F2C3047
:10093000310571F781110FC01092800082E0809321
:1009400081001092850010928400B19A80916F000E
:10095000826080936F00888190E0FC01EE0FFF1FA2
:10096000E80FF91FE55EFC4F8081806480838881F9
:10097000DF91CF911F910F91FF90EF90DF9008953D
:1009800020E639E040E252E00C944204FC01808110
:100990008C3070F5918128E830E0291B310997FDF2
:1009A0003395220F331F220F331F621773077CF01A
:1009B000928128E532E0291B310997FD3395220FFA
:1009C000331F220F331F621773070CF49B01225051
:1009D0003109220F331F4FB7F89490E0FC01EE0F5E
:1009E000FF1FE80FF91FE55EFC4F328321834FBFE5
:1009F00008954F925F926F927F92AF92BF92CF9283
:100A0000DF92EF92FF920F931F93CF93DF93EC014E
:100A1000603282E078070CF040C077FD06C0653B8D
:100A200071052CF064EB70E002C060E070E0898139
:100A300028E830E0281B310987FD3395220F331F4A
:100A4000220F331F5901CC24B7FCC094DC2C88271B
:100A500077FD8095982F2A8148E552E0421B510985
:100A600027FD5395440F551F440F551F2A01662437
:100A700057FC6094762C7F926F925F924F9214EBAA
:100A8000E12EF12C00E010E020E030E0A9010E940E
:100A90009C130F900F900F900F90CE01DF91CF918C
:100AA0001F910F91FF90EF90DF90CF90BF90AF908C
:100AB0007F906F905F904F900C94C60480916F036D
:100AC00090E020917003821B91090895209170039A
:100AD00080916F03281750F4E22FF0E0EF58FC4F9D
:100AE000808190E02F5F2093700308958FEF9FEF38
:100AF0000895E091700380916F03E81730F4F0E0FF
:100B0000EF58FC4F808190E008958FEF9FEF08959C
:100B10000895CF92DF92EF92FF920F931F93CF939E
:100B2000DF937C01CB018A0120914B03222389F0C2
:100B3000EB016B01C40ED51ECC15DD0569F0699182
:100B4000D701ED91FC910190F081E02DC70109954D
:100B5000F3CF642F0E944907C801DF91CF911F9105
:100B60000F91FF90EF90DF90CF900895CF93DF9398
:100B70001F92CDB7DEB7698320914B032223D1F0BA
:100B800020914C03203240F021E030E0FC0133831F
:100B9000228380E090E015C080914D03E82FF0E0C3
:100BA000E25BFC4F998190838F5F80934D0380932C
:100BB0004C0305C061E0CE0101960E94490781E027
:100BC00090E00F90DF91CF910895FC011382128283
:100BD00048EE53E060E070E044835583668377839A
:100BE00087E692E0918380830895109270031092BB
:100BF0006F0310924D0310924C030C948C0681E00D
:100C000080934B0360936E0310924D0310924C033C
:100C100008950C94FF050F93062F21E040914C039B
:100C20006EE473E080916E030E94F20610924D0311
:100C300010924C0310924B030F9108958F929F9244
:100C4000AF92BF92CF92DF92EF92FF920F931F93DA
:100C5000CF93DF93EC01F62ED42E48015901EE20FC
:100C600019F10E94FF051E2D143008F013E01150F9
:100C7000B8F0E881F98128E0129FB0011124A501A4
:100C8000940104C056954795379527956A95D2F7F4
:100C9000CA01B9010190F081E02DCE010995E7CF9D
:100CA00060E0CE010E940B064D2D413208F040E27B
:100CB0002C2D61E773E08F2D0E94AA06109270031D
:100CC00080936F03DF91CF911F910F91FF90EF9071
:100CD000DF90CF90BF90AF909F908F900895CF926C
:100CE000EF920F931F93C22EE12C00E010E09801C9
:100CF0000E941E061F910F91EF90CF90089521E062
:100D00000C946F0621E00C946F0661E00C940B06C6
:100D10008FE393E00C94E5051092FE0381E080934D
:100D2000FC031092FB0361E082E10E94670F61E027
:100D300083E10E94670FE9EBF0E080818E7F808382
:100D400080818D7F808388E48093B80085E48093E0
:100D5000BC000895413208F043C09091FE03911108
:100D6000FCCF91E09093FE032093FC032FEF2093A0
:100D700091031092D603240F2093D5039093FD0383
:100D80009091FD03880F892B8093FD038091FB03D5
:100D9000813061F41092FB038091FD038093BB00CE
:100DA0008091BC0083FDF8CF85EC01C085EE809377
:100DB000BC008091FE038130E1F38091D60384175B
:100DC00010F44091D60327ED33E0FB01D9018A2FBF
:100DD000821B841718F48D918193F9CF842F089585
:100DE00080E008950F93413208F04AC09091FE03CD
:100DF0009111FCCF92E09093FE030093FC039FEFD0
:100E0000909391031092D6034093D503FB0167EDB5
:100E100073E0DB019A2F961B941718F491919D9320
:100E2000F9CF1092FD039091FD03880F892B8093D9
:100E3000FD038091FB03813061F41092FB038091EC
:100E4000FD038093BB008091BC0083FDF8CF85EC4F
:100E500001C085EE8093BC00222321F08091FE0327
:100E60008230E1F3809191038F3F61F08091910393
:100E7000803251F080919103803341F483E007C0C8
:100E800081E005C080E003C082E001C084E00F91F2
:100E90000895613298F42091FE03243089F4609320
:100EA000B303FC0185EB93E0DC012A2F281B2617F6
:100EB00018F421912D93F9CF80E0089581E00895F1
:100EC00082E0089585ED8093BC008091BC0084FD94
:100ED000FCCF1092FE03089585EC8093BC00109225
:100EE000FE0308951F920F920FB60F9211242F93B5
:100EF0003F934F935F936F937F938F939F93AF93A2
:100F0000BF93EF93FF938091B900887F803609F4F7
:100F10009EC078F5883209F45DC090F4803109F400
:100F200056C038F4882309F4F5C0883009F44FC05E
:100F3000F5C0883109F44EC0803209F45FC0EEC0BC
:100F4000803409F46AC058F4803309F457C08833F8
:100F500009F0E4C0809391030E946C07DFC08035E4
:100F600009F44FC0883509F45DC0883409F0D6C053
:100F7000D3C0883909F4C4C0A8F4883709F467C01D
:100F800038F4883609F463C0803709F460C0C6C0FD
:100F9000883809F4B5C0803909F45FC0803809F099
:100FA000BDC05BC0803B09F483C038F4803A09F4CB
:100FB00066C0883A09F47CC0B1C0803C09F4A4C082
:100FC000883C09F4A1C0883B09F487C0A7C0809180
:100FD000FD0310C09091D6038091D503981770F54A
:100FE000E091D60381E08E0F8093D603F0E0E952C2
:100FF000FC4F80818093BB0085EC83C0809391037C
:101000008BC0E091D60381E08E0F8093D603809150
:10101000BB00F0E0E952FC4F80839091D6038091B1
:10102000D5036BC0E091D60381E08E0F8093D60389
:101030008091BB00F0E0E952FC4F80838091FC037B
:1010400081116AC081E08093FB0384EA5EC083E083
:101050008093FE0310929203CFCF8091920380324F
:1010600008F04EC0E091920381E08E0F80939203CE
:101070008091BB00F0E0ED56FC4F8083BDCF0E9415
:101080006C0780919203803230F4E0919203F0E09B
:10109000ED56FC4F10826091920370E0E091F703EF
:1010A000F091F80383E993E009951092920336C01A
:1010B00084E08093FE031092B4031092B303E09196
:1010C000F903F091FA0309958091B303811105C0EA
:1010D00081E08093B3031092B503E091B40381E003
:1010E0008E0F8093B403F0E0EB54FC4F808180932B
:1010F000BB009091B4038091B303981708F47CCFA0
:1011000085E88093BC000AC085EC8093BC001092F7
:10111000FE0304C0109291030E946207FF91EF91B9
:10112000BF91AF919F918F917F916F915F914F91FF
:101130003F912F910F900FBE0F901F901895DC01DB
:10114000ED91FC910190F081E02D09941F93CF93D4
:10115000DF9300D000D0CDB7DEB7162F69E270E084
:101160008FE393E029833A834B835C830E940906D3
:101170001068612F70E08FE393E00E949F08E09178
:101180003F03F091400329813A814B815C81CA0180
:10119000B9017727882799270190F081E02D8FE307
:1011A00093E009958FE393E00F900F900F900F90CD
:1011B000DF91CF911F910C948506CF93DF93EC01C3
:1011C00021E030E040E050E060E00E94A60863E0EB
:1011D00070E080E090E00E94A20E23E030E040E06A
:1011E00050E060E0CE01DF91CF910C94A608FC01A5
:1011F000108274836383528341830895CF93C62FF3
:1012000069E270E08FE393E00E940906C0686C2FEA
:1012100070E08FE393E00E949F088FE393E00E94C9
:10122000850641E050E069E270E08FE393E00E94C0
:1012300082068FE393E00E946605CF910895CF93D5
:10124000DF93EC018FE393E00E94F50562E1CE01AC
:101250000E94FE08843411F0803189F481E0888393
:101260006B817C81CE010E94430969817A81CE0124
:101270000E945D09CE010E94DD0881E001C080E08E
:10128000DF91CF9108950F931F93CF93DF93EC01DC
:101290008B018881811103C0CE010E941F09980132
:1012A00040E050E061E0CE010E94A6081C830B8361
:1012B000DF91CF911F910F9108950F931F93CF93BB
:1012C000DF93EC018B018881811103C0CE010E9464
:1012D0001F09980140E050E06FE0CE010E94A6088F
:1012E0001A830983DF91CF911F910F910895FC011B
:1012F00083E090E090878783138612861486089592
:10130000EF92FF921F93CF93DF931F92CDB7DEB77B
:101310007C01162FFC0161858FE393E049830E94D5
:10132000FF05612F8FE393E00E94B6054981642F8A
:101330008FE393E00E94B6058FE393E00E94850659
:10134000F70186830F90DF91CF911F91FF90EF906F
:101350000895CF93DF93EC018F819885029729F44C
:1013600040E069E3CE010E94800940E063E2CE01E3
:101370000E9480094FE660E2CE01DF91CF910C948C
:1013800080099F92AF92BF92CF92DF92EF92FF922D
:101390000F931F93CF93DF93EC0169858FE393E065
:1013A0000E94FF05E0913F03F09140030190F0811E
:1013B000E02D68EA8FE393E009958FE393E00E94C4
:1013C000850646E069858FE393E00E947F060E94D0
:1013D000730E7B018FE393E00E945E05069784F411
:1013E0008A859B85892BB1F30E94730E6E197F0944
:1013F0008A859B858617970768F781E08C872CC0C4
:101400008FE393E00E946605A82E8FE393E00E948D
:101410006605982E8FE393E00E946605E82E8FE321
:1014200093E00E946605B82E8FE393E00E94660564
:10143000F82E8FE393E00E946605D92CC12CCA28B0
:10144000D982C8821B2D00E00E291B830A83982FA6
:1014500088278F299D838C83DF91CF911F910F91D6
:10146000FF90EF90DF90CF90BF90AF909F90089546
:101470001F93CF93DF931F92CDB7DEB7162F8FE365
:1014800093E049830E94FF054981642F8FE393E035
:101490000E94B6058FE393E00E948506811114C077
:1014A00041E0612F8FE393E00E947F068FE393E09A
:1014B0000E945E05892B41F08FE393E00F90DF914E
:1014C000CF911F910C9466058FEF9FEF0F90DF91E6
:1014D000CF911F910895EF92FF920F931F93CF9397
:1014E000DF937C01EB018A016330710521F042300A
:1014F000510509F051C0CE010197039758F5011528
:10150000110581F04FE050E06BE6C7010E94380AF8
:101510008F3F2FEF920719F001E010E013C0013068
:10152000110551F04FE050E06AE6C7010E94380A09
:101530008F3FEFEF9E0721F4C330D10569F027C03C
:1015400000E010E0C330D10529F4873D9105F1F5A5
:10155000C2E0D0E02097D9F40115110561F04FE009
:1015600050E069E6C7010E94380A833D910589F180
:101570000130110549F04FE050E068E6C7010E94D4
:10158000380A833D910541F1C330D10519F002308D
:10159000110511F480E025C0F701D087C78320979B
:1015A00059F0D7FD11C023977CF40130110511F4D7
:1015B0008BE608C08AE606C00130110511F489E601
:1015C00001C088E6F701818781E00BC0C1E0D0E06F
:1015D000C1CF01E010E002C000E010E0C0E0D0E0C8
:1015E000D6CFDF91CF911F910F91FF90EF9008958B
:1015F0008FEF8093FF03109201041092000408956E
:10160000CF93DF93DC0170E0FB01E458FF4FE491DE
:101610001496EC931497842F90E0FC01E458FF4F4C
:10162000E4911596EC93159760577F4FFB01C49199
:10163000D0E0CC0FDD1FC255DF4FFE014591549124
:1016400017965C934E931697FC01E057FF4F8491D9
:1016500090E0880F991F8C559F4FFC014591549144
:1016600019965C934E931897FB016491E62FF0E076
:10167000EE0FFF1FE854FF4F859194911B969C93AA
:101680008E931A972F5F3F4F49E3429FC001439FBC
:10169000900D11248E38FFE69F0710F08DE89FE62D
:1016A0001D969C938E931C97DF91CF9108951F9266
:1016B0000F920FB60F9211242F933F934F935F9386
:1016C0006F937F938F939F93AF93BF93EF93FF930A
:1016D000E0910604F09107040995FF91EF91BF9105
:1016E000AF919F918F917F916F915F914F913F91BA
:1016F0002F910F900FBE0F901F9018952F923F9231
:101700004F925F926F927F928F929F92AF92BF9211
:10171000CF92DF92EF92FF920F931F93CF93DF93BD
:1017200000D000D0CDB7DEB71C012A013B01480133
:10173000590120E030E0A901C301B2010E9459140F
:1017400087FD78C020E030E0A901C501B4010E9406
:10175000591487FD6FC020E030E0A901C701B60130
:101760000E94591487FD66C0F10140825182628255
:10177000738284829582A682B782C086D186E286F1
:10178000F38664A575A586A597A50E94F61420E0AA
:1017900030E04AE754E40E945D1469837A838B83C6
:1017A0009C83F10144865586668677869B01AC0151
:1017B000C501B4010E94AC154B015C01F101608BC5
:1017C000718B828B938B29813A814B815C81C7011C
:1017D000B6010E945D146B017C01F101648B758B75
:1017E000868B978B808D918D019721F5A3019201B6
:1017F00060E070E0CB010E94F413F101648775870B
:1018000086879787A501940160E070E0CB010E9474
:10181000F413F101608B718B828B938BA70196017E
:1018200060E070E0CB010E94F413F101648B758BD2
:10183000868B978B0F900F900F900F90DF91CF9129
:101840001F910F91FF90EF90DF90CF90BF90AF90DE
:101850009F908F907F906F905F904F903F902F90D0
:1018600008958F929F92AF92BF92CF92DF92EF92A4
:10187000FF92CF93DF93EC0116161706ACF56B01C0
:10188000EE24D7FCE094FE2CC701B6010E94F814A8
:101890004B015C016CA57DA58EA59FA50E94F61449
:1018A0009B01AC01C501B4010E945D144B015C01B8
:1018B0009B01AC01688979898A899B890E94AC1552
:1018C000688B798B8A8B9B8BA50194016C897D89B0
:1018D0008E899F890E945D146C8B7D8B8E8B9F8B74
:1018E000CCA6DDA6EEA6FFA6DF91CF91FF90EF90EC
:1018F000DF90CF90BF90AF909F908F9008952F92E0
:101900003F924F925F926F927F928F929F92AF928F
:10191000BF92CF92DF92EF92FF920F931F93CF93DC
:10192000DF93EC016A017B0148015901A90198018B
:10193000C701B6010E94A81587FF4EC0C8AAD9AA40
:10194000EAAAFBAA8CAA9DAAAEAABFAA88AD882340
:1019500009F442C02C8C3D8CF101408051806280A2
:101960007380A5019401C301B2010E94A815181645
:1019700034F4F10180829182A282B3820DC0A7016A
:101980009601C301B2010E94591487FF05C0F101FD
:10199000C082D182E282F3828CA09DA0AEA0BFA0C3
:1019A000CCA8DDA8EEA8FFA8A7019601C501B40147
:1019B0000E94A815181664F0C8A8D9A8EAA8FBA820
:1019C000A7019601C501B4010E94591487FF04C004
:1019D000CCA2DDA2EEA2FFA2DF91CF911F910F91C9
:1019E000FF90EF90DF90CF90BF90AF909F908F903F
:1019F0007F906F905F904F903F902F9008950F933E
:101A00001F93CF93DF93EC018B0188AD882361F1A5
:101A1000888D998D6817790739F12C853D854E851C
:101A20005F8560E070E0CB010E94F4136C877D87D6
:101A30008E879F87288939894A895B8960E070E0B1
:101A4000CB010E94F413688B798B8A8B9B8B2C893A
:101A50003D894E895F8960E070E0CB010E94F413FC
:101A60006C8B7D8B8E8B9F8B198F088FDF91CF9125
:101A70001F910F9108954F925F926F927F928F9274
:101A80009F92AF92BF92CF92DF92EF92FF920F930D
:101A90001F93CF93DF9300D000D0CDB7DEB74C01BA
:101AA00027013801A982BA82CB82DC82FC01558FE2
:101AB000448F738F628F378F268F10AE10AA11AAB2
:101AC00012AA13AA80E090E0AFE7B3E484AB95AB31
:101AD000A6ABB7AB84E690E0A0E0B0E084A795A702
:101AE000A6A7B7A76B8D7C8DC4010E94FF0CCF8881
:101AF000D88CE98CFA8C09811A812B813C81B30145
:101B0000A201C4010E947E0B0E94730EF40144A442
:101B100055A466A477A4641975098609970960A37A
:101B200071A382A393A30F900F900F900F90DF915A
:101B3000CF911F910F91FF90EF90DF90CF90BF90CA
:101B4000AF909F908F907F906F905F904F9008958F
:101B500008958230E8F4E82FF0E0EE0FFF1FEC5E0E
:101B6000FE4F71836083813041F0809169008C7FEA
:101B7000842B80936900E89A089580916900440F4E
:101B8000551F440F551F837F842B80936900E99A6A
:101B90000895823078F4813011F0E89801C0E99816
:101BA000E82FF0E0EE0FFF1FEC5EFE4F88EA9DE0AD
:101BB0009183808308951F920F920FB60F92112484
:101BC0002F933F934F935F936F937F938F939F9345
:101BD000AF93BF93EF93FF93E0911401F091150140
:101BE0000995FF91EF91BF91AF919F918F917F9157
:101BF0006F915F914F913F912F910F900FBE0F907A
:101C00001F9018951F920F920FB60F9211242F93C9
:101C10003F934F935F936F937F938F939F93AF9374
:101C2000BF93EF93FF93E0911601F091170109958F
:101C3000FF91EF91BF91AF919F918F917F916F91A4
:101C40005F914F913F912F910F900FBE0F901F907A
:101C500018951F920F920FB60F9211242F933F9356
:101C60008F939F93AF93BF938091090490910A043F
:101C7000A0910B04B0910C043091080423E0230FD1
:101C80002D3720F40196A11DB11D05C026E8230FB4
:101C90000296A11DB11D209308048093090490931E
:101CA0000A04A0930B04B0930C0480910D0490914E
:101CB0000E04A0910F04B09110040196A11DB11D56
:101CC00080930D0490930E04A0930F04B09310041E
:101CD000BF91AF919F918F913F912F910F900FBE28
:101CE0000F901F9018952FB7F89460910904709188
:101CF0000A0480910B0490910C042FBF08953FB704
:101D0000F89480910D0490910E04A0910F04B0916D
:101D1000100426B5A89B05C02F3F19F00196A11D00
:101D2000B11D3FBF6627782F892F9A2F620F711D33
:101D3000811D911D42E0660F771F881F991F4A95EC
:101D4000D1F70895CF92DF92EF92FF92CF93DF9376
:101D50006B017C010E947F0EEB01C114D104E104F0
:101D6000F10489F00E94F3130E947F0E6C1B7D0B1F
:101D7000683E734090F381E0C81AD108E108F10889
:101D8000C851DC4FEACFDF91CF91FF90EF90DF9009
:101D9000CF900895789484B5826084BD84B58160C5
:101DA00084BD85B5826085BD85B5816085BDEEE663
:101DB000F0E0808181608083E1E8F0E01082808142
:101DC00082608083808181608083E0E8F0E08081B0
:101DD00081608083E1EBF0E0808184608083E0EBD0
:101DE000F0E0808181608083EAE7F0E080818460B8
:101DF0008083808182608083808181608083808114
:101E0000806880831092C1000895833081F028F4A7
:101E1000813099F08230A1F008958730A9F08830A0
:101E2000B9F08430D1F4809180008F7D03C080911F
:101E300080008F7780938000089584B58F7702C0EB
:101E400084B58F7D84BD08958091B0008F7703C0E5
:101E50008091B0008F7D8093B0000895CF93DF9381
:101E600090E0FC01E458FF4F2491FC01E057FF4F44
:101E70008491882349F190E0880F991FFC01E85470
:101E8000FF4FA591B49182559F4FFC01C591D4910C
:101E90009FB7611108C0F8948C91209582238C9390
:101EA000888182230AC0623051F4F8948C91322FD9
:101EB000309583238C938881822B888304C0F89487
:101EC0008C91822B8C939FBFDF91CF9108950F93BC
:101ED0001F93CF93DF931F92CDB7DEB7282F30E04B
:101EE000F901E859FF4F8491F901E458FF4F14912B
:101EF000F901E057FF4F04910023C9F0882321F036
:101F000069830E94050F6981E02FF0E0EE0FFF1F4B
:101F1000E255FF4FA591B4919FB7F8948C91611150
:101F200003C01095812301C0812B8C939FBF0F901C
:101F3000DF91CF911F910F910895FC01818D228D2A
:101F400090E0805C9F4F821B91098F7399270895C1
:101F5000FC01918D828D981731F0828DE80FF11D73
:101F6000858D90E008958FEF9FEF0895FC01918D8E
:101F7000828D981761F0828DDF01A80FB11D5D96EB
:101F80008C91928D9F5F9F73928F90E008958FEF59
:101F90009FEF08958AE391E1892B49F080E090E07A
:101FA000892B29F00E943A1181110C9400000895A8
:101FB000FC01848DDF01A80FB11DA35ABF4F2C91E6
:101FC000848D90E001968F739927848FA689B789B5
:101FD0002C93A089B1898C9180648C93938D848D8E
:101FE000981306C00288F389E02D80818F7D80835D
:101FF0000895CF93DF93EC01888D8823C9F0EA8997
:10200000FB89808185FD05C0A889B9898C9186FDF1
:102010000FC00FB607FCF5CF808185FFF2CFA889EE
:10202000B9898C9185FFEDCFCE010E94D80FE7CF03
:10203000DF91CF910895CF92DF92FF920F931F937C
:10204000CF93DF931F92CDB7DEB76C0181E0D6014D
:1020500058968C9358975B969C915B975C968C9165
:102060005C97981307C05096ED91FC915197808131
:1020700085FD2EC0F601038D10E00F5F1F4F0F731B
:102080001127F02EF601848DF81211C00FB607FC4F
:10209000F9CFD6015096ED91FC915197808185FF43
:1020A000F1CFC60169830E94D80F6981EBCF838D80
:1020B000E80FF11DE35AFF4F6083D6015B960C9346
:1020C0005B975296ED91FC915397808180620CC092
:1020D000D6015696ED91FC91579760835096ED91FD
:1020E000FC91519780818064808381E090E00F9023
:1020F000DF91CF911F910F91FF90DF90CF900895C6
:10210000BF92CF92DF92EF92FF92CF93DF93EC01D9
:102110006A017B01B22EE889F98982E0808341154A
:1021200081EE580761057105A1F060E079E08DE36B
:1021300090E0A70196010E942F1621503109410914
:1021400051095695479537952795211580E1380710
:1021500098F0E889F989108260E874E88EE190E0EF
:10216000A70196010E942F162150310941095109FA
:102170005695479537952795EC85FD853083EE85F7
:10218000FF852083188EEC89FD89B082EA89FB895E
:10219000808180618083EA89FB8980818860808377
:1021A000EA89FB89808180688083EA89FB89808154
:1021B0008F7D8083DF91CF91FF90EF90DF90CF9064
:1021C000BF9008951F920F920FB60F9211242F9374
:1021D0008F939F93EF93FF93E0912104F09122045A
:1021E0008081E0912704F091280482FD12C0908143
:1021F00080912A048F5F8F7320912B04821751F0F6
:10220000E0912A04F0E0EF5EFB4F958F80932A0463
:1022100001C08081FF91EF919F918F912F910F903D
:102220000FBE0F901F9018951F920F920FB60F922E
:1022300011242F933F934F935F936F937F938F93CB
:102240009F93AF93BF93EF93FF9381E194E00E943C
:10225000D80FFF91EF91BF91AF919F918F917F9197
:102260006F915F914F913F912F910F900FBE0F9003
:102270001F90189581E194E00E949D0F21E0892B29
:1022800009F420E0822F0895109214041092130490
:1022900088EE93E0A0E0B0E08093150490931604DC
:1022A000A0931704B093180487E792E09093120468
:1022B0008093110485EC90E090931E0480931D049C
:1022C00084EC90E09093200480931F0480EC90E0D5
:1022D000909322048093210481EC90E09093240455
:1022E0008093230482EC90E090932604809325044D
:1022F00086EC90E0909328048093270410922A049F
:1023000010922B0410922C0410922D040895CF9259
:10231000DF92EF92FF920F931F93CF93DF937C0195
:102320006A01EB0100E010E00C151D0571F06991E8
:10233000D701ED91FC910190F081E02DC701099545
:10234000892B19F00F5F1F4FEFCFC801DF91CF919D
:102350001F910F91FF90EF90DF90CF90089561153E
:10236000710581F0DB010D900020E9F7AD014150CE
:102370005109461B570BDC01ED91FC910280F38162
:10238000E02D099480E090E008950C94AF11DC01F9
:10239000ED91FC910190F081E02D099463E872E0E9
:1023A0000C94AF110F931F93CF93DF93EC010E9416
:1023B000AF118C01CE010E94CE11800F911FDF91D1
:1023C000CF911F910F9108958F929F92AF92BF92DC
:1023D000CF92DF92EF92FF920F931F93CF93DF93F1
:1023E000CDB7DEB7A1970FB6F894DEBF0FBECDBF55
:1023F0007C01C42EE52FCB01D22E19A221E02D1590
:1024000010F02AE0D22E8E010F5D1F4F8D2C912CE3
:10241000A12CB12C6C2D7E2FA50194010E942F16AA
:102420008C2DD29E80191124015011098A3014F488
:10243000805D01C0895CF80180832115310541056B
:10244000510521F0C22EE32FCA01E4CFB801C70124
:102450000E94AF11A1960FB6F894DEBF0FBECDBF9C
:10246000DF91CF911F910F91FF90EF90DF90CF9070
:10247000BF90AF909F908F900895CF92DF92EF9290
:10248000FF920F931F93CF93DF93EC016A017B01BF
:102490002115310579F4E881F9810190F081E02D71
:1024A000642FDF91CF911F910F91FF90EF90DF90FC
:1024B000CF9009942A303105E9F477FF1AC06DE214
:1024C0000E94C7118C0144275527BA014C195D0998
:1024D0006E097F092AE0CE010E94E411800F911F4E
:1024E000DF91CF911F910F91FF90EF90DF90CF90F0
:1024F00008952AE0B701A601CE01DF91CF911F9187
:102500000F91FF90EF90DF90CF900C94E4110F9318
:102510001F93CF93DF93EC019A01AB01662757FD20
:102520006095762F0E943D128C01CE010E94CE1143
:10253000800F911FDF91CF911F910F9108954F92BE
:102540005F926F927F928F929F92AF92BF92CF9243
:10255000DF92EF92FF920F931F93CF93DF93EC01E3
:102560006A017B01B22E9A01AB01C701B6010E943C
:102570000F16882319F066E872E027C0260137019C
:10258000E89477F82FEF3FEF4FE75FE7C301B20121
:102590000E940F1681110DC02FEF3FEF4FE75FE74D
:1025A000C301B2010E94591418161CF46AE872E0C3
:1025B0000CC02FEF3FEF4FE75FE4C701B6010E9469
:1025C000A8151816ACF46EE872E0CE01DF91CF9139
:1025D0001F910F91FF90EF90DF90CF90BF90AF9041
:1025E0009F908F907F906F905F904F900C94AF1161
:1025F0002FEF3FEF4FE75FECC701B6010E94591480
:1026000087FDE1CF20E030E0A901C701B6010E94BB
:10261000591487FF0AC06DE2CE010E94C7118C01D8
:10262000F7FAF094F7F8F09402C000E010E0A12C63
:1026300060E070E080E09FE3AB1441F020E030E028
:1026400040E251E40E945D14A394F6CF9B01AC01DB
:10265000C701B6010E94F5136B017C010E94CA14E8
:102660002B013C010E94F6149B01AC01C701B6018D
:102670000E94F4136B017C012AE0B301A201CE0198
:102680000E94E411080F191FBB2039F061E271E0CC
:10269000CE010E94AF11080F191F7B2C772041F14A
:1026A00020E030E040E251E4C701B6010E94AC15E1
:1026B0006B017C010E94C5144B01AA2497FCA094D5
:1026C000BA2C2AE030E0B501A401CE010E943D12EF
:1026D000080F191FC501B4010E94F8149B01AC0139
:1026E000C701B6010E94F4136B017C017A94D6CF26
:1026F000C801DF91CF911F910F91FF90EF90DF9074
:10270000CF90BF90AF909F908F907F906F905F9091
:102710004F9008950F931F93CF93DF93EC010E9486
:102720009F128C01CE010E94CE11800F911FDF916C
:10273000CF911F910F9108954F925F926F927F9268
:10274000AF92BF92CF92DF92EF92FF920F931F93BF
:10275000CF93DF93CDB7DEB729013A01621B730B2C
:10276000840B950B29893A894B895C892A193B0985
:102770004C095D09298B3A8B4B8B5C8B9B01AC011F
:1027800069897A898B899C890E941316E418F50857
:1027900006091709A80197010E9451162A0D3B1D31
:1027A0004C1D5D1DCA01B901DF91CF911F910F91A1
:1027B000FF90EF90DF90CF90BF90AF907F906F90A1
:1027C0005F904F90089508950E94CA0E0E94E313EF
:1027D0000E94B002CAECDFE00E9446022097E1F3BB
:1027E0000E94CA0FF9CF08955058BB27AA270ED0D0
:1027F00075C166D130F06BD120F031F49F3F11F4F8
:102800001EF45BC10EF4E095E7FB51C1E92F77D1CF
:1028100080F3BA17620773078407950718F071F4FD
:102820009EF58FC10EF4E0950B2EBA2FA02D0B0153
:10283000B90190010C01CA01A0011124FF27591B05
:1028400099F0593F50F4503E68F11A16F040A22F0B
:10285000232F342F4427585FF3CF4695379527957C
:10286000A795F0405395C9F77EF41F16BA0B620B7B
:10287000730B840BBAF09150A1F0FF0FBB1F661FC2
:10288000771F881FC2F70EC0BA0F621F731F841F05
:1028900048F4879577956795B795F7959E3F08F02B
:1028A000B3CF9395880F08F09927EE0F97958795EA
:1028B0000895D9D008F481E008950CD00FC107D154
:1028C00040F0FED030F021F45F3F19F0F0C051111C
:1028D00039C1F3C014D198F39923C9F35523B1F347
:1028E000951B550BBB27AA2762177307840738F07F
:1028F0009F5F5F4F220F331F441FAA1FA9F333D0DE
:102900000E2E3AF0E0E830D091505040E695001C91
:10291000CAF729D0FE2F27D0660F771F881FBB1F4D
:10292000261737074807AB07B0E809F0BB0B802D27
:10293000BF01FF2793585F4F2AF09E3F510568F073
:10294000B6C000C15F3FECF3983EDCF38695779507
:102950006795B795F7959F5FC9F7880F911D969575
:10296000879597F90895E1E0660F771F881FBB1FD1
:10297000621773078407BA0720F0621B730B840B7E
:10298000BA0BEE1F88F7E095089504D06894B11152
:10299000D9C00895BCD088F09F5790F0B92F9927DF
:1029A000B751A0F0D1F0660F771F881F991F1AF05A
:1029B000BA95C9F712C0B13081F0C3D0B1E0089523
:1029C000C0C0672F782F8827B85F39F0B93FCCF3A4
:1029D000869577956795B395D9F73EF49095809550
:1029E000709561957F4F8F4F9F4F0895E89409C070
:1029F00097FB3EF490958095709561957F4F8F4F32
:102A00009F4F9923A9F0F92F96E9BB279395F69547
:102A1000879577956795B795F111F8CFFAF4BB0FC5
:102A200011F460FF1BC06F5F7F4F8F4F9F4F16C029
:102A3000882311F096E911C0772321F09EE8872FB3
:102A4000762F05C0662371F096E8862F70E060E06F
:102A50002AF09A95660F771F881FDAF7880F9695E8
:102A6000879597F90895990F0008550FAA0BE0E88C
:102A7000FEEF16161706E807F907C0F01216130640
:102A8000E407F50798F0621B730B840B950B39F480
:102A90000A2661F0232B242B252B21F408950A26E6
:102AA00009F4A140A6958FEF811D811D089597F926
:102AB0009F6780E870E060E008959FEF80EC0895E4
:102AC00000240A941616170618060906089500240D
:102AD0000A9412161306140605060895092E039487
:102AE000000C11F4882352F0BB0F40F4BF2B11F4FB
:102AF00060FF04C06F5F7F4F8F4F9F4F089557FD5A
:102B00009058440F551F59F05F3F71F04795880F5B
:102B100097FB991F61F09F3F79F0879508951216F2
:102B200013061406551FF2CF4695F1DF08C016169E
:102B300017061806991FF1CF86957105610508944F
:102B40000895E894BB2766277727CB0197F9089566
:102B50008ADF08F48FEF08950BD0C0CFB1DF28F0E3
:102B6000B6DF18F0952309F0A2CFA7CF1124EACF42
:102B7000C6DFA0F3959FD1F3950F50E0551F629FDC
:102B8000F001729FBB27F00DB11D639FAA27F00DC6
:102B9000B11DAA1F649F6627B00DA11D661F829FED
:102BA0002227B00DA11D621F739FB00DA11D621FD2
:102BB000839FA00D611D221F749F3327A00D611DEF
:102BC000231F849F600D211D822F762F6A2F1124D1
:102BD0009F5750408AF0E1F088234AF0EE0FFF1F24
:102BE000BB1F661F771F881F91505040A9F79E3F5B
:102BF000510570F05CCFA6CF5F3FECF3983EDCF35D
:102C0000869577956795B795F795E7959F5FC1F797
:102C1000FE2B880F911D9695879597F9089523DFD0
:102C2000880B990B0895DB018F939F930E94701678
:102C3000BF91AF91A29F800D911DA39F900DB29F58
:102C4000900D11240895991B79E004C0991F9617DF
:102C500008F0961B881F7A95C9F780950895A1E220
:102C60001A2EAA1BBB1BFD010DC0AA1FBB1FEE1F06
:102C7000FF1FA217B307E407F50720F0A21BB30B51
:102C8000E40BF50B661F771F881F991F1A9469F7CD
:102C900060957095809590959B01AC01BD01CF0129
:102CA0000895052E97FB1EF400940E94681657FDA8
:102CB00007D00E942F1607FC03D04EF40C94681620
:102CC00050954095309521953F4F4F4F5F4F089558
:102CD00090958095709561957F4F8F4F9F4F089588
:102CE0000E948116A59F900DB49F900DA49F800D0A
:102CF000911D11240895EE0FFF1F0590F491E02D12
:102D00000994A29FB001B39FC001A39F700D811DC4
:102D10001124911DB29F700D811D1124911D0895E4
:042D2000F894FFCF55
:102D2400010000000000803F0000803F0000803F61
:102D340000008042A80DA80D52656164696E672E7B
:102D44002E2E00646F6E6500436F6C6F7220736586
:102D54006E736F722072656164696E67733A0052B4
:102D64003A0900473A0900423A0900436F6C6F720E
:102D74002073656E736F7220287363616C656420C1
:102D8400746F203820626974293A004875652028D8
:102D9400382D626974293A09004779726F204443D7
:102DA400204F66667365743A20004779726F204E2F
:102DB4006F697365204C6576656C3A20006779729B
:102DC4006F416E676C650050726573732067207481
:102DD4006F20636F6E74696E7565000A576169745C
:102DE400696E6720666F72205361626572746F6FDB
:102DF400746820746F20706F7765722075702E2E42
:102E04002E00496E697469616C697A696E67205332
:102E140061626572746F6F74682E2E2E000A53748B
:102E24006F7070696E67206D6F746F72732E2E2EC3
:102E340000417474616368696E6720736572766FAC
:102E4400732E2E2E005443533334373235204932F7
:102E54004320636F6C6F722073656E736F72002012
:102E64006E6F740020666F756E64004C3347443295
:102E7400304820493243206779726F2073656E733E
:102E84006F720000000000B60589055E05660579CD
:102E9400058805000000001B1087119D0FB60FA8C0
:102EA4000FF90F0D0A006E616E00696E66006F7691
:022EB4006600B6
:107E0000112484B714BE81FFF0D085E080938100F7
:107E100082E08093C00088E18093C10086E0809377
:107E2000C20080E18093C4008EE0C9D0259A86E02C
:107E300020E33CEF91E0309385002093840096BBD3
:107E4000B09BFECF1D9AA8958150A9F7CC24DD24C4
:107E500088248394B5E0AB2EA1E19A2EF3E0BF2EE7
:107E6000A2D0813461F49FD0082FAFD0023811F036
:107E7000013811F484E001C083E08DD089C08234E0
:107E800011F484E103C0853419F485E0A6D080C0E4
:107E9000853579F488D0E82EFF2485D0082F10E0AE
:107EA000102F00270E291F29000F111F8ED06801E7
:107EB0006FC0863521F484E090D080E0DECF843638
:107EC00009F040C070D06FD0082F6DD080E0C81688
:107ED00080E7D80618F4F601B7BEE895C0E0D1E017
:107EE00062D089930C17E1F7F0E0CF16F0E7DF06D8
:107EF00018F0F601B7BEE89568D007B600FCFDCFD4
:107F0000A601A0E0B1E02C9130E011968C91119780
:107F100090E0982F8827822B932B1296FA010C0160
:107F200087BEE89511244E5F5F4FF1E0A038BF0790
:107F300051F7F601A7BEE89507B600FCFDCF97BE46
:107F4000E89526C08437B1F42ED02DD0F82E2BD052
:107F50003CD0F601EF2C8F010F5F1F4F84911BD097
:107F6000EA94F801C1F70894C11CD11CFA94CF0C13
:107F7000D11C0EC0853739F428D08EE10CD085E9AC
:107F80000AD08FE07ACF813511F488E018D01DD067
:107F900080E101D065CF982F8091C00085FFFCCF94
:107FA0009093C60008958091C00087FFFCCF809118
:107FB000C00084FD01C0A8958091C6000895E0E648
:107FC000F0E098E1908380830895EDDF803219F02E
:107FD00088E0F5DFFFCF84E1DECF1F93182FE3DFCA
:107FE0001150E9F7F2DF1F91089580E0E8DFEE27F6
:047FF000FF270994CA
:027FFE00040479
:0400000300007E007B
:00000001FF
